:100000000C9492000C94010F0C9467100C94B100A6
:100010000C94B1000C94B1000C94B1000C94B1009C
:100020000C94B1000C94B1000C94913A0C94633B85
:100030000C94B1000C94B1000C94B1000C94B1007C
:100040000C94B1000C94B1000C94B1000C94B1006C
:100050000C94B1000C94B1000C94B1000C94B1005C
:100060000C94B1000C94B1000C94B1000C94B1004C
:100070000C94B1000C94B1000C94B1000C94B1003C
:100080000C9496100C94B1000C94B1000C94B10037
:100090000C94B1000C94B100120110010200000890
:1000A000EB03442001000102DC0109023E000201D1
:1000B00000C0320904000001020201000524001002
:1000C0000104240206052406000107058203080036
:1000D000FF09040100020A000000070504021000E5
:1000E00001070583021000010403090418034400FA
:1000F000650061006E002000430061006D00650036
:100100007200610000001C034C00550046004100D5
:1001100020004300440043002000440065006D00BF
:100120006F00000011241FBECFEFD0E2DEBFCDBFB5
:1001300014E0A0E0B1E0E6E5F1EA00E00BBF02C0A8
:1001400007900D92A43EB107D9F715E0A4EEB4E0F4
:1001500001C01D92A936B107E1F70E94DA140C9490
:10016000A9500C9400004F925F926F927F929F92E1
:10017000AF92BF92CF92DF92EF92FF920F931F93B5
:10018000DF93CF930F92CDB7DEB78091EC04882335
:1001900009F4DCC00E94C82660916705709168056B
:1001A0008AE090E00E94914D40E0E42E41E0F42E80
:1001B00034E0A32E31E0B32E00E911E023E1622EFA
:1001C00021E0722E92E2492E91E0592E00D000D00B
:1001D00000D0EDB7FEB73196809167059091680524
:1001E000ADB7BEB712969C938E931197F382E282BD
:1001F000B582A4820E94804DEDB7FEB736960FB649
:10020000F894FEBF0FBEEDBF0E944A258983898105
:1002100082FFFACF88E893E1F8013197F1F701976F
:10022000D9F700D000D000D0EDB7FEB7319680915D
:10023000670590916805ADB7BEB712969C938E93F3
:100240001197F382E282758264820E94804DEDB73D
:10025000FEB736960FB6F894FEBF0FBEEDBF0E94F4
:100260004A258983898182FFFACF88E893E1F801E2
:100270003197F1F70197D9F700D000D000D0EDB752
:10028000FEB731968091670590916805ADB7BEB70E
:1002900012969C938E931197F382E2825582448248
:1002A0000E94804DEDB7FEB736960FB6F894FEBFAC
:1002B0000FBEEDBF0E944A258983898182FFFACF54
:1002C00088E893E1F8013197F1F70197D9F784E1D4
:1002D000C82E83E0D82E9924D6012D913D916D0131
:1002E00000D000D000D0EDB7FEB731964091670541
:1002F00050916805ADB7BEB712965C934E931197B7
:10030000F382E282358324830E94804DEDB7FEB7ED
:1003100036960FB6F894FEBF0FBEEDBF0E944A2579
:100320008983898183FF03C0892D8F5F10C08981F4
:1003300082FFF4CF88E893E1F8013197F1F7019754
:10034000D9F79394F92DF83039F640CF80E00F902B
:10035000CF91DF911F910F91FF90EF90DF90CF90A1
:10036000BF90AF909F907F906F905F904F90089557
:100370008F929F92AF92BF92DF92EF92FF920F9374
:100380001F93CF93DF93D82EE92EF62E5A0100D07B
:1003900000D000D0EDB7FEB73196809167059091FF
:1003A0006805ADB7BEB712969C938E93119780E007
:1003B00091E093838283D482E5820E94804DEDB7E1
:1003C000FEB736960FB6F894FEBF0FBEEDBF88E8B5
:1003D00093E120E931E0F9013197F1F70197D9F77D
:1003E0000F2D10E0C8010E94594B882EE4014E01E8
:1003F000992EE4012097A1F098012E5F3F4F882DA0
:100400006D2D7E2DA9010E94654DF401E00FF11FB5
:100410008DE080838AE081838F2D8E5FD5018C9360
:10042000CE01DF91CF911F910F91FF90EF90DF9060
:10043000BF90AF909F908F9008959F92AF92BF9280
:10044000CF92DF92EF92FF920F931F93DF93CF93A0
:10045000CDB7DEB7C150D1400FB6F894DEBF0FBEA6
:10046000CDBF0E94C82660916705709168058AE03B
:1004700090E00E94914D609167057091680580E35E
:1004800091E00E94BD4D88E893E120E931E0F90157
:100490003197F1F70197D9F70E9448376F9A779A09
:1004A0007894609167057091680580E491E00E94FE
:1004B000BD4D63E0E62EF12CEC0EFD1E99249A94BE
:1004C0006E010894C11CD11C52E0A52EB12CAC0EBB
:1004D000BD1EF701892D11928A95E9F7C7016FEFCB
:1004E000A6010E94B5388823A1F7C7016981A5013B
:1004F0000E94B8018C01009761F36A810E942A3939
:10050000C8010E94F34BE5CF8F929F92AF92BF92AA
:10051000CF92DF92EF92FF920F931F93CF93DF93CF
:10052000E82EF62EA89540E050E00E94F4336C01CE
:10053000009729F500D000D000D0EDB7FEB7319676
:100540008091670590916805ADB7BEB712969C93F0
:100550008E93119780E091E0938382838AE491E007
:10056000958384830E94804D8DB79EB706960FB603
:10057000F8949EBF0FBE8DBFFF24F394CDC0A89505
:100580008E2D6F2DA6010E94F436EC01009729F5FF
:1005900000D000D000D0EDB7FEB73196809167054E
:1005A00090916805ADB7BEB712969C938E93119744
:1005B00080E091E0938382838AE491E09583848351
:1005C0000E94804D8DB79EB706960FB6F8949EBFD9
:1005D0000FBE8DBFFF24F3949CC0A89583E090E0EC
:1005E0000E94594B8C018E2D6F2DAE0198010E94F7
:1005F00051304C01009729F500D000D000D0EDB764
:10060000FEB731968091670590916805ADB7BEB78A
:1006100012969C938E93119780E091E0938382834E
:100620008AE491E0958384830E94804D8DB79EB7C4
:1006300006960FB6F8949EBF0FBE8DBFFF24F394AD
:100640005FC0A895ADB7BEB719970FB6F894BEBFF7
:100650000FBEADBFEDB7FEB7319684E011968C9317
:1006600085E090E09283818386E090E094838383A9
:1006700087E090E09683858388E090E09087878389
:100680000E94CB1A5C018DB79EB709960FB6F894FD
:100690009EBF0FBE8DBF8E2D6F2DA5010E946D29AF
:1006A000009729F500D000D000D0EDB7FEB7319605
:1006B0008091670590916805ADB7BEB712969C937F
:1006C0008E93119780E091E0938382838AE491E096
:1006D000958384830E94804D8DB79EB706960FB692
:1006E000F8949EBF0FBE8DBFFF24F39406C00E94F6
:1006F0005F1DC5010E94481BFF24C4010E94332FC7
:10070000CE010E941D350115110519F0C8010E9486
:10071000481BC6010E94D3310E947A24000024EFB6
:1007200031E040E951E0FA013197F1F721503040D2
:10073000D1F78F2DDF91CF911F910F91FF90EF9007
:10074000DF90CF90BF90AF909F908F9008952F92A1
:100750003F924F925F926F927F928F929F92AF9251
:10076000BF92CF92DF92EF92FF920F931F93DF938E
:10077000CF93CDB7DEB7EC970FB6F894DEBF0FBEC0
:10078000CDBF0E9448280E9472218823A1F428E04E
:1007900088E190E00FB6F894A895809360000FBEB2
:1007A0002093600088EE93E020E931E0F901319771
:1007B000F1F70197D9F78091EC04882309F4C1C2BD
:1007C0000E94C82660916705709168058AE090E0F4
:1007D0000E94914D00D000D000D0EDB7FEB7319609
:1007E0008091670590916805ADB7BEB712969C934E
:1007F0008E93119780E091E0938382838AE591E064
:10080000958384830E94804DEDB7FEB736960FB670
:10081000F894FEBF0FBEEDBF80E197E220E931E022
:10082000F9013197F1F70197D9F780E0BE016F5FC9
:100830007F4FAE014E5F5F4F9E012D5F3F4F8E0198
:100840000C5F1F4FE5E0EE2EF12CEC0EFD1E0E941A
:10085000C624882309F075C28A81882319F100D043
:1008600000D000D0EDB7FEB731968091670590912A
:100870006805ADB7BEB712969C938E93119780E032
:1008800091E0938382838BE691E0958384830E9439
:10089000804DEDB7FEB736960FB6F894FEBF0FBE8B
:1008A000EDBF4FC2A89589816B8140E050E00E9466
:1008B000F4339CAF8BAF009719F500D000D000D077
:1008C000EDB7FEB731968091670590916805ADB799
:1008D000BEB712969C938E93119780E091E093831C
:1008E00082838AE491E0958384830E94804DEDB7F2
:1008F000FEB736960FB6F894FEBF0FBEEDBF14C21A
:10090000A89589816B814BAD5CAD0E94F4365C018A
:10091000009719F500D000D000D0EDB7FEB73196A2
:100920008091670590916805ADB7BEB712969C930C
:100930008E93119780E091E0938382838AE491E023
:10094000958384830E94804DEDB7FEB736960FB62F
:10095000F894FEBF0FBEEDBFE3C1A89583E090E021
:100960000E94594B1C0189816B81A50191010E9454
:1009700051302C01009719F500D000D000D0EDB710
:10098000FEB731968091670590916805ADB7BEB707
:1009900012969C938E93119780E091E093838283CB
:1009A0008AE491E0958384830E94804DEDB7FEB781
:1009B00036960FB6F894FEBF0FBEEDBFA8C1A8953E
:1009C000D50111968C91119785FF32C0EDB7FEB716
:1009D00039970FB6F894FEBF0FBEEDBF319684E095
:1009E000ADB7BEB711968C9381E090E0928381837E
:1009F00082E090E09483838383E090E09683858314
:100A000084E090E0908787830E94CB1AAC01EDB719
:100A1000FEB739960FB6F894FEBF0FBEEDBF8981C1
:100A20006B810E946D297C01009761F0A89502C03E
:100A3000EE24FF2489816B8147E10E946C2A3C01EE
:100A4000009719F500D000D000D0EDB7FEB7319671
:100A50008091670590916805ADB7BEB712969C93DB
:100A60008E93119780E091E0938382838AE491E0F2
:100A7000958384830E94804DEDB7FEB736960FB6FE
:100A8000F894FEBF0FBEEDBF3FC1DC011196ED91A2
:100A9000FC911297408120916705309168054423AD
:100AA00099F400D000D000D0EDB7FEB73196ADB7C5
:100AB000BEB712963C932E93119780E091E09383FA
:100AC00082838BE791E072C0A89500D000D000D05F
:100AD000EDB7FEB73196ADB7BEB712963C932E93E5
:100AE00011978CE891E093838283448315820E945E
:100AF000804DEDB7FEB736960FB6F894FEBF0FBE29
:100B0000EDBF80E197E220E931E0F9013197F1F79B
:100B10000197D9F7A8958DB79EB741970FB6F8946E
:100B20009EBF0FBE8DBFEDB7FEB7319608E0ADB7E3
:100B3000BEB711960C9384E290E09283818382E1A8
:100B400090E09483838384E390E0968385838FEFA2
:100B500090E09087878392878187948783879687A1
:100B60008587908B87870E94CB1A4C01EDB7FEB723
:100B700071960FB6F894FEBF0FBEEDBF009719F542
:100B800000D000D000D0EDB7FEB731968091670558
:100B900090916805ADB7BEB712969C938E9311974E
:100BA00080E091E0938382838AE491E0958384835B
:100BB0000E94804DEDB7FEB736960FB6F894FEBF93
:100BC0000FBEEDBF9EC089816B81A4010E942F29B9
:100BD000209167053091680570E0C72E71E0D72E2F
:100BE000882399F500D000D000D0EDB7FEB731963C
:100BF000ADB7BEB712963C932E931197D382C282A3
:100C000088E991E0958384830E94804DA89585E5CD
:100C10008B8780E88C8B0A8B86E28B8B098F8A8F7F
:100C200081E08B8F8C8F8D8FEDB7FEB736960FB628
:100C3000F894FEBF0FBEEDBFC2016CE840E00E9419
:100C40009D2B8C01009799F511C000D000D000D0E9
:100C5000EDB7FEB73196ADB7BEB712963C932E9363
:100C60001197D382C2828FE991E014C000D000D0E6
:100C700000D0EDB7FEB73196809167059091680579
:100C8000ADB7BEB712969C938E931197D382C28252
:100C90008AE491E0958384830E94804DEDB7FEB78E
:100CA00036960FB6F894FEBF0FBEEDBF27C0E11415
:100CB000F10419F0C7010E945F1D89816B8140E832
:100CC00098018E010A5F1F4F0E948B2C0097A9F498
:100CD00000D000D000D0EDB7FEB731968091670507
:100CE00090916805ADB7BEB712969C938E931197FD
:100CF00080E091E093838283CBCFA895C4010E94CA
:100D0000481BC3010E94481BC2010E94332FC5012A
:100D10000E941D352114310419F0C1010E94481BA5
:100D20008BAD9CAD0E94D3310E947A2480E29EE478
:100D300020E931E0F9013197F1F70197D9F780E027
:100D400001C081E0EC960FB6F894DEBF0FBECDBFB8
:100D5000CF91DF911F910F91FF90EF90DF90CF9097
:100D6000BF90AF909F908F907F906F905F904F90CB
:100D70003F902F9008952F923F924F925F926F92E3
:100D80007F928F929F92AF92BF92CF92DF92EF921B
:100D9000FF920F931F93DF93CF93CDB7DEB72A97C0
:100DA0000FB6F894DEBF0FBECDBF0E94052828E223
:100DB00088E190E00FB6F894A895809360000FBE8C
:100DC0002093600080E060E0AE014F5F5F4F9E01C6
:100DD0002E5F3F4F8E010D5F1F4FE4E0EE2EF12C92
:100DE000EC0EFD1E75E0C72ED12CCC0EDD1E0E9430
:100DF000BE15882309F005C2E898809169008260D9
:100E000080936900809169008E7F80936900E09AE9
:100E1000E89AA8958091EC04882359F00E94C8268E
:100E200060916705709168058AE090E00E94914D9D
:100E300003C00E947A24E5C1A89580E060E00E948A
:100E4000761B8C01009709F4DCC1DC011196ED9151
:100E5000FC9112978081807FC1F58181823BA9F549
:100E600089816B81A8010E949A17882309F09EC18D
:100E7000F8016181728189810E94F4187C010097D8
:100E800009F494C1DC0113968D919C9114970097FD
:100E900069F06C910E94C82F6C01009789F00E9444
:100EA000BE2BB82EC6010E94332F01C0BB24F8010F
:100EB0006181728180E0A7010E94181A882309F1DC
:100EC000C8010E945B1BC70187C189816B81A80192
:100ED0000E949A17882309F069C1D80111964D9193
:100EE0005C91129780E069810E947A1D7C010097D5
:100EF00009F45CC1C8010E945B1BC7010E945F1D11
:100F00009BCFBB2009F498CF14BE88E10FB6F894AC
:100F100080936000109260000FBE60E0862E61E05A
:100F2000962E50E9C52E51E0D52E48E2642EA895A4
:100F300080E060E00E94761B7C01009709F461C1AB
:100F4000DC011196ED91FC9112978081807F8038B1
:100F500009F023C181818E3A09F01FC11396ED91EA
:100F6000FC911497309709F420C1BA94EB0DF11D50
:100F700000810F701181A12EA2943FE0A3221F7067
:100F80008281782E72942FE072229FE0592E58228F
:100F90008381282E2294BFE02B228F708887848142
:100FA000B82FB295BF70B9878F708A878581482E18
:100FB0004294AFE04A22FFE03F2E3822FF82EE82C9
:100FC000F02E00D000D000D0EDB7FEB73196809162
:100FD000670590916805ADB7BEB712969C938E9346
:100FE00011979382828284E091E0958384830E94AA
:100FF000804DADB7BEB716960FB6F894BEBF0FBE04
:10100000ADBF0E944A25082F88EE93E0F601319784
:10101000F1F70197D9F780E660E00E94212088234C
:1010200009F08DC002FFEDCF88EE93E0F601319715
:10103000F1F70197D9F7EDB7FEB77A970FB6F894A5
:10104000FEBF0FBEEDBF3196809167059091680598
:10105000ADB7BEB712969C938E93119787EA91E035
:1010600093838283F4821582A68217821087118669
:101070007286138654861586268617869885908BE9
:10108000118AA985A28B138ABA85B48B158A468AE0
:10109000178A308E118E0E94804DEDB7FEB77A967A
:1010A0000FB6F894FEBF0FBEEDBF0E944A25082F71
:1010B00088EE93E0F6013197F1F70197D9F780E6D2
:1010C00060E00E942120882309F039C002FFEDCFA3
:1010D00088EE93E0F6013197F1F70197D9F700D048
:1010E00000D000D0EDB7FEB73196809167059091A2
:1010F0006805ADB7BEB712969C938E9311979382F5
:1011000082828FEC91E0958384830E94804DADB7FD
:10111000BEB716960FB6F894BEBF0FBEADBF0E9405
:101120004A25082F88EE93E0F6013197F1F70197F1
:10113000D9F780E660E00E942120882319F00E8113
:101140001F8134C0802F90E0AC014170507000FDD1
:1011500005C002FD05C003FFE2CF02C041E050E040
:1011600028EE33E0F6013197F1F721503040D1F706
:1011700083FD47C04115510509F423CFEE80FF8060
:10118000E8E1F0E00FB6F894A895E09360000FBE98
:1011900060926000AA24A39401C0AA2489816B8173
:1011A000A7010E949A17882329F08701C8010E948D
:1011B0005B1B27C0D70111964D915C91129780E07F
:1011C00069810E947A1D8C01C7010E945B1B011579
:1011D000110529F480E090E00E945F1D12C0C80153
:1011E0000E945F1DAA2009F4A2CEA89580E0698123
:1011F00040E02B810E94731E009719F00E94581E38
:10120000F4CF81E02A960FB6F894DEBF0FBECDBFB3
:10121000CF91DF911F910F91FF90EF90DF90CF90D2
:10122000BF90AF909F908F907F906F905F904F9006
:101230003F902F900895CF92DF92EF92FF920F93FD
:101240001F93DF93CF9300D000D000D0CDB7DEB78F
:101250000E94052828E288E190E00FB6F894A8954E
:10126000809360000FBE2093600080E060E0AE01DC
:101270004F5F5F4F9E012E5F3F4F8E010D5F1F4FEF
:10128000B4E0EB2EF12CEC0EFD1EA5E0CA2ED12C05
:10129000CC0EDD1E0E94BE15882309F0BAC0E89866
:1012A00080916900826080936900809169008E7FDF
:1012B00080936900E09AE89AA8958091EC048823CD
:1012C00051F00E94C82660916705709168058AE018
:1012D00090E00E94914DF8E1FF2EA89580E0698191
:1012E00040E02B810E94731E8C01009709F491C08D
:1012F00014BE0FB6F894F0926000109260000FBE1A
:10130000FC01A081B1811196ED91FC911297808131
:10131000882309F07AC08181803209F076C0838108
:10132000803831F413968D919C9114970097C1F4F5
:101330008091EC04882341F0609167057091680505
:101340008FED91E00E94BD4D28E088E190E00FB65E
:10135000F894A895809360000FBE2093600059C058
:101360004481FC018081807F803219F48C91481780
:10137000C1F08091EC04882341F060916705709181
:1013800068058FED91E00E94BD4D28E088E190E076
:101390000FB6F894A895809360000FBE209360006C
:1013A00038C0F89488E090E0642F4E830E94275064
:1013B000D801ED91FC918381948169E070E04E81C8
:1013C00050E00E941D508091EC04882341F0609110
:1013D0006705709168058CEE91E00E94BD4D80E13B
:1013E00097E220E931E0F9013197F1F70197D9F758
:1013F00028E288E190E00FB6F894A8958093600009
:101400000FBE2093600080E005C0C8010E94581EF6
:1014100064CF81E026960FB6F894DEBF0FBECDBF35
:10142000CF91DF911F910F91FF90EF90DF90CF90C0
:1014300008955F926F927F928F929F92AF92BF9228
:10144000CF92DF92EF92FF920F931F93DF93CF9390
:1014500000D000D00F92CDB7DEB70E94052828E259
:1014600088E190E00FB6F894A895809360000FBED5
:10147000209360000FB7F89488E090E00E9403503A
:10148000B82E0FBF90E00E94594B4C01009709F411
:10149000F3C069E070E04B2D50E00E94F34FA89537
:1014A00080E060E0AE014F5F5F4F9E012E5F3F4FD7
:1014B0008E010D5F1F4F74E0E72EF12CEC0EFD1E28
:1014C00095E0C92ED12CCC0EDD1E0E94BE158823BE
:1014D00009F0D2C0E8988091690082608093690029
:1014E000809169008E7F80936900E09AE89AA895C0
:1014F0008091EC04882391F00E94C82660916705D2
:10150000709168058AE090E00E94914D88E1A82ED4
:1015100008E1602E712C18E2512E03C00E947A243B
:10152000ABC0A89580E060E00E94761B8C0100971C
:1015300009F4A2C014BE0FB6F894A09260001092F5
:1015400060000FBEDC011196ED91FC911297808135
:10155000882309F073C08181803209F06FC08381D4
:10156000803809F06BC013968D919C911497009769
:1015700009F464C085E090E00E94594B6C0185E05D
:1015800090E00E94594BFC01D60112969C938E93D9
:10159000119714969C928E921397BC92D801119633
:1015A0008D919C911297DC018C918083D8011196CA
:1015B0008D919C911297DC0111968C918183F6019B
:1015C00021813281F801A181B28112968C91D901D9
:1015D00012968C93F60121813281F801A181B281AA
:1015E00013968C91D90113968C93D6011196ED9197
:1015F000FC911297B48289816B81A6010E949A178F
:10160000882379F50FB6F894A895609260000FBE14
:1016100050926000F6014181528180E069810E9410
:101620007A1D7C01009729F4C8010E945B1BC6014A
:1016300019C0C8010E945B1BC60118C089816B815B
:10164000A8010E949A17882361F4D80111964D9140
:101650005C91129780E069810E947A1D7C0100975D
:1016600021F4C8010E945B1B07C0C8010E945B1BDC
:10167000C7010E945F1D55CF81E00F900F900F9022
:101680000F900F90CF91DF911F910F91FF90EF90EE
:10169000DF90CF90BF90AF909F908F907F906F9092
:1016A0005F9008952F923F924F925F926F927F9238
:1016B0008F929F92AF92BF92CF92DF92EF92FF9262
:1016C0000F931F93DF93CF93CDB7DEB72A970FB653
:1016D000F894DEBF0FBECDBF0E94052828E288E146
:1016E00090E00FB6F894A895809360000FBE209309
:1016F000600080E060E0AE014F5F5F4F9E012E5FB3
:101700003F4F8E010D5F1F4F74E0E72EF12CEC0E62
:10171000FD1E95E0C92ED12CCC0EDD1E0E94BE15FB
:10172000882309F058C2E89880916900826080930C
:101730006900809169008E7F80936900E09AE89A41
:10174000A8958091EC04882381F00E94C8266091BE
:101750006705709168058AE090E00E94914D809144
:10176000ED048F5F8093ED0403C00E947A2433C29E
:10177000A89580E060E00E94761B8C01009709F438
:101780002AC2DC011196ED91FC9112978081807F35
:10179000D9F58181823BC1F589816B81A8010E94C5
:1017A0009A17882309F0BFC1F8016181728189818C
:1017B0000E94F4187C01009709F4B5C1DC0113966E
:1017C0008D919C911497009769F06C910E94C82F9D
:1017D0006C01009789F00E94BE2BB82EC6010E94B2
:1017E000332F01C0BB24F8016181728180E0A70121
:1017F0000E94181A882329F0C8010E945B1BC701A8
:10180000A7C10E94102518C089816B81A8010E9480
:101810009A17882309F087C1D80111964D915C91E0
:10182000129780E069810E947A1D7C01009709F47B
:101830007AC10E941025BB24D090E904BD2DB2339B
:10184000B0F484E090E00E94594BFC01AD2DB0E073
:10185000AA0FBB1FA251BB4F1196FC93EE931183AD
:101860000083F382E282D394D092E90406C0C801D7
:101870000E945B1BC7010E945F1DBB2009F478CF4B
:1018800014BE88E10FB6F894809360001092600057
:101890000FBEA0E08A2EA1E09A2EF0E9EF2EF1E033
:1018A000FF2EE8E26E2EA89580E060E00E94761B95
:1018B0008C01009709F48FC1DC011196ED91FC9128
:1018C00012978081807F803809F025C181818E3A0E
:1018D00009F021C11396ED91FC911497309709F40A
:1018E00022C1BA94EB0DF11DD080BFE0DB228181D3
:1018F000C82EC2947FE0C7226FE0A62EA822828164
:10190000782E72945FE075224FE0542E5822838126
:10191000282E22943FE023228F7088878481982F7D
:1019200092959F7099878F708A878581482E4294FF
:101930002FE042229FE0392E38221F830E8300D0F1
:1019400000D000D0EDB7FEB7319680916705909139
:101950006805ADB7BEB712969C938E93119793828C
:10196000828284E091E0958384830E94804DADB7AC
:10197000BEB716960FB6F894BEBF0FBEADBF0E949D
:101980004A25082F88EE93E0F7013197F1F7019788
:10199000D9F780E660E00E942120882309F08DC0FD
:1019A00002FFEDCF88EE93E0F7013197F1F7019751
:1019B000D9F7EDB7FEB77A970FB6F894FEBF0FBE12
:1019C000EDBF31968091670590916805ADB7BEB7C0
:1019D00012969C938E93119787EA91E0938382836A
:1019E000D4821582C6821782A086118672861386DB
:1019F00054861586268617869885908B118AA98528
:101A0000A28B138ABA85B48B158A468A178A308EC0
:101A1000118E0E94804DEDB7FEB77A960FB6F894FE
:101A2000FEBF0FBEEDBF0E944A25082F88EE93E04F
:101A3000F7013197F1F70197D9F780E660E00E944E
:101A40002120882309F039C002FFEDCF88EE93E012
:101A5000F7013197F1F70197D9F700D000D000D006
:101A6000EDB7FEB731968091670590916805ADB7E7
:101A7000BEB712969C938E931197938282828FECBD
:101A800091E0958384830E94804DADB7BEB71696D2
:101A90000FB6F894BEBF0FBEADBF0E944A25082FF7
:101AA00088EE93E0F7013197F1F70197D9F780E6D7
:101AB00060E00E942120882319F00E811F8133C02D
:101AC000802F90E0AC014170507000FD05C002FD18
:101AD00005C003FFE2CF02C041E050E028EE33E052
:101AE000F7013197F1F721503040D1F783FD73C0F2
:101AF0004115510509F423CF0E811F81E8E1F0E083
:101B00000FB6F894A895E09360000FBE6092600055
:101B1000AA24A39401C0AA2489816B81A8010E94F0
:101B20009A17882321F0C8010E945B1B54C0D8017A
:101B300011964D915C91129780E069810E947A1D07
:101B40006C01009741F4C8010E945B1B80E090E0AB
:101B50000E945F1D40C07090E904B72DB233B0F40D
:101B600084E090E00E94594BFC01A72DB0E0AA0F41
:101B7000BB1FA251BB4F1196FC93EE9311830083C0
:101B8000D382C28273947092E90406C0C8010E9495
:101B90005B1BC6010E945F1DAA2009F484CEA89594
:101BA00080E0698140E02B810E94731E009799F0CC
:101BB0002091E904223360F4E22FF0E0EE0FFF1FE2
:101BC000E251FB4F918380832F5F2093E904E7CF9D
:101BD0000E94581EE4CF81E02A960FB6F894DEBF2B
:101BE0000FBECDBFCF91DF911F910F91FF90EF906E
:101BF000DF90CF90BF90AF909F908F907F906F902D
:101C00005F904F903F902F900895CF92DF92EF9288
:101C1000FF920F931F93DF93CF9300D000D00F92CA
:101C2000CDB7DEB70E94052828E288E190E00FB624
:101C3000F894A895809360000FBE2093600080E028
:101C400060E0AE014F5F5F4F9E012E5F3F4F8E0100
:101C50000D5F1F4F74E0E72EF12CEC0EFD1E95E09A
:101C6000C92ED12CCC0EDD1E0E94BE15882309F092
:101C700049C0E898809169008260809369008091F2
:101C800069008E7F80936900E09AE89A8091EC0465
:101C9000882351F00E94C8266091670570916805FD
:101CA0008AE090E00E94914D8091ED048F5F8093D7
:101CB000ED0408E11091E90480E0698140E02B81A6
:101CC0000E94731EE12FF0E0EE0FFF1FE251FB4F69
:101CD000918380831F5F1093E904E12FF0E0EE0F02
:101CE000FF1FE451FB4F80819181009759F012331F
:101CF00049F014BE0FB6F894009360001092600093
:101D00000FBED8CF81E00F900F900F900F900F90E3
:101D1000CF91DF911F910F91FF90EF90DF90CF90C7
:101D20000895F8941092690010926A008FEF8CBBAE
:101D30001DBA14BE88E10FB6F8948093600010922B
:101D400060000FBE14B817B888B990E89AB983E854
:101D50008BB980B3807F80BB81B38F6081BB80E013
:101D60000FB6F89490936100809361000FBE0E94BB
:101D700013258091690084608093690080916900D7
:101D8000877F80936900E99A80E090E00E94035089
:101D90008093EA0480E490E00E9403508093ED0475
:101DA0001092E9040E94EA26882339F0109268050F
:101DB000109267051092EC0409C084E892E09093B9
:101DC00068058093670581E08093EC043D98459811
:101DD00080E00E94692580916400816080936400A6
:101DE00080916400846080936400809164008068C6
:101DF0008093640080916500816080936500789491
:101E000008951F920F920FB60F920BB60F921124E6
:101E10004F925F926F927F928F929F92AF92BF92FA
:101E2000DF92EF92FF920F931F932F933F934F9365
:101E30005F936F937F938F939F93AF93BF93EF9332
:101E4000FF93DF93CF93CDB7DEB76697DEBFCDBFED
:101E50001982DE011296E1EAF2E085E001900D922E
:101E60008150E1F7DE011796ECE9F2E085E00190A0
:101E70000D928150E1F7DE011C96E7E9F2E085E082
:101E800001900D928150E1F7DE015196E2E9F2E016
:101E900085E001900D928150E1F714BE88E10FB604
:101EA000F89480936000109260000FBE80E490E090
:101EB0006091ED040E94275088E490E00E94035056
:101EC000082F89E490E00E940350302F20E0082F73
:101ED00010E0022B132B8FEF0F3F180711F400E8CF
:101EE00010E08091E904882309F49DC08FE0003E52
:101EF000180708F098C0CE010C96B80145E050E0F4
:101F00000E941D50C80105966091EB040E94275065
:101F10000A5F1F4FDD244E010894811C911C22E0B2
:101F2000622E712C6C0E7D1E97E0492E512C4C0EAA
:101F30005D1E5CC0AD2CBB24F501EE0FFF1FE2510E
:101F4000FB4F0190F081E02D80819181B4010E94CE
:101F500097187C010097C1F0C301B80145E050E03B
:101F60000E941D500B5F1F4F4981C701B80150E00F
:101F70000E941D50C7010E94F34B8981080F111D5B
:101F80008FE0013E1807B8F5F501EE0FFF1FE25193
:101F9000FB4F0190F081E02D82819381B4010E947A
:101FA000651A7C010097C1F0C201B80145E050E01C
:101FB0000E941D500B5F1F4F4981C701B80150E0BF
:101FC0000E941D50C7010E94F34B8981080F111D0B
:101FD0008FE0013E180778F4F501EE0FFF1FE25184
:101FE000FB4F808191810E94581ED3948091E90417
:101FF000D81608F49FCFCE014196B80145E050E0D5
:102000000E941D500B5F1F4F202F285F88E490E037
:10201000612F2E8B0E9427502E89622F687F89E4C2
:1020200090E00E9427500E94011F0097C1F080E0BD
:1020300090E00E9403508093EA048A3A41F480E0E1
:1020400090E060E00E942750F999FECF0FC080E039
:1020500090E06AEA0E942750F999FECF07C080E01D
:1020600090E060E00E942750F999FECFE89828E0C0
:1020700088E190E00FB6F894A895809360000FBEB9
:10208000209360006696DEBFCDBFCF91DF91FF91B8
:10209000EF91BF91AF919F918F917F916F915F91E0
:1020A0004F913F912F911F910F91FF90EF90DF90F3
:1020B000BF90AF909F908F907F906F905F904F9068
:1020C0000F900BBE0F900FBE0F901F9018951F9290
:1020D0000F920FB60F920BB60F9211242F933F93CE
:1020E0004F935F936F937F938F939F93AF93BF9320
:1020F000EF93FF93499B03C00E94102504C00E94E8
:102100001C250E947A24FF91EF91BF91AF919F917E
:102110008F917F916F915F914F913F912F910F9090
:102120000BBE0F900FBE0F901F90189518950E9430
:102130000A2584EF91E020E931E0F9013197F1F7C8
:102140000197D9F70E9416250E940D2584EF91E092
:1021500020E931E0F9013197F1F70197D9F70E94B1
:1021600019250E94102584EF91E020E931E0F90162
:102170003197F1F70197D9F70E941C250E9413258A
:1021800084EF91E020E931E0F9013197F1F701970F
:10219000D9F70E941F258091EC04882359F10E94F1
:1021A000C82660916705709168058AE090E00E94FA
:1021B000914D88EF91E068E00E944B267B99FECF1D
:1021C00081E092E068E00E944B267A99FECF8AE097
:1021D00092E068E00E944B267999FECF83E192E07D
:1021E00068E00E944B267899FECF8CE192E069E08E
:1021F0000E944B2608952F923F924F925F926F92CA
:102200007F928F929F92AF92BF92CF92DF92EF9286
:10221000FF920F931F93DF93CF93CDB7DEB727972E
:102220000FB6F894DEBF0FBECDBFE898809169006D
:10223000826080936900809169008E7F809369003D
:10224000E09AE89A80E060E0AE014F5F5F4F9E0148
:102250002E5F3F4F8E010D5F1F4FE4E0EE2EF12CFD
:10226000EC0EFD1E75E0C72ED12CCC0EDD1E0E949B
:10227000BE15882309F00DC18091EC04882379F004
:102280000E94C82660916705709168058AE090E019
:102290000E94914D40E9C42E41E0D42E03C00E941B
:1022A0007A24F7C080E060E00E94761B8C010097E2
:1022B00009F4EFC0DC011196ED91FC911297808139
:1022C000807F803809F0C3C081818E3A09F0BFC099
:1022D0001396ED91FC9114978081982E92943FE093
:1022E00093222FE0A22EA8228181B82EB2949FE0E3
:1022F000B922BFE0FB2EF8228281E82EE294AFE003
:10230000EA227FE0872E88228381782E72946FE004
:1023100076225FE0652E68228481B82FB295BF7067
:10232000BE838F708F838581582E52944FE0542244
:102330003FE0432E4822EDB7FEB77C970FB6F894E6
:10234000FEBF0FBEEDBF3196809167059091680585
:10235000ADB7BEB712969C938E93119786E292E02A
:102360009383828394821582A6821782B086118617
:10237000F2861386E486158686861786708A118A09
:10238000628A138A9E81948B158AAF81A68B178AE5
:10239000508E118E428E138E0E94804DEDB7FEB787
:1023A0007C960FB6F894FEBF0FBEEDBF88E893E1B0
:1023B000F6013197F1F70197D9F780E660E00E94C6
:1023C0002120882309F04AC0609167057091680553
:1023D00080E592E00E94BD4D88E893E1F6013197D7
:1023E000F1F70197D9F780E660E00E942120882369
:1023F000A9F560916705709168058CE592E00E94EF
:10240000BD4D88E893E1F6013197F1F70197D9F7CF
:102410000E943A25282E0E943E25382E80E660E054
:102420000E9421208823D1F4222021F0332009F0BA
:1024300082CF02C0332059F488E190E0A8E00FB6C3
:10244000F894A895809360000FBEA09360008981E6
:102450006B81A8010E949A17882321F0C8010E946D
:102460005B1B17C0F8014181528180E069810E94A5
:102470007A1D7C01C8010E945B1BE114F10429F460
:1024800080E090E00E945F1D04C0C7010E945F1DB4
:1024900009CF81E027960FB6F894DEBF0FBECDBFFF
:1024A000CF91DF911F910F91FF90EF90DF90CF9030
:1024B000BF90AF909F908F907F906F905F904F9064
:1024C0003F902F9008952F923F924F925F926F927C
:1024D0007F928F929F92AF92BF92CF92DF92EF92B4
:1024E000FF920F931F93DF93CF93CDB7DEB7619722
:1024F0000FB6F894DEBF0FBECDBF0E94601F0E94D2
:10250000571F84369105D8F30E940A250E94791F2F
:102510008823E1F30E940D258AE00E947C1F80E061
:102520006FE00E944A210E9416258091EC048823C6
:1025300079F00E94C82660916705709168058AE06D
:1025400090E00E94914D8EE692E068E00E944B265A
:102550008E010F5F1F4F32E0E32EF12CEC0EFD1EBB
:1025600023E0C22ED12CCC0EDD1E94E0A92EB12C7E
:10257000AC0EBD1E85E0882E912C8C0E9D1EB6E003
:102580006B2E712C6C0E7D1EA7E04A2E512C4C0E2A
:102590005D1EF8E02F2E312C2C0E3D1E80E0B80180
:1025A0000E940F2180E0B7010E940F2180E0B60158
:1025B0000E940F2180E0B5010E940F2180E0B4014C
:1025C0000E940F211E820E940A250E94192584E183
:1025D0000E947C1F84EA60E00E9421200E94162550
:1025E0000E940D2580E0B8010E940F2180E0B70114
:1025F0000E940F2180E0B6010E940F2180E0B5010A
:102600000E940F2180E0B4010E940F2180E0B301FD
:102610000E940F2180E0B2010E940F2180E0B101F1
:102620000E940F2180E0BE01675F7F4F0E940F2153
:1026300080E0BE01665F7F4F0E940F2180E0BE01F7
:10264000655F7F4F0E940F2180E0BE01645F7F4F76
:102650000E940F2180E0BE01635F7F4F0E940F2127
:1026600080E0BE01625F7F4F0E940F211F86898B31
:102670000E940A250E9419259091EC0489899923CA
:1026800051F0882321F08AE491E06FE002C0C80194
:102690006EE00E944B2681E660E00E94212082E0ED
:1026A0000E947C1F84E060E00E9421200E94162589
:1026B0000E940D2580E0B8010E940F2180E0B70143
:1026C0000E940F2180E0B6010E940F2180E0B50139
:1026D0000E940F2180E0B4010E940F211E820E94FF
:1026E0000A250E94192584E10E947C1F80EC60E08D
:1026F0000E94212082E00E947C1F8EED60E00E94FB
:10270000212082E00E947C1F8DEA60E00E9421204F
:1027100082E00E947C1F8EEB60E00E94212082E01C
:102720000E947C1F8FEE60E00E94212082E00E94C8
:102730007C1F80E960E00E94212082E00E947C1FD3
:1027400080E060E00E9421200E9416250E940D2555
:102750008091EC04882309F421CF87E792E06CE0B4
:102760000E944B261BCFEF92FF920F931F93DF9394
:10277000CF9300D000D000D0CDB7DEB780E0BE014F
:102780006F5F7F4FAE014E5F5F4F9E012D5F3F4FEA
:102790008E010C5F1F4FE5E0EE2EF12CEC0EFD1EBE
:1027A0000E94C624882309F0DDC085E00E948621AE
:1027B00080E069810E94182382E00E94862184EAD9
:1027C00069810E94182382E00E94862184E0698149
:1027D0000E94182382E00E94862180E069810E9485
:1027E000182382E00E9486218EE069810E941823CE
:1027F00081E00E9486218E010A5F1F4F8981B80106
:102800000E9457228E81843A09F0ACC085E00E9474
:10281000862181E369810E94182382E00E9486213B
:1028200080E569810E94182382E00E94862181E46C
:1028300069810E94182382E00E94862189E56981CE
:102840000E94182382E00E9486218EE269810E9404
:10285000182382E00E94862183E569810E94182363
:1028600082E00E94862189E569810E94182382E026
:102870000E94862183E569810E94182382E00E94DC
:1028800086218EE269810E94182382E00E948621BF
:1028900084E469810E94182382E00E94862184E4F6
:1028A00069810E94182382E00E94862186E4698162
:1028B0000E94182382E00E94862180E369810E94A1
:1028C000182382E00E94862181E369810E941823F7
:1028D00081E00E9486218981B8010E9457228E8161
:1028E000813609F03FC081E00E9486218981B801CC
:1028F0000E94572285E00E94862180E069810E9423
:10290000182382E00E94862180EC69810E941823AE
:1029100082E00E94862180E069810E94182382E083
:102920000E94862180E069810E94182382E00E9433
:1029300086218E8169810E9418230E940A25809138
:10294000EC04882379F00E94C82660916705709195
:1029500068058AE090E00E94914D87E792E06CE084
:102960000E944B2626960FB6F894DEBF0FBECDBF51
:10297000CF91DF911F910F91FF90EF900895CF932A
:10298000DF93C0E9D1E088E893E1FE013197F1F7E8
:102990000197D9F70E940A250E94192588E893E13A
:1029A000FE013197F1F70197D9F70E9416250E9491
:1029B0000D25E9CF1F930E94910E0E943E2588238A
:1029C00069F50E94B3008093EB04863091F40E9475
:1029D0000D250E9494270E94192528E088E190E0A7
:1029E0000FB6F894A895809360000FBE2093600006
:1029F00009C01FB7F89482E390E06091EB040E9455
:102A000027501FBF28E088E190E00FB6F894A89502
:102A1000809360000FBE2093600009C01FB7F89438
:102A200082E390E00E9403508093EB041FBF8091EB
:102A3000EB048430C9F0853038F4823079F083308B
:102A400080F48130C9F407C08730F1F0883091F00C
:102A5000853091F40CC00E941B0918C00E94050E1D
:102A600015C00E94190A12C00E94BB060FC00E9426
:102A7000520B0CC00E941D0287E08093EB0482E39E
:102A800090E067E00E9427500E94A7030E94BF14B5
:102A900080E090E01F9108950F931F93DF93CF93F1
:102AA00000D00F92CDB7DEB7182F85E090E02B83D2
:102AB0004A8369830E94594BFC012B814A816981B9
:102AC000009729F010836183428323830483CF011D
:102AD0000F900F900F90CF91DF911F910F9108955C
:102AE0001F93182F85E090E00E94594BFC0100973E
:102AF00009F441C0108211821282138214821430B0
:102B000019F1153048F41130A1F0113070F0123085
:102B100091F0133081F514C01630F1F01630C0F08A
:102B2000173019F1183039F522C084EA818384E026
:102B300005C080EC1FC082EB818381E082831BC0D3
:102B400080E8808388EA16C080E2818380E80BC039
:102B500080E880838EEA0EC080E880838AEC8183DF
:102B60008FE9828387E1838306C088E803C08CE80D
:102B7000808384E28183CF011F9108954F925F92F9
:102B80006F927F928F929F92AF92BF92CF92DF927D
:102B9000EF92FF920F931F93CF93DF93B82EA62E41
:102BA0003A012901480186010E94601F0E94571FB7
:102BB0008A309105D8F30E94011F9C01EC01CC0FD3
:102BC000DD1F83E0220F331F8A95E1F7C20FD31F69
:102BD0009E0140E050E060E67AEE80E090E0621B0B
:102BE000730B840B950B24E731E040E050E00E942A
:102BF000074B822F0E947C1F80E00E94892488233B
:102C000009F043C0CE018051974264E771E00E9411
:102C1000BE4A862F67FD80E00E947C1FBB2019F012
:102C20008FE36B2D02C08BE360E00E94981F8CE065
:102C30000E947C1F5C9A60E573EC80E090E00E944B
:102C4000A221882341F4C301B201A40197010E948B
:102C50005B23882319F00E947A2417C080E66B2D2D
:102C60000E94981F82E00E947C1F80E06B2D0E94D2
:102C7000981F82E00E947C1F8A2D6B2D0E94981F56
:102C800082E00E947C1F80E001C081E0DF91CF9153
:102C90001F910F91FF90EF90DF90CF90BF90AF907A
:102CA0009F908F907F906F905F904F9008958038A5
:102CB00049F1813818F4882331F02CC08438C9F0E8
:102CC0008C3841F516C0683819F1693838F4623823
:102CD00071F0643851F06032E9F409C0623B29F0C8
:102CE000603C19F0643AB1F413C082E0089583E0C7
:102CF000089566516F3070F4E62FF0E0EC5DFC4F04
:102D0000808108956E3A21F06A3C31F0683A11F4FE
:102D100084E0089580E0089582E00895EF92FF92A4
:102D20000F931F93CF93DF93182F062F85E090E02A
:102D30000E94594BE82EE7017E01F92EE70120970A
:102D4000C1F1812FB7010E940F21882369F50F5F20
:102D5000802F0E947C1FB7016F5F7F4F812F0E94E1
:102D60000F21882309F5802F0E947C1FB7016E5F19
:102D70007F4F812F0E940F218823B1F4802F0E9462
:102D80007C1FB7016D5F7F4F812F0E940F21882329
:102D900059F4802F0E947C1FB7016C5F7F4F812FF9
:102DA0000E940F21882329F0CE010E94F34BC0E03E
:102DB000D0E0CE01DF91CF911F910F91FF90EF9066
:102DC0000895BF92CF92DF92EF92FF920F931F93DD
:102DD000CF93DF93D82EB62E042F842F90E00E943D
:102DE000594BE82EE7017E01F92EE701209709F102
:102DF000B394CC2410E00150104009C08D2D0E94E6
:102E00000F21882389F48B2D0E947C1FC3942C2DC5
:102E100030E0BE01620F731F201731077CF38D2D48
:102E20000E940F21882329F0CE010E94F34BEE244B
:102E3000FF24C701DF91CF911F910F91FF90EF9079
:102E4000DF90CF90BF9008950F931F93CF93DF93A0
:102E5000182F062FEA01209771F18881612F0E94B7
:102E60001823882341F50F5F802F0E9486218981D6
:102E7000612F0E9418238823F1F4802F0E9486215D
:102E80008A81612F0E9418238823A9F4802F0E9431
:102E900086218B81612F0E941823882361F4802F63
:102EA0000E9486218C81612F0E94182391E0882343
:102EB00019F490E001C091E0892FDF91CF911F912B
:102EC0000F910895DF92EF92FF920F931F93CF938C
:102ED000DF93F82EEA01209719F1D62ED394EE2431
:102EE000022F10E0015010400AC080816F2D0E9417
:102EF00018238823A9F48D2D0E948621E3942E2D7A
:102F000030E0FE01E20FF31F2017310774F38081D8
:102F10006F2D0E94182391E0882319F490E001C0DE
:102F200091E0892FDF91CF911F910F91FF90EF904A
:102F3000DF900895BF92CF92DF92EF92FF920F93AE
:102F40001F93DF93CF9300D0CDB7DEB7D82EB62E28
:102F50007A014115510509F4DAC0C62EC394DA018D
:102F600011960D911C911297F801808161810E9448
:102F700057168983882309F4CAC08D2D6B2DA801AB
:102F80000E942417882309F0C2C0898181508230B1
:102F900008F4BFC086E00E9486218D2D8E010F5F50
:102FA0001F4FB8010E945722882361F0B0C081E012
:102FB0000E9486218D2D6B2D702F0E945722882311
:102FC00019F0A5C0B02E012F2981203681F3D70139
:102FD0001196ED91FC9112978181281779F030E0DC
:102FE00090E0809590952817390741F08D2DBE010E
:102FF0006E5F7F4F0E94572292E08CC086E00E9455
:103000008621D7011196ED91FC91129799818181CA
:10301000981799F01396ED91FC91149780816D2D7E
:103020000E941823882309F072C0F7018081823042
:1030300030F086E00E94862102C0BB242CC0BB2455
:10304000B39429C08D2DB8010E945722882309F01E
:103050005EC086E00E948621D7011196ED91FC9119
:103060001297998181819817C9F01396ED91FC917F
:103070001497EB0DF11D80816D2D0E94182388237C
:1030800009F045C0B394F7018081B81638F486E0A2
:103090000E94862103C08E010F5F1F4FD70111963A
:1030A000ED91FC911297998181819817B1F0F70108
:1030B0008081B81638F211C0D7011396ED91FC91BA
:1030C0001497E80FF91F80816D2D0E941823882323
:1030D000F1F48C2D0E948621B3948B2D90E0F701A2
:1030E000208130E021503040821793072CF3821763
:1030F000930779F40380F481E02DE80FF91F8081B4
:103100006D2D0E94182391E0882321F402C091E0E4
:1031100001C090E0892F0F900F90CF91DF911F9108
:103120000F91FF90EF90DF90CF90BF9008950F9395
:103130001F93CF93DF93EC018B01009709F44CC0F0
:103140006115710509F448C089819A81009709F4D5
:1031500043C08881882329F02B813C8121153105CA
:10316000D9F18B5FD8018C9390E00E94594BFC0100
:103170009C01009719F4F801108230C0A981BA812E
:103180008C918083A981BA8111968C918183A981C8
:10319000BA8112968C918283A981BA8113968C91FF
:1031A0008383A981BA8114968C911497848360E0FB
:1031B0000FC0862F90E0AF01480F591FAB81BC8133
:1031C000A80FB91F8C91DA0115968C9315976F5F34
:1031D0008881681770F302C020E030E0C901DF91F8
:1031E000CF911F910F910895AF92BF92CF92DF922E
:1031F000EF92FF920F931F93DF93CF930F92CDB770
:10320000DEB7B82E6B016115710509F402C185E0C6
:1032100090E00E94594B8C017C01009709F4FBC09F
:10322000DC0112961C921E92119714961C921E920B
:1032300013971C92F601808161810E945716898341
:10324000882309F446C0813011F08330D1F582E043
:1032500090E00E94594BBC01D80112969C938E932A
:103260001197009709F4D2C08B2D0E945722D801E4
:103270001196ED91FC911297882311F0CF01C1C0F6
:103280008081803651F4CF010E94F34BD801129611
:103290001C921E921197C80123C0BF016F5F7F4F20
:1032A0008B2D0E945722882309F4B5C0F801818133
:1032B00092810E94F34BD80112961C921E92119794
:1032C000A5C08B2DBE016F5F7F4F0E9457228823C0
:1032D00011F0C7019CC0A980BA2DB03649F4C801CD
:1032E0000E94F34B8B2DB6010E94F4187C0193C011
:1032F000F6018181A81651F02A2D30E090E08095EA
:1033000090952817390709F064C007C0D6011496B4
:103310008C911497F801808303C081E0D8018C93CD
:10332000F801808190E00E94594BD80114969C933B
:103330008E931397009709F469C0CC2416C0F80146
:10334000638174816C0D711D8B2D0E94572288231F
:1033500059F0D80113968D919C9114970E94F34BCC
:10336000F8011482138252C0C394D8018C91C816FC
:1033700030F382E090E00E94594BBC01F801928347
:103380008183009751F4838194810E94F34BD8018B
:1033900014961C921E92139739C08B2D0E945722AF
:1033A000882361F4D80111966D917C9112976F5F1B
:1033B0007F4F8B2D0E945722882369F1F80183816A
:1033C00094810E94F34BD80114961C921E9213977D
:1033D00014C082E090E00E94594BD80112969C9351
:1033E0008E931197009791F0FC01A192BF018B2D54
:1033F0000E945722882379F0D80111968D919C91D3
:1034000012970E94F34BF80112821182C8010E94A8
:10341000F34BEE24FF24C7010F90CF91DF911F9152
:103420000F91FF90EF90DF90CF90BF90AF900895F5
:103430000F931F93CF93DF93182FFB01EA0130976F
:10344000E9F12097D9F18881882301F18B819C8152
:103450000097E1F08181612F0E942120882371F57E
:1034600082E00E947C1F00E00EC0EB81FC81E00F37
:10347000F11D8081612F0E9421208823F9F482E0D0
:103480000E947C1F0F5F8881081778F3E981FA8119
:103490003097A1F08081612F0E942120882371F450
:1034A00082E00E947C1FE981FA818181612F0E9464
:1034B000212091E0882319F490E001C091E0892F48
:1034C000DF91CF911F910F9108950F931F93CF9389
:1034D000DF93EC018B010097D9F161157105C1F102
:1034E00089819A810097A1F18881882329F02B8115
:1034F0003C812115310561F18E5FD8018C9390E0FC
:103500000E94594BFC019C01009719F4F8011082AC
:1035100021C0A981BA818C918083A981BA81119639
:103520008C911197818360E00FC0862F90E0AF01EE
:10353000480F591FAB81BC81A80FB91F8C91DA01CC
:1035400012968C9312976F5F8881681770F302C090
:1035500020E030E0C901DF91CF911F910F910895D4
:103560000F931F93DF93CF930F92CDB7DEB78C01EC
:1035700083E090E069830E94594BFC0169810097C8
:1035800019F0128301836083CF010F90CF91DF91F7
:103590001F910F910895DF92EF92FF920F931F9367
:1035A000DF93CF93CDB7DEB7DA8483E090E00E945B
:1035B000594B7C018C01009739F1FC01D0828D2D93
:1035C00090E00E94594BF70192838183009731F478
:1035D000C7010E94F34B00E010E016C0CE010B962D
:1035E000E82FF92FAF0120E030E00CC0F701A181F6
:1035F000B281A20FB31FFA0180818C932F5F3F4FDE
:103600004E5F5F4F2D1590F3C801CF91DF911F9151
:103610000F91FF90EF90DF900895CF92DF92EF929D
:10362000FF920F931F93CF93DF938C01F62E83E0CD
:1036300090E00E94594BC82EE6016E01D92EE6019A
:103640002097E1F01A821982188201151105B1F054
:10365000FF20A1F08F2D90E00E94594B9A8389831F
:10366000009731F4C6010E94F34BC0E0D0E006C0E1
:10367000B8014F2D50E00E94654DF882CE01DF91D8
:10368000CF911F910F91FF90EF90DF90CF90089511
:10369000CF93DF93EC01009759F089819A810097CD
:1036A00021F00E94F34B1A821982CE010E94F34B43
:1036B000DF91CF910895CF93DF93EC01009799F0BC
:1036C00089819A81009721F00E94F34B1A82198216
:1036D0008B819C81009721F00E94F34B1C821B82FE
:1036E000CE010E94F34BDF91CF910895EF92FF92AC
:1036F0000F931F93CF93DF93082F162F85E090E051
:103700000E94594BE82EE7017E01F92EE701209730
:1037100009F441C01A8219821C821B821882802FF0
:10372000612F0E948E16FC019A838983009771F1A4
:10373000808161810E945716882321F4C7010E946D
:103740005B1B27C08150823030F186E00E947C1FD5
:10375000E981FA818181602F0E942120882381F4F0
:10376000812F8F5F0E947C1FE981FA814481488309
:10377000802F612F0E94E1169C838B83009759F460
:1037800089819A810E94F34B1A821982CE010E948C
:10379000F34BC0E0D0E0CE01DF91CF911F910F91AC
:1037A000FF90EF900895CF92DF92EF92FF921F93D8
:1037B000DF93CF930F92CDB7DEB7162F642F2983F7
:1037C0000E94761B6C012981009761F0812F622F86
:1037D000A6010E949A17882329F0C6010E945B1B4C
:1037E000CC24DD24C6010F90CF91DF911F91FF9073
:1037F000EF90DF90CF900895AF92BF92DF92EF925B
:10380000FF920F931F93CF93DF93082F5B01D42E6A
:1038100085E090E00E94594B7C01EC01009761F13A
:10382000802F0E9470158C019A838983009721F460
:10383000C7010E94F34B10C0A114B104C9F0DD20F0
:10384000B9F08D2D90E00E94594B9C838B8300979B
:1038500031F4C7010E945B1BC0E0D0E00DC0B50190
:103860004D2D50E00E94654DD882F801D48204C0ED
:10387000F701148213821082CE01DF91CF911F9144
:103880000F91FF90EF90DF90BF90AF900895AF92AF
:10389000BF92CF92DF92EF92FF920F931F93CF933D
:1038A000DF938C015B01F42E0097A9F185E090E095
:1038B0000E94594B6C01EC01009779F1F80180816D
:1038C00061814281238104810E944C159A838983FE
:1038D000009721F4C6010E94F34B1DC0A114B1044E
:1038E000A9F0FF2099F08F2D90E00E94594B9C8306
:1038F0008B83009721F4C6010E945B1B0CC0B501AD
:103900004F2D50E00E94654DF88207C0F6011482E9
:103910001382108202C0C0E0D0E0CE01DF91CF91CF
:103920001F910F91FF90EF90DF90CF90BF90AF90DD
:1039300008958F929F92AF92BF92CF92EF92FF9293
:103940000F931F93DF93CF9300D00F92CDB7DEB7C5
:10395000182F570185E090E02B834A8369830E94EA
:10396000594B7C014C012B814A816981009761F19F
:10397000812F0E944C15F70192838183009721F4D7
:10398000C7010E94F34B11C0A114B104C9F0CC20AF
:10399000B9F08C2D90E00E94594BF70194838383FA
:1039A000009731F4C7010E945B1B882499240CC046
:1039B000B5014C2D50E00E94654DF701C08204C056
:1039C000F701148213821082C4010F900F900F90A0
:1039D000CF91DF911F910F91FF90EF90CF90BF900B
:1039E000AF909F908F900895CF92DF92EF92FF92C9
:1039F0000F931F93DF93CF930F92CDB7DEB76C0178
:103A0000009709F44FC0FC0181819281009709F46D
:103A100049C085E090E00E94594B7C018C010097E1
:103A200009F442C085E090E00E94594BF70192836F
:103A30008183009721F4C7010E94F34B33C0DC015E
:103A4000F60131812281832F922FFC0185E00190C4
:103A50000D928150E1F7F601838194810097E9F09E
:103A600040814423D1F0842F90E049830E94594B38
:103A7000F701948383834981009721F4C7010E9451
:103A80005B1B10C0F6016381748150E00E94654D9C
:103A9000F6018081F701808307C0F7011482138249
:103AA000108202C000E010E0C8010F90CF91DF91BA
:103AB0001F910F91FF90EF90DF90CF900895CF93DB
:103AC000DF93EC01009799F089819A81009721F0AA
:103AD0000E94F34B1A8219828B819C81009721F0FE
:103AE0000E94F34B1C821B82CE010E94F34BDF919C
:103AF000CF910895EF92FF920F931F93CF93DF938F
:103B0000F82E862F8A014115510581F0BA010E94D5
:103B1000F418EC01009761F08F2DB801AE010E94FE
:103B2000181A882329F0CE010E945F1DC0E0D0E062
:103B3000CE01DF91CF911F910F91FF90EF900895EB
:103B4000CF92DF92EF92FF920F931F93DF93CF9369
:103B500000D0CDB7DEB7082F162F84E090E02A837F
:103B600049830E94594BC82ED92E2A814981C114FC
:103B7000D104F9F0802F612F0E94D31BFC01D601E4
:103B800011969C938E93009779F041815281802FFA
:103B9000612F0E947A1DF60193838283009749F476
:103BA000808191810E945B1BC6010E94F34BCC2453
:103BB000DD24C6010F900F90CF91DF911F910F91DF
:103BC000FF90EF90DF90CF900895CF92DF92EF9229
:103BD000FF920F931F93DF93CF930F92CDB7DEB772
:103BE0008C01009709F457C0DC0111968D919C91CE
:103BF0001297009709F44FC085E090E00E94594B5E
:103C00007C016C01009709F448C082E090E00E94BA
:103C1000594BFC01D70112969C938E9311970097F4
:103C200021F4C7010E94F34B36C0D80111968D9143
:103C30009C911297DC018D919C91119791838083C7
:103C4000F801838194810097F9F040814423E1F0E9
:103C5000842F90E049830E94594BD70114969C937E
:103C60008E9313974981009721F4C7010E945F1D2D
:103C700012C0F8016381748150E00E94654DD80143
:103C80008C91F701808309C0D70114961C921E9273
:103C900013971C9202C0CC24DD24C6010F90CF9153
:103CA000DF911F910F91FF90EF90DF90CF900895DB
:103CB000CF93DF93EC01009799F088819981009769
:103CC00021F00E945B1B198218828A819B810097D8
:103CD00021F00E945F1D1B821A82CE010E94F34BCD
:103CE000DF91CF910895AF92BF92CF92DF92EF9282
:103CF000FF920F931F93CF93DF93D82EC62EB42E2F
:103D0000A22E84E090E00E94594B8C01EC010097B8
:103D100009F46BC0198218821B821A828D2D6C2DBA
:103D20004B2D2A2D0E94A01D7C01009711F4C80183
:103D30002EC0DC018D919C911197F80191838083B5
:103D400011961C921E921296ED91FC911397018090
:103D5000F281E02D2081213639F081E090E02C368F
:103D600029F080E090E002C081E090E0882371F1CA
:103D7000C7010E94581E81E029C08D2D6C2D4B2D4E
:103D80002A2D0E94A01D7C01009731F4C8010E94D9
:103D9000581EC0E0D0E029C0DC011296ED91FC91E4
:103DA00013970180F281E02D2081213639F081E0E6
:103DB00090E02C3629F080E090E002C081E090E0B5
:103DC000882321F0C7010E94581ED7CF8823A9F667
:103DD000F70182819381D80113969C938E93129759
:103DE00013821282C7010E94581ECE01DF91CF912B
:103DF0001F910F91FF90EF90DF90CF90BF90AF9009
:103E000008951F931FB7F89481E090E09093950078
:103E100080939400000000000000000000000000FB
:103E20000000000000000000000000000000000092
:103E30000000000000000000000000000000000082
:103E40000000000000000000000000000000000072
:103E50000000000000000000000000000000000062
:103E60000000000000000000000000000000000052
:103E70000000000000006091940070919500613096
:103E8000710579F080E090E020E83EE340E050E00A
:103E90000E949F4A22E330E040E050E00E94E54A61
:103EA00002C020E030E01FBFC9011F9108958FB705
:103EB000F89420919400309195008FBFC901089526
:103EC0008CE08093900088E990E064E771E00E94C4
:103ED000F6278FE08093910008951092910084E975
:103EE00090E060E070E00E94F62708951092910043
:103EF000089589B1817008951F93182F88E990E083
:103F000064E771E00E94F6278CE08093900084E9DA
:103F100090E061E070E00E94F627C19A80E004C062
:103F2000C19BFECFC19A8F5F8117D0F31F91089577
:103F30000F931F93DF93CF930F92CDB7DEB7182F58
:103F4000062F0E94011F009709F475C08CE0809332
:103F50009000449A3C9A88E990E064E771E00E94FE
:103F6000F62784E990E061E070E00E94F627C19AAC
:103F700088E080939000002311F11095198320E0D0
:103F800030E010E0E7E0F0E041E050E09981BF016F
:103F9000621B730BDA0102C0AA0FBB1F6A95E2F71E
:103FA0009A2341F0BA01022E02C0660F771F0A94CD
:103FB000E2F7162B2F5F3F4F2830310539F7C19BB1
:103FC000FECFC19A20E030E060E041E050E0F8E050
:103FD00071E0ECE0CA01022E02C0880F991F0A941A
:103FE000E2F7812329F0E0939000002329F403C035
:103FF000F093900001116727C19BFECFC19A2F5FFC
:104000003F4F2830310531F7002319F4662319F4A6
:1040100004C0662311F48CE001C088E08093900016
:10402000C19BFECFC19AC19BFECFC19A8CE0809309
:1040300090003C98449A0F90CF91DF911F910F917F
:104040000895FF920F931F93DF93CF930F92CDB7F5
:10405000DEB7182F062F0E94981F81E00E947C1F58
:1040600034992AC088E990E064E771E00E94F6275D
:1040700084E990E061E070E00E94F627C19A8CE04C
:1040800080939000FF24F39482E00E947C1F812F94
:10409000602F0E94981F81E00E947C1F81E034996C
:1040A00080E089838F2D843019F08981882359F726
:1040B000998181E0992309F480E00F90CF91DF91FD
:1040C0001F910F91FF900895DF93CF930F92CDB77B
:1040D000DEB720E030E046B1407149832F5F3F4FAB
:1040E000009719F02817390719F04981442399F7E7
:1040F000998181E0992309F480E00F90CF91DF91BD
:104100000895EF92FF920F931F93DF93CF930F9237
:10411000CDB7DEB7E82E8B018CE0809390003C9801
:10412000449A3499FECF84E990E061E070E00E9407
:10413000F62788E990E06AEB70E00E94F627C19AC2
:10414000C19BFECFC19A86B18071898388E990E0D6
:1041500064E771E00E94F627F801108289818823C4
:1041600009F054C027E030E0FF24A0E067E070E0F1
:1041700041E050E0B1E0C19BFECFC19A86B18071B1
:104180008983EE2061F089818823B9F4CA01022E67
:1041900002C0880F991F0A94E2F7A82B0DC08981ED
:1041A000882359F0FB01E21BF30BCA0102C0880F00
:1041B000991FEA95E2F7A82BFB26215030409FEF8C
:1041C0002F3F3907C1F6F801A083C19BFECFC19AEA
:1041D00086B18071898388E990E06AEB70E00E9483
:1041E000F627C19BFECFC19AEE2019F0FF2019F0EF
:1041F00007C0FF2029F0998181E0992341F004C094
:10420000998181E0992319F480E001C081E00F9049
:10421000CF91DF911F910F91FF90EF9008951F9321
:104220000E948120182F882391F10E94011F00977E
:1042300071F18CE0809390003C9A88E990E06BEA01
:1042400070E00E94F62784E990E061E070E00E944F
:10425000F627C19A88E080939000C19BFECFC19A57
:1042600088E990E06FE871E00E94F627C19BFECFDD
:10427000C19A8CE0809390003C98449A88E990E041
:104280006BEA70E00E94F627C19BFECFC19A812F96
:104290001F9108950F931F93182F062F882319F04D
:1042A0008FE3612F02C08BE360E00E94981F8AEFCA
:1042B0000E947C1F80E6612F0E94981F82E00E946E
:1042C0007C1F80E0612F0E94981F82E00E947C1F6B
:1042D000802F612F0E94981F82E00E947C1F1F91F7
:1042E0000F91089589B18270089589B18095881FD2
:1042F0008827881F0895499B04C05F98579A80E0DB
:10430000089581E00895579A5F9A08951F93182F92
:1043100088E890E064E771E00E94F62780E38093EC
:10432000800084E890E061E070E00E94F627B19A96
:1043300080E004C0B19BFECFB19A8F5F8117D0F3AC
:104340001F910895DF93CF930F92CDB7DEB79B01F6
:10435000AC0180E090E0A0E0B0E063B160746983FC
:104360000196A11DB11D211531054105510529F009
:1043700082179307A407B50719F06981662369F7C7
:10438000998181E0992309F480E00F90CF91DF912A
:104390000895EF92FF920F931F93DF93CF930F92A5
:1043A000CDB7DEB7E82E8B0180E38093800026989E
:1043B0002E9A1E99FECF84E890E061E070E00E94A2
:1043C000F62788E890E06AEB70E00E94F627B19A41
:1043D000B19BFECFB19A83B18074898388E890E065
:1043E00064E771E00E94F627F80110828981882332
:1043F00009F054C027E030E0FF24A0E067E070E05F
:1044000041E050E0B1E0B19BFECFB19A83B180743E
:104410008983EE2061F089818823B9F4CA01022ED4
:1044200002C0880F991F0A94E2F7A82B0DC089815A
:10443000882359F0FB01E21BF30BCA0102C0880F6D
:10444000991FEA95E2F7A82BFB26215030409FEFF9
:104450002F3F3907C1F6F801A083B19BFECFB19A77
:1044600083B18074898388E890E06AEB70E00E94F1
:10447000F627B19BFECFB19AEE2019F0FF2019F07C
:1044800007C0FF2029F0998181E0992341F004C001
:10449000998181E0992319F480E001C081E00F90B7
:1044A000CF91DF911F910F91FF90EF9008951F938F
:1044B0000E94C921182F882389F189B181FF2EC05C
:1044C00080E380938000269A88E890E06BEA70E0B1
:1044D0000E94F62784E890E061E070E00E94F627F1
:1044E000B19A80E280938000B19BFECFB19A88E8B8
:1044F00090E06FE871E00E94F627B19BFECFB19A81
:1045000080E38093800026982E9A88E890E06BEAFA
:1045100070E00E94F627B19BFECFB19A812F1F91C8
:1045200008950F931F93DF93CF930F92CDB7DEB70C
:10453000182F062F89B181FF75C080E3809380001A
:104540002E9A269A88E890E064E771E00E94F627A8
:1045500084E890E061E070E00E94F627B19A80E282
:1045600080938000002311F11095198320E030E042
:1045700010E0E7E0F0E041E050E09981BF01621B0C
:10458000730BDA0102C0AA0FBB1F6A95E2F79A23E8
:1045900041F0BA01022E02C0660F771F0A94E2F7BB
:1045A000162B2F5F3F4F2830310539F7B19BFECFD7
:1045B000B19A20E030E060E041E050E0F0E271E0EC
:1045C000E0E3CA01022E02C0880F991F0A94E2F7A5
:1045D000812329F0E0938000002329F403C0F093A5
:1045E000800001116727B19BFECFB19A2F5F3F4F2B
:1045F0002830310531F7002319F4662319F404C07B
:10460000662311F480E301C080E280938000B19BB7
:10461000FECFB19AB19BFECFB19A80E38093800028
:1046200026982E9A0F90CF91DF911F910F910895A8
:10463000FF920F931F93DF93CF930F92CDB7DEB707
:10464000182F062F0E94912281E00E9486211E9938
:104650002AC088E890E064E771E00E94F62784E8C9
:1046600090E061E070E00E94F627B19A80E38093C9
:104670008000FF24F39482E00E948621812F602F26
:104680000E94912281E00E94862181E01E9980E0B3
:1046900089838F2D843019F08981882359F7998176
:1046A00081E0992309F480E00F90CF91DF911F9171
:1046B0000F91FF9008953F924F925F926F927F9279
:1046C0008F929F92AF92BF92CF92DF92EF92FF9222
:1046D0000F931F93DF93CF930F92CDB7DEB77C017B
:1046E0006B014A015901380180E0BE016F5F7F4FC5
:1046F0000E94C92189818B3319F4F701108206C009
:10470000833009F0E1C081E0F7018083F701808107
:104710008E010F5F1F4FB8010E94C92149808FE0B1
:10472000382E342044FE0CC0F7018081B8010E946D
:10473000C9218981813109F0C7C0542C582601C094
:10474000542C45FEC1C0F7018081BE016F5F7F4FD1
:104750000E94C9218981882309F0B6C046FE08C09D
:10476000F7018081B4010E94C9218981582602C0C5
:10477000F401108247FE88C0F7018081BE016F5F9F
:104780007F4F0E94C9210981802F8F70813019F4D9
:10479000F601808305C0882309F096C0F6011082D7
:1047A000802F807309F090C0502606FF0CC0F701DF
:1047B0008081BE016F5F7F4F0E94C92189818A304D
:1047C00009F082C0582607FF61C0F7018081BE0151
:1047D0006F5F7F4F0E94C9210981802F8F70F60182
:1047E0009081992321F48E3009F06EC005C091307C
:1047F00019F4813009F068C0502604FF0FC0F7019A
:104800008081BE016F5F7F4F0E94C9218981982FEF
:104810009F50903F08F058C0582601C080E2F50133
:104820008083802F8072F6019081913019F4882363
:1048300019F44AC0882399F0F7018081BE016F5FA7
:104840007F4F0E94C9218981982F9F709630E0F593
:10485000982F907F9134C0F55826F301808300741F
:10486000F6018081882319F4002381F02DC00023F4
:1048700069F0F7018081BE016F5F7F4F0E94C921FF
:104880008981882319F020C0F6011082AA248E01A4
:104890000F5F1F4F07C080E0B8010E94C9218981C6
:1048A0005826A394A314B8F3F6018081813071F4E3
:1048B000F7018081BE016F5F7F4F0E94C92181E0B7
:1048C0009981591621F402C081E001C080E00F9067
:1048D000CF91DF911F910F91FF90EF90DF90CF90DC
:1048E000BF90AF909F908F907F906F905F904F9010
:1048F0003F9008955C98549A14BC15BC10928000A7
:10490000109281002F98279A2E98269A5F9A579A8C
:1049100008951F93CF93DF93182F882319F05C9885
:10492000549A15C02E98269A2F98279A5C98549AD4
:10493000C8ECD0E0FE013197F1F70E947B2188237B
:1049400021F00E947A2481E01DC02197F1F726987A
:104950002E9A1123B1F482E484BD83E087BD16BC96
:1049600081E085BD80E38093800088E890E064E783
:1049700071E00E94F6278AE08093810080E48093B2
:10498000820080E0DF91CF911F9108956F927F9216
:104990008F929F92AF92BF92DF92EF92FF920F930E
:1049A0001F93CF93DF93D82E5B014A013901E801B1
:1049B00002C0DD24D3948D2D0E9489248823C9F45C
:1049C00080E70E9486215C9A60EA76E881E090E0C8
:1049D0000E94A221882349F4C501B401A3019E01CC
:1049E00087010E945B23882331F0DD2011F30E94B0
:1049F0007A2481E001C080E0DF91CF911F910F9177
:104A0000FF90EF90DF90BF90AF909F908F907F903E
:104A10006F9008956F9A779A08956E9A769A08958E
:104A20006D9A759A08956C9A749A08956F9877980C
:104A300008956E98769808956D98759808956C9875
:104A400074980895249A2C9A0895259A2D9A089579
:104A500024982C98089525982D980895849A8C9AD6
:104A6000089584988C980895869A8E9A08958698C9
:104A70008E98089583988FB18870089582988FB129
:104A80008470089581988FB18270089580988FB155
:104A90008170089581E07B9980E07A9B8260799BA8
:104AA0008460789B8860089588B1887F88B987B1D1
:104AB000876087B911B8419A429A85E38A95F1F7E0
:104AC00080B1429897B1987F97B908958091E40496
:104AD00008958093E4040895AF92BF92CF92DF923D
:104AE000EF92FF920F931F93DF93CF9300D0CDB738
:104AF000DEB7F82E89014A8369830E9454254A81D2
:104B0000698187FDF8CF87B1876087B9FF2011F0F1
:104B1000409A01C04098662319F0419A11B804C028
:104B200041988FEF81B942B9429AB80180E090E094
:104B30000E9438485B016C012BEA3AEA4AEA50E4E9
:104B40000E94A9457B018C017F2D912F20E030E050
:104B500040E85FE30E94B54787FD63C06E2D7F2D5F
:104B6000802F912F20E030E04FE753E40E9455471B
:104B700018160CF04FC0C601B50120E030E04AE73E
:104B800054E40E94A646A62ED72EC82EB92E20E0A9
:104B900030E04AE755E40E94A9457B018C017F2D56
:104BA000912F20E030E040E85FE30E94B54787FDA9
:104BB0002BC06E2D7F2D802F912F20E03FEF4FE7F0
:104BC00057E40E9455471816C4F46A2D7D2D8C2D8C
:104BD0009B2D20E030E040E251E40E94A9450E9474
:104BE000CC4320E931E005C0C9010197F1F76150DC
:104BF000704061157105C1F717C06E2D7F2D802F94
:104C0000912F0E94CC4302C061E070E0CB0101977C
:104C1000F1F70AC06E2D7F2D802F912F0E94CC437B
:104C200001C061E06A95F1F780B1429897B1987F31
:104C300097B90F900F90CF91DF911F910F91FF9037
:104C4000EF90DF90CF90BF90AF9008951F9380E0DA
:104C500060E041E028E230E00E946C2518E281E04B
:104C600060E041E328E230E00E946C251150B9F782
:104C700080E060E040EC25E230E00E946C2518E224
:104C800081E060E042E328E230E00E946C251150B0
:104C9000B9F71F910895EF92FF920F931F93CF934F
:104CA000DF93EC01E62E80E060E041E028E230E0B6
:104CB0000E946C258E01FF240AC0F80141918F01EA
:104CC00081E060E028E230E00E946C25F394FE145D
:104CD00018F4FF2DF83089F78E2D8930C0F080E070
:104CE00060E040EC28E230E00E946C250BC0FE0141
:104CF000EF0DF11D81E060E0408128E230E00E948C
:104D00006C25F394FE1418F4EF2DE03180F310922B
:104D1000E504DF91CF911F910F91FF90EF900895DF
:104D20001F93182F8091E604882371F01A3071F0D8
:104D300080E060E041E028E230E00E946C251092C3
:104D4000E6041092E50406C01A3021F481E0809355
:104D5000E60407C081E060E0412F28E230E00E94D5
:104D60006C258091E5048F5F8093E504883021F401
:104D700080E060E040EC05C0803139F480E060E024
:104D800042E028E230E00E946C2580E01F91089507
:104D90003D9A459A80E060E048E328E230E00E94D6
:104DA0006C2580E060E04EE028E230E00E946C2557
:104DB00080E060E046E028E230E00E946C2580E080
:104DC00060E041E028E230E00E946C2581E08093C1
:104DD000E40408958FEF81B98AEA82B90E945425CC
:104DE00091E08A3A09F090E0892F08953D9845981E
:104DF00080E060E048E028E230E00E946C251092FC
:104E0000E40408953D9A459A80E060E04EE028E28F
:104E100030E00E946C2581E08093E4040895F999C4
:104E2000FECF92BD81BD60BDFA9AF99A0895F999B5
:104E3000FECF92BD81BDF89A80B50895CF92DF92E2
:104E4000EF92FF920F931F93CF93DF93D82EEB0136
:104E50008A012097D9F08FE0413A5807B8F4CFB6CD
:104E6000F8948D2D0AC07C010894E11CF11CEC0F14
:104E7000FD1F60810E940F27C701E82FED19F0E0A8
:104E8000E017F10780F3F999FECFCFBEDF91CF9104
:104E90001F910F91FF90EF90DF90CF9008958F9228
:104EA0009F92AF92BF92CF92DF92EF92FF920F93B9
:104EB0001F93CF93DF93982EE92E8B012FE0613A59
:104EC000720710F5CB010E94594BC82EE6016E0106
:104ED000D92EE6012097D1F08FB6F894892D9E2D1A
:104EE0000BC05C010894A11CB11C0E941727FE0195
:104EF000EE0DFF1D8083C501E82EE918FF24E016A2
:104F0000F10678F38FBE02C0CC24DD24C601DF9108
:104F1000CF911F910F91FF90EF90DF90CF90BF90B6
:104F2000AF909F908F9008957F928F929F92AF92B3
:104F3000BF92CF92DF92EF92FF920F931F93DF9376
:104F4000CF93CDB7DEB760970FB6F894DEBF0FBE34
:104F5000CDBFDE011196E3E3F3E088E001900D920E
:104F60008150E1F77FB6F89400E010E099E0E92E77
:104F7000F12CEC0EFD1E81E1A82EB12CAC0EBD1E55
:104F80006E010894C11CD11C902E812EC701B8015E
:104F900048E050E00E94F34FF70181918F3F41F0CC
:104FA000C601692D782D48E050E00E941D5003C0D5
:104FB000EA15FB0591F7085F1F4F80E100301807E5
:104FC00019F77FBE60960FB6F894DEBF0FBECDBF57
:104FD000CF91DF911F910F91FF90EF90DF90CF90D5
:104FE000BF90AF909F908F907F9008952FB7F894C7
:104FF000FC01718360832FBF08954FB7F894FC01C3
:10500000208131814FBFC90108951F932FB7F894B4
:1050100084E690E090939900809398002FBF2FB77B
:10502000F89481E090E090939500809394002FBFD6
:105030001092900082E0809371008FE08093910045
:105040001FB70E9466259091EC04992321F08823D4
:1050500011F00E94F6260E9416250E9419250E9432
:105060001C250E941F2583B7817F83BFF89483B7D7
:10507000816083BF7894889583B78E7F83BF1FBF7D
:1050800010927100109291000E9413251F910895B3
:105090000E9466259091EC04992321F0882311F059
:1050A0000E94F6260E9416250E9419250E941C25A2
:1050B0000E941F259FB783B7817F846083BFF894C8
:1050C00083B7816083BF7894889583B78E7F83BFD1
:1050D0009FBF0E9413250895AF92BF92CF92DF9297
:1050E000EF92FF920F931F93CF93DF93B62EA42ED0
:1050F0000E94F41C7C01009709F4A3C000E010E0BA
:1051000001C08E0180E10E9486218B2D6A2DA701AE
:105110000E949A17882381F4D70111966D917C9192
:1051200012978B2D0E94F4186C01009729F0FC0156
:1051300081819281009711F4C8012FC0C6010E949D
:10514000E51DEC01009739F4C8010E945F1DC601FE
:105150000E945F1D72C00115110509F43FC0D801FE
:1051600013968D919C9114970097C1F18C9188238F
:10517000A9F1F6016081680F68838B819C8170E0E2
:105180000E948C4C9C838B83009769F4C8010E9419
:105190005F1DC6010E945F1DCE010E945F1DC701F9
:1051A0000E945B1B4EC0D8014C9113966C911397D3
:1051B00014967C9150E00E94654DF80180812B810E
:1051C0003C81280F311DD6014C9113966C91139799
:1051D00014967C91C90150E00E94654DC6010E9461
:1051E0005F1DC8010E945F1DE981FA818081982FAF
:1051F00091569330B8F4C7010E945B1B81E060E0D8
:1052000070E040E00E94FC1B7C01009721F4CE017D
:105210000E945F1D16C0E981FA818081813609F004
:1052200070CF02C08C3649F4D70111962D913C9174
:1052300012978181F901848364CFC7010E945B1BAF
:1052400002C0C0E0D0E0CE01DF91CF911F910F915D
:10525000FF90EF90DF90CF90BF90AF9008950F93A5
:105260001F93CF93DF93182F062FFA01309769F120
:105270004081442351F12181328184E0B9010E94AF
:10528000FC1BEC01009719F1612F402F0E946C2844
:105290008C01CE010E945B1B01151105C1F0D801E4
:1052A0001196ED91FC911297309731F08081803901
:1052B00019F48181882321F0C8010E945F1D07C075
:1052C000C8010E945F1D80E003C08FEF01C081E034
:1052D000DF91CF911F910F9108950F931F93CF935B
:1052E000DF93182F062FFA012181328187E0B9015F
:1052F00040810E94FC1BEC01009749F0612F402F78
:105300000E946C288C01CE010E945B1B02C000E051
:1053100010E0C801DF91CF911F910F910895FC011A
:105320000097D1F02381348121153105A9F08081C6
:10533000F90140E001C04F5F481718F49191983887
:10534000D1F750E090E00297481759073CF4240F3A
:10535000351FF9018281089580E0089580E0089565
:105360000097E9F0DC011396ED91FC9114973097CA
:10537000B1F09081992399F0A181B281109779F0D1
:1053800080E00BC0ED91FD91309731F020812F39F5
:1053900019F42181283329F08F5F891798F3E0E011
:1053A000F0E0CF010895009729F00E94B029FC0198
:1053B000009779F485E090E00E94594BE82FF92F8F
:1053C000309739F01482138212828FE9808388E348
:1053D0008183CF010895AF92BF92DF92EF92FF9247
:1053E0000F931F93DF93CF9300D0CDB7DEB75C014F
:1053F00085E090E04A8369830E94594B8C017C01CF
:105400004A816981009709F45AC0DC0114961C9204
:105410001E921397F50180818C938F718F3131F437
:10542000818111968C93119782E005C0D801119665
:105430001C92119781E0F501E80FF11D9081F801B0
:105440009283D82ED394913849F4F501ED0DF11DD6
:105450008081D80112968C931297D394442379F1CA
:10546000F801828170E061507040282F30E02617EB
:10547000370764F490E00E94594BD80114969C932E
:105480008E931397009711F080E013C0C8010E941B
:10549000F34BEE24FF2413C0D8011396ED91FC9139
:1054A0001497E80FF11DD501A20FB11D9C919083B7
:1054B0008F5F282F2D0DF8019281891768F3C7019E
:1054C0000F900F90CF91DF911F910F91FF90EF9070
:1054D000DF90BF90AF900895CF92DF92EF92FF924E
:1054E0000F931F93DF93CF930F92CDB7DEB7E82EC4
:1054F000062F142F86E060E070E040E00E94FC1B65
:105500006C01009709F459C0DC011196ED91FC91F2
:1055100012978FE982831196ED91FC911297138374
:10552000C6016E2D402F0E946C288C01C6010E947E
:105530005B1B0115110509F440C0F80183819481BA
:10554000009721F4C8010E945F1D37C0D8016C91FB
:1055500041E00E94EB297C01C8010E945F1DE1141B
:10556000F10459F183E090E00E94594B482F592FE4
:105570006A01F7014281D6014C9312961C921E9249
:10558000119782818823D9F00381148101151105B7
:10559000B1F0842F90E049830E94594BF601928329
:1055A00081834981009721F4C6010E94F34B05C015
:1055B000B80150E00E94654D02C0CC24DD24C60134
:1055C0000F90CF91DF911F910F91FF90EF90DF909F
:1055D000CF900895CF92DF92EF92FF920F931F9397
:1055E000DF93CF930F92CDB7DEB78C010097B9F15F
:1055F00085E090E00E94594BC82ED92EC114D104E9
:1056000081F1F6011282F8018081F6018083F801B0
:105610008181F601818314821382F8018381948150
:105620000097F9F042814423E1F0842F90E0498310
:105630000E94594BF601948383834981009721F49A
:10564000C6010E94F34B0BC0F8016381748150E0E6
:105650000E94654DF8018281F601828302C0CC244C
:10566000DD24C6010F90CF91DF911F910F91FF9024
:10567000EF90DF90CF900895DF92EF92FF920F931B
:105680001F93CF93DF93EC018B01009709F44CC07B
:105690006115710509F448C0DB0111968D919C914B
:1056A0001297009709F440C06C918881680F70E0F0
:1056B000660F771F89819A810E948C4C9A83898317
:1056C000009791F1DD242AC0888190E0880F991F0E
:1056D000E980FA80E80EF91E8D2D90E0880F991F61
:1056E000D8011196ED91FC911297E80FF91F808176
:1056F00091810E94EA2AF701918380832881822F79
:1057000090E0880F991FE981FA81E80FF91F8081E5
:105710009181009749F02F5F2883D394D8018C9111
:10572000D81690F280E001C081E0DF91CF911F9107
:105730000F91FF90EF90DF900895FC010097D1F05A
:10574000308180E090E020E013C0A181B281A80FF9
:10575000B91F0D90BC91A02D109741F05C91561788
:1057600029F411965C911197541731F02F5F02962E
:10577000231758F3A0E0B0E0CD0108951F93CF9315
:10578000DF93FC010097C9F1908120E030E080E0D8
:1057900011C0A181B281A20FB31FCD91DC911197ED
:1057A000209729F048814C3811F410E023C08F5F16
:1057B0002E5F3F4F891768F320C08B819C81611B4E
:1057C000810F911D40E00E94EB290097B1F0FC0190
:1057D00020812F3941F42181223029F40E94F34B9A
:1057E000812F8F5F0BC01E5FFC01218121111F5F84
:1057F0000E94F34B6A81161700F380E0DF91CF918E
:105800001F910895CF92DF92FF920F931F93CF9332
:10581000DF938C01009709F460C0DC0111968C9134
:105820001197882311F481E001C082E0F82EF394EF
:10583000F801228127FDF394D80113968D919C9154
:105840001497009709F0F20E8F2D90E00E94594BAB
:10585000E82FEF016E01D92EE6012097F1F1D80172
:105860008C91888311968C911197882319F08983E4
:1058700082E001C081E0F801928197FF06C0FE013D
:10588000E80FF11D91E890838F5FFE01E80FF11D95
:10589000D80112969C911297908313962D913C916A
:1058A00014972115310571F012964C9112974423EB
:1058B00049F08F5FBE01680F711DCB01B90150E047
:1058C0000E94654DCE016F2D0E94B01A8C01009789
:1058D00031F4CE010E94F34B02C000E010E0C80199
:1058E000DF91CF911F910F91FF90DF90CF9008959E
:1058F000CF93DF93EC01009759F08B819C81009747
:1059000021F00E94F34B1C821B82CE010E94F34BBC
:10591000DF91CF9108952F923F924F925F926F92B5
:105920007F928F929F92AF92BF92CF92DF92EF922F
:10593000FF920F931F93DF93CF93CDB7DEB72C97D2
:105940000FB6F894DEBF0FBECDBF89836A83A42E45
:1059500049012115310509F46AC20115110509F43F
:1059600066C2BB24CC24DD24EE24FF24B8E26B2ED7
:10597000712C600E711EA0E24A2E512C400E511E59
:10598000F9E12F2E312C200E311EC80145969C8343
:105990008B83D8019D96BE83AD83F8013E96F88730
:1059A000EF83C80106969A87898725C2D40113968A
:1059B0008D919C9114976C198C0D911D40E00E9463
:1059C000EB29AC01B2E0CB0E009709F414C2FC0144
:1059D00081818111C394DA0112968C91B80EC701AE
:1059E0006B2D70E04B875C870E948C4C9C017C0186
:1059F0004B855C85009721F4CA010E94782C17C260
:105A0000FA0180818F3909F073C081818230F1F40D
:105A1000F80180E007C09191D901AD0DB11D9C93B3
:105A2000D3948F5FDA0112969C911297891748F4EC
:105A3000863089F706C0F901ED0DF11D1082D3946F
:105A40008F5FFA0192818917B0F3D2C18330F9F4E4
:105A5000E985FA8580E007C09191D901AD0DB11DAE
:105A60009C93D3948F5FDA0112969C9112978917B9
:105A700048F4863089F706C0F901ED0DF11D10825A
:105A8000D3948F5FFA0192818917B0F3B1C18A3143
:105A900009F002C1DA0112968C9112978823B9F0AD
:105AA000F901ED0DF11DD8011C968C911C97808396
:105AB000D394FA018281823060F0F901ED0DF11D7D
:105AC0001D968C911D978083D39482E00AC080E05C
:105AD00008C081E006C0F901ED0DF11D1082D394DC
