:100000000C9492000C94CE020C943C030C94DF00F0
:100010000C94DF000C94DF000C94DF000C94DF00E4
:100020000C94DF000C94DF000C94FB490C94CD4A37
:100030000C946B030C945E530C94DF000C94DF0063
:100040000C94DF000C94DF000C94DF000C94DF00B4
:100050000C94DF000C94DF000C94DF000C94DF00A4
:100060000C94DF000C94DF000C94DF000C94DF0094
:100070000C94DF000C94DF000C94DF000C94DF0084
:100080000C94A2030C94DF000C94DF000C94DF00AE
:100090000C94DF000C94DF00120110010200000834
:1000A000EB03442001000102DC0109023E000201D1
:1000B00000C0320904000001020201000524001002
:1000C0000104240206052406000107058203080036
:1000D000FF09040100020A000000070504021000E5
:1000E00001070583021000010403090418034400FA
:1000F000650061006E002000430061006D00650036
:100100007200610000001C034C00550046004100D5
:1001100020004300440043002000440065006D00BF
:100120006F00000011241FBECFEFD0E2DEBFCDBFB5
:1001300088E10FB6F89480936000109260000FBEC3
:1001400004B603FE23C080914D068737F9F4109260
:100150004D06E3E0F0E089E080935700E491F0E0A1
:10016000E770F070F595E795EE2339F0E13041F056
:10017000E23049F4E0E0FCEF08C0E0E0F0EF05C059
:10018000E0E0F8EF02C0E0E0FEEF099516E0A0E045
:10019000B1E0E6E8F1EC00E00BBF02C007900D9281
:1001A000A434B107D9F712E1A4E4B6E001C01D926E
:1001B000A932B107E1F70E9457020C94C1600C9478
:1001C00000004F925F926F927F929F92AF92BF9288
:1001D000CF92DF92EF92FF920F931F93DF93CF9313
:1001E0000F92CDB7DEB780914B06882309F4DCC0AF
:1001F0000E94191F60912712709128128AE090E0E6
:100200000E947A5D40E0E42E41E0F42E34E0A32E1B
:1002100031E0B32E00E911E023E1622E21E0722EDD
:1002200092E2492E91E0592E00D000D000D0EDB7D7
:10023000FEB731968091271290912812ADB7BEB7C4
:1002400012969C938E931197F382E282B582A482D8
:100250000E94695DEDB7FEB736960FB6F894FEBF03
:100260000FBEEDBF0E949A1D8983898182FFFACF5C
:1002700088E893E1F8013197F1F70197D9F700D0B9
:1002800000D000D0EDB7FEB7319680912712909143
:100290002812ADB7BEB712969C938E931197F38236
:1002A000E282758264820E94695DEDB7FEB7369680
:1002B0000FB6F894FEBF0FBEEDBF0E949A1D898352
:1002C000898182FFFACF88E893E1F8013197F1F74D
:1002D0000197D9F700D000D000D0EDB7FEB7319626
:1002E0008091271290912812ADB7BEB712969C93B9
:1002F0008E931197F382E282558244820E94695D57
:10030000EDB7FEB736960FB6F894FEBF0FBEEDBF41
:100310000E949A1D8983898182FFFACF88E893E140
:10032000F8013197F1F70197D9F787EFC82E81E0EF
:10033000D82E9924D6012D913D916D0100D000D089
:1003400000D0EDB7FEB73196409127125091281298
:10035000ADB7BEB712965C934E931197F382E282CB
:10036000358324830E94695DEDB7FEB736960FB6DC
:10037000F894FEBF0FBEEDBF0E949A1D898389814C
:1003800083FF03C0892D8F5F10C0898182FFF4CF66
:1003900088E893E1F8013197F1F70197D9F7939441
:1003A000F92DF73039F640CF80E00F90CF91DF91F3
:1003B0001F910F91FF90EF90DF90CF90BF90AF9083
:1003C0009F907F906F905F904F900895F894109257
:1003D000690010926A008FEF8CBB1DBA0E944D1805
:1003E0008EE496E00E94624584E090E00E94F45F13
:1003F0006C5F7F4F8F4F9F4F0E94525314B817B8B6
:1004000088E188B990E89AB983E88BB980B3807F96
:1004100080BB81B38F6081BB80E00FB6F89490936E
:100420006100809361000FBE0E94E0180E94631D6E
:1004300080E090E00E94EC5F8093490680E490E0C9
:100440000E94EC5F80934C060E943B1F882339F08A
:10045000109228121092271210924B060BC086E8B9
:1004600091E0909328128093271281E080934B06AD
:100470000E94471F80916400816080936400809196
:10048000640084608093640080916400806880933D
:1004900064008091650081608093650080916500B3
:1004A0008068809365007894E898E99808951F9390
:1004B0000E94E6010E948E1D882379F50E94E100CA
:1004C00080934A06863091F40E945D1D0E949C35FF
:1004D0000E94691D28E088E190E00FB6F894A89585
:1004E000809360000FBE2093600009C01FB7F8948E
:1004F00082E390E060914A060E9432601FBF0E9432
:10050000465328E088E190E00FB6F894A8958093D0
:1005100060000FBE2093600009C01FB7F89482E30B
:1005200090E00E94EC5F80934A061FBF11E080912B
:100530004A06833099F0843028F4813051F18230BA
:1005400009F507C08530A1F0853068F08730D1F417
:1005500014C08EE496E00E94B838E9CF8EE496E0AD
:100560000E94D23DE4CF8EE496E00E940B41DFCFA3
:100570008EE496E00E94FE36DACF87E690E00E9495
:10058000BE34D5CF10934A0682E390E061E00E942A
:1005900032608EE496E00E945034C9CF1F920F92D1
:1005A0000FB60F920BB60F9211242F933F934F93D8
:1005B0005F936F937F938F939F93AF93BF93EF93CB
:1005C000FF930E944D180E94A9178EE496E064E400
:1005D00040E00E9475458EE496E00E949F368EE4CE
:1005E00096E00E9462450E9487180097C1F080E063
:1005F00090E00E94EC5F809349068A3A41F480E0E3
:1006000090E060E00E943260F999FECF0FC080E078
:1006100090E06AEA0E943260F999FECF07C080E05C
:1006200090E060E00E943260F999FECF28E088E116
:1006300090E00FB6F894A895809360000FBE2093C9
:1006400060000E943A53AB01BC0184E090E00E943C
:100650001C60FF91EF91BF91AF919F918F917F911E
:100660006F915F914F913F912F910F900BBE0F9023
:100670000FBE0F901F9018951F920F920FB60F92FA
:100680000BB60F9211242F933F934F935F936F9369
:100690007F938F939F93AF93BF93EF93FF93499B68
:1006A00003C00E94601D04C00E946C1D0E94021DB8
:1006B000FF91EF91BF91AF919F918F917F916F913A
:1006C0005F914F913F912F910F900BBE0F900FBEF6
:1006D0000F901F9018951F920F920FB60F920BB6A6
:1006E0000F9211242F933F934F935F936F937F93B8
:1006F0008F939F93AF93BF93CF93DF93EF93FF932A
:10070000CEE4D6E0CE016CEC40E00E947545CE010F
:100710000E949F36CE010E946245FF91EF91DF91CA
:10072000CF91BF91AF919F918F917F916F915F9189
:100730004F913F912F910F900BBE0F900FBE0F90D6
:100740001F90189518950E945A1D84EF91E020E99A
:1007500031E0F9013197F1F70197D9F70E94661D51
:100760000E945D1D84EF91E020E931E0F9013197AD
:10077000F1F70197D9F70E94691D0E94601D84EF6F
:1007800091E020E931E0F9013197F1F70197D9F7CC
:100790000E946C1D0E94631D84EF91E020E931E00E
:1007A000F9013197F1F70197D9F70E946F1D8091F8
:1007B0004B06882359F10E94191F609127127091EE
:1007C00028128AE090E00E947A5D80E391E068E080
:1007D0000E949B1E7B99FECF89E391E068E00E9416
:1007E0009B1E7A99FECF82E491E068E00E949B1EF6
:1007F0007999FECF8BE491E068E00E949B1E789986
:10080000FECF84E591E069E00E949B1E08952F923F
:100810003F924F925F926F927F928F929F92AF9290
:10082000BF92CF92DF92EF92FF920F931F93DF93CD
:10083000CF93CDB7DEB761970FB6F894DEBF0FBE8A
:10084000CDBF0E9403190E94FA1884369105D8F38F
:100850000E945A1D0E94AE178823E1F30E945D1D7D
:100860008AE00E941C1980E06FE040E050E00E94A6
:10087000E5060E94661D80914B06882379F00E9450
:10088000191F60912712709128128AE090E00E944F
:100890007A5D8EE591E068E00E949B1E8E010F5FFD
:1008A0001F4F82E0E82EF12CEC0EFD1EB3E0CB2EA4
:1008B000D12CCC0EDD1EA4E0AA2EB12CAC0EBD1E98
:1008C000F5E08F2E912C8C0E9D1EE6E06E2E712C85
:1008D0006C0E7D1E77E0472E512C4C0E5D1E68E09D
:1008E000262E312C2C0E3D1E80E0B80120E038E38E
:1008F0004CE95CE10E94D31A80E0B70120E038E3C4
:100900004CE95CE10E94D31A80E0B60120E038E3B4
:100910004CE95CE10E94D31A80E0B50120E038E3A5
:100920004CE95CE10E94D31A80E0B40120E038E396
:100930004CE95CE10E94D31A1E820E945A1D0E945B
:10094000691D84E10E941C1984EA60E00E94C119BB
:100950000E94661D0E945D1D80E0B80120E038E322
:100960004CE95CE10E94D31A80E0B70120E038E353
:100970004CE95CE10E94D31A80E0B60120E038E344
:100980004CE95CE10E94D31A80E0B50120E038E335
:100990004CE95CE10E94D31A80E0B40120E038E326
:1009A0004CE95CE10E94D31A80E0B30120E038E317
:1009B0004CE95CE10E94D31A80E0B20120E038E308
:1009C0004CE95CE10E94D31A80E0B10120E038E3F9
:1009D0004CE95CE10E94D31A80E0BE01675F7F4F63
:1009E00020E038E34CE95CE10E94D31A80E0BE01CC
:1009F000665F7F4F20E038E34CE95CE10E94D31A48
:100A000080E0BE01655F7F4F20E038E34CE95CE1A8
:100A10000E94D31A80E0BE01645F7F4F20E038E37C
:100A20004CE95CE10E94D31A80E0BE01635F7F4F16
:100A300020E038E34CE95CE10E94D31A80E0BE017B
:100A4000625F7F4F20E038E34CE95CE10E94D31AFB
:100A50001F86898B0E945A1D0E94691D90914B062A
:100A60008989992351F0882321F087E691E06FE08E
:100A700002C0C8016EE00E949B1E81E660E00E94F9
:100A8000C11982E00E941C1984E060E00E94C11933
:100A90000E94661D0E945D1D80E0B80120E038E3E1
:100AA0004CE95CE10E94D31A80E0B70120E038E312
:100AB0004CE95CE10E94D31A80E0B60120E038E303
:100AC0004CE95CE10E94D31A80E0B50120E038E3F4
:100AD0004CE95CE10E94D31A80E0B40120E038E3E5
:100AE0004CE95CE10E94D31A1E820E945A1D0E94AA
:100AF000691D84E10E941C1980EC60E00E94C1190C
:100B000082E00E941C198EED60E00E94C11982E013
:100B10000E941C198DEA60E00E94C11982E00E94C7
:100B20001C198EEB60E00E94C11982E00E941C1922
:100B30008FEE60E00E94C11982E00E941C1980E9DA
:100B400060E00E94C11982E00E941C1980E060E010
:100B50000E94C1190E94661D0E945D1D80914B0676
:100B6000882309F4C1CE87E791E06CE00E949B1EC8
:100B7000BBCECF92DF92EF92FF920F931F93DF9342
:100B8000CF9300D000D000D0CDB7DEB76C0180E0AD
:100B9000BE016F5F7F4FAE014E5F5F4F9E012D5FC5
:100BA0003F4F8E010C5F1F4F95E0E92EF12CEC0EAC
:100BB000FD1E0E94AC09882309F0DDC085E00E947B
:100BC000251B80E069810E94B91C82E00E94251BE0
:100BD00084EA69810E94B91C82E00E94251B84E09E
:100BE00069810E94B91C82E00E94251B80E0698116
:100BF0000E94B91C82E00E94251B8EE069810E9440
:100C0000B91C81E00E94251B8E010A5F1F4F89815C
:100C1000B8010E94F51B8E81843A09F0ACC085E0D2
:100C20000E94251B81E369810E94B91C82E00E9419
:100C3000251B80E569810E94B91C82E00E94251B6A
:100C400081E469810E94B91C82E00E94251B89E52C
:100C500069810E94B91C82E00E94251B8EE2698195
:100C60000E94B91C82E00E94251B83E569810E94D5
:100C7000B91C82E00E94251B89E569810E94B91C8C
:100C800082E00E94251B83E569810E94B91C82E0F5
:100C90000E94251B8EE269810E94B91C82E00E949D
:100CA000251B84E469810E94B91C82E00E94251BF7
:100CB00084E469810E94B91C82E00E94251B86E4BD
:100CC00069810E94B91C82E00E94251B80E3698132
:100CD0000E94B91C82E00E94251B81E369810E9469
:100CE000B91C81E00E94251B8981B8010E94F51B77
:100CF0008E81813609F03FC081E00E94251B8981E9
:100D0000B8010E94F51B85E00E94251B80E06981E7
:100D10000E94B91C82E00E94251B80EC69810E9420
:100D2000B91C82E00E94251B80E069810E94B91CE9
:100D300082E00E94251B80E069810E94B91C82E04C
:100D40000E94251B8E8169810E94B91C0E945A1D38
:100D500080914B06882379F00E94191F6091271219
:100D6000709128128AE090E00E947A5D87E791E016
:100D70006CE00E949B1E26960FB6F894DEBF0FBE55
:100D8000CDBFCF91DF911F910F91FF90EF90DF903A
:100D9000CF900895CF93DF93C0E9D1E088E893E145
:100DA000FE013197F1F70197D9F70E945A1D0E9471
:100DB000691D88E893E1FE013197F1F70197D9F7B2
:100DC0000E94661D0E945D1DE9CF0F931F93CF9374
:100DD000DF93182F062FEA01882351F08FE3612F4C
:100DE0000E943819209779F0CE0164E04FE309C0E2
:100DF0008BE360E00E943819209729F0CE0164E06F
:100E00004BE30E9475458AEF0E941C1980E6612F12
:100E10000E943819209729F0CE0164E040E60E9434
:100E2000754582E00E941C1980E0612F0E943819EC
:100E3000209729F0CE0164E040E00E94754582E0F1
:100E40000E941C19802F612F0E943819209729F0C9
:100E5000CE0164E0402F0E94754582E00E941C197B
:100E6000DF91CF911F910F9108952F923F924F9252
:100E70005F926F927F928F929F92AF92BF92CF922A
:100E8000DF92EF92FF920F931F93DF93CF9300D0E7
:100E900000D0CDB7DEB74C011B012A013901FC821D
:100EA000EB82DA82C982009709F419C261157105D3
:100EB00009F415C24115510509F411C22115310576
:100EC00009F40DC20115110509F409C2E114F10478
:100ED00009F405C2C114D10409F401C2D8011D925C
:100EE0001C92EB81FC8180E2DF011D928A95E9F77B
:100EF00080E0BA010E94671BA114B10431F0C50162
:100F000060E0F20140810E947545D2018C918B33E3
:100F100019F4F401108206C0833009F0E3C181E0C6
:100F2000D4018C93F4018081B3010E94671BF82ED9
:100F3000882309F0F9C1A114B10431F0C50160E0C2
:100F4000D3014C910E947545F301D0808FE0682E4B
:100F50006D20D5FECAC1D4FE1FC0D4018C916B8117
:100F60007C810E94671BF82E882309F0DDC1A11443
:100F7000B10439F0C50160E0EB81FC8140810E9441
:100F80007545AB81BC81EC90ED24F80180819181A5
:100F900090689183808301C0ED2C6B817C816F5FB1
:100FA0007F4FD4018C910E94671BF82E882309F093
:100FB000BBC1A114B10439F0C50160E0EB81FC8133
:100FC00041810E947545AB81BC8111962C9111978E
:100FD000F8018081918190649183808311968C9136
:100FE0001197882309F084C1E226D6FE20C0BD01F6
:100FF0006E5F7F4FD4018C910E94671B882309F09C
:101000008CC1A114B10439F0C50160E0EB81FC8111
:1010100042810E947545AB81BC8112968C911297DA
:10102000E826F80180819181906291838083D7FEC8
:101030001AC16B817C816D5F7F4FD4018C910E94BE
:10104000671B882309F069C1A114B10439F0C501F7
:1010500060E0EB81FC8143810E947545AB81BC81DE
:1010600013962C911397F80180819181906191835F
:1010700080831396DC9013978D2D8F70813019F437
:10108000D1018C9305C0882309F035C1F10110828C
:10109000D4FC34C1D5FC35C1E226D6FE27C06B8115
:1010A0007C816A5F7F4FD4018C910E94671B8823EB
:1010B00009F033C1A114B10439F0C50160E0EB813E
:1010C000FC8146810E947545AB81BC8116962C91AE
:1010D0001697F801808191819260918380831696A2
:1010E0008C9116978A3009F00FC1E226D7FEBDC059
:1010F0006B817C81695F7F4FD4018C910E94671B5B
:10110000882309F00AC1A114B10439F0C50160E0D7
:10111000EB81FC8147810E947545AB81BC811796AC
:101120008C911797E826F8018081918191609183D5
:1011300080831796DC901797D4FE28C0BD01685FA6
:101140007F4FD4018C910E94671B882309F0E5C072
:10115000A114B10439F0C50160E0EB81FC81408548
:101160000E947545AB81BC8118962C911897F801A7
:101170008081918180689183808318968C911897E3
:101180008F50803F08F0C3C0E22606C080E2AB81EA
:10119000BC8118968C9318978D2D8072F1019081E7
:1011A000913019F4882319F4B5C0882351F16B816B
:1011B0007C81675F7F4FD4018C910E94671BA114D3
:1011C000B10439F0C50160E0EB81FC8141850E94EA
:1011D0007545AB81BC8119962C911997F8018081D6
:1011E000918180649183808319968C911997982FAF
:1011F0009F70963008F08EC0807F813408F08AC0DE
:10120000E2268D2D8074D1019C91992319F48823B5
:1012100061F185C0882349F16B817C81665F7F4FD6
:10122000F40180810E94671B882309F076C0A11415
:10123000B10441F0C50160E0AB81BC811A964C91CC
:101240000E947545EB81FC812285D8018D919C918E
:101250001197806211969C938E938285882309F062
:101260005EC0E22602C0F10110824B805C8080E10A
:1012700090E0480E591E00E013C0D4018C91B201D9
:101280000E94671BA114B10431F0C50160E0F201B6
:1012900040810E947545D2018D912D01E8260F5F96
:1012A000061558F3F10180818130F1F5D4018C915C
:1012B00069817A810E94671BF82E8823A9F5A11401
:1012C000B10439F0C50160E0E981FA8140810E94F2
:1012D0007545A981BA818C91E81621F525C0B3E046
:1012E000FB2E22C0A2E1FA2E1FC0F3E1FF2E1CC08C
:1012F000E4E1FE2E19C075E1F72E16C066E1F62E68
:1013000013C057E1F52E10C048E1F42E0DC039E1AD
:10131000F32E0AC020E1F22E07C0F82E05C09AE194
:10132000F92E02C08BE1F82E8F2D0F900F900F90A9
:101330000F90CF91DF911F910F91FF90EF90DF9071
:10134000CF90BF90AF909F908F907F906F905F9065
:101350004F903F902F9008952F923F924F925F921F
:101360006F927F928F929F92AF92BF92CF92DF92B5
:10137000EF92FF920F931F93DF93CF93CDB7DEB71A
:10138000E2970FB6F894DEBF0FBECDBF8EA378A74D
:101390006FA35AA749A73CA72BA71801FEA6EDA645
:1013A00046010E943A532B013C018EA10E94111D5F
:1013B000882309F073C0C114D104E1F03327272D2D
:1013C000162D052DC301AA27BB278FA798ABA9AB64
:1013D000BAABC72CDD24EE24FF24C40167EC442DF6
:1013E000202F0FA5EC2C0E943146C40160E840E09C
:1013F0000E94754580E70E94251B81E00E94FC1C2D
:101400008114910429F0C40168E840E00E94754508
:1014100060E573EC80E090E00E94411B882321F09E
:101420009EA19923E9F51FC08FA198A569A57AA56A
:10143000AE014D5F5F4F9E012E5F3F4F8E010C5FEF
:101440001F4FE6E0EE2EF12CEC0EFD1E6E0108940F
:10145000C11CD11C54010E943507182F882391F01C
:10146000AEA1AA23F1F481E06FA178A549A55AA500
:101470002BA53CA58101EDA4FEA464010E94AC094A
:10148000182F19C08885EBA5FCA580838E85D10116
:101490008C938F85EDA5FEA580830DC010E101C062
:1014A00011E10E94021D8114910429F0C40164E835
:1014B00040E00E947545812FE2960FB6F894DEBF9A
:1014C0000FBECDBFCF91DF911F910F91FF90EF9095
:1014D000DF90CF90BF90AF909F908F907F906F9054
:1014E0005F904F903F902F9008950F931F93DF933D
:1014F000CF9300D00F92CDB7DEB7182F85E090E0E4
:101500002B834A8369830E94FB5AFC012B814A8109
:101510006981009729F010836183428323830483C8
:10152000CF010F900F900F90CF91DF911F910F91EE
:1015300008951F93182F85E090E00E94FB5AFC014C
:10154000009709F441C01082118212821382148222
:10155000143019F1153048F41130A1F0113070F049
:10156000123091F0133081F514C01630F1F01630BE
:10157000C0F0173019F1183039F522C084EA8183A0
:1015800084E005C080EC1FC082EB818381E0828310
:101590001BC080E8808388EA16C080E2818380E8EF
:1015A0000BC080E880838EEA0EC080E880838AECDE
:1015B00081838FE9828387E1838306C088E803C043
:1015C0008CE8808384E28183CF011F9108952F925C
:1015D0003F924F925F927F928F929F92AF92BF9273
:1015E000CF92DF92EF92FF920F931F93DF93CF93EF
:1015F000CDB7DEB7E3970FB6F894DEBF0FBECDBF11
:10160000782E5FA34EA339A728A71BA70AA7FDA67C
:10161000ECA6DFA6CEA645010E9403190E94FA1887
:101620008A309105D8F30E943A539B01AC01811492
:101630009104D9F0272E382E492E5524AA27BB27EE
:1016400088AB99ABAAABBBABC52EDD24EE24FF243F
:10165000C40167EC422F222D08A9EC2C0E943146D0
:10166000C40160E440E00E9475450E9487189C0117
:101670008C01000F111FF3E0220F331FFA95E1F7E1
:10168000020F131F980140E050E060E67AEE80E020
:1016900090E0621B730B840B950B24E731E040E074
:1016A00050E00E94A95A822F0E941C1980E00E94DB
:1016B000111D882309F0D5C08114910429F0C401BB
:1016C00060E840E00E947545C8018051974264E798
:1016D00071E00E94605A862F67FD80E00E941C190D
:1016E000772059F08FE3672D0E94381981149104F7
:1016F00081F0C40164E04FE30AC08BE360E00E9424
:1017000038198114910429F0C40164E04BE30E946C
:1017100075458CE00E941C195C9A8114910429F093
:10172000C40168E840E00E94754560E573EC80E024
:1017300090E00E94411B8823D9F48EA19FA168A547
:1017400079A5AE014D5F5F4F9E012E5F3F4F8E0129
:101750000C5F1F4FE6E0EE2EF12CEC0EFD1E6E012D
:101760000894C11CD11C54010E943507882361F0E4
:101770000E94021D8114910409F473C0C40164E83D
:1017800040E00E9475456DC08885AAA5BBA58C93D5
:101790008E85ECA5FDA580838F85AEA5BFA58C9316
:1017A0008A812FE0222E2822672D0E943819811469
:1017B000910429F0C40164E04A810E94754582E0E9
:1017C0000E941C198E010A5F1F4F9FE0C92ED12C69
:1017D00081E0E82EF12CC7010C2C02C0880F991F64
:1017E0000A94E2F72C813D8182239323009789F0AC
:1017F000F8018081672D0E9438198114910431F01D
:10180000C40164E0D8014C910E94754582E00E94B9
:101810001C190894C108D1080F5F1F4FBFEFCB16EA
:10182000BFEFDB06C1F68E010A5F1F4F680115C0CE
:10183000F6018089672D0E9438198114910439F0CE
:10184000C40164E0D60150964C910E94754582E037
:101850000E941C190894C11CD11C8C2D801B821560
:1018600038F380E0E3960FB6F894DEBF0FBECDBF2D
:10187000CF91DF911F910F91FF90EF90DF90CF906C
:10188000BF90AF909F908F907F905F904F903F90D0
:101890002F900895803849F1813818F4882331F069
:1018A0002CC08438C9F08C3841F516C0683819F15D
:1018B000693838F4623871F0643851F06032E9F414
:1018C00009C0623B29F0603C19F0643AB1F413C0DE
:1018D00082E0089583E0089566516F3070F4E62F3A
:1018E000F0E0EB5EFD4F808108956E3A21F06A3C96
:1018F00031F0683A11F484E0089580E0089582E0C0
:101900000895AF92BF92CF92DF92EF92FF920F9322
:101910001F93DF93CF930F92CDB7DEB7D82EC62E8D
:101920005A0185E090E00E94FB5A8C017C010097EF
:1019300041F4A114B10409F49BC0C50168EC40E076
:1019400079C08D2DB80120E038E34CE95CE10E94BC
:10195000D31A282F882309F070C0A114B10431F0E4
:10196000C5016CE0F80140810E947545C3948C2D3F
:101970000E941C19B8016F5F7F4F8D2D20E038E366
:101980004CE95CE10E94D31A282F882309F055C046
:10199000A114B10431F0C5016CE0F80141810E944D
:1019A00075458C2D0E941C19B8016E5F7F4F8D2DDF
:1019B00020E038E34CE95CE10E94D31A282F882309
:1019C000E1F5A114B10431F0C5016CE0F8014281E8
:1019D0000E9475458C2D0E941C19B8016D5F7F4FC8
:1019E0008D2D20E038E34CE95CE10E94D31A282FCA
:1019F000882319F5A114B10431F0C5016CE0F80198
:101A000043810E9475458C2D0E941C19B8016C5FA2
:101A10007F4F8D2D20E038E34CE95CE10E94D31A22
:101A2000282F882351F4A114B10411F1C5016CE0F1
:101A3000F80144810E9475451BC0C80129830E949A
:101A4000955B2981A114B10489F0203219F4C501F4
:101A500064E409C0213219F4C50168E404C02130EE
:101A600029F4C5016CE440E00E947545EE24FF2492
:101A7000C7010F90CF91DF911F910F91FF90EF90D1
:101A8000DF90CF90BF90AF9008954F925F927F927A
:101A90008F929F92AF92BF92CF92DF92EF92FF927E
:101AA0000F931F93DF93CF930F92CDB7DEB7882E9E
:101AB000762EA42E2901842F90E00E94FB5A6C01FF
:101AC0008C01009741F44114510409F45BC0C20138
:101AD00068EC40E039C073949924BB240894A108B1
:101AE000B10818C0882DB70120E038E34CE95CE16B
:101AF0000E94D31A282F882351F54114510431F044
:101B0000C2016CE0F70140810E947545872D0E945B
:101B10001C199394892D90E07601E80EF91E8A1520
:101B20009B0504F3882DB70120E038E34CE95CE124
:101B30000E94D31A282F882351F44114510411F123
:101B4000C2016CE0F70140810E9475451BC0C601CF
:101B500029830E94955B29814114510489F0203228
:101B600019F4C20164E409C0213219F4C20168E425
:101B700004C0213029F4C2016CE440E00E947545A4
:101B800000E010E0C8010F90CF91DF911F910F91FD
:101B9000FF90EF90DF90CF90BF90AF909F908F908D
:101BA0007F905F904F900895EF92FF920F931F9355
:101BB000CF93DF93F82EE62E8A01E90141155105F6
:101BC00009F462C0FA0180816F2D0E94B91C88233C
:101BD00009F049C0209731F0CE0160E1F801408161
:101BE0000E947545E3948E2D0E94251BF80181818A
:101BF0006F2D0E94B91C8823B1F5209731F0CE01DA
:101C000060E1F80141810E9475458E2D0E94251BDF
:101C1000F80182816F2D0E94B91C882321F520973D
:101C200031F0CE0160E1F80142810E9475458E2DB0
:101C30000E94251BF80183816F2D0E94B91C882307
:101C400091F4209731F0CE0160E1F80143810E94C8
:101C500075458E2D0E94251BF80184816F2D0E94F1
:101C6000B91C882341F0209779F0CE0160E940E06B
:101C70000E94754509C0209749F0CE0160E1F80146
:101C800044810E94754502C081E001C080E0DF917F
:101C9000CF911F910F91FF90EF9008959F92AF9277
:101CA000BF92CF92DF92EF92FF920F931F93CF9349
:101CB000DF93B82E6A0141155105D9F1962E939400
:101CC000AA24E22EFF240894E108F10812C08881BA
:101CD0006B2D0E94B91C8823D1F40115110529F040
:101CE000C80160E148810E947545892D0E94251B2D
:101CF000A3948A2D90E0E601C80FD91F8E159F0589
:101D000034F388816B2D0E94B91C882349F001159A
:101D1000110579F0C80160E940E00E94754509C0ED
:101D20000115110541F0C80160E148810E94754527
:101D300002C081E001C080E0DF91CF911F910F913F
:101D4000FF90EF90DF90CF90BF90AF909F9008955D
:101D50002F923F924F925F926F927F928F929F92BB
:101D6000AF92BF92CF92DF92EF92FF920F931F93A9
:101D7000DF93CF9300D000D000D0CDB7DEB7182FBF
:101D8000762E4A0159014115510509F469C1662EA3
:101D9000639421153105D9F00E943A539B01AC019F
:101DA000232E342E452E5524CA01AA27BB278B8308
:101DB0009C83AD83BE83C52EDD24EE24FF24C501A4
:101DC00063EC422F222D0B81EC2C0E943146D40172
:101DD0001196CD90DC901297F601808161810E946E
:101DE0004A0C8983882309F43BC1812F672DA60102
:101DF00095010E94D40D882309F032C18981815058
:101E0000823008F42FC186E00E94251B812FBE017D
:101E10006F5F7F4F0E94F51B882309F07BC0A114E0
:101E2000B104C9F0C50164E149810E94754513C040
:101E300081E00E94251B812FB6010E94F51B88239B
:101E400009F068C0A114B10451F0C50164E14981F1
:101E50000E94754504C06E010894C11CD11C2981E3
:101E6000203631F3D4011196ED91FC9112978181C6
:101E70002817D1F030E090E0809590952817390729
:101E800099F0812FBE016E5F7F4F0E94F51B882362
:101E900009F040C0A114B10409F4E0C0C50164E137
:101EA0004A810E947545DAC086E00E94251BD40154
:101EB0001196ED91FC91129799818181981701F10A
:101EC0001396ED91FC9114978081612F0E94B91CAB
:101ED000882309F0AAC0A114B10451F0D4011396CB
:101EE000ED91FC911497C50160E140810E94754518
:101EF000F4018081823030F086E00E94251B02C010
:101F000000E049C001E047C0812FB6010E94F51BE7
:101F1000882339F0A114B10409F4A2C0C5016CE80A
:101F200089C0A114B10429F0C50164E149810E946E
:101F3000754586E00E94251BD4011196ED91FC9118
:101F4000129799818181981751F11396ED91FC9127
:101F50001497E00FF11D8081612F0E94B91C882326
:101F600009F063C00F5FA114B10469F0D4011396A6
:101F7000ED91FC911497E00FF11D3197C50160E1DF
:101F800040810E947545F4018081081740F486E085
:101F90000E94251B04C06E010894C11CD11CD401F1
:101FA0001196ED91FC91129799818181981731F1E9
:101FB000F4018081081708F4A7CF20C0D40113963C
:101FC000ED91FC911497EC0DFD1D8081612F0E9415
:101FD000B91C882351F5A114B10461F0D401139602
:101FE000ED91FC911497EC0DFD1DC50160E1408160
:101FF0000E947545862D0E94251B0F5FC02EDD2493
:10200000F401808190E00197C816D906BCF2C81689
:10201000D90641F50380F481E02DEC0DFD1D808192
:10202000612F0E94B91C882349F0A114B104C1F0AA
:10203000C50160E940E00E94754512C0A114B104D9
:1020400089F0D4011396ED91FC911497EC0DFD1DD0
:10205000C50160E140810E94754504C082E003C073
:1020600081E001C080E026960FB6F894DEBF0FBE77
:10207000CDBFCF91DF911F910F91FF90EF90DF9037
:10208000CF90BF90AF909F908F907F906F905F9018
:102090004F903F902F9008950F931F93CF93DF930E
:1020A000EC018B01009709F44AC06115710509F430
:1020B00046C089819A81009709F441C088818823AC
:1020C00029F02B813C8121153105C9F18B5FD801A5
:1020D0008C9390E00E94FB5AFC019C01009719F43C
:1020E000F80110822EC0A981BA818C918083A981C8
:1020F000BA8111968C918183A981BA8112968C91B3
:102100008283A981BA8113968C918383A981BA8134
:1021100014968C911497848365E00DC0862F90E00F
:10212000AF01480F591FAB81BC81A80FB91F8C911B
:10213000DA018C936F5F8881681780F302C020E01A
:1021400030E0C901DF91CF911F910F9108956F92F7
:102150007F928F929F92BF92CF92DF92EF92FF92E7
:102160000F931F93DF93CF930F92CDB7DEB7B82EA7
:102170004B016A016115710509F451C185E090E0D8
:102180000E94FB5A8C017C01009709F44AC1DC01D2
:1021900012961C921E92119714961C921E921397DF
:1021A0001C92F401808161810E944A0C89838823FA
:1021B00009F44EC0813019F0833009F041C082E04B
:1021C00090E00E94FB5ABC01D80112969C938E931A
:1021D0001197009709F411C18B2D0E94F51B8823DC
:1021E00009F001C1C114D10451F0D8011196ED914B
:1021F000FC911297C60164E140810E947545F80187
:1022000081819281DC012C91203631F40E94955B12
:10221000F801128211822AC0BC016F5F7F4F8B2DA3
:102220000E94F51B882309F4ECC0D80111968D910A
:102230009C9112970E94955BF80112821182DDC079
:102240008B2DBE016F5F7F4F0E94F51B882311F01D
:10225000C701D4C0C114D10429F0C60164E1498189
:102260000E9475456980B62DB03651F4C8010E94B0
:10227000955B8B2DB401A6010E94A7107C01D1C0F3
:10228000F4018181681651F0262D30E090E08095B0
:1022900090952817390709F095C007C0D401149606
:1022A0008C911497F801808303C081E0D8018C934E
:1022B000F801808190E00E94FB5AD80114969C930B
:1022C0008E931397009711F088243BC060912712DA
:1022D0007091281285E092E00E94A65D8FEF93ED49
:1022E000A0E381509040A040E1F700C0000085C00D
:1022F000682C7724D80113966D917C911497660D04
:10230000771D8B2D0E94F51B882359F0F8018381DE
:1023100094810E94955BD80114961C921E9213978B
:102320006CC0C114D10461F0D8011396ED91FC91F9
:102330001497E60DF71DC60164E140810E947545C2
:102340008394F8018081881698F282E090E00E94E0
:10235000FB5ABC01D80112969C938E93119700975B
:1023600051F413968D919C9114970E94955BF801FE
:102370001482138242C08B2D0E94F51B8823B9F46E
:10238000C114D10451F0D8011196ED91FC9112972E
:10239000C60164E140810E947545F8016181728146
:1023A0006F5F7F4F8B2D0E94F51B882351F1D80161
:1023B00013968D919C9114970E94955BF80114825D
:1023C000138212C082E090E00E94FB5AF8019283CF
:1023D0008183009791F0DC016D92BD018B2D0E94ED
:1023E000F51B882371F0F801818192810E94955B31
:1023F000D80112961C921E921197C8010E94955BFB
:102400000EC0C114D10469F0D8011196ED91FC9170
:102410001297C60164E141810E94754502C0EE2415
:10242000FF24C7010F90CF91DF911F910F91FF9073
:10243000EF90DF90CF90BF909F908F907F906F90A4
:102440000895CF92DF92EF92FF920F931F93CF9355
:10245000DF93D82E7B01EA0189016115710509F42A
:1024600069C0209709F466C088818823C9F18B81EF
:102470009C810097A9F1FB0181816D2D0E94C119FA
:10248000882309F057C00115110531F0C80168E033
:10249000F70141810E94754582E00E941C19CC24FD
:1024A0001CC0EC2CFF24EB81FC81EE0DFF1D808114
:1024B0006D2D0E94C1198823E9F50115110549F018
:1024C000EB81FC81EE0DFF1DC80168E040810E9498
:1024D000754582E00E941C19C3948881C81608F3D0
:1024E000E981FA81309731F180816D2D0E94C11907
:1024F000882301F50115110539F0E981FA81C80138
:1025000068E040810E94754582E00E941C19E981C3
:10251000FA8181816D2D0E94C119882359F401151A
:10252000110551F0E981FA81C80168E041810E94FA
:10253000754502C081E001C080E0DF91CF911F911D
:102540000F91FF90EF90DF90CF9008950F931F931E
:10255000CF93DF93EC018B010097C9F161157105F1
:10256000B1F189819A81009791F18881882329F0BE
:102570002B813C812115310551F18E5FD8018C935F
:1025800090E00E94FB5AFC019C01009719F4F801AD
:1025900010821FC0A981BA818C918083A981BA81E0
:1025A00011968C911197818362E00DC0862F90E087
:1025B000AF01480F591FAB81BC81A80FB91F8C9187
:1025C000DA018C936F5F8881681780F302C020E086
:1025D00030E0C901DF91CF911F910F9108950F93C2
:1025E0001F93DF93CF930F92CDB7DEB78C0183E0BB
:1025F00090E069830E94FB5AFC016981009719F001
:10260000128301836083CF010F90CF91DF911F91DF
:102610000F910895DF92EF92FF920F931F93DF9334
:10262000CF93CDB7DEB7DA8483E090E00E94FB5A07
:102630007C018C01009729F1FC01D0828D2D90E066
:102640000E94FB5AF70192838183009731F4C701FE
:102650000E94955B00E010E014C0AE01455F5F4F43
:1026600020E030E00CC0F701A181B281A20FB31FBE
:10267000FA0180818C932F5F3F4F4E5F5F4F2D1586
:1026800090F3C801CF91DF911F910F91FF90EF90D0
:10269000DF900895CF92DF92EF92FF920F931F93F6
:1026A000CF93DF938C01F62E83E090E00E94FB5ADB
:1026B000C82EE6016E01D92EE6012097E1F01A82BC
:1026C0001982188201151105B1F0FF20A1F08F2D9C
:1026D00090E00E94FB5A9A838983009731F4C601E7
:1026E0000E94955BC0E0D0E006C0B8014F2D50E0DD
:1026F0000E942D5DF882CE01DF91CF911F910F9145
:10270000FF90EF90DF90CF900895CF93DF93EC018F
:10271000009759F089819A81009721F00E94955B7A
:102720001A821982CE010E94955BDF91CF910895A4
:10273000CF93DF93EC01009799F089819A810097FC
:1027400021F00E94955B1A8219828B819C810097EF
:1027500021F00E94955B1C821B82CE010E94955B3A
:10276000DF91CF910895CF92DF92EF92FF920F9376
:102770001F93CF93DF93C82ED62E8A0185E090E079
:102780000E94FB5A7C01EC01009751F401151105E0
:1027900009F472C0C80168EC40E00E9475456CC045
:1027A0001A8219821C821B8218828C2D6D2DA80121
:1027B0000E94810CFC019A838983009711F4C70160
:1027C00057C0808161810E944A0C882321F4C7018F
:1027D0000E9498134FC08150823008F44DC086E0AB
:1027E0000E941C19E981FA8181816C2D0E94C11916
:1027F000882391F089819A810E94955B1A821982BF
:10280000C7010E94955B01151105A1F1C80160E5A2
:1028100040E00E9475452EC00115110551F0D70109
:102820001196ED91FC911297C80168E041810E94D8
:1028300075458D2D8F5F0E941C19D7011196ED9162
:10284000FC91129744814C938C2D6D2D98010E9420
:10285000450DF70194838383009771F48181928100
:102860000E94955BD70112961C921E921197C70188
:102870000E94955BC0E0D0E0CE01DF91CF911F9127
:102880000F91FF90EF90DF90CF900895CF92DF925D
:10289000EF92FF920F931F93DF93CF930F92CDB7D9
:1028A000DEB7F62E642FA80129830E94B3136C01B2
:1028B0002981009769F08F2D622FA60198010E944F
:1028C000A80E882329F0C6010E949813CC24DD2489
:1028D000C6010F90CF91DF911F910F91FF90EF9064
:1028E000DF90CF900895AF92BF92DF92EF92FF9268
:1028F0000F931F93CF93DF93082F5B01D42E85E0B6
:1029000090E00E94FB5A7C01EC01009761F1802F5E
:102910000E94990A8C019A838983009721F4C70148
:102920000E94955B10C0A114B104C9F0DD20B9F07C
:102930008D2D90E00E94FB5A9C838B83009731F48D
:10294000C7010E949813C0E0D0E00DC0B5014D2D25
:1029500050E00E942D5DD882F801D48204C0F701B6
:10296000148213821082CE01DF91CF911F910F91BB
:10297000FF90EF90DF90BF90AF900895AF92BF921D
:10298000CF92DF92EF92FF920F931F93CF93DF933B
:102990008C015B01F42E0097A9F185E090E00E9484
:1029A000FB5A6C01EC01009779F1F801808161819B
:1029B0004281238104810E94750A9A83898300974A
:1029C00021F4C6010E94955B1DC0A114B104A9F0B9
:1029D000FF2099F08F2D90E00E94FB5A9C838B83FF
:1029E000009721F4C6010E9498130CC0B5014F2D29
:1029F00050E00E942D5DF88207C0F6011482138218
:102A0000108202C0C0E0D0E0CE01DF91CF911F91D3
:102A10000F91FF90EF90DF90CF90BF90AF9008950F
:102A20008F929F92AF92BF92CF92EF92FF920F93AD
:102A30001F93DF93CF9300D00F92CDB7DEB7182F3F
:102A4000570185E090E02B834A8369830E94FB5AFB
:102A50007C014C012B814A816981009761F1812FB2
:102A60000E94750AF70192838183009721F4C701C0
:102A70000E94955B11C0A114B104C9F0CC20B9F03B
:102A80008C2D90E00E94FB5AF7019483838300977A
:102A900031F4C7010E949813882499240CC0B50111
:102AA0004C2D50E00E942D5DF701C08204C0F7015B
:102AB000148213821082C4010F900F900F90CF9157
:102AC000DF911F910F91FF90EF90CF90BF90AF904B
:102AD0009F908F900895CF92DF92EF92FF920F9385
:102AE0001F93DF93CF930F92CDB7DEB76C010097A2
:102AF00009F44FC0FC0181819281009709F449C01B
:102B000085E090E00E94FB5A7C018C01009709F45B
:102B100042C085E090E00E94FB5AF70192838183D6
:102B2000009721F4C7010E94955B33C0DC01F601D8
:102B300031812281832F922FFC0185E001900D923B
:102B40008150E1F7F601838194810097E9F040819B
:102B50004423D1F0842F90E049830E94FB5AF7016F
:102B6000948383834981009721F4C7010E949813BD
:102B700010C0F6016381748150E00E942D5DF60162
:102B80008081F701808307C0F701148213821082CD
:102B900002C000E010E0C8010F90CF91DF911F91BB
:102BA0000F91FF90EF90DF90CF900895CF93DF9338
:102BB000EC01009799F089819A81009721F00E9499
:102BC000955B1A8219828B819C81009721F00E946B
:102BD000955B1C821B82CE010E94955BDF91CF9199
:102BE0000895CF92DF92EF92FF920F931F93CF93AE
:102BF000DF93F82E862F8A0169014115510591F066
:102C0000BA01A9010E94A710EC01009769F08F2D6D
:102C1000B801AE0196010E942112882329F0CE014D
:102C20000E94D615C0E0D0E0CE01DF91CF911F9178
:102C30000F91FF90EF90DF90CF900895AF92BF92E9
:102C4000CF92DF92EF92FF920F931F93DF93CF9378
:102C500000D0CDB7DEB7C82ED62E780184E090E044
:102C60002A8349830E94FB5A682F792F5B012A81AE
:102C70004981A114B10449F40115110529F1C801D4
:102C800068EC40E00E9475451FC08C2D6D2D0E94A0
:102C90004614F50191838083009789F0FC014181FE
:102CA00052818C2D6D2D97010E94F115F5019383B2
:102CB0008283009749F4808191810E949813C50115
:102CC0000E94955BAA24BB24C5010F900F90CF9161
:102CD000DF911F910F91FF90EF90DF90CF90BF9009
:102CE000AF900895CF92DF92EF92FF920F931F93D0
:102CF000DF93CF930F92CDB7DEB78C01009709F425
:102D000057C0DC0111968D919C911297009709F4A0
:102D10004FC085E090E00E94FB5A7C016C01009757
:102D200009F448C082E090E00E94FB5AFC01D70100
:102D300012969C938E931197009721F4C7010E94DD
:102D4000955B36C0D80111968D919C911297DC014C
:102D50008D919C91119791838083F8018381948157
:102D60000097F9F040814423E1F0842F90E04983FB
:102D70000E94FB5AD70114969C938E931397498116
:102D8000009721F4C7010E94D61512C0F801638193
:102D9000748150E00E942D5DD8018C91F7018083F1
:102DA00009C0D70114961C921E9213971C9202C060
:102DB000CC24DD24C6010F90CF91DF911F910F919C
:102DC000FF90EF90DF90CF900895CF93DF93EC01C9
:102DD000009799F088819981009721F00E949813BB
:102DE000198218828A819B81009721F00E94D61552
:102DF0001B821A82CE010E94955BDF91CF910895CC
:102E00008F929F92AF92BF92CF92DF92EF92FF92FA
:102E10000F931F93CF93DF93882E962EA42EB22E5E
:102E2000780184E090E00E94FB5A6C01EC0100976D
:102E300051F40115110509F472C0C80168EC40E0B5
:102E40000E9475456CC0198218821B821A82882DD7
:102E5000692D4A2D2B2D0E941E168C01009711F40E
:102E6000C6012FC0DC018D919C911197F6019183D1
:102E7000808311961C921E921296ED91FC911397ED
:102E80000180F281E02D2081213639F081E090E04F
:102E90002C3629F080E090E002C081E090E08823A9
:102EA00079F1C8010E94E51681E02AC0882D692DBC
:102EB0004A2D2B2D87010E941E168C01009731F49C
:102EC000C6010E94E516C0E0D0E029C0DC011296E0
:102ED000ED91FC9113970180F281E02D2081213644
:102EE00039F081E090E02C3629F080E090E002C0DB
:102EF00081E090E0882321F0C8010E94E516D6CF3A
:102F00008823A1F6F80182819381D60113969C93C0
:102F10008E93129713821282C8010E94E516CE0189
:102F2000DF91CF911F910F91FF90EF90DF90CF90A5
:102F3000BF90AF909F908F900895E898E9E6F0E0F9
:102F400080818260808380818E7F8083E09AE89A8E
:102F50000895E898089586B18071089589B18170C7
:102F600008958031910560F428E088E190E00FB683
:102F7000F894A895809360000FBE2093600087C0EE
:102F80008F31910560F429E088E190E00FB6F89464
:102F9000A895809360000FBE2093600078C08D33A9
:102FA000910560F42AE088E190E00FB6F894A895C6
:102FB000809360000FBE2093600069C0893791053F
:102FC00060F42BE088E190E00FB6F894A895809328
:102FD00060000FBE209360005AC08B3F910560F4E3
:102FE0002CE088E190E00FB6F894A89580936000FB
:102FF0000FBE209360004BC021E0853F920760F434
:103000002DE088E190E00FB6F894A89580936000D9
:103010000FBE209360003BC023E0893E920760F41E
:103020002EE088E190E00FB6F894A89580936000B8
:103030000FBE209360002BC027E0813D920760F413
:103040002FE088E190E00FB6F894A8958093600097
:103050000FBE209360001BC02FE0813A920760F4FE
:1030600028E288E190E00FB6F894A895809360007C
:103070000FBE209360000BC029E288E190E00FB6FC
:10308000F894A895809360000FBE20936000809113
:103090006000806480936000089588E10FB6F89422
:1030A00080936000109260000FBEE0E6F0E0808147
:1030B0008F7B80830895A8950895DF93CF9300D0E8
:1030C000CDB7DEB720E030E0A9012F5F3F4F4F4F73
:1030D0005F4FE1E03499E0E0E983E1E04899E0E026
:1030E000EA83E981FA81EE0FEF2B61157105810505
:1030F000910529F0261737074807590711F0EE23E5
:1031000021F38E2F0F900F90CF91DF9108951F9391
:103110001FB7F89481E090E090939500809394001D
:10312000000000000000000000000000000000009F
:10313000000000000000000000000000000000008F
:10314000000000000000000000000000000000007F
:10315000000000000000000000000000000000006F
:10316000000000000000000000000000000000005F
:10317000000000000000000000000000000000004F
:10318000000060919400709195006130710579F0B4
:1031900080E090E020E83EE340E050E00E94415AA9
:1031A00022E330E040E050E00E94875A02C020E075
:1031B00030E01FBFC9011F9108958091B2000895AA
:1031C00080E18093B300E0E7F0E08081826080835B
:1031D0001092B20082E08093B00087E08093B1004B
:1031E00008951092B1001092B000109270001092E9
:1031F000B30008958FB7F894209194003091950012
:103200008FBFC90108958CE08093900088E990E019
:1032100064E771E00E94B8208FE0809391000895E8
:103220001092910084E990E060E070E00E94B82084
:1032300008951092910008951F93182F88E990E047
:1032400064E771E00E94B8208CE08093900084E9EC
:1032500090E061E070E00E94B820C19A80E004C074
:10326000C19BFECFC19A8F5F8117D0F31F91089544
:103270000F931F93DF93CF930F92CDB7DEB7182F25
:10328000062F0E948718009709F475C08CE0809380
:103290009000449A3C9A88E990E064E771E00E94CB
:1032A000B82084E990E061E070E00E94B820C19A03
:1032B00088E080939000002311F11095198320E09D
:1032C00030E010E0E7E0F0E041E050E09981BF013C
:1032D000621B730BDA0102C0AA0FBB1F6A95E2F7EB
:1032E0009A2341F0BA01022E02C0660F771F0A949A
:1032F000E2F7162B2F5F3F4F2830310539F7C19B7E
:10330000FECFC19A20E030E060E041E050E0F8E01C
:1033100071E0ECE0CA01022E02C0880F991F0A94E6
:10332000E2F7812329F0E0939000002329F403C001
:10333000F093900001116727C19BFECFC19A2F5FC8
:103340003F4F2830310531F7002319F4662319F473
:1033500004C0662311F48CE001C088E080939000E3
:10336000C19BFECFC19AC19BFECFC19A8CE08093D6
:1033700090003C98449A0F90CF91DF911F910F914C
:1033800008950F931F93DF93CF9300D0CDB7DEB78F
:10339000182F062F0E94381981E00E941C193499B9
:1033A0002BC088E990E064E771E00E94B82084E9CE
:1033B00090E061E070E00E94B820C19A8CE08093B8
:1033C000900090E09F5F82E09A830E941C19812FF9
:1033D000602F0E94381981E00E941C1981E09A81B7
:1033E000349980E08983943019F08981882351F7DA
:1033F000998181E0992309F480E00F900F90CF919B
:10340000DF911F910F910895DF93CF930F92CDB766
:10341000DEB720E030E046B1407149832F5F3F4F77
:10342000009719F02817390719F04981442399F7B3
:10343000998181E0992309F480E00F90CF91DF9189
:103440000895EF92FF920F931F93DF93CF9300D0D5
:103450000F92CDB7DEB7F82E8B018CE080939000F1
:103460003C98449A80E090E0DC0161E0349960E0AF
:103470006A836A816623B1F461E0489960E06B83F6
:103480006B81662309F080C00196A11DB11D211535
:1034900031054105510549F382179307A407B50784
:1034A00021F774C084E990E061E070E00E94B820E8
:1034B00088E990E06AEB70E00E94B820C19AC19B55
:1034C000FECFC19A86B18071898388E990E064E774
:1034D00071E00E94B820D8011C928981882309F0EC
:1034E00057C087E090E0EE24E0E047E050E021E0C4
:1034F00030E0F1E0C19BFECFC19A66B16071698393
:10350000FF2059F069816623B9F4B901082E02C081
:10351000660F771F0A94E2F70DC06981662361F098
:10352000BA01681B790BD90102C0AA0FBB1F6A95AB
:10353000E2F7BD01E62BEF260197BFEF8F3F9B0718
:10354000C9F6D801EC93C19BFECFC19A86B18071B8
:10355000898388E990E06AEB70E00E94B820C19B03
:10356000FECFC19AFF2019F0EE2019F007C0EE201F
:1035700029F0998181E0992361F004C0998181E06B
:10358000992339F480E005C080E203C081E201C0E4
:1035900081E00F900F900F90CF91DF911F910F91CD
:1035A000FF90EF9008951F930E94211A182F8130E9
:1035B00091F50E948718009771F18CE0809390003C
:1035C0003C9A88E990E06BEA70E00E94B82084E9B8
:1035D00090E061E070E00E94B820C19A88E080939A
:1035E0009000C19BFECFC19A88E990E06FE871E03E
:1035F0000E94B820C19BFECFC19A8CE080939000BE
:103600003C98449A88E990E06BEA70E00E94B82008
:10361000C19BFECFC19A812F1F91089581E04999E6
:1036200080E0089589B18095881F8827881F0895B4
:103630000E940E1B882321F05F98579A80E008951E
:1036400081E00895579A5F9A08951F93182F88E88C
:1036500090E060ED75E00E94B82080E380938000E8
:1036600084E890E061E070E00E94B820B19A80E0C8
:1036700004C0B19BFECFB19A8F5F8117D0F31F9129
:103680000895DF93CF930F92CDB7DEB79B01AC01C6
:1036900080E090E0DC0163B1607469830196A11D54
:1036A000B11D211531054105510529F082179307F8
:1036B000A407B50719F06981662369F7998181E04C
:1036C000992309F480E00F90CF91DF910895EF9254
:1036D000FF920F931F93DF93CF930F92CDB7DEB777
:1036E000E82E8B0180E38093800026982E9A1E9905
:1036F000FECF84E890E061E070E00E94B82088E8A6
:1037000090E068EE72E00E94B820B19AB19BFECFC3
:10371000B19A83B18074898388E890E060ED75E0A8
:103720000E94B820F80110828981882309F054C0D2
:1037300027E030E0FF24A0E067E070E041E050E0E7
:10374000B1E0B19BFECFB19A83B180748983EE2042
:1037500061F089818823B9F4CA01022E02C0880F62
:10376000991F0A94E2F7A82B0DC08981882359F08C
:10377000FB01E21BF30BCA0102C0880F991FEA95F7
:10378000E2F7A82BFB26215030409FEF2F3F39074F
:10379000C1F6F801A083B19BFECFB19A83B18074CA
:1037A000898388E890E068EE72E00E94B820B19BBF
:1037B000FECFB19AEE2019F0FF2019F007C0FF20CC
:1037C00029F0998181E0992341F004C0998181E039
:1037D000992319F480E001C081E00F90CF91DF912F
:1037E0001F910F91FF90EF9008951F930E94671B08
:1037F000182F882391F10E940E1B882371F180E31A
:1038000080938000269A88E890E06CEA72E00E943B
:10381000B82084E890E061E070E00E94B820B19A9E
:1038200080E280938000B19BFECFB19A88E890E05F
:103830006FE376E00E94B820B19BFECFB19A80E39F
:103840008093800026982E9A88E890E06CEA72E0D7
:103850000E94B820B19BFECFB19A812F1F9108958D
:103860000F931F93DF93CF930F92CDB7DEB7182F2F
:10387000062F0E940E1B882309F475C080E38093F5
:1038800080002E9A269A88E890E060ED75E00E940C
:10389000B82084E890E061E070E00E94B820B19A1E
:1038A00080E280938000002311F11095198320E0BD
:1038B00030E010E0E7E0F0E041E050E09981BF0146
:1038C000621B730BDA0102C0AA0FBB1F6A95E2F7F5
:1038D0009A2341F0BA01022E02C0660F771F0A94A4
:1038E000E2F7162B2F5F3F4F2830310539F7B19B98
:1038F000FECFB19A20E030E060E041E050E0F0E23D
:1039000071E0E0E3CA01022E02C0880F991F0A94F9
:10391000E2F7812329F0E0938000002329F403C01B
:10392000F093800001116727B19BFECFB19A2F5F02
:103930003F4F2830310531F7002319F4662319F47D
:1039400004C0662311F480E301C080E2809380000C
:10395000B19BFECFB19AB19BFECFB19A80E3809329
:10396000800026982E9A0F90CF91DF911F910F9192
:1039700008950F931F93DF93CF9300D0CDB7DEB799
:10398000182F062F0E94301C81E00E94251B1E99D3
:103990002BC088E890E060ED75E00E94B82084E8D4
:1039A00090E061E070E00E94B820B19A80E38093DB
:1039B000800090E09F5F82E09A830E94251B812F08
:1039C000602F0E94301C81E00E94251B81E09A81BB
:1039D0001E9980E08983943019F08981882351F7FA
:1039E000998181E0992309F480E00F900F90CF91A5
:1039F000DF911F910F910895882311F05C9A08952B
:103A00005C9808955C98549A14BC15BC1092800080
:103A1000109281002F98279A2E98269A5F9A579A8B
:103A200008951F93182F882319F05C98549A1AC090
:103A30002E98269A2F98279A5C98549A87EC90E0B3
:103A40000197F1F700C000000E94181B882321F0A5
:103A50000E94021D81E020C087EC90E00197F1F701
:103A600000C0000026982E9A1123A9F481E087BD9A
:103A700016BC92E494BD85BD80E38093800088E805
:103A800090E060ED75E00E94B82089E080938100AD
:103A900080E48093820080E01F910895E9E6F0E0E1
:103AA0008081846080838081877F8083E99A089504
:103AB000E99808956F9A779A08956E9A769A08957C
:103AC0006D9A759A08956C9A749A08956F9877987C
:103AD00008956E98769808956D98759808956C98E5
:103AE00074980895249A2C9A0895259A2D9A0895E9
:103AF00024982C98089525982D980895849A8C9A46
:103B00000895849A8C980895869A8E9A0895869A34
:103B10008E98089583988FB18870089582988FB198
:103B20008470089581988FB18270089580988FB1C4
:103B30008170089581E07B9980E07A9B8260799B17
:103B40008460789B8860089588B1887F88B987B140
:103B5000876087B911B8419A429A85E38A95F1F74F
:103B600080B1429897B1987F97B9089580914406A3
:103B70000895809344060895AF92BF92CF92DF924A
:103B8000EF92FF920F931F93DF93CF9300D0CDB7A7
:103B9000DEB7F82E89014A8369830E94A41D4A81F9
:103BA000698187FDF8CF87B1876087B9FF2011F061
:103BB000409A01C04098662319F0419A11B804C098
:103BC00041988FEF81B942B9429AB80180E090E004
:103BD0000E94DF575B016C012BEA3AEA4AEA50E4A3
:103BE0000E9455557B018C017F2D912F20E030E004
:103BF00040E85FE30E945D5787FD63C06E2D7F2D17
:103C0000802F912F20E030E04FE753E40E94FD56D3
:103C100018160CF04FC0C601B50120E030E04AE7AD
:103C200054E40E944F56A62ED72EC82EB92E20E05F
:103C300030E04AE755E40E9455557B018C017F2D09
:103C4000912F20E030E040E85FE30E945D5787FD60
:103C50002BC06E2D7F2D802F912F20E03FEF4FE75F
:103C600057E40E94FD561816C4F46A2D7D2D8C2D44
:103C70009B2D20E030E040E251E40E9455550E9427
:103C8000815320E931E005C0C9010197F1F7615086
:103C9000704061157105C1F717C06E2D7F2D802F03
:103CA000912F0E94815302C061E070E0CB01019727
:103CB000F1F70AC06E2D7F2D802F912F0E94815326
:103CC00001C061E06A95F1F780B1429897B1987FA1
:103CD00097B90F900F90CF91DF911F910F91FF90A7
:103CE000EF90DF90CF90BF90AF9008951F9380E04A
:103CF00060E041E028E230E00E94BC1D18E281E073
:103D000060E041E328E230E00E94BC1D1150B9F7A9
:103D100080E060E040EC25E230E00E94BC1D18E24B
:103D200081E060E042E328E230E00E94BC1D1150D7
:103D3000B9F71F910895EF92FF920F931F93CF93BE
:103D4000DF93EC01E62E80E060E041E028E230E025
:103D50000E94BC1D8E01FF240AC0F80141918F0111
:103D600081E060E028E230E00E94BC1DF394FE1484
:103D700018F4FF2DF83089F78E2D8930C0F080E0DF
:103D800060E040EC28E230E00E94BC1D0BC0FE0168
:103D9000EF0DF11D81E060E0408128E230E00E94FB
:103DA000BC1DF394FE1418F4EF2DE03180F3109253
:103DB0004506DF91CF911F910F91FF90EF900895ED
:103DC0001F93182F80914606882371F01A3071F0E6
:103DD00080E060E041E028E230E00E94BC1D1092EB
:103DE00046061092450606C01A3021F481E0809301
:103DF000460607C081E060E0412F28E230E00E94E3
:103E0000BC1D809145068F5F80934506883021F464
:103E100080E060E040EC05C0803139F480E060E093
:103E200042E028E230E00E94BC1D80E090E01F915B
:103E300008953D9A459A80E060E048E328E230E04A
:103E40000E94BC1D80E060E04EE028E230E00E946D
:103E5000BC1D80E060E046E028E230E00E94BC1D2E
:103E600080E060E041E028E230E00E94BC1D81E09B
:103E70008093440608958FEF81B98AEA82B90E943F
:103E8000A41D91E08A3A09F090E0892F089580E01E
:103E900060E048E028E230E00E94BC1D3D98459873
:103EA0001092440608953D9A459A80E060E04EE005
:103EB00028E230E00E94BC1D81E080934406089512
:103EC000F999FECF92BD81BD60BDFA9AF99A089525
:103ED000F999FECF92BD81BDF89A80B50895CF9231
:103EE000DF92EF92FF920F931F93CF93DF93D82E21
:103EF000EB018A012097D9F08FE0413A5807B8F4D6
:103F0000CFB6F8948D2D0AC07C010894E11CF11CF9
:103F1000EC0FFD1F60810E94601FC701E82FED19A3
:103F2000F0E0E017F10780F3F999FECFCFBEDF9103
:103F3000CF911F910F91FF90EF90DF90CF90089558
:103F40008F929F92AF92BF92CF92DF92EF92FF92A9
:103F50000F931F93CF93DF93982EE92E8B012FE0C1
:103F6000613A720710F5CB010E94FB5AC82EE60198
:103F70006E01D92EE6012097D1F08FB6F894892DE5
:103F80009E2D0BC05C010894A11CB11C0E94681FEF
:103F9000FE01EE0DFF1D8083C501E82EE918FF2408
:103FA000E016F10678F38FBE02C0CC24DD24C601F2
:103FB000DF91CF911F910F91FF90EF90DF90CF9005
:103FC000BF90AF909F908F9008952FB7F8949093E3
:103FD000CD008093CC0081E08093C90086E080937F
:103FE000CA002FBF08958FB7F8941092C9008FBFF1
:103FF00008959091C80095FFFCCF8093CE0008955E
:104000008091C80087FFFCCF8091CE00089502C048
:104010008091CE008091C80087FDFACF08959F92CD
:10402000AF92BF92CF92DF92EF92FF920F931F93C6
:10403000DF93CF93CDB7DEB7C050D1400FB6F89421
:10404000DEBF0FBECDBFFE01319680E091E0DF0103
:104050009C011D9221503040E1F7992490E9C92E2E
:1040600091E0D92E8F0182E3A82E82E0B82E6091D4
:1040700027127091281284E292E00E94A65D80EDE2
:1040800097E0F6013197F1F70197D9F7E92CFF2472
:104090000E940020F801EE0DFF1D808300D000D0AB
:1040A00000D0EDB7FEB7319620912712309128123B
:1040B000ADB7BEB712963C932E931197B382A282EE
:1040C000848315820E94695D2DB73EB72A5F3F4FFA
:1040D0000FB6F8943EBF0FBE2DBF80ED97E0F601FE
:1040E0003197F1F70197D9F7992051F4F801EE0DC6
:1040F000FF1D80818A3009F4BACF8D3009F4B7CF23
:10410000F801EE0DFF1D80818A3001F51082F70164
:104110003197E00FF11F80818D3009F41082CE01BC
:1041200001960E94075DC050DF4F0FB6F894DEBFC6
:104130000FBECDBFCF91DF911F910F91FF90EF90F8
:10414000DF90CF90BF90AF909F90089593948FCFC2
:10415000CF93DF93009749F0EC0104C00E94F91F50
:10416000209719F089918823C9F7DF91CF9108959D
:104170002FB7F894FC01718360832FBF08954FB768
:10418000F894FC01208131814FBFC90108951F932C
:104190002FB7F89484E690E090939900809398006C
:1041A0002FBF2FB7F89481E090E090939500809313
:1041B00094002FBF1092900082E0809371008FE0F6
:1041C000809391001FB70E94B61D90914B069923D2
:1041D00021F0882311F00E94471F0E94661D0E9453
:1041E000691D0E946C1D0E946F1D83B7817F83BF74
:1041F000F89483B7816083BF7894889583B78E7F66
:1042000083BF1FBF10927100109291000E94631D26
:104210001F9108950E94B61D90914B06992321F09D
:10422000882311F00E94471F0E94661D0E94691D8D
:104230000E946C1D0E946F1D9FB783B7817F8460B1
:1042400083BFF89483B7816083BF7894889583B7E0
:104250008E7F83BF9FBF0E94631D08958F929F92A0
:10426000AF92BF92CF92DF92EF92FF920F931F9384
:10427000CF93DF93A62EB42E49010E946B157C01CB
:10428000009709F4C0C000E010E001C08E010E9458
:10429000811D0E94871D80E10E94251B8A2D6B2DA8
:1042A000A70194010E94A80E882341F5BB20A9F024
:1042B00000000E947E1D2B2D223011F40E94841DCF
:1042C0008FE99FE00197F1F700C000000E94811D77
:1042D0009B2D923011F40E94871DD70111966D918C
:1042E0007C9112978A2DA4010E94A7106C0100975F
:1042F00029F0FC0181819281009711F4C8012FC03F
:10430000C6010E947216EC01009739F4C8010E94A0
:10431000D615C6010E94D61572C00115110509F403
:104320003FC0D80113968D919C9114970097C1F1CD
:104330008C918823A9F1F6016081680F68838B81D5
:104340009C8170E00E942E5C9C838B83009769F4B3
:10435000C8010E94D615C6010E94D615CE010E9442
:10436000D615C7010E9498134EC0D8014C911396E0
:104370006C91139714967C9150E00E942D5DF8018A
:1043800080812B813C81280F311DD6014C911396E1
:104390006C91139714967C91C90150E00E942D5D99
:1043A000C6010E94D615C8010E94D615E981FA817E
:1043B0008081982F91569330B8F4C7010E949813CA
:1043C00081E060E070E040E00E9473147C0100979F
:1043D00021F4CE010E94D61516C0E981FA818081B0
:1043E000813609F053CF02C08C3649F4D7011196BB
:1043F0002D913C9112978181F901848347CFC701A8
:104400000E94981302C0C0E0D0E0CE01DF91CF91AE
:104410001F910F91FF90EF90DF90CF90BF90AF90E2
:104420009F908F900895EF92FF920F931F93CF93D9
:10443000DF93F82EE62EFA018901309781F1408151
:10444000442369F16181728184E00E947314EC015C
:10445000009739F16F2D4E2D98010E942E218C016D
:10446000009721F4CE010E9498131BC0CE010E9438
:104470009813D8011196ED91FC911297309731F075
:104480008081803919F48181882321F0C8010E943C
:10449000D61507C0C8010E94D61580E003C08FEF73
:1044A00001C081E0DF91CF911F910F91FF90EF90BC
:1044B0000895EF92FF920F931F93CF93DF93F82EFF
:1044C000E62EFA0189016181728187E040810E94B4
:1044D0007314EC01009751F06F2D4E2D98010E943E
:1044E0002E218C01CE010E94981302C000E010E042
:1044F000C801DF91CF911F910F91FF90EF90089528
:10450000FC010097D1F02381348121153105A9F0F8
:104510008081F90140E001C04F5F481718F4919184
:104520009838D1F750E090E00297481759073CF4CB
:10453000240F351FF9018281089580E0089580E0FD
:1045400008950097E9F0DC011396ED91FC91149722
:104550003097B1F09081992399F0A181B2811097A1
:1045600079F080E00BC0ED91FD91309731F0208122
:104570002F3919F42181283329F08F5F891798F397
:10458000E0E0F0E0CF010895009729F00E94A12219
:10459000FC01009779F485E090E00E94FB5AE82F37
:1045A000F92F309739F01482138212828FE98083B9
:1045B00088E38183CF010895AF92BF92DF92EF929B
:1045C000FF920F931F93DF93CF9300D0CDB7DEB749
:1045D0005C0185E090E04A8369830E94FB5A8C016C
:1045E0007C014A816981009709F45AC0DC01149664
:1045F0001C921E921397F50180818C938F718F31DD
:1046000031F4818111968C93119782E005C0D80115
:1046100011961C92119781E0F501E80FF11D908130
:10462000F8019283D82ED394913849F4F501ED0D19
:10463000F11D8081D80112968C931297D394442354
:1046400079F1F801828170E061507040282F30E0EC
:104650002617370764F490E00E94FB5AD80114969D
:104660009C938E931397009711F080E013C0C801BC
:104670000E94955BEE24FF2413C0D8011396ED91A0
:10468000FC911497E80FF11DD501A20FB11D9C916B
:1046900090838F5F282F2D0DF8019281891768F381
:1046A000C7010F900F90CF91DF911F910F91FF9055
:1046B000EF90DF90BF90AF900895AF92BF92CF92EE
:1046C000DF92EF92FF920F931F93DF93CF930F929E
:1046D000CDB7DEB7F82ED62EE42E590186E060E085
:1046E00070E040E00E9473148C01009709F45BC0F5
:1046F000DC011196ED91FC9112978FE9828311965E
:10470000ED91FC911297E382C8016F2D4D2D95011B
:104710000E942E217C01009721F4C8010E94981369
:1047200042C0C8010E949813F701838194810097C9
:1047300021F4C7010E94D61536C0D7016C9141E023
:104740000E94DC228C01C7010E94D61501151105BB
:1047500051F183E090E00E94FB5AC82ED92EF80157
:104760004281D6014C9312961C921E92119782811F
:104770008823D9F00381148101151105B1F0842F2C
:1047800090E049830E94FB5AF6019283818349811C
:10479000009721F4C6010E94955B05C0B80150E066
:1047A0000E942D5D02C0CC24DD24C6010F90CF9164
:1047B000DF911F910F91FF90EF90DF90CF90BF900E
:1047C000AF900895CF92DF92EF92FF920F931F93D5
:1047D000DF93CF930F92CDB7DEB78C010097B9F17D
:1047E00085E090E00E94FB5AC82ED92EC114D10456
:1047F00081F1F6011282F8018081F6018083F801CF
:104800008181F601818314821382F801838194816E
:104810000097F9F042814423E1F0842F90E049832E
:104820000E94FB5AF601948383834981009721F407
:10483000C6010E94955B0BC0F8016381748150E052
:104840000E942D5DF8018281F601828302C0CC2492
:10485000DD24C6010F90CF91DF911F910F91FF9042
:10486000EF90DF90CF900895DF92EF92FF920F9339
:104870001F93CF93DF93EC018B01009709F44CC099
:104880006115710509F448C0DB0111968D919C9169
:104890001297009709F440C06C918881680F70E00E
:1048A000660F771F89819A810E942E5C9A83898383
:1048B000009791F1DD242AC0888190E0880F991F2C
:1048C000E980FA80E80EF91E8D2D90E0880F991F7F
:1048D000D8011196ED91FC911297E80FF91F808194
:1048E00091810E94E223F701918380832881822FA6
:1048F00090E0880F991FE981FA81E80FF91F808104
:104900009181009749F02F5F2883D394D8018C912F
:10491000D81690F280E001C081E0DF91CF911F9125
:104920000F91FF90EF90DF900895FC010097D1F078
:10493000308180E090E020E013C0A181B281A80F17
:10494000B91F0D90BC91A02D109741F05C915617A6
:1049500029F411965C911197541731F02F5F02964C
:10496000231758F3A0E0B0E0CD0108951F93CF9333
:10497000DF93FC010097C9F1908120E030E080E0F6
:1049800011C0A181B281A20FB31FCD91DC9111970B
:10499000209729F048814C3811F410E023C08F5F34
:1049A0002E5F3F4F891768F320C08B819C81611B6C
:1049B000810F911D40E00E94DC220097B1F0FC01C4
:1049C00020812F3941F42181223029F40E94955B06
:1049D000812F8F5F0BC01E5FFC01218121111F5FA2
:1049E0000E94955B6A81161700F380E0DF91CF91FA
:1049F0001F910895CF92DF92FF920F931F93CF9351
:104A0000DF938C01009709F460C0DC0111968C9152
:104A10001197882311F481E001C082E0F82EF3940D
:104A2000F801228127FDF394D80113968D919C9172
:104A30001497009709F0F20E8F2D90E00E94FB5A18
:104A4000E82FEF016E01D92EE6012097F1F1D80190
:104A50008C91888311968C911197882319F0898302
:104A600082E001C081E0F801928197FF06C0FE015B
:104A7000E80FF11D91E890838F5FFE01E80FF11DB3
:104A8000D80112969C911297908313962D913C9188
:104A900014972115310571F012964C911297442309
:104AA00049F08F5FBE01680F711DCB01B90150E065
:104AB0000E942D5DCE016F2D0E94EF128C01009798
:104AC00031F4CE010E94955B02C000E010E0C80105
:104AD000DF91CF911F910F91FF90DF90CF900895BC
:104AE000CF93DF93EC01009759F08B819C81009765
:104AF00021F00E94955B1C821B82CE010E94955B77
:104B0000DF91CF9108952F923F924F925F926F92D3
:104B10007F928F929F92AF92BF92CF92DF92EF924D
:104B2000FF920F931F93DF93CF93CDB7DEB72E97EE
:104B30000FB6F894DEBF0FBECDBF89836A83A42E63
:104B4000490137012115310509F46CC20115110520
:104B500009F468C2BB24CC24DD24EE24FF24A8E29F
:104B60004A2E512C400E511EF0E22F2E312C200ED9
:104B7000311EC80149969C838B83D8015596BE830C
:104B8000AD83F801BD96F887EF83C8010E969A872A
:104B90008987D8011696BC87AB8727C2F401838129
:104BA00094816C198C0D911D40E00E94DC22AC01B7
:104BB000F2E0CF0E009709F418C2DC0111968C9137
:104BC00011978111C394FA018281B80EC7016B2D30
:104BD00070E04D875E870E942E5C9C017C014D85B4
:104BE0005E85009721F4CA010E9470251BC2DA017C
:104BF0008C918F3909F075C011968C911197823084
:104C0000F1F4F80180E007C09191D901AD0DB11D1B
:104C10009C93D3948F5FDA0112969C911297891717
:104C200048F4863089F706C0F901ED0DF11D1082B8
:104C3000D3948F5FFA0192818917B0F3D3C1833087
:104C4000F9F4EB85FC8580E007C09191D901AD0DA9
:104C5000B11D9C93D3948F5FDA0112969C911297A9
:104C6000891748F4863089F706C0F901ED0DF11D6A
:104C70001082D3948F5FFA0192818917B0F3B2C189
:104C80008A3109F002C1DA0112968C9112978823B9
:104C9000B9F0F901ED0DF11DD8011C968C911C970E
:104CA0008083D394FA018281823060F0F901ED0DA6
:104CB000F11D1D968C911D978083D39482E00AC0CC
:104CC00080E008C081E006C0F901ED0DF11D108201
:104CD000D3948F5FDA0112969C9112978917A0F3F3
:104CE00081C18539F9F4E985FA8580E007C09191A1
:104CF000D901AD0DB11D9C93D3948F5FDA0112964B
:104D00009C911297891748F4853089F706C0F901FC
:104D1000ED0DF11D1082D3948F5FFA0192818917F6
:104D2000B0F360C18F35A1F5DA0111968C9111971E
:104D30008A3209F02BC112968C9112978823B9F010
:104D4000F901ED0DF11DD80153968C915397808395
:104D5000D394FA018281823060F0F901ED0DF11DEA
:104D600054968C9154978083D39482E00AC080E05B
:104D700008C081E006C0F901ED0DF11D1082D39449
:104D80008F5FDA0112969C9112978917A0F32AC1BE
:104D90008A3861F5FA0182818823B9F0F901ED0DB5
:104DA000F11DD8019B968C919B978083D394FA0137
:104DB0008281823060F0F901ED0DF11D9C968C919D
:104DC0009C978083D39482E00AC080E008C081E091
:104DD00006C0F901ED0DF11D1082D3948F5FDA0149
:104DE00012969C9112978917A0F3FCC08139F9F4AF
:104DF000EF81F88580E007C09191D901AD0DB11D1B
:104E00009C93D3948F5FDA0112969C911297891725
:104E100048F4883089F706C0F901ED0DF11D1082C4
:104E2000D3948F5FFA0192818917B0F3DBC08A397E
:104E3000F9F4ED81FE8180E007C09191D901AD0DBB
:104E4000B11D9C93D3948F5FDA0112969C911297B7
:104E5000891748F4833089F706C0F901ED0DF11D7B
:104E60001082D3948F5FFA0192818917B0F3BAC090
:104E70008C3941F4F901ED0DF11DD80158968C9152
:104E800058972FC08F3909F081C0FA01818187338B
:104E9000F9F4EB81FC8180E007C09191D901AD0D5F
:104EA000B11D9C93D3948F5FDA0112969C91129757
:104EB000891748F4843089F706C0F901ED0DF11D1A
:104EC0001082D3948F5FFA0192818917B0F38AC060
:104ED000853351F42D0D311DD8015D968C915D9770
:104EE000F9018083D3947EC0853471F5DA0112967E
:104EF0008C9112978823B9F0F901ED0DF11DD801BD
:104F00005E968C915E978083D394FA018281823081
:104F100060F0F901ED0DF11D5F968C915F97808334
:104F2000D39482E00AC080E008C081E006C0F901A5
:104F3000ED0DF11D1082D3948F5FDA0112969C91D2
:104F400012978917A0F34EC08C34F1F4F10180E080
:104F500007C09191D901AD0DB11D9C93D3948F5F82
:104F6000DA0112969C911297891748F4883089F7D4
:104F700006C0F901ED0DF11D1082D3948F5FFA0187
:104F800092818917B0F32EC0843311F080E024C0E1
:104F9000F20180E007C09191D901AD0DB11D9C9344
:104FA000D3948F5FDA0112969C911297891748F477
:104FB000833089F706C0F901ED0DF11D1082D394FD
:104FC0008F5FFA0192818917B0F30CC0F901ED0DE2
:104FD000F11D1082D3948F5FDA0112969C91129783
:104FE0008917A0F3CA010E947025F4016281C616D8
:104FF00008F4D4CD85E0B7014B2D0E9473147C01D9
:10500000009781F0DC011196ED91FC911297A2823C
:1050100069814A8193010E942E218C01C7010E945F
:10502000981302C000E010E0C8012E960FB6F89465
:10503000DEBF0FBECDBFCF91DF911F910F91FF90CB
:10504000EF90DF90CF90BF90AF909F908F907F9028
:105050006F905F904F903F902F900895FF920F9325
:105060001F93CF93DF93EC01009731F189819A81EF
:105070000097F9F0FF2414C00F2D10E0000F111F4E
:10508000800F911FFC0180819181009741F00E9467
:105090007025E981FA81E00FF11F11821082F394EB
:1050A000288189819A81F21638F30E94955B1A82D1
:1050B0001982CE010E94955BDF91CF911F910F91D4
:1050C000FF900895AF92BF92CF92DF92EF92FF923E
:1050D0000F931F93CF93DF936C01A62E009709F4D3
:1050E00045C0662309F442C083E090E00E94FB5A69
:1050F000E82EE7017E01F92EE7012097C9F1188219
:105100001A821982BB242FC06A2D6B19C6018B0D20
:10511000911D41E00E94DC228C01009721F4CE0118
:105120000E942E2823C0FC018281982F9E5FB90E19
:1051300091819111B39487FDB39468816F5F688307
:1051400070E0660F771F89819A810E942E5C9C0116
:105150009A838983E881F0E03197EE0FFF1FE20F19
:10516000F31F11830083BA1478F202C0EE24FF24E7
:10517000C701DF91CF911F910F91FF90EF90DF90CA
:10518000CF90BF90AF900895FC010097F1F0662397
:10519000E1F06430D0F080818037B9F4418141384A
:1051A00019F4428153E001C052E0862F90E001974C
:1051B000242F30E02817390744F4CF01850F911DC3
:1051C000642F0E9462289C0102C020E030E0C901E7
:1051D0000895BF92CF92DF92EF92FF920F931F93A9
:1051E000CF93DF93EC01CB01209709F44BC0642FE0
:1051F0000E94C4288C01009709F444C0BB2439C024
:105200008B2D90E0880F991FD8011196ED91FC919C
:105210001297E80FF91FE080F180F70183819481F4
:1052200062810E9462286C01009749F0D7018C913D
:10523000813629F411968C911197882321F0C801A9
:105240000E942E281FC068816F5F688370E0660F20
:10525000771F89819A810E942E5C9A838983E881D5
:10526000F0E03197EE0FFF1FE80FF91FD182C082E7
:10527000B394F8018081B81618F2C8010E942E2854
:1052800080E001C081E0DF91CF911F910F91FF90ED
:10529000EF90DF90CF90BF9008952F923F924F9262
:1052A0005F926F927F928F929F92AF92BF92CF92B6
:1052B000DF92EF92FF920F931F93DF93CF9300D073
:1052C00000D000D0CDB7DEB789836A831A01790197
:1052D0001C830B834115510509F416C1DA0113969D
:1052E0008D919C911497009709F40EC183E090E092
:1052F0000E94FB5A6C013C01FC0110821282118257
:10530000E114F10431F0D7011C9212961C921E9206
:10531000119782E060E070E040E00E9473145C014D
:10532000009711F04424E7C0C6010E94955BECC0D1
:10533000842D90E0880F991FD1011396ED91FC9177
:105340001497E80FF91F008111810115110509F467
:10535000D1C0F8015180C9C0D5011196ED91FC91E1
:10536000129752821196ED91FC911297D8018C916F
:1053700084608383C50169814A812B813C810E94BD
:105380002E219E838D83009709F4A4C0DC01119621
:10539000ED91FC9112978081803909F0D1C0818113
:1053A000882309F0CDC0AD81BE811396ED91FC91AB
:1053B0001497309719F04C91423028F48D819E81DA
:1053C0000E94D61591C0E114F10409F46FC0D80110
:1053D00013962C91139730E0852D90E011965C91F7
:1053E0001197851B9109821793070CF05FC08C9170
:1053F000813508F1F7019080940E81819281692DA9
:1054000070E00E942E5C9C01D70112969C938E93B3
:105410001197009709F448C08C91280F311DED8138
:10542000FE81408163817481C90150E00E942D5D3D
:10543000D7019C923BC08181813819F0E2E09E2E19
:1054400002C073E0972ED7016C91640F6919119611
:105450008D919C91129770E00E942E5C9C01F70147
:1054600092838183009701F18081A901480F511D2A
:10547000AD81BE81EC91F0E0892D90E0E81BF90B45
:1054800013962D913C911497280F391FCA01B90129
:10549000AF010E942D5DED81FE818081D7019C913D
:1054A000890F89198C9302C0F7011082AD81BE81EA
:1054B00013968D919C9114976C910E94C4284C0175
:1054C0008D819E810E94D615C601B4010E943424AC
:1054D000882339F0C6010E942E28C5010E94981326
:1054E00013C0C4010E942E285394F80182818515AF
:1054F00008F032CF4394D1018C91481608F418CFAC
:10550000C5010E94981302C066247724C301269621
:105510000FB6F894DEBF0FBECDBFCF91DF911F91C4
:105520000F91FF90EF90DF90CF90BF90AF909F9042
:105530008F907F906F905F904F903F902F90089545
:105540008D819E810E94D615C5CFFF920F931F9328
:10555000CF93DF93EC0189819A810097F9F0FF24C2
:1055600014C00F2D10E0000F111F800F911FFC01C0
:1055700080819181009741F00E942E28E981FA8173
:10558000E00FF11F11821082F394288189819A81A2
:10559000F21638F30E94955B1A821982CE010E949E
:1055A000955BDF91CF911F910F91FF900895CF935D
:1055B000DF93EC018B819C81009721F00E942E28C3
:1055C0001C821B8289819A81009721F00E94955B41
:1055D0001A821982CE010E94955BDF91CF910895C6
:1055E0008F929F92AF92BF92CF92DF92EF92FF92F3
:1055F0000F931F93CF93DF938C01009709F482C020
:10560000662309F47FC0643008F47CC0FC0180810B
:105610008F3609F077C08181813819F4828143E0A7
:1056200001C042E0A62EBB2495012150304090E0FD
:10563000821793070CF066C0F801E40FF11D80811A
:10564000843809F05FC0C42EC394F801EC0DF11D3D
:10565000D080C394FD2DF13829F4F801EC0DF11D33
:10566000D080C3948D2C9924C50103978816990680
:105670000CF048C085E090E00E94FB5A7C01EC01F0
:10568000009709F441C08D2D90E00E94FB5A9A8347
:105690008983009721F4C7010E94955B33C098016C
:1056A0002C0D311DB9014D2D50E00E942D5DD88289
:1056B000DC0CF801ED0DF11D8081853A11F0C70178
:1056C0001FC0D394F801ED0DF11D6081D3946138B2
:1056D00029F4F801ED0DF11D6081D394862F90E03F
:1056E000A818B908A816B90654F0C8018D0D911D67
:1056F0000E946228F70194838383009729F4C701ED
:105700000E94D72AC0E0D0E0CE01DF91CF911F9157
:105710000F91FF90EF90DF90CF90BF90AF909F9050
:105720008F9008952F923F925F926F927F928F9207
:105730009F92AF92BF92CF92DF92EF92FF920F9320
:105740001F93DF93CF9300D00F92CDB7DEB7882E93
:10575000562EC42E922E580183E090E00E94FB5AF0
:105760008C01009709F429C1DC011C9212961C924D
:105770001E92119782E060E070E040E00E94731496
:105780007C01009709F419C1DC011196ED91FC919F
:10579000129712821196ED91FC9112978C2D880F21
:1057A000880F880F84608383D7011196ED91FC9157
:1057B000129782818F5F8283C701682D452D9501E5
:1057C0000E942E216C01009709F419C1FC0163812C
:1057D00074816115710549F0C80140810E94E92872
:1057E000882309F00CC121E001C020E0C6012B8311
:1057F0000E94D6152B812223B9F6C7010E94981367
:10580000D8018C91882309F4D8C0992009F090C060
:105810006CE3662E62E0762E50E4252E52E0352EA3
:1058200001C09924892D90E09C01220F331FD801DB
:105830001196ED91FC911297E20FF31F0190F08108
:10584000E02D0180F281E02DC080D18000D000D019
:1058500000D0EDB7FEB73196209127123091281273
:10586000ADB7BEB712963C932E93119773826282A6
:105870000196958384830E94695DEDB7FEB73696E5
:105880000FB6F894FEBF0FBEEDBFEE24FF242DC06F
:1058900000D000D000D02DB73EB72F5F3F4F809192
:1058A000271290912812ADB7BEB712969C938E9393
:1058B0001197F90133822282F601A381B481AE0DE2
:1058C000BF1D8C91D90114968C93149715961C9238
:1058D0000E94695D0894E11CF11CEDB7FEB7369695
:1058E0000FB6F894FEBF0FBEEDBFD60112968C9195
:1058F0001297E81620F4B7E0EB16F10449F68FEFA3
:1059000093ECA9E081509040A040E1F700C0000076
:105910000E949A1D898389818823D1F3898182FF1E
:1059200008C09394D8018C91981609F07BCF79CF59
:105930009924892D90E0880F991FD8011196ED9137
:10594000FC911297E80FF91F0190F081E02D018082
:10595000F281E02D0190F081E02D6381748180E07F
:1059600042810E9473146C01009739F1682D452D16
:1059700095010E942E217C01C6010E949813E1141A
:10598000F104D9F0F70183819481009761F00180DF
:10599000F281E02D2081203931F4D7016C910E94F1
:1059A000F02A9C0102C020E030E0C7012B833A833B
:1059B0000E94D6152B813A8102C020E030E001150B
:1059C000110539F0C8012B833A830E94A52A3A8138
:1059D0002B81C9010F900F900F90CF91DF911F91F4
:1059E0000F91FF90EF90DF90CF90BF90AF909F907E
:1059F0008F907F906F905F903F902F900895C70198
:105A00000E94981320E030E0DDCFAF92BF92CF929A
:105A1000DF92EF92FF920F931F93DF93CF930F923A
:105A2000CDB7DEB7A82EB62EFA01690119823097DC
:105A300009F46CC08081873009F068C0618172818F
:105A400080E047E00E9473147C01009709F462C073
:105A50006A2D4B2D96010E942E218C01009719F181
:105A6000C7010E949813D8011196ED91FC911297ED
:105A70008081803939F140C06981B7E06B9FB00106
:105A800011246B5B7D4F80E047E00E9473147C0122
:105A9000009709F43FC06A2D4B2D96010E942E21DC
:105AA0008C01009721F4C7010E94981333C0C701ED
:105AB0000E949813D8011196ED91FC911297808164
:105AC000803979F481818823B9F413968D919C9162
:105AD00014976C910E94F02A7C01C8010E94D6158F
