:100000000C9492000C9456020C9493020C94DF0012
:100010000C94DF000C94DF000C94DF000C94DF00E4
:100020000C94DF000C94DF000C94B23E0C94843FDF
:100030000C94DF000C94DF000C94DF000C94DF00C4
:100040000C94DF000C94DF000C94DF000C94DF00B4
:100050000C94DF000C94DF000C94DF000C94DF00A4
:100060000C94DF000C94DF000C94DF000C94DF0094
:100070000C94DF000C94DF000C94DF000C94DF0084
:100080000C94C2020C94DF000C94DF000C94DF008F
:100090000C94DF000C94DF00120110010200000834
:1000A000EB03442001000102DC0109023E000201D1
:1000B00000C0320904000001020201000524001002
:1000C0000104240206052406000107058203080036
:1000D000FF09040100020A000000070504021000E5
:1000E00001070583021000010403090418034400FA
:1000F000650061006E002000430061006D00650036
:100100007200610000001C034C00550046004100D5
:1001100020004300440043002000440065006D00BF
:100120006F00000011241FBECFEFD0E2DEBFCDBFB5
:1001300088E10FB6F89480936000109260000FBEC3
:1001400004B603FE23C08091B8058737F9F41092F6
:10015000B805E3E0F0E089E080935700E491F0E037
:10016000E770F070F595E795EE2339F0E13041F056
:10017000E23049F4E0E0FCEF08C0E0E0F0EF05C059
:10018000E0E0F8EF02C0E0E0FEEF099515E0A0E046
:10019000B1E0E6E4FAEA00E00BBF02C007900D927E
:1001A000AA34B107D9F715E0AAE4B5E001C01D9261
:1001B000A03DB107E1F70E949E050C9421550C94D7
:1001C00000004F925F926F927F929F92AF92BF9288
:1001D000CF92DF92EF92FF920F931F93DF93CF9313
:1001E0000F92CDB7DEB780915205882309F4DCC0A9
:1001F0000E9491176091CE057091CF058AE090E042
:100200000E94F95140E0E42E41E0F42E34E0A32EA8
:1002100031E0B32E00E911E023E1622E21E0722EDD
:1002200092E2492E91E0592E00D000D000D0EDB7D7
:10023000FEB731968091CE059091CF05ADB7BEB790
:1002400012969C938E931197F382E282B582A482D8
:100250000E94E851EDB7FEB736960FB6F894FEBF90
:100260000FBEEDBF0E9412168983898182FFFACFEB
:1002700088E893E1F8013197F1F70197D9F700D0B9
:1002800000D000D0EDB7FEB731968091CE059091A9
:10029000CF05ADB7BEB712969C938E931197F3829C
:1002A000E282758264820E94E851EDB7FEB736960D
:1002B0000FB6F894FEBF0FBEEDBF0E9412168983E1
:1002C000898182FFFACF88E893E1F8013197F1F74D
:1002D0000197D9F700D000D000D0EDB7FEB7319626
:1002E0008091CE059091CF05ADB7BEB712969C9385
:1002F0008E931197F382E282558244820E94E851E4
:10030000EDB7FEB736960FB6F894FEBF0FBEEDBF41
:100310000E9412168983898182FFFACF88E893E1CF
:10032000F8013197F1F70197D9F782E0C82E82E002
:10033000D82E9924D6012D913D916D0100D000D089
:1003400000D0EDB7FEB731964091CE055091CF0564
:10035000ADB7BEB712965C934E931197F382E282CB
:10036000358324830E94E851EDB7FEB736960FB669
:10037000F894FEBF0FBEEDBF0E94121689838981DB
:1003800083FF03C0892D8F5F10C0898182FFF4CF66
:1003900088E893E1F8013197F1F70197D9F7939441
:1003A000F92DF83039F640CF80E00F90CF91DF91F2
:1003B0001F910F91FF90EF90DF90CF90BF90AF9083
:1003C0009F907F906F905F904F900895F894109257
:1003D000690010926A008FEF8CBB1DBA14BE88E1D1
:1003E0000FB6F89480936000109260000FBE14B8AE
:1003F00017B888B990E89AB983E88BB980B3807F41
:1004000080BB81B38F6081BB80E00FB6F89490937E
:100410006100809361000FBE0E94DB15809169002E
:1004200084608093690080916900877F8093690070
:10043000E99A80E090E00E946B548093500580E43C
:1004400090E00E946B548093530510924F050E94D8
:10045000B317882339F01092CF051092CE05109271
:10046000520509C086E891E09093CF058093CE05B0
:1004700081E0809352053D98459880E00E943116B6
:100480008091640081608093640080916400846046
:100490008093640080916400806880936400809100
:1004A0006500816080936500789408951F920F9293
:1004B0000FB60F920BB60F9211242F933F934F93C9
:1004C0005F936F937F938F939F93AF93BF93EF93BC
:1004D000FF9314BE88E10FB6F894809360001092E9
:1004E00060000FBE0E94D336E89828E088E190E0D3
:1004F0000FB6F894A895809360000FBE209360001B
:10050000FF91EF91BF91AF919F918F917F916F91EB
:100510005F914F913F912F910F900BBE0F900FBEA7
:100520000F901F9018951F920F920FB60F920BB657
:100530000F9211242F933F934F935F936F937F9369
:100540008F939F93AF93BF93EF93FF93499B03C008
:100550000E94D81504C00E94E4150E944215FF9124
:10056000EF91BF91AF919F918F917F916F915F912B
:100570004F913F912F910F900BBE0F900FBE0F9098
:100580001F90189518950E94D21584EF91E020E9EC
:1005900031E0F9013197F1F70197D9F70E94DE15A3
:1005A0000E94D51584EF91E020E931E0F9013197FF
:1005B000F1F70197D9F70E94E1150E94D81584EF51
:1005C00091E020E931E0F9013197F1F70197D9F78E
:1005D0000E94E4150E94DB1584EF91E020E931E0F0
:1005E000F9013197F1F70197D9F70E94E71580914A
:1005F0005205882359F10E9491176091CE057091A0
:10060000CF058AE090E00E94F95180E391E068E034
:100610000E9413177B99FECF89E391E068E00E9466
:1006200013177A99FECF82E491E068E00E941317D5
:100630007999FECF8BE491E068E00E9413177899D6
:10064000FECF84E591E069E00E94131708952F9290
:100650003F924F925F926F927F928F929F92AF9252
:10066000BF92CF92DF92EF92FF920F931F93DF938F
:10067000CF93CDB7DEB761970FB6F894DEBF0FBE4C
:10068000CDBF0E9428100E941F1084369105D8F318
:100690000E94D2150E9441108823E1F30E94D515D3
:1006A0008AE00E94441080E06FE00E9412120E94D3
:1006B000DE1580915205882379F00E949117609190
:1006C000CE057091CF058AE090E00E94F9518EE549
:1006D00091E068E00E9413178E010F5F1F4F82E0C8
:1006E000E82EF12CEC0EFD1EB3E0CB2ED12CCC0E5F
:1006F000DD1EA4E0AA2EB12CAC0EBD1EF5E08F2E9F
:10070000912C8C0E9D1EE6E06E2E712C6C0E7D1EC3
:1007100077E0472E512C4C0E5D1E68E0262E312CC2
:100720002C0E3D1E80E0B8010E94D71180E0B70179
:100730000E94D71180E0B6010E94D71180E0B50178
:100740000E94D71180E0B4010E94D7111E820E943E
:10075000D2150E94E11584E10E94441084EA60E011
:100760000E94E9100E94DE150E94D51580E0B801B4
:100770000E94D71180E0B7010E94D71180E0B60136
:100780000E94D71180E0B5010E94D71180E0B4012A
:100790000E94D71180E0B3010E94D71180E0B2011E
:1007A0000E94D71180E0B1010E94D71180E0BE0104
:1007B000675F7F4F0E94D71180E0BE01665F7F4F69
:1007C0000E94D71180E0BE01655F7F4F0E94D71164
:1007D00080E0BE01645F7F4F0E94D71180E0BE01C0
:1007E000635F7F4F0E94D71180E0BE01625F7F4F41
:1007F0000E94D7111F86898B0E94D2150E94E11595
:10080000909152058989992351F0882321F087E638
:1008100091E06FE002C0C8016EE00E94131781E60C
:1008200060E00E94E91082E00E94441084E060E0F1
:100830000E94E9100E94DE150E94D51580E0B801E3
:100840000E94D71180E0B7010E94D71180E0B60165
:100850000E94D71180E0B5010E94D71180E0B40159
:100860000E94D7111E820E94D2150E94E11584E1D8
:100870000E94441080EC60E00E94E91082E00E9437
:1008800044108EED60E00E94E91082E00E94441066
:100890008DEA60E00E94E91082E00E9444108EEB35
:1008A00060E00E94E91082E00E9444108FEE60E058
:1008B0000E94E91082E00E94441080E960E00E94FA
:1008C000E91082E00E94441080E060E00E94E9109C
:1008D0000E94DE150E94D51580915205882309F4E7
:1008E00021CF87E791E06CE00E9413171BCFEF92B6
:1008F000FF920F931F93DF93CF9300D000D000D0CF
:10090000CDB7DEB780E0BE016F5F7F4FAE014E5FB7
:100910005F4F9E012D5F3F4F8E010C5F1F4F95E093
:10092000E92EF12CEC0EFD1E0E948E15882309F095
:10093000DDC085E00E944E1280E069810E94E013D4
:1009400082E00E944E1284EA69810E94E01382E0F4
:100950000E944E1284E069810E94E01382E00E94AE
:100960004E1280E069810E94E01382E00E944E12E4
:100970008EE069810E94E01381E00E944E128E0198
:100980000A5F1F4F8981B8010E941F138E81843A2C
:1009900009F0ACC085E00E944E1281E369810E949B
:1009A000E01382E00E944E1280E569810E94E0130C
:1009B00082E00E944E1281E469810E94E01382E08D
:1009C0000E944E1289E569810E94E01382E00E9434
:1009D0004E128EE269810E94E01382E00E944E1264
:1009E00083E569810E94E01382E00E944E1289E54E
:1009F00069810E94E01382E00E944E1283E56981C2
:100A00000E94E01382E00E944E128EE269810E94F1
:100A1000E01382E00E944E1284E469810E94E01398
:100A200082E00E944E1284E469810E94E01382E019
:100A30000E944E1286E469810E94E01382E00E94C7
:100A40004E1280E369810E94E01382E00E944E1200
:100A500081E369810E94E01381E00E944E12898146
:100A6000B8010E941F138E81813609F03FC081E0DA
:100A70000E944E128981B8010E941F1385E00E94D6
:100A80004E1280E069810E94E01382E00E944E12C3
:100A900080EC69810E94E01382E00E944E1280E0A7
:100AA00069810E94E01382E00E944E1280E0698119
:100AB0000E94E01382E00E944E128E8169810E94A2
:100AC000E0130E94D21580915205882379F00E948C
:100AD00091176091CE057091CF058AE090E00E9459
:100AE000F95187E791E06CE00E94131726960FB644
:100AF000F894DEBF0FBECDBFCF91DF911F910F9154
:100B0000FF90EF900895CF93DF93C0E9D1E088E89C
:100B100093E1FE013197F1F70197D9F70E94D215C1
:100B20000E94E11588E893E1FE013197F1F7019702
:100B3000D9F70E94DE150E94D515E9CF1F930E94B8
:100B4000E6010E940616882369F50E94E100809361
:100B50005105863091F40E94D5150E94932D0E9474
:100B6000E11528E088E190E00FB6F894A89580930D
:100B700060000FBE2093600009C01FB7F89482E3A5
:100B800090E0609151050E949F541FBF28E088E1CA
:100B900090E00FB6F894A895809360000FBE209364
:100BA000600009C01FB7F89482E390E00E946B5484
:100BB000809351051FBF809151058430C9F0853065
:100BC00038F4823079F0833080F48130E9F407C062
:100BD0008730A1F08830B1F08530B1F40CC00E94AC
:100BE00062311CC00E94473619C00E94603216C094
:100BF0000E94022F13C00E94993310C081E00E940E
:100C000005380CC00E943B2D88E08093510582E39B
:100C100090E068E00E949F540E943B2D0E94830553
:100C200080E090E01F9108950F931F93DF93CF937F
:100C300000D00F92CDB7DEB7182F85E090E02B8360
:100C40004A8369830E947A4FFC012B814A81698122
:100C5000009729F010836183428323830483CF01AB
:100C60000F900F900F90CF91DF911F910F910895EA
:100C70001F93182F85E090E00E947A4FFC010097A7
:100C800009F441C01082118212821382148214303E
:100C900019F1153048F41130A1F0113070F0123014
:100CA00091F0133081F514C01630F1F01630C0F019
:100CB000173019F1183039F522C084EA818384E0B5
:100CC00005C080EC1FC082EB818381E082831BC062
:100CD00080E8808388EA16C080E2818380E80BC0C8
:100CE00080E880838EEA0EC080E880838AEC81836E
:100CF0008FE9828387E1838306C088E803C08CE89C
:100D0000808384E28183CF011F9108954F925F9287
:100D10006F927F928F929F92AF92BF92CF92DF920B
:100D2000EF92FF920F931F93CF93DF93B82EA62ECF
:100D30003A012901480186010E9428100E941F10D3
:100D40008A309105D8F30E94C90F9C01EC01CC0FA9
:100D5000DD1F83E0220F331F8A95E1F7C20FD31FF7
:100D60009E0140E050E060E67AEE80E090E0621B99
:100D7000730B840B950B24E731E040E050E00E94B8
:100D8000284F822F0E94441080E00E945115882332
:100D900009F043C0CE018051974264E771E00E94A0
:100DA000DF4E862F67FD80E00E944410BB2019F0C3
:100DB0008FE36B2D02C08BE360E00E9460108CE03B
:100DC0000E9444105C9A60E573EC80E090E00E9421
:100DD0006A12882341F4C301B201A40197010E9461
:100DE0002314882319F00E94421517C080E66B2D4A
:100DF0000E94601082E00E94441080E06B2D0E94EF
:100E0000601082E00E9444108A2D6B2D0E946010B9
:100E100082E00E94441080E001C081E0DF91CF9128
:100E20001F910F91FF90EF90DF90CF90BF90AF9008
:100E30009F908F907F906F905F904F900895803833
:100E400049F1813818F4882331F02CC08438C9F076
:100E50008C3841F516C0683819F1693838F46238B1
:100E600071F0643851F06032E9F409C0623B29F056
:100E7000603C19F0643AB1F413C082E0089583E055
:100E8000089566516F3070F4E62FF0E0EE5EFD4F8E
:100E9000808108956E3A21F06A3C31F0683A11F48D
:100EA00084E0089580E0089582E00895EF92FF9233
:100EB0000F931F93CF93DF93182F062F85E090E0B9
:100EC0000E947A4FE82EE7017E01F92EE701209774
:100ED000C1F1812FB7010E94D711882369F50F5FF7
:100EE000802F0E944410B7016F5F7F4F812F0E94B7
:100EF000D711882309F5802F0E944410B7016E5F37
:100F00007F4F812F0E94D7118823B1F4802F0E9438
:100F10004410B7016D5F7F4F812F0E94D711882346
:100F200059F4802F0E944410B7016C5F7F4F812FCE
:100F30000E94D711882329F0CE010E941450C0E0EE
:100F4000D0E0CE01DF91CF911F910F91FF90EF90F4
:100F50000895BF92CF92DF92EF92FF920F931F936B
:100F6000CF93DF93D82EB62E042F842F90E00E94CB
:100F70007A4FE82EE7017E01F92EE701209709F16B
:100F8000B394CC2410E00150104009C08D2D0E9474
:100F9000D711882389F48B2D0E944410C3942C2DE3
:100FA00030E0BE01620F731F201731077CF38D2DD7
:100FB0000E94D711882329F0CE010E941450EE24FC
:100FC000FF24C701DF91CF911F910F91FF90EF9008
:100FD000DF90CF90BF9008950F931F93CF93DF932F
:100FE000182F062FEA01209771F18881612F0E9446
:100FF000E013882341F50F5F802F0E944E128981F4
:10100000612F0E94E0138823F1F4802F0E944E127A
:101010008A81612F0E94E0138823A9F4802F0E9407
:101020004E128B81612F0E94E013882361F4802F80
:101030000E944E128C81612F0E94E01391E0882360
:1010400019F490E001C091E0892FDF91CF911F91B9
:101050000F910895DF92EF92FF920F931F93CF931A
:10106000DF93F82EEA01209719F1D62ED394EE24BF
:10107000022F10E0015010400AC080816F2D0E94A5
:10108000E0138823A9F48D2D0E944E12E3942E2D97
:1010900030E0FE01E20FF31F2017310774F3808167
:1010A0006F2D0E94E01391E0882319F490E001C0B5
:1010B00091E0892FDF91CF911F910F91FF90EF90D9
:1010C000DF900895BF92CF92DF92EF92FF920F933D
:1010D0001F93DF93CF9300D0CDB7DEB7D82EB62EB7
:1010E0007A014115510509F4DAC0C62EC394DA011C
:1010F00011960D911C911297F801808161810E94D7
:101100001F078983882309F4CAC08D2D6B2DA80180
:101110000E94EC07882309F0C2C089818150823087
:1011200008F4BFC086E00E944E128D2D8E010F5F25
:101130001F4FB8010E941F13882361F0B0C081E0E7
:101140000E944E128D2D6B2D702F0E941F1388232D
:1011500019F0A5C0B02E012F2981203681F3D701C7
:101160001196ED91FC9112978181281779F030E06A
:1011700090E0809590952817390741F08D2DBE019C
:101180006E5F7F4F0E941F1392E08CC086E00E942A
:101190004E12D7011196ED91FC91129799818181A0
:1011A000981799F01396ED91FC91149780816D2D0D
:1011B0000E94E013882309F072C0F7018081823019
:1011C00030F086E00E944E1202C0BB242CC0BB242B
:1011D000B39429C08D2DB8010E941F13882309F0F4
:1011E0005EC086E00E944E12D7011196ED91FC91EF
:1011F0001297998181819817C9F01396ED91FC910E
:101200001497EB0DF11D80816D2D0E94E013882352
:1012100009F045C0B394F7018081B81638F486E030
:101220000E944E1203C08E010F5F1F4FD70111960F
:10123000ED91FC911297998181819817B1F0F70196
:101240008081B81638F211C0D7011396ED91FC9148
:101250001497E80FF91F80816D2D0E94E0138823F9
:10126000F1F48C2D0E944E12B3948B2D90E0F70177
:10127000208130E021503040821793072CF38217F1
:10128000930779F40380F481E02DE80FF91F808142
:101290006D2D0E94E01391E0882321F402C091E0BB
:1012A00001C090E0892F0F900F90CF91DF911F9197
:1012B0000F91FF90EF90DF90CF90BF9008950F9324
:1012C0001F93CF93DF93EC018B01009709F44CC07F
:1012D0006115710509F448C089819A81009709F464
:1012E00043C08881882329F02B813C812115310559
:1012F000D9F18B5FD8018C9390E00E947A4FFC016A
:101300009C01009719F4F801108230C0A981BA81BC
:101310008C918083A981BA8111968C918183A98156
:10132000BA8112968C918283A981BA8113968C918D
:101330008383A981BA8114968C911497848360E089
:101340000FC0862F90E0AF01480F591FAB81BC81C1
:10135000A80FB91F8C91DA0115968C9315976F5FC2
:101360008881681770F302C020E030E0C901DF9186
:10137000CF911F910F910895AF92BF92CF92DF92BC
:10138000EF92FF920F931F93DF93CF930F92CDB7FE
:10139000DEB7B82E6B016115710509F402C185E055
:1013A00090E00E947A4F8C017C01009709F4FBC009
:1013B000DC0112961C921E92119714961C921E929A
:1013C00013971C92F601808161810E941F07898317
:1013D000882309F446C0813011F08330D1F582E0D2
:1013E00090E00E947A4FBC01D80112969C938E9394
:1013F0001197009709F4D2C08B2D0E941F13D801BA
:101400001196ED91FC911297882311F0CF01C1C084
:101410008081803651F4CF010E941450D801129679
:101420001C921E921197C80123C0BF016F5F7F4FAE
:101430008B2D0E941F13882309F4B5C0F801818108
:1014400092810E941450D80112961C921E921197FC
:10145000A5C08B2DBE016F5F7F4F0E941F13882395
:1014600011F0C7019CC0A980BA2DB03649F4C8015B
:101470000E9414508B2DB6010E94BC097C0193C0C0
:10148000F6018181A81651F02A2D30E090E0809578
:1014900090952817390709F064C007C0D601149643
:1014A0008C911497F801808303C081E0D8018C935C
:1014B000F801808190E00E947A4FD80114969C93A5
:1014C0008E931397009709F469C0CC2416C0F801D5
:1014D000638174816C0D711D8B2D0E941F138823F5
:1014E00059F0D80113968D919C9114970E94145035
:1014F000F8011482138252C0C394D8018C91C8168B
:1015000030F382E090E00E947A4FBC01F8019283B0
:101510008183009751F4838194810E941450D801F3
:1015200014961C921E92139739C08B2D0E941F1384
:10153000882361F4D80111966D917C9112976F5FA9
:101540007F4F8B2D0E941F13882369F1F80183813F
:1015500094810E941450D80114961C921E921397E5
:1015600014C082E090E00E947A4FD80112969C93BA
:101570008E931197009791F0FC01A192BF018B2DE2
:101580000E941F13882379F0D80111968D919C91A8
:1015900012970E941450F80112821182C8010E9411
:1015A0001450EE24FF24C7010F90CF91DF911F91BB
:1015B0000F91FF90EF90DF90CF90BF90AF90089584
:1015C0000F931F93CF93DF93182FFB01EA013097FE
:1015D000E9F12097D9F18881882301F18B819C81E1
:1015E0000097E1F08181612F0E94E910882371F555
:1015F00082E00E94441000E00EC0EB81FC81E00F0D
:10160000F11D8081612F0E94E9108823F9F482E0A6
:101610000E9444100F5F8881081778F3E981FA81EE
:101620003097A1F08081612F0E94E910882371F426
:1016300082E00E944410E981FA818181612F0E9439
:10164000E91091E0882319F490E001C091E0892F1E
:10165000DF91CF911F910F9108950F931F93CF9317
:10166000DF93EC018B010097D9F161157105C1F190
:1016700089819A810097A1F18881882329F02B81A3
:101680003C812115310561F18E5FD8018C9390E08A
:101690000E947A4FFC019C01009719F4F801108216
:1016A00021C0A981BA818C918083A981BA811196C8
:1016B0008C911197818360E00FC0862F90E0AF017D
:1016C000480F591FAB81BC81A80FB91F8C91DA015B
:1016D00012968C9312976F5F8881681770F302C01F
:1016E00020E030E0C901DF91CF911F910F91089563
:1016F0000F931F93DF93CF930F92CDB7DEB78C017B
:1017000083E090E069830E947A4FFC016981009731
:1017100019F0128301836083CF010F90CF91DF9185
:101720001F910F910895DF92EF92FF920F931F93F5
:10173000DF93CF93CDB7DEB7DA8483E090E00E94E9
:101740007A4F7C018C01009739F1FC01D0828D2DFC
:1017500090E00E947A4FF70192838183009731F4E1
:10176000C7010E94145000E010E016C0CE010B9695
:10177000E82FF92FAF0120E030E00CC0F701A18184
:10178000B281A20FB31FFA0180818C932F5F3F4F6C
:101790004E5F5F4F2D1590F3C801CF91DF911F91E0
:1017A0000F91FF90EF90DF900895CF92DF92EF922C
:1017B000FF920F931F93CF93DF938C01F62E83E05C
:1017C00090E00E947A4FC82EE6016E01D92EE60104
:1017D0002097E1F01A821982188201151105B1F0E3
:1017E000FF20A1F08F2D90E00E947A4F9A83898389
:1017F000009731F4C6010E941450C0E0D0E006C04A
:10180000B8014F2D50E00E94AC51F882CE01DF911B
:10181000CF911F910F91FF90EF90DF90CF9008959F
:10182000CF93DF93EC01009759F089819A8100975B
:1018300021F00E9414501A821982CE010E94145085
:10184000DF91CF910895CF93DF93EC01009799F04A
:1018500089819A81009721F00E9414501A8219827E
:101860008B819C81009721F00E9414501C821B8266
:10187000CE010E941450DF91CF910895EF92FF9214
:101880000F931F93CF93DF93082F162F85E090E0DF
:101890000E947A4FE82EE7017E01F92EE70120979A
:1018A00009F441C01A8219821C821B821882802F7F
:1018B000612F0E945607FC019A838983009771F17A
:1018C000808161810E941F07882321F4C7010E9443
:1018D000230C27C08150823030F186E00E944410F2
:1018E000E981FA818181602F0E94E910882381F4C7
:1018F000812F8F5F0E944410E981FA8144814883DF
:10190000802F612F0E94A9079C838B83009759F435
:1019100089819A810E9414501A821982CE010E94F4
:101920001450C0E0D0E0CE01DF91CF911F910F9114
:10193000FF90EF900895CF92DF92EF92FF921F9366
:10194000DF93CF930F92CDB7DEB7162F642F298385
:101950000E943E0C6C012981009761F0812F622F5B
:10196000A6010E946208882329F0C6010E94230C68
:10197000CC24DD24C6010F90CF91DF911F91FF9001
:10198000EF90DF90CF900895AF92BF92DF92EF92E9
:10199000FF920F931F93CF93DF93082F5B01D42EF9
:1019A00085E090E00E947A4F7C01EC01009761F1A4
:1019B000802F0E9438068C019A838983009721F436
:1019C000C7010E94145010C0A114B104C9F0DD2059
:1019D000B9F08D2D90E00E947A4F9C838B83009705
:1019E00031F4C7010E94230CC0E0D0E00DC0B50166
:1019F0004D2D50E00E94AC51D882F801D48204C031
:101A0000F701148213821082CE01DF91CF911F91D2
:101A10000F91FF90EF90DF90BF90AF900895AF923D
:101A2000BF92CF92DF92EF92FF920F931F93CF93CB
:101A3000DF938C015B01F42E0097A9F185E090E023
:101A40000E947A4F6C01EC01009779F1F8018081D6
:101A500061814281238104810E9414069A838983D3
:101A6000009721F4C6010E9414501DC0A114B104B6
:101A7000A9F0FF2099F08F2D90E00E947A4F9C836F
:101A80008B83009721F4C6010E94230C0CC0B50182
:101A90004F2D50E00E94AC51F88207C0F60114822D
:101AA0001382108202C0C0E0D0E0CE01DF91CF915E
:101AB0001F910F91FF90EF90DF90CF90BF90AF906C
:101AC00008958F929F92AF92BF92CF92EF92FF9222
:101AD0000F931F93DF93CF9300D00F92CDB7DEB754
:101AE000182F570185E090E02B834A8369830E9479
:101AF0007A4F7C014C012B814A816981009761F109
:101B0000812F0E941406F70192838183009721F4AC
:101B1000C7010E94145011C0A114B104C9F0CC2017
:101B2000B9F08C2D90E00E947A4FF7019483838363
:101B3000009731F4C7010E94230C882499240CC01B
:101B4000B5014C2D50E00E94AC51F701C08204C099
:101B5000F701148213821082C4010F900F900F902E
:101B6000CF91DF911F910F91FF90EF90CF90BF9099
:101B7000AF909F908F900895CF92DF92EF92FF9257
:101B80000F931F93DF93CF930F92CDB7DEB76C0106
:101B9000009709F44FC0FC0181819281009709F4FC
:101BA00049C085E090E00E947A4F7C018C0100974B
:101BB00009F442C085E090E00E947A4FF7019283D9
:101BC0008183009721F4C7010E94145033C0DC01C7
:101BD000F60131812281832F922FFC0185E0019053
:101BE0000D928150E1F7F601838194810097E9F02D
:101BF00040814423D1F0842F90E049830E947A4FA2
:101C0000F701948383834981009721F4C7010E94DF
:101C1000230C10C0F6016381748150E00E94AC5126
:101C2000F6018081F701808307C0F70114821382D7
:101C3000108202C000E010E0C8010F90CF91DF9148
:101C40001F910F91FF90EF90DF90CF900895CF9369
:101C5000DF93EC01009799F089819A81009721F038
:101C60000E9414501A8219828B819C81009721F066
:101C70000E9414501C821B82CE010E941450DF91DE
:101C8000CF910895EF92FF920F931F93CF93DF931D
:101C9000F82E862F8A014115510581F0BA010E9464
:101CA000BC09EC01009761F08F2DB801AE010E94D4
:101CB000E00A882329F0CE010E94270EC0E0D0E080
:101CC000CE01DF91CF911F910F91FF90EF9008957A
:101CD000CF92DF92EF92FF920F931F93DF93CF93F8
:101CE00000D0CDB7DEB7082F162F84E090E02A830E
:101CF00049830E947A4FC82ED92E2A814981C11466
:101D0000D104F9F0802F612F0E949B0CFC01D601B9
:101D100011969C938E93009779F041815281802F88
:101D2000612F0E94420EF60193838283009749F44B
:101D3000808191810E94230CC6010E941450CC2402
:101D4000DD24C6010F900F90CF91DF911F910F916D
:101D5000FF90EF90DF90CF900895CF92DF92EF92B7
:101D6000FF920F931F93DF93CF930F92CDB7DEB700
:101D70008C01009709F457C0DC0111968D919C915C
:101D80001297009709F44FC085E090E00E947A4FC7
:101D90007C016C01009709F448C082E090E00E9449
:101DA0007A4FFC01D70112969C938E93119700975E
:101DB00021F4C7010E94145036C0D80111968D91AC
:101DC0009C911297DC018D919C9111979183808356
:101DD000F801838194810097F9F040814423E1F078
:101DE000842F90E049830E947A4FD70114969C93E8
:101DF0008E9313974981009721F4C7010E94270E03
:101E000012C0F8016381748150E00E94AC51D80186
:101E10008C91F701808309C0D70114961C921E9201
:101E200013971C9202C0CC24DD24C6010F90CF91E1
:101E3000DF911F910F91FF90EF90DF90CF90089569
:101E4000CF93DF93EC01009799F0888199810097F7
:101E500021F00E94230C198218828A819B810097AD
:101E600021F00E94270E1B821A82CE010E9414507C
:101E7000DF91CF910895AF92BF92CF92DF92EF9210
:101E8000FF920F931F93CF93DF93D82EC62EB42EBD
:101E9000A22E84E090E00E947A4F8C01EC01009722
:101EA00009F46BC0198218821B821A828D2D6C2D49
:101EB0004B2D2A2D0E94680E7C01009711F4C80159
:101EC0002EC0DC018D919C911197F8019183808344
:101ED00011961C921E921296ED91FC91139701801F
:101EE000F281E02D2081213639F081E090E02C361E
:101EF00029F080E090E002C081E090E0882371F159
:101F0000C7010E94200F81E029C08D2D6C2D4B2D23
:101F10002A2D0E94680E7C01009731F4C8010E94AE
:101F2000200FC0E0D0E029C0DC011296ED91FC91B9
:101F300013970180F281E02D2081213639F081E074
:101F400090E02C3629F080E090E002C081E090E043
:101F5000882321F0C7010E94200FD7CF8823A9F63C
:101F6000F70182819381D80113969C938E931297E7
:101F700013821282C7010E94200FCE01DF91CF9100
:101F80001F910F91FF90EF90DF90CF90BF90AF9097
:101F900008951F931FB7F89481E090E09093950007
:101FA000809394000000000000000000000000008A
:101FB0000000000000000000000000000000000021
:101FC0000000000000000000000000000000000011
:101FD0000000000000000000000000000000000001
:101FE00000000000000000000000000000000000F1
:101FF00000000000000000000000000000000000E1
:102000000000000000006091940070919500613024
:10201000710579F080E090E020E83EE340E050E098
:102020000E94C04E22E330E040E050E00E94064FA4
:1020300002C020E030E01FBFC9011F9108958FB793
:10204000F89420919400309195008FBFC9010895B4
:102050008CE08093900088E990E064E771E00E9452
:102060005D188FE08093910008951092910084E9AB
:1020700090E060E070E00E945D1808951092910079
:10208000089589B1817008951F93182F88E990E011
:1020900064E771E00E945D188CE08093900084E911
:1020A00090E061E070E00E945D18C19A80E004C099
:1020B000C19BFECFC19A8F5F8117D0F31F91089506
:1020C0000F931F93DF93CF930F92CDB7DEB7182FE7
:1020D000062F0E94C90F009709F475C08CE0809309
:1020E0009000449A3C9A88E990E064E771E00E948D
:1020F0005D1884E990E061E070E00E945D18C19A8B
:1021000088E080939000002311F11095198320E05E
:1021100030E010E0E7E0F0E041E050E09981BF01FD
:10212000621B730BDA0102C0AA0FBB1F6A95E2F7AC
:102130009A2341F0BA01022E02C0660F771F0A945B
:10214000E2F7162B2F5F3F4F2830310539F7C19B3F
:10215000FECFC19A20E030E060E041E050E0F8E0DE
:1021600071E0ECE0CA01022E02C0880F991F0A94A8
:10217000E2F7812329F0E0939000002329F403C0C3
:10218000F093900001116727C19BFECFC19A2F5F8A
:102190003F4F2830310531F7002319F4662319F435
:1021A00004C0662311F48CE001C088E080939000A5
:1021B000C19BFECFC19AC19BFECFC19A8CE0809398
:1021C00090003C98449A0F90CF91DF911F910F910E
:1021D0000895FF920F931F93DF93CF930F92CDB784
:1021E000DEB7182F062F0E94601081E00E94441075
:1021F00034992AC088E990E064E771E00E945D1894
:1022000084E990E061E070E00E945D18C19A8CE082
:1022100080939000FF24F39482E00E944410812F69
:10222000602F0E94601081E00E94441081E0349988
:1022300080E089838F2D843019F08981882359F7B4
:10224000998181E0992309F480E00F90CF91DF918B
:102250001F910F91FF900895DF93CF930F92CDB709
:10226000DEB720E030E046B1407149832F5F3F4F39
:10227000009719F02817390719F04981442399F775
:10228000998181E0992309F480E00F90CF91DF914B
:102290000895EF92FF920F931F93DF93CF930F92C6
:1022A000CDB7DEB7E82E8B018CE0809390003C9890
:1022B000449A3499FECF84E990E061E070E00E9496
:1022C0005D1888E990E06AEB70E00E945D18C19AA1
:1022D000C19BFECFC19A86B18071898388E990E065
:1022E00064E771E00E945D18F801108289818823FB
:1022F00009F054C027E030E0FF24A0E067E070E080
:1023000041E050E0B1E0C19BFECFC19A86B180713F
:102310008983EE2061F089818823B9F4CA01022EF5
:1023200002C0880F991F0A94E2F7A82B0DC089817B
:10233000882359F0FB01E21BF30BCA0102C0880F8E
:10234000991FEA95E2F7A82BFB26215030409FEF1A
:102350002F3F3907C1F6F801A083C19BFECFC19A78
:1023600086B18071898388E990E06AEB70E00E9411
:102370005D18C19BFECFC19AEE2019F0FF2019F025
:1023800007C0FF2029F0998181E0992341F004C022
:10239000998181E0992319F480E001C081E00F90D8
:1023A000CF91DF911F910F91FF90EF9008951F93B0
:1023B0000E944911182F882391F10E94C90F00979C
:1023C00071F18CE0809390003C9A88E990E06BEA90
:1023D00070E00E945D1884E990E061E070E00E9486
:1023E0005D18C19A88E080939000C19BFECFC19A8E
:1023F00088E990E06FE871E00E945D18C19BFECF14
:10240000C19A8CE0809390003C98449A88E990E0CF
:102410006BEA70E00E945D18C19BFECFC19A812FCC
:102420001F9108950F931F93182F062F882319F0DB
:102430008FE3612F02C08BE360E00E9460108AEF9F
:102440000E94441080E6612F0E94601082E00E948A
:10245000441080E0612F0E94601082E00E944410CE
:10246000802F612F0E94601082E00E9444101F9113
:102470000F91089589B18270089589B18095881F60
:102480008827881F0895499B04C05F98579A80E069
:10249000089581E00895579A5F9A08951F93182F21
:1024A00088E890E064E771E00E945D1880E3809323
:1024B000800084E890E061E070E00E945D18B19ACD
:1024C00080E004C0B19BFECFB19A8F5F8117D0F33B
:1024D0001F910895DF93CF930F92CDB7DEB79B0185
:1024E000AC0180E090E0A0E0B0E063B1607469838B
:1024F0000196A11DB11D211531054105510529F098
:1025000082179307A407B50719F06981662369F755
:10251000998181E0992309F480E00F90CF91DF91B8
:102520000895EF92FF920F931F93DF93CF930F9233
:10253000CDB7DEB7E82E8B0180E38093800026982C
:102540002E9A1E99FECF84E890E061E070E00E9430
:102550005D1888E890E06AEB70E00E945D18B19A1F
:10256000B19BFECFB19A83B18074898388E890E0F3
:1025700064E771E00E945D18F80110828981882368
:1025800009F054C027E030E0FF24A0E067E070E0ED
:1025900041E050E0B1E0B19BFECFB19A83B18074CD
:1025A0008983EE2061F089818823B9F4CA01022E63
:1025B00002C0880F991F0A94E2F7A82B0DC08981E9
:1025C000882359F0FB01E21BF30BCA0102C0880FFC
:1025D000991FEA95E2F7A82BFB26215030409FEF88
:1025E0002F3F3907C1F6F801A083B19BFECFB19A06
:1025F00083B18074898388E890E06AEB70E00E9480
:102600005D18B19BFECFB19AEE2019F0FF2019F0B2
:1026100007C0FF2029F0998181E0992341F004C08F
:10262000998181E0992319F480E001C081E00F9045
:10263000CF91DF911F910F91FF90EF9008951F931D
:102640000E949112182F882389F189B181FF2EC031
:1026500080E380938000269A88E890E06BEA70E03F
:102660000E945D1884E890E061E070E00E945D18CF
:10267000B19A80E280938000B19BFECFB19A88E846
:1026800090E06FE871E00E945D18B19BFECFB19AB7
:1026900080E38093800026982E9A88E890E06BEA89
:1026A00070E00E945D18B19BFECFB19A812F1F91FF
:1026B00008950F931F93DF93CF930F92CDB7DEB79B
:1026C000182F062F89B181FF75C080E380938000A9
:1026D0002E9A269A88E890E064E771E00E945D18DF
:1026E00084E890E061E070E00E945D18B19A80E2B9
:1026F00080938000002311F11095198320E030E0D1
:1027000010E0E7E0F0E041E050E09981BF01621B9A
:10271000730BDA0102C0AA0FBB1F6A95E2F79A2376
:1027200041F0BA01022E02C0660F771F0A94E2F749
:10273000162B2F5F3F4F2830310539F7B19BFECF65
:10274000B19A20E030E060E041E050E0F0E271E07A
:10275000E0E3CA01022E02C0880F991F0A94E2F733
:10276000812329F0E0938000002329F403C0F09333
:10277000800001116727B19BFECFB19A2F5F3F4FB9
:102780002830310531F7002319F4662319F404C009
:10279000662311F480E301C080E280938000B19B46
:1027A000FECFB19AB19BFECFB19A80E380938000B7
:1027B00026982E9A0F90CF91DF911F910F91089537
:1027C000FF920F931F93DF93CF930F92CDB7DEB796
:1027D000182F062F0E94591381E00E944E121E9955
:1027E0002AC088E890E064E771E00E945D1884E800
:1027F00090E061E070E00E945D18B19A80E3809300
:102800008000FF24F39482E00E944E12812F602FFB
:102810000E94591381E00E944E1281E01E9980E0CF
:1028200089838F2D843019F08981882359F7998104
:1028300081E0992309F480E00F90CF91DF911F91FF
:102840000F91FF9008953F924F925F926F927F9207
:102850008F929F92AF92BF92CF92DF92EF92FF92B0
:102860000F931F93DF93CF930F92CDB7DEB77C0109
:102870006B014A015901380180E0BE016F5F7F4F53
:102880000E94911289818B3319F4F701108206C0DE
:10289000833009F0E1C081E0F7018083F701808196
:1028A0008E010F5F1F4FB8010E94911249808FE087
:1028B000382E342044FE0CC0F7018081B8010E94FC
:1028C00091128981813109F0C7C0542C582601C06A
:1028D000542C45FEC1C0F7018081BE016F5F7F4F60
:1028E0000E9491128981882309F0B6C046FE08C073
:1028F000F7018081B4010E9491128981582602C09B
:10290000F401108247FE88C0F7018081BE016F5F2D
:102910007F4F0E9491120981802F8F70813019F4AE
:10292000F601808305C0882309F096C0F601108265
:10293000802F807309F090C0502606FF0CC0F7016D
:102940008081BE016F5F7F4F0E94911289818A3022
:1029500009F082C0582607FF61C0F7018081BE01DF
:102960006F5F7F4F0E9491120981802F8F70F60157
:102970009081992321F48E3009F06EC005C091300A
:1029800019F4813009F068C0502604FF0FC0F70128
:102990008081BE016F5F7F4F0E9491128981982FC5
:1029A0009F50903F08F058C0582601C080E2F501C2
:1029B0008083802F8072F6019081913019F48823F2
:1029C00019F44AC0882399F0F7018081BE016F5F36
:1029D0007F4F0E9491128981982F9F709630E0F569
:1029E000982F907F9134C0F55826F30180830074AE
:1029F000F6018081882319F4002381F02DC0002383
:102A000069F0F7018081BE016F5F7F4F0E949112D4
:102A10008981882319F020C0F6011082AA248E0132
:102A20000F5F1F4F07C080E0B8010E94911289819B
:102A30005826A394A314B8F3F6018081813071F471
:102A4000F7018081BE016F5F7F4F0E94911281E08C
:102A50009981591621F402C081E001C080E00F90F5
:102A6000CF91DF911F910F91FF90EF90DF90CF906A
:102A7000BF90AF909F908F907F906F905F904F909E
:102A80003F9008955C98549A14BC15BC1092800035
:102A9000109281002F98279A2E98269A5F9A579A1B
:102AA00008951F93CF93DF93182F882319F05C9814
:102AB000549A15C02E98269A2F98279A5C98549A63
:102AC000C8ECD0E0FE013197F1F70E944312882351
:102AD00021F00E94421581E01DC02197F1F7269850
:102AE0002E9A1123B1F482E484BD83E087BD16BC25
:102AF00081E085BD80E38093800088E890E064E712
:102B000071E00E945D188AE08093810080E48093E8
:102B1000820080E0DF91CF911F9108956F927F92A4
:102B20008F929F92AF92BF92DF92EF92FF920F939C
:102B30001F93CF93DF93D82E5B014A013901E8013F
:102B400002C0DD24D3948D2D0E9451158823C9F431
:102B500080E70E944E125C9A60EA76E881E090E09D
:102B60000E946A12882349F4C501B401A3019E01A1
:102B700087010E942314882331F0DD2011F30E9485
:102B8000421581E001C080E0DF91CF911F910F914C
:102B9000FF90EF90DF90BF90AF909F908F907F90CD
:102BA0006F9008956F9A779A08956E9A769A08951D
:102BB0006D9A759A08956C9A749A08956F9877989B
:102BC00008956E98769808956D98759808956C9804
:102BD00074980895249A2C9A0895259A2D9A089508
:102BE00024982C98089525982D980895849A8C9A65
:102BF000089584988C980895869A8E9A0895869858
:102C00008E98089583988FB18870089582988FB1B7
:102C10008470089581988FB18270089580988FB1E3
:102C20008170089581E07B9980E07A9B8260799B36
:102C30008460789B8860089588B1887F88B987B15F
:102C4000876087B911B8419A429A85E38A95F1F76E
:102C500080B1429897B1987F97B9089580914A05BD
:102C6000089580934A050895AF92BF92CF92DF9264
:102C7000EF92FF920F931F93DF93CF9300D0CDB7C6
:102C8000DEB7F82E89014A8369830E941C164A81A7
:102C9000698187FDF8CF87B1876087B9FF2011F080
:102CA000409A01C04098662319F0419A11B804C0B7
:102CB00041988FEF81B942B9429AB80180E090E023
:102CC0000E94594C5B016C012BEA3AEA4AEA50E453
:102CD0000E94CA497B018C017F2D912F20E030E0BA
:102CE00040E85FE30E94D64B87FD63C06E2D7F2DC9
:102CF000802F912F20E030E04FE753E40E94764B85
:102D000018160CF04FC0C601B50120E030E04AE7CC
:102D100054E40E94C74AA62ED72EC82EB92E20E012
:102D200030E04AE755E40E94CA497B018C017F2DBF
:102D3000912F20E030E040E85FE30E94D64B87FD12
:102D40002BC06E2D7F2D802F912F20E03FEF4FE77E
:102D500057E40E94764B1816C4F46A2D7D2D8C2DF5
:102D60009B2D20E030E040E251E40E94CA490E94DD
:102D7000ED4720E931E005C0C9010197F1F7615045
:102D8000704061157105C1F717C06E2D7F2D802F22
:102D9000912F0E94ED4702C061E070E0CB010197E6
:102DA000F1F70AC06E2D7F2D802F912F0E94ED47E5
:102DB00001C061E06A95F1F780B1429897B1987FC0
:102DC00097B90F900F90CF91DF911F910F91FF90C6
:102DD000EF90DF90CF90BF90AF9008951F9380E069
:102DE00060E041E028E230E00E94341618E281E021
:102DF00060E041E328E230E00E9434161150B9F758
:102E000080E060E040EC25E230E00E94341618E2F9
:102E100081E060E042E328E230E00E943416115085
:102E2000B9F71F910895EF92FF920F931F93CF93DD
:102E3000DF93EC01E62E80E060E041E028E230E044
:102E40000E9434168E01FF240AC0F80141918F01BF
:102E500081E060E028E230E00E943416F394FE1432
:102E600018F4FF2DF83089F78E2D8930C0F080E0FE
:102E700060E040EC28E230E00E9434160BC0FE0116
:102E8000EF0DF11D81E060E0408128E230E00E941A
:102E90003416F394FE1418F4EF2DE03180F3109201
:102EA0004B05DF91CF911F910F91FF90EF90089507
:102EB0001F93182F80914C05882371F01A3071F000
:102EC00080E060E041E028E230E00E943416109299
:102ED0004C0510924B0506C01A3021F481E0809316
:102EE0004C0507C081E060E0412F28E230E00E94FD
:102EF000341680914B058F5F80934B05883021F409
:102F000080E060E040EC05C0803139F480E060E0B2
:102F100042E028E230E00E94341680E090E01F9109
:102F200008953D9A459A80E060E048E328E230E069
:102F30000E94341680E060E04EE028E230E00E941B
:102F4000341680E060E046E028E230E00E9434166B
:102F500080E060E041E028E230E00E94341681E049
:102F600080934A0508958FEF81B98AEA82B90E9459
:102F70001C1691E08A3A09F090E0892F08953D9857
:102F8000459880E060E048E028E230E00E94341696
:102F900010924A0508953D9A459A80E060E04EE01F
:102FA00028E230E00E94341681E080934A050895BB
:102FB000F999FECF92BD81BD60BDFA9AF99A089544
:102FC000F999FECF92BD81BDF89A80B50895CF9250
:102FD000DF92EF92FF920F931F93CF93DF93D82E40
:102FE000EB018A012097D9F08FE0413A5807B8F4F5
:102FF000CFB6F8948D2D0AC07C010894E11CF11C19
:10300000EC0FFD1F60810E94D817C701E82FED1952
:10301000F0E0E017F10780F3F999FECFCFBEDF9122
:10302000CF911F910F91FF90EF90DF90CF90089577
:103030008F929F92AF92BF92CF92DF92EF92FF92C8
:103040000F931F93CF93DF93982EE92E8B012FE0E0
:10305000613A720710F5CB010E947A4FC82EE60143
:103060006E01D92EE6012097D1F08FB6F894892D04
:103070009E2D0BC05C010894A11CB11C0E94E0179E
:10308000FE01EE0DFF1D8083C501E82EE918FF2427
:10309000E016F10678F38FBE02C0CC24DD24C60111
:1030A000DF91CF911F910F91FF90EF90DF90CF9024
:1030B000BF90AF909F908F9008952FB7F894FC0128
:1030C000718360832FBF08954FB7F894FC0120816E
:1030D00031814FBFC90108951F932FB7F89484E63B
:1030E00090E090939900809398002FBF2FB7F894A9
:1030F00081E090E090939500809394002FBF109210
:10310000900082E0809371008FE0809391001FB760
:103110000E942E1690915205992321F0882311F0D8
:103120000E94BF170E94DE150E94E1150E94E4155F
:103130000E94E71583B7817F83BFF89483B78160CE
:1031400083BF7894889583B78E7F83BF1FBF10920B
:103150007100109291000E94DB151F9108950E944A
:103160002E1690915205992321F0882311F00E9488
:10317000BF170E94DE150E94E1150E94E4150E940F
:10318000E7159FB783B7817F846083BFF89483B7C7
:10319000816083BF7894889583B78E7F83BF9FBFFC
:1031A0000E94DB150895AF92BF92CF92DF92EF920B
:1031B000FF920F931F93CF93DF93B62EA42E0E94FE
:1031C000BC0D7C01009709F4A3C000E010E001C031
:1031D0008E0180E10E944E128B2D6A2DA7010E9464
:1031E0006208882381F4D70111966D917C91129722
:1031F0008B2D0E94BC096C01009729F0FC01818194
:103200009281009711F4C8012FC0C6010E94AD0E33
:10321000EC01009739F4C8010E94270EC6010E94F4
:10322000270E72C00115110509F43FC0D80113968D
:103230008D919C9114970097C1F18C918823A9F1ED
:10324000F6016081680F68838B819C8170E00E9429
:10325000AD509C838B83009769F4C8010E94270EB0
:10326000C6010E94270ECE010E94270EC7010E94B0
:10327000230C4EC0D8014C9113966C911397149661
:103280007C9150E00E94AC51F80180812B813C81FF
:10329000280F311DD6014C9113966C9113971496FB
:1032A0007C91C90150E00E94AC51C6010E94270EDA
:1032B000C8010E94270EE981FA818081982F9156DA
:1032C0009330B8F4C7010E94230C81E060E070E005
:1032D00040E00E94C40C7C01009721F4CE010E94C2
:1032E000270E16C0E981FA818081813609F070CFFE
:1032F00002C08C3649F4D70111962D913C9112975A
:103300008181F901848364CFC7010E94230C02C02C
:10331000C0E0D0E0CE01DF91CF911F910F91FF90DF
:10332000EF90DF90CF90BF90AF900895DF92EF9233
:10333000FF920F931F93CF93DF93E82E062FFA018E
:10334000F22E309709F45FC04081442309F45BC03A
:103350006181728184E00E94C40CEC01009709F441
:1033600054C06E2D402F0E94D3188C01009721F479
:10337000CE010E94230C49C0FF2061F1D0904F057F
:103380008D2D823338F584E090E00E947A4F7C01E5
:10339000ED2DF0E0EE0FFF1FEC5AFA4FF182E082C4
:1033A000CE010E94BC0DD7018D939C93E0914F05F7
:1033B000F0E0EE0FFF1FEC5AFA4FE080F180C801F9
:1033C0000E94AD0EF7019383828380914F058F5F3A
:1033D00080934F05CE010E94230CD8011196ED91E8
:1033E000FC911297309731F08081803919F48181F6
:1033F000882321F0C8010E94270E07C0C8010E943F
:10340000270E80E003C08FEF01C081E0DF91CF91F4
:103410001F910F91FF90EF90DF900895DF92EF9250
:10342000FF920F931F93CF93DF93E82E062FFA019D
:10343000F22E6181728187E040810E94C40CEC0110
:103440000097C9F16E2D402F0E94D3188C01FF20E8
:1034500071F1009761F1D0904F058D2D823338F5D1
:1034600084E090E00E947A4F7C01ED2DF0E0EE0FB9
:10347000FF1FEC5AFA4F91838083CE010E94BC0D4E
:10348000F70191838083E0914F05F0E0EE0FFF1F7D
:10349000EC5AFA4FE080F180C8010E94AD0EF701AE
:1034A0009383828380914F058F5F80934F05CE0178
:1034B0000E94230C02C000E010E0C801DF91CF9110
:1034C0001F910F91FF90EF90DF900895FC010097FE
:1034D000D1F02381348121153105A9F08081F901D2
:1034E00040E001C04F5F481718F491919838D1F728
:1034F00050E090E00297481759073CF4240F351F1D
:10350000F9018281089580E0089580E00895009790
:10351000E9F0DC011396ED91FC9114973097B1F02E
:103520009081992399F0A181B281109779F080E080
:103530000BC0ED91FD91309731F020812F3919F4B6
:103540002181283329F08F5F891798F3E0E0F0E0BC
:10355000CF010895009729F00E94871AFC01009777
:1035600079F485E090E00E947A4FE82FF92F3097A8
:1035700039F01482138212828FE9808388E3818379
:10358000CF010895AF92BF92DF92EF92FF920F9317
:103590001F93DF93CF9300D0CDB7DEB75C0185E0FA
:1035A00090E04A8369830E947A4F8C017C014A81B2
:1035B0006981009709F45AC0DC0114961C921E928E
:1035C0001397F50180818C938F718F3131F4818154
:1035D00011968C93119782E005C0D80111961C9228
:1035E000119781E0F501E80FF11D9081F8019283B8
:1035F000D82ED394913849F4F501ED0DF11D808159
:10360000D80112968C931297D394442379F1F80140
:10361000828170E061507040282F30E02617370714
:1036200064F490E00E947A4FD80114969C938E9394
:103630001397009711F080E013C0C8010E94145046
:10364000EE24FF2413C0D8011396ED91FC9114973A
:10365000E80FF11DD501A20FB11D9C9190838F5FE2
:10366000282F2D0DF8019281891768F3C7010F905B
:103670000F90CF91DF911F910F91FF90EF90DF900E
:10368000BF90AF900895AF92BF92CF92DF92EF922A
:10369000FF920F931F93DF93CF930F92CDB7DEB7B7
:1036A000E82E062F142FF22E86E060E070E040E056
:1036B0000E94C40C5C01009709F48BC0DC011196D8
:1036C000ED91FC9112978FE982831196ED91FC9117
:1036D00012971383C5016E2D402F0E94D3188C01C1
:1036E000009721F4C5010E94230C73C0FF2071F1E3
:1036F000D0904F05BD2DB23348F584E090E00E9494
:103700007A4F7C01ED2DF0E0EE0FFF1FEC5AFA4FDF
:1037100091838083C5010E94BC0DF7019183808352
:10372000E0914F05F0E0EE0FFF1FEC5AFA4FE080FA
:10373000F180C8010E94AD0ED70113969C938E9321
:10374000129780914F058F5F80934F05C5010E94AE
:10375000230CF80183819481009721F4C8010E9411
:10376000270E37C0D8016C9141E00E94C21A7C013B
:10377000C8010E94270EE114F10459F183E090E0A2
:103780000E947A4F482F592F6A01F7014281D601D2
:103790004C9312961C921E92119782818823D9F025
:1037A0000381148101151105B1F0842F90E0498344
:1037B0000E947A4FF601928381834981009721F418
:1037C000C6010E94145005C0B80150E00E94AC51DF
:1037D00002C0CC24DD24C6010F90CF91DF911F9150
:1037E0000F91FF90EF90DF90CF90BF90AF90089532
:1037F000CF92DF92EF92FF920F931F93DF93CF93BD
:103800000F92CDB7DEB78C010097B9F185E090E05B
:103810000E947A4FC82ED92EC114D10481F1F6012D
:103820001282F8018081F6018083F8018181F6011E
:10383000818314821382F801838194810097F9F0C7
:1038400042814423E1F0842F90E049830E947A4F23
:10385000F601948383834981009721F4C6010E9475
:1038600014500BC0F8016381748150E00E94AC5188
:10387000F8018281F601828302C0CC24DD24C601D6
:103880000F90CF91DF911F910F91FF90EF90DF90FC
:10389000CF900895DF92EF92FF920F931F93CF93F3
:1038A000DF93EC018B01009709F44CC061157105A1
:1038B00009F448C0DB0111968D919C9112970097F5
:1038C00009F440C06C918881680F70E0660F771F23
:1038D00089819A810E94AD509A838983009791F1E2
:1038E000DD242AC0888190E0880F991FE980FA8042
:1038F000E80EF91E8D2D90E0880F991FD8011196C2
:10390000ED91FC911297E80FF91F808191810E943F
:10391000F81BF701918380832881822F90E0880F24
:10392000991FE981FA81E80FF91F80819181009741
:1039300049F02F5F2883D394D8018C91D81690F248
:1039400080E001C081E0DF91CF911F910F91FF9046
:10395000EF90DF900895FC010097D1F0308180E076
:1039600090E020E013C0A181B281A80FB91F0D9093
:10397000BC91A02D109741F05C91561729F4119637
:103980005C911197541731F02F5F0296231758F36B
:10399000A0E0B0E0CD0108951F93CF93DF93FC0129
:1039A0000097C9F1908120E030E080E011C0A18152
:1039B000B281A20FB31FCD91DC911197209729F00E
:1039C00048814C3811F410E023C08F5F2E5F3F4FC9
:1039D000891768F320C08B819C81611B810F911D29
:1039E00040E00E94C21A0097B1F0FC0120812F39FB
:1039F00041F42181223029F40E941450812F8F5FDD
:103A00000BC01E5FFC01218121111F5F0E94145019
:103A10006A81161700F380E0DF91CF911F9108951E
:103A2000CF92DF92FF920F931F93CF93DF938C017E
:103A3000009709F460C0DC0111968C9111978823DE
:103A400011F481E001C082E0F82EF394F8012281A4
:103A500027FDF394D80113968D919C9114970097AC
:103A600009F0F20E8F2D90E00E947A4FE82FEF01BF
:103A70006E01D92EE6012097F1F1D8018C9188834F
:103A800011968C911197882319F0898382E001C0E7
:103A900081E0F801928197FF06C0FE01E80FF11D59
:103AA00091E890838F5FFE01E80FF11DD801129617
:103AB0009C911297908313962D913C911497211508
:103AC000310571F012964C911297442349F08F5FA3
:103AD000BE01680F711DCB01B90150E00E94AC51CD
:103AE000CE016F2D0E94780B8C01009731F4CE012E
:103AF0000E94145002C000E010E0C801DF91CF9195
:103B00001F910F91FF90DF90CF900895CF93DF9397
:103B1000EC01009759F08B819C81009721F00E9465
:103B200014501C821B82CE010E941450DF91CF9151
:103B300008952F923F924F925F926F927F928F9251
:103B40009F92AF92BF92CF92DF92EF92FF920F932C
:103B50001F93DF93CF93CDB7DEB72D970FB6F894B1
:103B6000DEBF0FBECDBF89836A834B834901AE2C74
:103B70002115310509F499C20115110509F495C201
:103B8000BB24CC24DD24EE24FF2428E2622E712CF9
:103B9000600E711E90E2492E512C400E511E89E19B
:103BA000282E312C200E311EC80145969D838C8312
:103BB000D8019D96BF83AE83F8013E96F987E887CA
:103BC000C80106969B878A8725C2D40113968D91DA
:103BD0009C9114976C198C0D911D40E00E94C21AA3
:103BE000AC01B2E0CB0E009709F414C2FC01818154
:103BF0008111C394DA0112968C91B80EC7016B2D16
:103C000070E04C875D870E94AD509C017C014C8523
:103C10005D85009721F4CA010E94861D46C2FA0103
:103C200080818F3909F073C081818230F1F4F8010D
:103C300080E007C09191D901AD0DB11D9C93D39443
:103C40008F5FDA0112969C911297891748F486309B
:103C500089F706C0F901ED0DF11D1082D3948F5F35
:103C6000FA0192818917B0F3D2C18330F9F4EA8561
:103C7000FB8580E007C09191D901AD0DB11D9C93EA
:103C8000D3948F5FDA0112969C911297891748F4AA
:103C9000863089F706C0F901ED0DF11D1082D3942D
:103CA0008F5FFA0192818917B0F3B1C18A3109F0AF
:103CB00002C1DA0112968C9112978823B9F0F901AA
:103CC000ED0DF11DD8011C968C911C978083D39427
:103CD000FA018281823060F0F901ED0DF11D1D962F
:103CE0008C911D978083D39482E00AC080E008C045
:103CF00081E006C0F901ED0DF11D1082D3948F5FB4
:103D0000DA0112969C9112978917A0F380C1853928
:103D1000F9F4E885F98580E007C09191D901AD0DEE
:103D2000B11D9C93D3948F5FDA0112969C911297E8
:103D3000891748F4853089F706C0F901ED0DF11DAA
:103D40001082D3948F5FFA0192818917B0F35FC11B
:103D50008F35A1F5DA0111968C9111978A3209F00D
:103D60002AC112968C9112978823B9F0F901ED0DB2
:103D7000F11DD80153968C9153978083D394FA0107
:103D80008281823060F0F901ED0DF11D54968C9125
:103D900054978083D39482E00AC080E008C081E019
:103DA00006C0F901ED0DF11D1082D3948F5FDA0189
:103DB00012969C9112978917A0F329C18A3861F550
:103DC000FA0182818823B9F0F901ED0DF11DD801C6
:103DD0009B968C919B978083D394FA018281823049
:103DE00060F0F901ED0DF11D9C968C919C978083FC
:103DF000D39482E00AC080E008C081E006C0F901E7
:103E0000ED0DF11D1082D3948F5FDA0112969C9113
:103E100012978917A0F3FBC08139F9F4EE81FF8175
:103E200080E007C09191D901AD0DB11D9C93D39451
:103E30008F5FDA0112969C911297891748F48830A7
:103E400089F706C0F901ED0DF11D1082D3948F5F43
:103E5000FA0192818917B0F3DAC08A39F9F4EC815A
:103E6000FD8180E007C09191D901AD0DB11D9C93FA
:103E7000D3948F5FDA0112969C911297891748F4B8
:103E8000833089F706C0F901ED0DF11D1082D3943E
:103E90008F5FFA0192818917B0F3B9C08C3941F470
:103EA000F901ED0DF11DD80158968C9158972EC04F
:103EB0008F3909F080C0FA0181818733F1F4F10173
:103EC00080E007C09191D901AD0DB11D9C93D394B1
:103ED0008F5FDA0112969C911297891748F484300B
:103EE00089F706C0F901ED0DF11D1082D3948F5FA3
:103EF000FA0192818917B0F38AC0853351F42D0DF0
:103F0000311DD8015D968C915D97F9018083D39422
:103F10007EC0853471F5DA0112968C911297882350
:103F2000B9F0F901ED0DF11DD8015E968C915E9707
:103F30008083D394FA018281823060F0F901ED0D23
:103F4000F11D5F968C915F978083D39482E00AC0C5
:103F500080E008C081E006C0F901ED0DF11D10827E
:103F6000D3948F5FDA0112969C9112978917A0F370
:103F70004EC08C34F1F4F20180E007C09191D90178
:103F8000AD0DB11D9C93D3948F5FDA0112969C9175
:103F90001297891748F4883089F706C0F901ED0DAA
:103FA000F11D1082D3948F5FFA0192818917B0F3CB
:103FB0002EC0843311F080E024C0F30180E007C0FC
:103FC0009191D901AD0DB11D9C93D3948F5FDA010E
:103FD00012969C911297891748F4833089F706C08E
:103FE000F901ED0DF11D1082D3948F5FFA019281DA
:103FF0008917B0F30CC0F901ED0DF11D1082D394B7
:104000008F5FDA0112969C9112978917A0F3CA016B
:104010000E94861DF4016281C61608F4D6CD85E0A3
:10402000B7014B2D0E94C40C4C010097F1F1DC014B
:104030001196ED91FC911297BB81B28369814A81FF
:104040000E94D3188C01AA2061F1D0904F05ED2D6C
:10405000E23338F584E090E00E947A4F7C01ED2D48
:10406000F0E0EE0FFF1FEC5AFA4F91838083C401FA
:104070000E94BC0DD7018D939C93E0914F05F0E019
:10408000EE0FFF1FEC5AFA4FE080F180C8010E944A
:10409000AD0EF7019383828380914F058F5F8093EC
:1040A0004F05C4010E94230C02C000E010E0C801CB
:1040B0002D960FB6F894DEBF0FBECDBFCF91DF9126
:1040C0001F910F91FF90EF90DF90CF90BF90AF9036
:1040D0009F908F907F906F905F904F903F902F9028
:1040E0000895FF920F931F93CF93DF93EC010097F6
:1040F00031F189819A810097F9F0FF2414C00F2DC6
:1041000010E0000F111F800F911FFC018081918131
:10411000009741F00E94861DE981FA81E00FF11FAE
:1041200011821082F394288189819A81F21638F3E2
:104130000E9414501A821982CE010E941450DF91FD
:10414000CF911F910F91FF900895AF92BF92CF92A0
:10415000DF92EF92FF920F931F93CF93DF936C0147
:10416000A62E009709F444C0662309F441C083E0F9
:1041700090E00E947A4FE82EE7017E01F92EE701D8
:104180002097C1F118821A821982BB242EC06A2D91
:104190006B19C6018B0D911D41E00E94C21A8C0162
:1041A000009721F4CE010E94712022C0FC0182817F
:1041B000982F9E5FB90E91819111B39487FDB394AE
:1041C00068816F5F688370E0660F771F89819A81CD
:1041D0000E94AD509A838983E881F0E03197EE0F19
:1041E000FF1FE80FF91F11830083BA1480F202C089
:1041F000EE24FF24C701DF91CF911F910F91FF9013
:10420000EF90DF90CF90BF90AF900895FC010097A2
:10421000F1F06623E1F06430D0F080818037B9F4AA
:104220004181413819F4428153E001C052E0862FA8
:1042300090E00197242F30E02817390744F4CF018C
:10424000850F911D642F0E94A5209C0102C020E0D3
:1042500030E0C9010895BF92CF92DF92EF92FF92B2
:104260000F931F93CF93DF93EC01CB01209709F4B9
:104270004BC0642F0E9406218C01009709F444C0B2
:10428000BB2439C08B2D90E0880F991FD80111965F
:10429000ED91FC911297E80FF91FE080F180F70192
:1042A0008381948162810E94A5206C01009749F06E
:1042B000D7018C91813629F411968C91119788231E
:1042C00021F0C8010E9471201FC068816F5F688360
:1042D00070E0660F771F89819A810E94AD509A83A2
:1042E0008983E881F0E03197EE0FFF1FE80FF91F97
:1042F000D182C082B394F8018081B81618F2C80147
:104300000E94712080E001C081E0DF91CF911F9178
:104310000F91FF90EF90DF90CF90BF9008952F9274
:104320003F924F925F926F927F928F929F92AF9245
:10433000BF92CF92DF92EF92FF920F931F93DF9382
:10434000CF9300D000D000D0CDB7DEB78B836C8385
:104350005A8349837901202E4115510509F446C13C
:10436000DA0113968D919C911497009709F43EC140
:1043700083E090E00E947A4F4C013C01FC011082E6
:1043800012821182E114F10431F0D7011C921296CD
:104390001C921E92119782E060E070E040E00E9463
:1043A000C40C6C01009711F0332416C1C4010E94A3
:1043B00014501CC1832D90E0880F991FE981FA8168
:1043C000A381B481A80FB91FAD90BC901197A1141F
:1043D000B10409F400C1D50111965C901197F6C0A3
:1043E000D6011196ED91FC91129752821196ED91A2
:1043F000FC911297D5018C9184608383C6016B81F7
:104400004C810E94D3189E838D83222079F14090A5
:104410004F05B42DB23350F584E090E00E947A4FFE
:104420008C01E42DF0E0EE0FFF1FEC5AFA4F918360
:104430008083C6010E94BC0DF80191838083E091C6
:104440004F05F0E0EE0FFF1FEC5AFA4F008111818B
:104450008D819E810E94AD0ED80113969C938E9300
:10446000129780914F058F5F80934F05ED81FE81FC
:10447000309709F4A0C00180F281E02D808180395D
:1044800009F0D0C08181882309F0CCC0AD81BE8104
:104490001396ED91FC911497309719F04C9142309E
:1044A00028F48D819E810E94270E8FC0E114F104B3
:1044B00009F46DC0D50113962C91139730E0852D2A
:1044C00090E011965C911197851B910982179307D3
:1044D0000CF05DC08C91813508F1F7010081040F6B
:1044E00081819281602F70E00E94AD509C01D701C4
:1044F00012969C938E931197009709F446C08C9165
:10450000280F311DED81FE81408163817481C901D5
:1045100050E00E94AC51D7010C9339C081818138A1
:1045200011F002E001C003E0D7016C91640F601B41
:1045300011968D919C91129770E00E94AD509C0154
:10454000F70192838183009701F18081A901480FCF
:10455000511DAD81BE81EC91F0E0802F90E0E81B11
:10456000F90B13962D913C911497280F391FCA010E
:10457000B901AF010E94AC51ED81FE818081D7016C
:104580009C91890F801B8C9302C0F7011082AD8132
:10459000BE8113968D919C9114976C910E94062177
:1045A0008C018D819E810E94270EC401B8010E945A
:1045B0004A1C882339F0C4010E947120C6010E9460
:1045C000230C14C0C8010E9471205394F50182810C
:1045D000851508F005CF3394A981BA818C913816DE
:1045E00008F4E8CEC6010E94230C02C0662477249A
:1045F000C30126960FB6F894DEBF0FBECDBFCF9194
:10460000DF911F910F91FF90EF90DF90CF90BF90BF
:10461000AF909F908F907F906F905F904F903F9062
:104620002F9008958D819E810E94270EC4CFFF9206
:104630000F931F93CF93DF93EC0189819A810097A9
:10464000F9F0FF2414C00F2D10E0000F111F800F90
:10465000911FFC0180819181009741F00E9471209F
:10466000E981FA81E00FF11F11821082F394288111
:1046700089819A81F21638F30E9414501A821982A5
:10468000CE010E941450DF91CF911F910F91FF90A6
:104690000895CF93DF93EC018B819C81009721F0EB
:1046A0000E9471201C821B8289819A81009721F0CF
:1046B0000E9414501A821982CE010E941450DF9178
:1046C000CF9108958F929F92AF92BF92CF92DF9237
:1046D000EF92FF920F931F93CF93DF938C0100977C
:1046E00009F482C0662309F47FC0643008F47CC0FA
:1046F000FC0180818F3609F077C08181813819F4FF
:10470000828143E001C042E0A62EBB2495012150E6
:10471000304090E0821793070CF066C0F801E40F78
:10472000F11D8081843809F05FC0C42EC394F80164
:10473000EC0DF11DD080C394FD2DF13829F4F80162
:10474000EC0DF11DD080C3948D2C9924C5010397E5
:10475000881699060CF048C085E090E00E947A4FD8
:104760007C01EC01009709F441C08D2D90E00E947E
:104770007A4F9A838983009721F4C7010E941450CD
:1047800033C098012C0D311DB9014D2D50E00E9410
:10479000AC51D882DC0CF801ED0DF11D8081853A19
:1047A00011F0C7011FC0D394F801ED0DF11D608118
:1047B000D394613829F4F801ED0DF11D6081D39493
:1047C000862F90E0A818B908A816B90654F0C801B9
:1047D0008D0D911D0E94A520F7019483838300977E
:1047E00029F4C7010E944923C0E0D0E0CE01DF9147
:1047F000CF911F910F91FF90EF90DF90CF90BF90DE
:10480000AF909F908F9008952F923F924F925F921A
:104810006F927F928F929F92AF92BF92CF92DF92D0
:10482000EF92FF920F931F93DF93CF930F92CDB729
:10483000DEB7582E462EE42E822E902E83E090E096
:104840000E947A4F8C01009709F456C1DC011C923A
:1048500012961C921E92119782E060E070E040E098
:104860000E94C40C6C01009709F446C1DC0111964A
:10487000ED91FC91129712821196ED91FC91129795
:104880008E2D880F880F880F84608383D601119640
:10489000ED91FC91129782818F5F8283C601652D15
:1048A000442D0E94D3185C01009709F442C199205D
:1048B00071F160904F05B62DB23348F584E090E079
:1048C0000E947A4F7C01E62DF0E0EE0FFF1FEC5ABC
:1048D000FA4F91838083C6010E94BC0DF70191833A
:1048E0008083E0914F05F0E0EE0FFF1FEC5AFA4F86
:1048F000E080F180C5010E94AD0ED70113969C9314
:104900008E93129780914F058F5F80934F05F5012D
:10491000638174816115710551F0C80140810E9465
:104920002B21882309F005C1EE24E39401C0EE2475
:10493000C5010E94270EEE2009F0A8CFC6010E94F3
:10494000230CD8018C91882309F4D6C0882009F063
:1049500093C0992471E2A72E72E0B72E65E2662E0D
:1049600062E0762E50E9252E51E0352E01C09924C3
:10497000892D90E09C01220F331FD8011196ED91F3
:10498000FC911297E20FF31F0190F081E02D01805E
:10499000F281E02DC080D18000D000D000D0EDB7F2
:1049A000FEB731962091CE053091CF05ADB7BEB799
:1049B00012963C932E931197B382A282019695830F
:1049C00084830E94E851EDB7FEB736960FB6F8948F
:1049D000FEBF0FBEEDBFEE24FF242DC000D000D0DF
:1049E00000D02DB73EB72F5F3F4F8091CE059091FD
:1049F000CF05ADB7BEB712969C938E931197F90170
:104A000073826282F601A381B481AE0DBF1D8C91C9
:104A1000D90114968C93149715961C920E94E85114
:104A20000894E11CF11CEDB7FEB736960FB6F8946A
:104A3000FEBF0FBEEDBFD60112968C911297E816FD
:104A400020F4B7E0EB16F10449F680ED97E0F101B0
:104A50003197F1F70197D9F70E941216898389815E
:104A60008823D1F3898182FF08C09394F801808163
:104A7000981609F07DCF7BCF9924892D90E0880F7F
:104A8000991FD8011196ED91FC911297E80FF91F2B
:104A90000190F081E02D0180F281E02D0190F08104
:104AA000E02D6381748180E042810E94C40C7C010E
:104AB000009711F1652D442D0E94D3186C01C70198
:104AC0000E94230CC114D104B9F0F60183819481B2
:104AD000009761F00180F281E02D2081203931F4CE
:104AE000D6016C910E9462237C0102C0EE24FF2457
:104AF000C6010E94270E02C0EE24FF2401151105F5
:104B000019F0C8010E941723C7010F90CF91DF91C0
:104B10001F910F91FF90EF90DF90CF90BF90AF90DB
:104B20009F908F907F906F905F904F903F902F90CD
:104B30000895C6010E94230CEE24FF24E2CF7F9249
:104B40008F929F92AF92BF92CF92DF92EF92FF929D
:104B50000F931F93DF93CF930F92CDB7DEB7982EAD
:104B6000A62EFA01B22E1982309709F4CAC08081AC
:104B7000873009F0C6C06181728180E047E00E9401
:104B8000C40C6C01009709F4C2C0692D4A2D0E9423
:104B9000D3188C01009709F450C0BB2061F1B0908C
:104BA0004F058B2D823338F584E090E00E947A4FD8
:104BB0007C01EB2DF0E0EE0FFF1FEC5AFA4F9183D2
:104BC0008083C6010E94BC0DD7018D939C93E09118
:104BD0004F05F0E0EE0FFF1FEC5AFA4FE080F18036
:104BE000C8010E94AD0EF7019383828380914F0527
:104BF0008F5F80934F05C6010E94230CD801119648
:104C0000ED91FC9112978081803909F455C06EC0F6
:104C10006981689DB0011124665D7D4F80E047E0A9
:104C20000E94C40C6C01009709F471C0692D4A2DD3
:104C30000E94D3188C01009721F4C6010E94230C16
:104C400066C0BB2071F170904F05B72DB23348F5A7
:104C500084E090E00E947A4F7C01E72DF0E0EE0FB7
:104C6000FF1FEC5AFA4FF182E082C6010E94BC0D90
:104C7000F70191838083E0914F05F0E0EE0FFF1F75
:104C8000EC5AFA4FE080F180C8010E94AD0ED701C6
:104C900013969C938E93129780914F058F5F80930C
:104CA0004F05C6010E94230CD8011196ED91FC918D
:104CB00012978081803979F481818823B9F4139621
:104CC0008D919C9114976C910E9462237C01C80184
:104CD0000E94270E1EC08A3621F48181823831F469
:104CE00009C0823619F48181833821F0C8010E94FD
:104CF000270E0DC0C8010E94270E89818F5F89830E
:104D000002C017E0812E8981863008F481CFEE241D
:104D1000FF24C7010F90CF91DF911F910F91FF905A
:104D2000EF90DF90CF90BF90AF909F908F907F904B
:104D300008954F925F927F928F929F92AF92BF920F
:104D4000CF92DF92EF92FF920F931F93DF93CF9357
:104D50000F92CDB7DEB7C82EB62E4A01A22ED02EA6
:104D600080E064E572E04EE00E94C40C2C010097E4
:104D700009F470C06C2D4B2D0E94D3188C01009744
:104D800021F4C2010E94230C65C0DD2061F1709006
:104D90004F05872D823338F584E090E00E947A4FEA
:104DA0007C01E72DF0E0EE0FFF1FEC5AFA4F9183E4
:104DB0008083C2010E94BC0DD7018D939C93E0912A
:104DC0004F05F0E0EE0FFF1FEC5AFA4FE080F18044
:104DD000C8010E94AD0EF7019383828380914F0535
:104DE0008F5F80934F05C2010E94230CD80111965A
:104DF000ED91FC9112978081803999F4818188230B
:104E000031F5C8010E94661A482FC80149830E94E3
:104E1000270E8C2D6B2D49812A2D0D2D0E940424E7
:104E200014C08A3621F48181823889F405C0823623
:104E300071F48181833859F4C8010E94270E8C2DAA
:104E40006B2DA4012D2D0E949F259C0105C0C8013A
:104E50000E94270E20E030E0C9010F90CF91DF9132
:104E60001F910F91FF90EF90DF90CF90BF90AF9088
:104E70009F908F907F905F904F900895FF920F9337
:104E80001F93CF93DF93EC0189819A810097F9F00A
:104E9000FF2414C00F2D10E0000F111F800F911F71
:104EA000FC0180819181009741F00E944923E981B2
:104EB000FA81E00FF11F11821082F3942881898119
:104EC0009A81F21638F30E9414501A821982CE0188
:104ED0000E941450DF91CF911F910F91FF90089580
:104EE000FF920F931F93CF93DF93EC01009731F163
:104EF0008B819C810097F9F0FF2414C00F2D10E0E6
:104F0000000F111F800F911FFC018081918100977C
:104F100041F00E941450EB81FC81E00FF11F1182DF
:104F20001082F39428818B819C81F21638F30E94C1
:104F300014501C821B82CE010E941450DF91CF912D
:104F40001F910F91FF9008952F923F924F925F9281
:104F50006F927F928F929F92AF92BF92CF92DF9289
:104F6000EF92FF920F931F93DF93CF930F92CDB7E2
:104F7000DEB71C01009709F473C1683008F470C1F2
:104F8000DC018C91803809F09AC011968C911197B0
:104F9000813829F412968C91129723E001C022E007
:104FA000C82EDD24C601019670E0861797070CF025
:104FB00057C185E090E029830E947A4F7C018C01E3
:104FC0002981009709F44EC1C601029764E070E0A0
:104FD0000E94F34E862EF7016083F101E20FF11D6E
:104FE0008081D70111968C9311972F5FF101E20F09
:104FF000F11D808112968C93862F90E0880F991F67
:1050000029830E947A4FF701948383832981009733
:1050100029F02F5FCC24DD2499244DC0C701C4C0E2
:10502000D7011396AD90BC901497AC0CBD1C84E0D6
:1050300090E029830E947A4FFC01D50111969C9340
:105040008E93C60102962981309709F4C4C0D1011C
:10505000A20FB11D3C913083D501ED91FC91322F0F
:105060003F5FD101A30FB11D3C913183D70113964E
:10507000ED91FC911497EC0DFD1D0190F081E02D58
:10508000322F3E5FD101A30FB11D3C913283D70176
:105090001396ED91FC911497EC0DFD1D0190F0819C
:1050A000E02D322F3D5FD101A30FB11D3C91338321
:1050B0002C5F93946C01981408F4B2CFD3C0873757
:1050C00009F0CEC0F1018181813819F4828123E099
:1050D00001C022E0482E5524622E772470E0C301DF
:1050E000840D951D681779070CF4BAC085E090E02F
:1050F00029830E947A4F7C018C012981009709F451
:10510000B1C0DC011C9214961C921E9213979EC093
:10511000820D931DFC019081822F8F5F9238D9F40C
:10512000F101E80FF11D9081923009F054C0282F51
:105130002F5FF101E20FF11D8081D70111968C9351
:1051400011972F5FF101E20FF11D808112968C9370
:1051500012972F5F7BC0282F2F5F943909F076C0FC
:10516000F101E80FF11D8081813829F4F101E20F8E
:10517000F11D80812F5F982E96949694F70190826E
:10518000892D90E0880F991F29830E947A4FD701BB
:1051900014969C938E9313972981009721F0CC2429
:1051A000DD24882450C0C7010E94145059C0F70163
:1051B000A380B480AC0CBD1C84E090E029830E94E5
:1051C0007A4FFC01D50111969C938E93C6010296ED
:1051D0002981309721F4C7010E94702741C0D10175
:1051E000A20FB11D3C913083D501ED91FC91322F7E
:1051F0003F5FD101A30FB11D3C913183D7011396BD
:10520000ED91FC911497EC0DFD1D0190F081E02DC6
:10521000322F3E5FD101A30FB11D3C913283D701E4
:105220001396ED91FC911497EC0DFD1D0190F0810A
:10523000E02D322F3D5FD101A30FB11D3C9133838F
:105240002C5F83946C01891408F4B1CF822F90E015
:10525000AC0146195709441555050CF459CF02C045
:1052600000E010E0C8010F90CF91DF911F910F91E6
:10527000FF90EF90DF90CF90BF90AF909F908F9076
:105280007F906F905F904F903F902F900895DF92A6
:10529000EF92FF920F931F93CF93DF93F82EE62E9A
:1052A000CA01D22E0E94AA1A009709F460C023E80E
:1052B000FC01208311820E94101D8C01009709F4CB
:1052C00056C0FC016181728183E040810E94C40C60
:1052D000EC01C8010E94100C209709F448C0CE01CF
:1052E0006F2D4E2D0E94D3188C01009721F4CE0112
:1052F0000E94230C3CC0DD2061F1D0904F05FD2DB4
:10530000F23338F584E090E00E947A4F7C01ED2D75
:10531000F0E0EE0FFF1FEC5AFA4F91838083CE012D
:105320000E94BC0DF70191838083E0914F05F0E06E
:10533000EE0FFF1FEC5AFA4FE080F180C8010E9487
:10534000AD0EF7019383828380914F058F5F809329
:105350004F05CE010E94230CF80183819481608166
:105360000E94A427EC01C8010E94270E02C0C0E0E1
:10537000D0E0CE01DF91CF911F910F91FF90EF9080
:10538000DF900895CF92DF92EF92FF920F931F93D9
:10539000CF93DF93EC018B017A01FA011182108225
:1053A000FB011082009709F48BC08881813409F0D9
:1053B00087C08981843509F083C06E01AC2FBD2D73
:1053C000FD0101900020E9F73197EA1BFB0BE33068
:1053D00008F476C08A818B3209F074C0CE0163E78D
:1053E00072E00E94CE51C817D90711F481E065C060
:1053F000CE016BE772E00E94CE51C817D90711F4B5
:1054000082E05BC0CE0164E872E00E94CE51C81712
:10541000D90711F483E051C0CE016CE872E00E941C
:10542000CE51C817D90711F484E047C0CE0164E912
:1054300072E00E94CE51C817D90711F485E03DC033
:10544000CE016CE972E00E94CE51C817D90711F461
:1054500086E033C0CE0164EA72E00E94CE51C817E4
:10546000D90711F487E029C0CE016EEA72E00E94EC
:10547000CE51C817D907C1F488E0F80180836E01C6
:10548000AC2FBD2DFD0101900020E9F73197EA1BFB
:10549000FB0BEB30F105B0F089858D3399F42A963A
:1054A000F701D183C0830EC0CE0168EB72E00E9489
:1054B000CE51C817D90731F489E0F801808302C0C2
:1054C00083E001C080E0DF91CF911F910F91FF90A9
:1054D000EF90DF90CF9008956F927F928F929F927E
:1054E000AF92BF92CF92DF92EF92FF920F931F93F2
:1054F000DF93CF93CDB7DEB7CE56D0400FB6F8943A
:10550000DEBF0FBECDBFFE01B1968EE4DF011D925E
:105510008A95E9F78AE389A382E38AA380E38BA3D0
:1055200088A789A78DE0DE01A459BF4F8C938AE03C
:10553000DE01A359BF4F8C9300E010E06E01089488
:10554000C11CD11C7F016AE2A62EB12CAC0EBD1E7F
:105550005AE6852E912C8C0E9D1E4BE6642E712CE6
:105560006C0E7D1EC601B80140E250E00E945B5403
:10557000912F402F202F205E210F312F32953F7029
:105580003A3010F4305D01C0395C3CA39F709A3012
:1055900010F4905D01C0995C9DA3C80134E096951C
:1055A00087953A95E1F78F708A3010F4805D01C0DD
:1055B000895C8EA3842F8F708A3010F4805D01C0C7
:1055C000895C8FA3D601F5018D91280F982F9295B4
:1055D0009F709A3010F4905D01C0995C90838F7039
:1055E0008A3010F4805D01C0895C81833296AE15EB
:1055F000BF0551F72195822F82958F708A3010F464
:10560000805D01C0895CF40180832F702A3010F422
:10561000205D01C0295CD3012C93C7010E94433D4A
:10562000882339F5005E1F4FB0E100301B0709F0F9
:1056300099CF8EE4F70111928A95E9F78AE389A35D
:1056400080E38AA38BA38CA38DA38EA38FA388A7AB
:1056500081E389A786E48AA78BA78DE08CA78AE0DF
:105660008DA7C7010E94433D91E0882319F490E083
:1056700001C091E0892FC259DF4F0FB6F894DEBF09
:105680000FBECDBFCF91DF911F910F91FF90EF9093
:10569000DF90CF90BF90AF909F908F907F906F9052
:1056A0000895982F90539A3058F09151963010F4F5
:1056B000875307C0982F91569630A8F4875501C09C
:1056C000892F982F9295907F862F80538A3048F0AB
:1056D000862F8154863020F0862F8156863028F41C
:1056E000865F892B089580E0089580E00895611118
:1056F00082958F708A3010F4805D0895895C0895DA
:105700002F923F924F925F926F927F928F929F92D1
:10571000AF92BF92CF92DF92EF92FF920F931F93BF
:10572000DF93CF93CDB7DEB7C850D3400FB6F89410
:10573000DEBF0FBECDBF18861F820E943A1288239B
:1057400081F482E692E00E94433D2AE088E190E005
:105750000FB6F894A895809360000FBE2093600068
:10576000FFCF80E0BE016F5F7F4FAE014E5F5F4FA6
:105770009E012D5F3F4F8E010C5F1F4FE5E0EE2E27
:10578000F12CEC0EFD1E0E948E15882381F082E61E
:1057900092E00E94433D2AE088E190E00FB6F89441
:1057A000A895809360000FBE20936000FFCF8A8190
:1057B000882381F082E692E00E94433D2AE088E15E
:1057C00090E00FB6F894A895809360000FBE2093E8
:1057D0006000FFCF8BE692E00E94433D90E9292EC6
:1057E00091E0392E89E0482E512C4C0E5D1E09E0C7
:1057F000A02E01E0B02EAC0EBD1E8FEF0E94C93C62
:105800004C01009741F488EE93E0F1013197F1F7F4
:105810000197D9F7F2CFBE016A5F7F4FAE01495FB2
:105820005F4F0E94C2290F811885F8010190002066
:10583000E9F73197E01BF10B8E81893081F48BE61B
:1058400092E00E94433D2AE088E190E00FB6F89490
:10585000A895809360000FBE20936000FFCF883032
:1058600049F40115110531F0EA3020F06E2E77244D
:10587000E0FF08C082E692E00E94433DC4010E941E
:105880001450BBCFD20180E091E01D920197E9F75F
:105890006201E6957201EE0EF11C0BC0D8018C91ED
:1058A00011966C910E94512BF60181936F010E5F4E
:1058B0001F4FCE14DF0491F7C4010E941450F3016E
:1058C0003A97F595E79589856A854B852C850D85F1
:1058D000BEE0EB2EF12CEC0EFD1ECE2E0E94610DD3
:1058E0007C01009771F069814B810E94D3188C0173
:1058F000C7010E94230C0115110531F4C7010E9454
:10590000230C82E692E067C0D501E0E0F2E01D9250
:105910003197E9F7D8011196ED90FC901297F701B5
:10592000808161E00E94772BD5018C93F701808103
:1059300060E00E94772BD50111968C93D8011196C7
:10594000ED91FC911297818161E00E94772BF50126
:105950008283D8011196ED91FC911297818160E0CC
:105960000E94772BF5018383CC2424C0D8011396A1
:10597000ED91FC911497EE0DFF1D808161E00E9476
:10598000772BF7013296EE0FFF1FEA0DFB1D808388
:10599000D8011396ED91FC911497EE0DFF1D8081B7
:1059A00060E00E94772BF701EE0FFF1FEA0DFB1D51
:1059B0008583C394F8018081EC2CFF24C816B0F2D3
:1059C000F501EE0DFF1D8DE084839AE09583C801FB
:1059D0000E94270EC5010E94433D0FCFDF93CF9356
:1059E00000D00F92CDB7DEB71B821A82BE016F5F67
:1059F0007F4FAE014E5F5F4F0E94C229882371F531
:105A00008981813061F42EE088E190E00FB6F8944E
:105A1000A895809360000FBE20936000FFCF823076
:105A200021F481E00E9405381CC0833019F40E94E3
:105A3000473617C0843019F40E946C2A12C0853092
:105A400019F40E94932D0DC0863019F40E94CE2DBA
:105A500008C0873019F40E94802B03C082E692E0D0
:105A600002C08BE692E00E9486510F900F900F903B
:105A7000CF91DF910895EF92FF920F931F93CF93F1
:105A8000DF930E9491176091CE057091CF058AE057
:105A900090E00E94F9516091CE057091CF0581ECA4
:105AA00092E00E94255288E893E120E931E0F90173
:105AB0003197F1F70197D9F70E945C3B6F9A779A7B
:105AC00078946091CE057091CF0581ED92E00E94AF
:105AD000255288E893E120E931E0F9013197F1F7A7
