:100000000C9492000C9456020C9493020C94DF0012
:100010000C94DF000C94DF000C94DF000C94DF00E4
:100020000C94DF000C94DF000C94B63F0C948840D5
:100030000C94DF000C94DF000C94DF000C94DF00C4
:100040000C94DF000C94DF000C94DF000C94DF00B4
:100050000C94DF000C94DF000C94DF000C94DF00A4
:100060000C94DF000C94DF000C94DF000C94DF0094
:100070000C94DF000C94DF000C94DF000C94DF0084
:100080000C94C2020C94DF000C94DF000C94DF008F
:100090000C94DF000C94DF00120110010200000834
:1000A000EB03442001000102DC0109023E000201D1
:1000B00000C0320904000001020201000524001002
:1000C0000104240206052406000107058203080036
:1000D000FF09040100020A000000070504021000E5
:1000E00001070583021000010403090418034400FA
:1000F000650061006E002000430061006D00650036
:100100007200610000001C034C00550046004100D5
:1001100020004300440043002000440065006D00BF
:100120006F00000011241FBECFEFD0E2DEBFCDBFB5
:1001300088E10FB6F89480936000109260000FBEC3
:1001400004B603FE23C08091F8058737F9F41092B6
:10015000F805E3E0F0E089E080935700E491F0E0F7
:10016000E770F070F595E795EE2339F0E13041F056
:10017000E23049F4E0E0FCEF08C0E0E0F0EF05C059
:10018000E0E0F8EF02C0E0E0FEEF099515E0A0E046
:10019000B1E0EEE4FCEA00E00BBF02C007900D9274
:1001A000AA38B107D9F716E0AAE8B5E001C01D9258
:1001B000A031B107E1F70E949E050C9425560C94DE
:1001C00000004F925F926F927F929F92AF92BF9288
:1001D000CF92DF92EF92FF920F931F93DF93CF9313
:1001E0000F92CDB7DEB780919205882309F4DCC069
:1001F0000E94221860910E0670910F068AE090E02E
:100200000E94FD5240E0E42E41E0F42E34E0A32EA3
:1002100031E0B32E00E911E023E1622E21E0722EDD
:1002200092E2492E91E0592E00D000D000D0EDB7D7
:10023000FEB7319680910E0690910F06ADB7BEB70E
:1002400012969C938E931197F382E282B582A482D8
:100250000E94EC52EDB7FEB736960FB6F894FEBF8B
:100260000FBEEDBF0E94A3168983898182FFFACF5A
:1002700088E893E1F8013197F1F70197D9F700D0B9
:1002800000D000D0EDB7FEB7319680910E06909168
:100290000F06ADB7BEB712969C938E931197F3825B
:1002A000E282758264820E94EC52EDB7FEB7369608
:1002B0000FB6F894FEBF0FBEEDBF0E94A316898350
:1002C000898182FFFACF88E893E1F8013197F1F74D
:1002D0000197D9F700D000D000D0EDB7FEB7319626
:1002E00080910E0690910F06ADB7BEB712969C9303
:1002F0008E931197F382E282558244820E94EC52DF
:10030000EDB7FEB736960FB6F894FEBF0FBEEDBF41
:100310000E94A3168983898182FFFACF88E893E13E
:10032000F8013197F1F70197D9F782E0C82E82E002
:10033000D82E9924D6012D913D916D0100D000D089
:1003400000D0EDB7FEB7319640910E0650910F06E2
:10035000ADB7BEB712965C934E931197F382E282CB
:10036000358324830E94EC52EDB7FEB736960FB664
:10037000F894FEBF0FBEEDBF0E94A316898389814A
:1003800083FF03C0892D8F5F10C0898182FFF4CF66
:1003900088E893E1F8013197F1F70197D9F7939441
:1003A000F92DF83039F640CF80E00F90CF91DF91F2
:1003B0001F910F91FF90EF90DF90CF90BF90AF9083
:1003C0009F907F906F905F904F900895F894109257
:1003D000690010926A008FEF8CBB1DBA14BE88E1D1
:1003E0000FB6F89480936000109260000FBE14B8AE
:1003F00017B888B990E89AB983E88BB980B3807F41
:1004000080BB81B38F6081BB80E00FB6F89490937E
:100410006100809361000FBE0E946C16809169009C
:1004200084608093690080916900877F8093690070
:10043000E99A80E090E00E946F558093900580E4F7
:1004400090E00E946F558093930510928F050E9453
:100450004418882339F010920F0610920E0610925D
:10046000920509C086E891E090930F0680930E06EE
:1004700081E0809392053D98459880E00E94C216E5
:100480008091640081608093640080916400846046
:100490008093640080916400806880936400809100
:1004A0006500816080936500789408951F920F9293
:1004B0000FB60F920BB60F9211242F933F934F93C9
:1004C0005F936F937F938F939F93AF93BF93EF93BC
:1004D000FF9314BE88E10FB6F894809360001092E9
:1004E00060000FBE0E94CE37E89828E088E190E0D7
:1004F0000FB6F894A895809360000FBE209360001B
:10050000FF91EF91BF91AF919F918F917F916F91EB
:100510005F914F913F912F910F900BBE0F900FBEA7
:100520000F901F9018951F920F920FB60F920BB657
:100530000F9211242F933F934F935F936F937F9369
:100540008F939F93AF93BF93EF93FF93499B03C008
:100550000E94691604C00E9475160E94C515FF917D
:10056000EF91BF91AF919F918F917F916F915F912B
:100570004F913F912F910F900BBE0F900FBE0F9098
:100580001F90189518950E94631684EF91E020E95A
:1005900031E0F9013197F1F70197D9F70E946F1611
:1005A0000E94661684EF91E020E931E0F90131976D
:1005B000F1F70197D9F70E9472160E94691684EF2D
:1005C00091E020E931E0F9013197F1F70197D9F78E
:1005D0000E9475160E946C1684EF91E020E931E0CC
:1005E000F9013197F1F70197D9F70E9478168091B8
:1005F0009205882359F10E94221860910E0670918D
:100600000F068AE090E00E94FD5280E391E068E0EE
:100610000E94A4177B99FECF89E391E068E00E94D5
:10062000A4177A99FECF82E491E068E00E94A417B3
:100630007999FECF8BE491E068E00E94A417789945
:10064000FECF84E591E069E00E94A41708952F92FF
:100650003F924F925F926F927F928F929F92AF9252
:10066000BF92CF92DF92EF92FF920F931F93DF938F
:10067000CF93CDB7DEB761970FB6F894DEBF0FBE4C
:10068000CDBF0E942A100E94211084369105D8F314
:100690000E9463160E9443108823E1F30E946616AD
:1006A0008AE00E94461080E06FE00E9414120E94CF
:1006B0006F1680919205882379F00E94221860912C
:1006C0000E0670910F068AE090E00E94FD528EE5C2
:1006D00091E068E00E94A4178E010F5F1F4F82E037
:1006E000E82EF12CEC0EFD1EB3E0CB2ED12CCC0E5F
:1006F000DD1EA4E0AA2EB12CAC0EBD1EF5E08F2E9F
:10070000912C8C0E9D1EE6E06E2E712C6C0E7D1EC3
:1007100077E0472E512C4C0E5D1E68E0262E312CC2
:100720002C0E3D1E80E0B8010E94D91180E0B70177
:100730000E94D91180E0B6010E94D91180E0B50174
:100740000E94D91180E0B4010E94D9111E820E943A
:1007500063160E94721684E10E94461084EA60E0EB
:100760000E94EB100E946F160E94661680E0B8018E
:100770000E94D91180E0B7010E94D91180E0B60132
:100780000E94D91180E0B5010E94D91180E0B40126
:100790000E94D91180E0B3010E94D91180E0B2011A
:1007A0000E94D91180E0B1010E94D91180E0BE0100
:1007B000675F7F4F0E94D91180E0BE01665F7F4F67
:1007C0000E94D91180E0BE01655F7F4F0E94D91160
:1007D00080E0BE01645F7F4F0E94D91180E0BE01BE
:1007E000635F7F4F0E94D91180E0BE01625F7F4F3F
:1007F0000E94D9111F86898B0E9463160E9472166F
:10080000909192058989992351F0882321F087E6F8
:1008100091E06FE002C0C8016EE00E94A41781E67B
:1008200060E00E94EB1082E00E94461084E060E0ED
:100830000E94EB100E946F160E94661680E0B801BD
:100840000E94D91180E0B7010E94D91180E0B60161
:100850000E94D91180E0B5010E94D91180E0B40155
:100860000E94D9111E820E9463160E94721684E1B2
:100870000E94461080EC60E00E94EB1082E00E9433
:1008800046108EED60E00E94EB1082E00E94461060
:100890008DEA60E00E94EB1082E00E9446108EEB31
:1008A00060E00E94EB1082E00E9446108FEE60E054
:1008B0000E94EB1082E00E94461080E960E00E94F6
:1008C000EB1082E00E94461080E060E00E94EB1096
:1008D0000E946F160E94661680919205882309F483
:1008E00021CF87E791E06CE00E94A4171BCFEF9225
:1008F000FF920F931F93DF93CF9300D000D000D0CF
:10090000CDB7DEB780E0BE016F5F7F4FAE014E5FB7
:100910005F4F9E012D5F3F4F8E010C5F1F4F95E093
:10092000E92EF12CEC0EFD1E0E941016882309F012
:10093000DDC085E00E94531280E069810E94E813C7
:1009400082E00E94531284EA69810E94E81382E0E7
:100950000E94531284E069810E94E81382E00E94A1
:10096000531280E069810E94E81382E00E945312D2
:100970008EE069810E94E81381E00E9453128E018B
:100980000A5F1F4F8981B8010E9424138E81843A27
:1009900009F0ACC085E00E94531281E369810E9496
:1009A000E81382E00E94531280E569810E94E813F7
:1009B00082E00E94531281E469810E94E81382E080
:1009C0000E94531289E569810E94E81382E00E9427
:1009D00053128EE269810E94E81382E00E94531252
:1009E00083E569810E94E81382E00E94531289E541
:1009F00069810E94E81382E00E94531283E56981B5
:100A00000E94E81382E00E9453128EE269810E94E4
:100A1000E81382E00E94531284E469810E94E81383
:100A200082E00E94531284E469810E94E81382E00C
:100A30000E94531286E469810E94E81382E00E94BA
:100A4000531280E369810E94E81382E00E945312EE
:100A500081E369810E94E81381E00E945312898139
:100A6000B8010E9424138E81813609F03FC081E0D5
:100A70000E9453128981B8010E94241385E00E94CC
:100A8000531280E069810E94E81382E00E945312B1
:100A900080EC69810E94E81382E00E94531280E09A
:100AA00069810E94E81382E00E94531280E069810C
:100AB0000E94E81382E00E9453128E8169810E9495
:100AC000E8130E94631680919205882379F00E94B2
:100AD000221860910E0670910F068AE090E00E9445
:100AE000FD5287E791E06CE00E94A41726960FB6AE
:100AF000F894DEBF0FBECDBFCF91DF911F910F9154
:100B0000FF90EF900895CF93DF93C0E9D1E088E89C
:100B100093E1FE013197F1F70197D9F70E9463162F
:100B20000E94721688E893E1FE013197F1F7019770
:100B3000D9F70E946F160E946616E9CF1F930E9494
:100B4000E6010E949716882369F50E94E1008093D0
:100B50009105863091F40E9466160E94832E0E94B1
:100B6000721628E088E190E00FB6F894A89580937B
:100B700060000FBE2093600009C01FB7F89482E3A5
:100B800090E0609191050E94A3551FBF28E088E185
:100B900090E00FB6F894A895809360000FBE209364
:100BA000600009C01FB7F89482E390E00E946F557F
:100BB000809391051FBF809191058430C9F08530E5
:100BC00038F4823079F0833080F48130E9F407C062
:100BD0008730A1F08830B1F08530B1F40CC00E94AC
:100BE00052321CC00E94373719C00E94503316C0C1
:100BF0000E94F22F13C00E94893410C081E00E942D
:100C000000390CC00E942B2E88E08093910582E36E
:100C100090E068E00E94A3550E942B2E0E9483055D
:100C200080E090E01F9108950F931F93DF93CF937F
:100C300000D00F92CDB7DEB7182F85E090E02B8360
:100C40004A8369830E947E50FC012B814A8169811D
:100C5000009729F010836183428323830483CF01AB
:100C60000F900F900F90CF91DF911F910F910895EA
:100C70001F93182F85E090E00E947E50FC010097A2
:100C800009F441C01082118212821382148214303E
:100C900019F1153048F41130A1F0113070F0123014
:100CA00091F0133081F514C01630F1F01630C0F019
:100CB000173019F1183039F522C084EA818384E0B5
:100CC00005C080EC1FC082EB818381E082831BC062
:100CD00080E8808388EA16C080E2818380E80BC0C8
:100CE00080E880838EEA0EC080E880838AEC81836E
:100CF0008FE9828387E1838306C088E803C08CE89C
:100D0000808384E28183CF011F9108954F925F9287
:100D10006F927F928F929F92AF92BF92CF92DF920B
:100D2000EF92FF920F931F93CF93DF93B82EA62ECF
:100D30003A012901480186010E942A100E942110CF
:100D40008A309105D8F30E94CB0F9C01EC01CC0FA7
:100D5000DD1F83E0220F331F8A95E1F7C20FD31FF7
:100D60009E0140E050E060E67AEE80E090E0621B99
:100D7000730B840B950B24E731E040E050E00E94B8
:100D80002C50822F0E94461080E00E94D4158823A8
:100D900009F045C0CE018051974264E771E00E949E
:100DA000E34F862F67FD80E00E944610BB2019F0BC
:100DB0008FE36B2D02C08BE360E00E94621080E73E
:100DC0000E9446105C9A60E573EC80E090E00E941F
:100DD0006F12882351F40E946916C301B201A40165
:100DE00097010E942B14882319F00E94C51517C083
:100DF00080E66B2D0E94621082E00E94461080E027
:100E00006B2D0E94621082E00E9446108A2D6B2D8D
:100E10000E94621082E00E94461080E001C081E0E2
:100E2000DF91CF911F910F91FF90EF90DF90CF90C6
:100E3000BF90AF909F908F907F906F905F904F90FA
:100E40000895803849F1813818F4882331F02CC096
:100E50008438C9F08C3841F516C0683819F1693802
:100E600038F4623871F0643851F06032E9F409C046
:100E7000623B29F0603C19F0643AB1F413C082E09F
:100E8000089583E0089566516F3070F4E62FF0E026
:100E9000EE5EFD4F808108956E3A21F06A3C31F09C
:100EA000683A11F484E0089580E0089582E008959E
:100EB000EF92FF920F931F93CF93DF93182F062F7C
:100EC00085E090E00E947E50E82EE7017E01F92E39
:100ED000E7012097C1F1812FB7010E94D911882322
:100EE00069F50F5F802F0E944610B7016F5F7F4F3B
:100EF000812F0E94D911882309F5802F0E94461066
:100F0000B7016E5F7F4F812F0E94D9118823B1F402
:100F1000802F0E944610B7016D5F7F4F812F0E9486
:100F2000D911882359F4802F0E944610B7016C5FB5
:100F30007F4F812F0E94D911882329F0CE010E9472
:100F40001851C0E0D0E0CE01DF91CF911F910F91F9
:100F5000FF90EF900895BF92CF92DF92EF92FF92B1
:100F60000F931F93CF93DF93D82EB62E042F842F89
:100F700090E00E947E50E82EE7017E01F92EE70105
:100F8000209709F1B394CC2410E00150104009C01F
:100F90008D2D0E94D911882389F48B2D0E94461033
:100FA000C3942C2D30E0BE01620F731F2017310750
:100FB0007CF38D2D0E94D911882329F0CE010E9447
:100FC0001851EE24FF24C701DF91CF911F910F919B
:100FD000FF90EF90DF90CF90BF9008950F931F93F5
:100FE000CF93DF93182F062FEA01209771F18881A4
:100FF000612F0E94E813882341F50F5F802F0E9424
:1010000053128981612F0E94E8138823F1F4802F05
:101010000E9453128A81612F0E94E8138823A9F449
:10102000802F0E9453128B81612F0E94E813882326
:1010300061F4802F0E9453128C81612F0E94E8136B
:1010400091E0882319F490E001C091E0892FDF91AD
:10105000CF911F910F910895DF92EF92FF920F931E
:101060001F93CF93DF93F82EEA01209719F1D62E24
:10107000D394EE24022F10E0015010400AC080816A
:101080006F2D0E94E8138823A9F48D2D0E9453121E
:10109000E3942E2D30E0FE01E20FF31F20173107FD
:1010A00074F380816F2D0E94E81391E0882319F476
:1010B00090E001C091E0892FDF91CF911F910F91B6
:1010C000FF90EF90DF900895BF92CF92DF92EF9262
:1010D000FF920F931F93DF93CF9300D0CDB7DEB76E
:1010E000D82EB62E7A014115510509F4DAC0C62E64
:1010F000C394DA0111960D911C911297F801808129
:1011000061810E9421078983882309F4CAC08D2D3B
:101110006B2DA8010E94EE07882309F0C2C08981C7
:101120008150823008F4BFC086E00E9453128D2D9A
:101130008E010F5F1F4FB8010E942413882361F0B6
:10114000B0C081E00E9453128D2D6B2D702F0E9434
:101150002413882319F0A5C0B02E012F2981203631
:1011600081F3D7011196ED91FC9112978181281797
:1011700079F030E090E0809590952817390741F09C
:101180008D2DBE016E5F7F4F0E94241392E08CC0B4
:1011900086E00E945312D7011196ED91FC911297AF
:1011A00099818181981799F01396ED91FC9114978C
:1011B00080816D2D0E94E813882309F072C0F70129
:1011C0008081823030F086E00E94531202C0BB243E
:1011D0002CC0BB24B39429C08D2DB8010E942413C8
:1011E000882309F05EC086E00E945312D701119651
:1011F000ED91FC911297998181819817C9F013960E
:10120000ED91FC911497EB0DF11D80816D2D0E94E5
:10121000E813882309F045C0B394F7018081B8161C
:1012200038F486E00E94531203C08E010F5F1F4FF7
:10123000D7011196ED91FC911297998181819817B0
:10124000B1F0F7018081B81638F211C0D7011396BA
:10125000ED91FC911497E80FF91F80816D2D0E948C
:10126000E8138823F1F48C2D0E945312B3948B2D34
:1012700090E0F701208130E0215030408217930741
:101280002CF38217930779F40380F481E02DE80FA3
:10129000F91F80816D2D0E94E81391E0882321F4CD
:1012A00002C091E001C090E0892F0F900F90CF9184
:1012B000DF911F910F91FF90EF90DF90CF90BF9043
:1012C00008950F931F93CF93DF93EC018B01009749
:1012D00009F44CC06115710509F448C089819A81EF
:1012E000009709F443C08881882329F02B813C8131
:1012F00021153105D9F18B5FD8018C9390E00E94C4
:101300007E50FC019C01009719F4F801108230C056
:10131000A981BA818C918083A981BA8111968C911F
:101320008183A981BA8112968C918283A981BA8125
:1013300013968C918383A981BA8114968C9114970A
:10134000848360E00FC0862F90E0AF01480F591FE3
:10135000AB81BC81A80FB91F8C91DA0115968C93D3
:1013600015976F5F8881681770F302C020E030E046
:10137000C901DF91CF911F910F910895AF92BF9254
:10138000CF92DF92EF92FF920F931F93DF93CF9351
:101390000F92CDB7DEB7B82E6B016115710509F458
:1013A00002C185E090E00E947E508C017C01009794
:1013B00009F4FBC0DC0112961C921E921197149640
:1013C0001C921E9213971C92F601808161810E94EB
:1013D00021078983882309F446C0813011F08330C6
:1013E000D1F582E090E00E947E50BC01D8011296B7
:1013F0009C938E931197009709F4D2C08B2D0E9475
:101400002413D8011196ED91FC911297882311F0C5
:10141000CF01C1C08081803651F4CF010E941851A4
:10142000D80112961C921E921197C80123C0BF01C9
:101430006F5F7F4F8B2D0E942413882309F4B5C062
:10144000F801818192810E941851D80112961C9254
:101450001E921197A5C08B2DBE016F5F7F4F0E941A
:101460002413882311F0C7019CC0A980BA2DB0367F
:1014700049F4C8010E9418518B2DB6010E94BE0983
:101480007C0193C0F6018181A81651F02A2D30E02D
:1014900090E0809590952817390709F064C007C03F
:1014A000D60114968C911497F801808303C081E0D3
:1014B000D8018C93F801808190E00E947E50D80181
:1014C00014969C938E931397009709F469C0CC24CB
:1014D00016C0F801638174816C0D711D8B2D0E9403
:1014E0002413882359F0D80113968D919C91149759
:1014F0000E941851F8011482138252C0C394D8017B
:101500008C91C81630F382E090E00E947E50BC01BE
:10151000F80192838183009751F4838194810E9422
:101520001851D80114961C921E92139739C08B2D16
:101530000E942413882361F4D80111966D917C9147
:1015400012976F5F7F4F8B2D0E942413882369F1C0
:10155000F801838194810E941851D80114961C923D
:101560001E92139714C082E090E00E947E50D80132
:1015700012969C938E931197009791F0FC01A19283
:10158000BF018B2D0E942413882379F0D801119676
:101590008D919C9112970E941851F801128211822C
:1015A000C8010E941851EE24FF24C7010F90CF916B
:1015B000DF911F910F91FF90EF90DF90CF90BF9040
:1015C000AF9008950F931F93CF93DF93182FFB01D4
:1015D000EA013097E9F12097D9F18881882301F158
:1015E0008B819C810097E1F08181612F0E94EB103B
:1015F000882371F582E00E94461000E00EC0EB8166
:10160000FC81E00FF11D8081612F0E94EB10882387
:10161000F9F482E00E9446100F5F8881081778F382
:10162000E981FA813097A1F08081612F0E94EB104F
:10163000882371F482E00E944610E981FA81818159
:10164000612F0E94EB1091E0882319F490E001C013
:1016500091E0892FDF91CF911F910F9108950F9302
:101660001F93CF93DF93EC018B010097D9F16115A4
:101670007105C1F189819A810097A1F18881882340
:1016800029F02B813C812115310561F18E5FD80154
:101690008C9390E00E947E50FC019C01009719F40D
:1016A000F801108221C0A981BA818C918083A9811F
:1016B000BA8111968C911197818360E00FC0862FBB
:1016C00090E0AF01480F591FAB81BC81A80FB91F33
:1016D0008C91DA0112968C9312976F5F888168174C
:1016E00070F302C020E030E0C901DF91CF911F917B
:1016F0000F9108950F931F93DF93CF930F92CDB760
:10170000DEB78C0183E090E069830E947E50FC018B
:101710006981009719F0128301836083CF010F90D4
:10172000CF91DF911F910F910895DF92EF92FF9279
:101730000F931F93DF93CF93CDB7DEB7DA8483E0A7
:1017400090E00E947E507C018C01009739F1FC01F1
:10175000D0828D2D90E00E947E50F701928381838C
:10176000009731F4C7010E94185100E010E016C044
:10177000CE010B96E82FF92FAF0120E030E00CC02E
:10178000F701A181B281A20FB31FFA0180818C936E
:101790002F5F3F4F4E5F5F4F2D1590F3C801CF91E4
:1017A000DF911F910F91FF90EF90DF900895CF92FE
:1017B000DF92EF92FF920F931F93CF93DF938C01F1
:1017C000F62E83E090E00E947E50C82EE6016E0166
:1017D000D92EE6012097E1F01A82198218820115AC
:1017E0001105B1F0FF20A1F08F2D90E00E947E50F6
:1017F0009A838983009731F4C6010E941851C0E092
:10180000D0E006C0B8014F2D50E00E94B052F882DF
:10181000CE01DF91CF911F910F91FF90EF90DF905C
:10182000CF900895CF93DF93EC01009759F0898111
:101830009A81009721F00E9418511A821982CE01D4
:101840000E941851DF91CF910895CF93DF93EC015F
:10185000009799F089819A81009721F00E94185190
:101860001A8219828B819C81009721F00E94185165
:101870001C821B82CE010E941851DF91CF910895E6
:10188000EF92FF920F931F93CF93DF93082F162FA2
:1018900085E090E00E947E50E82EE7017E01F92E5F
:1018A000E701209709F441C01A8219821C821B8229
:1018B0001882802F612F0E945807FC019A83898328
:1018C000009771F1808161810E942107882321F4B2
:1018D000C7010E94250C27C08150823030F186E07C
:1018E0000E944610E981FA818181602F0E94EB10ED
:1018F000882381F4812F8F5F0E944610E981FA814D
:1019000044814883802F612F0E94AB079C838B8387
:10191000009759F489819A810E9418511A8219827C
:10192000CE010E941851C0E0D0E0CE01DF91CF91EE
:101930001F910F91FF90EF900895CF92DF92EF9259
:10194000FF921F93DF93CF930F92CDB7DEB7162F81
:10195000642F29830E94400C6C012981009761F05B
:10196000812F622FA6010E946408882329F0C601F6
:101970000E94250CCC24DD24C6010F90CF91DF916D
:101980001F91FF90EF90DF90CF900895AF92BF929C
:10199000DF92EF92FF920F931F93CF93DF93082F65
:1019A0005B01D42E85E090E00E947E507C01EC012A
:1019B000009761F1802F0E9438068C019A838983F9
:1019C000009721F4C7010E94185110C0A114B1045E
:1019D000C9F0DD20B9F08D2D90E00E947E509C83EF
:1019E0008B83009731F4C7010E94250CC0E0D0E042
:1019F0000DC0B5014D2D50E00E94B052D882F801C3
:101A0000D48204C0F701148213821082CE01DF91C8
:101A1000CF911F910F91FF90EF90DF90BF90AF900B
:101A20000895AF92BF92CF92DF92EF92FF920F9301
:101A30001F93CF93DF938C015B01F42E0097A9F1E4
:101A400085E090E00E947E506C01EC01009779F1F6
:101A5000F801808161814281238104810E94140602
:101A60009A838983009721F4C6010E9418511DC0F2
:101A7000A114B104A9F0FF2099F08F2D90E00E94ED
:101A80007E509C838B83009721F4C6010E94250C15
:101A90000CC0B5014F2D50E00E94B052F88207C033
:101AA000F60114821382108202C0C0E0D0E0CE01A1
:101AB000DF91CF911F910F91FF90EF90DF90CF902A
:101AC000BF90AF9008958F929F92AF92BF92CF92A6
:101AD000EF92FF920F931F93DF93CF9300D00F925B
:101AE000CDB7DEB7182F570185E090E02B834A83EE
:101AF00069830E947E507C014C012B814A8169815F
:101B0000009761F1812F0E941406F701928381836F
:101B1000009721F4C7010E94185111C0A114B1040B
:101B2000C9F0CC20B9F08C2D90E00E947E50F701D6
:101B300094838383009731F4C7010E94250C882485
:101B400099240CC0B5014C2D50E00E94B052F70111
:101B5000C08204C0F701148213821082C4010F9066
:101B60000F900F90CF91DF911F910F91FF90EF9009
:101B7000CF90BF90AF909F908F900895CF92DF92BB
:101B8000EF92FF920F931F93DF93CF930F92CDB7F6
:101B9000DEB76C01009709F44FC0FC01818192818E
:101BA000009709F449C085E090E00E947E507C01D6
:101BB0008C01009709F442C085E090E00E947E50BD
:101BC000F70192838183009721F4C7010E94185185
:101BD00033C0DC01F60131812281832F922FFC0179
:101BE00085E001900D928150E1F7F60183819481A7
:101BF0000097E9F040814423D1F0842F90E049839D
:101C00000E947E50F701948383834981009721F4D9
:101C1000C7010E94250C10C0F6016381748150E059
:101C20000E94B052F6018081F701808307C0F7015E
:101C300014821382108202C000E010E0C8010F90ED
:101C4000CF91DF911F910F91FF90EF90DF90CF9098
:101C50000895CF93DF93EC01009799F089819A81E1
:101C6000009721F00E9418511A8219828B819C8161
:101C7000009721F00E9418511C821B82CE010E9405
:101C80001851DF91CF910895EF92FF920F931F9318
:101C9000CF93DF93F82E862F8A014115510581F0ED
:101CA000BA010E94BE09EC01009761F08F2DB801C6
:101CB000AE010E94E20A882329F0CE010E94290E7B
:101CC000C0E0D0E0CE01DF91CF911F910F91FF9046
:101CD000EF900895CF92DF92EF92FF920F931F93B0
:101CE000DF93CF9300D0CDB7DEB7082F162F84E057
:101CF00090E02A8349830E947E50C82ED92E2A81E3
:101D00004981C114D104F9F0802F612F0E949D0CEC
:101D1000FC01D60111969C938E93009779F0418136
:101D20005281802F612F0E94440EF601938382839B
:101D3000009749F4808191810E94250CC6010E9480
:101D40001851CC24DD24C6010F900F90CF91DF9164
:101D50001F910F91FF90EF90DF90CF900895CF9259
:101D6000DF92EF92FF920F931F93DF93CF930F9227
:101D7000CDB7DEB78C01009709F457C0DC0111968E
:101D80008D919C911297009709F44FC085E090E0E7
:101D90000E947E507C016C01009709F448C082E0EB
:101DA00090E00E947E50FC01D70112969C938E9386
:101DB0001197009721F4C7010E94185136C0D8012D
:101DC00011968D919C911297DC018D919C911197A8
:101DD00091838083F801838194810097F9F0408199
:101DE0004423E1F0842F90E049830E947E50D70184
:101DF00014969C938E9313974981009721F4C70101
:101E00000E94290E12C0F8016381748150E00E9483
:101E1000B052D8018C91F701808309C0D701149684
:101E20001C921E9213971C9202C0CC24DD24C60182
:101E30000F90CF91DF911F910F91FF90EF90DF9066
:101E4000CF900895CF93DF93EC01009799F08881AC
:101E50009981009721F00E94250C198218828A81AD
:101E60009B81009721F00E94290E1B821A82CE01CD
:101E70000E941851DF91CF910895AF92BF92CF92F7
:101E8000DF92EF92FF920F931F93CF93DF93D82EA1
:101E9000C62EB42EA22E84E090E00E947E508C01CB
:101EA000EC01009709F46BC0198218821B821A8218
:101EB0008D2D6C2D4B2D2A2D0E946A0E7C010097D2
:101EC00011F4C8012EC0DC018D919C911197F8018D
:101ED0009183808311961C921E921296ED91FC9133
:101EE00013970180F281E02D2081213639F081E0C5
:101EF00090E02C3629F080E090E002C081E090E094
:101F0000882371F1C7010E94220F81E029C08D2D25
:101F10006C2D4B2D2A2D0E946A0E7C01009731F406
:101F2000C8010E94220FC0E0D0E029C0DC01129657
:101F3000ED91FC9113970180F281E02D20812136F3
:101F400039F081E090E02C3629F080E090E002C08A
:101F500081E090E0882321F0C7010E94220FD7CFB3
:101F60008823A9F6F70182819381D80113969C9367
:101F70008E93129713821282C7010E94220FCE0104
:101F8000DF91CF911F910F91FF90EF90DF90CF9055
:101F9000BF90AF9008951F931FB7F89481E090E031
:101FA00090939500809394000000000000000000D2
:101FB0000000000000000000000000000000000021
:101FC0000000000000000000000000000000000011
:101FD0000000000000000000000000000000000001
:101FE00000000000000000000000000000000000F1
:101FF00000000000000000000000000000000000E1
:10200000000000000000000000006091940070914A
:1020100095006130710579F080E090E020E83EE3C2
:1020200040E050E00E94C44F22E330E040E050E046
:102030000E940A5002C020E030E01FBFC9011F917A
:1020400008958FB7F89420919400309195008FBF38
:10205000C90108958CE08093900088E990E064E7DE
:1020600071E00E94EE188FE0809391000895109225
:10207000910084E990E060E070E00E94EE1808951D
:1020800010929100089589B1817008951F93182FBF
:1020900088E990E064E771E00E94EE188CE080939C
:1020A000900084E990E061E070E00E94EE18C19A2F
:1020B00080E004C0C19BFECFC19A8F5F8117D0F32F
:1020C0001F9108950F931F93DF93CF930F92CDB776
:1020D000DEB7182F062F0E94CB0F009709F475C0AA
:1020E0008CE080939000449A3C9A88E990E064E701
:1020F00071E00E94EE1884E990E061E070E00E94D7
:10210000EE18C19A88E080939000002311F1109599
:10211000198320E030E010E0E7E0F0E041E050E03B
:102120009981BF01621B730BDA0102C0AA0FBB1FAA
:102130006A95E2F79A2341F0BA01022E02C0660FB7
:10214000771F0A94E2F7162B2F5F3F4F2830310597
:1021500039F7C19BFECFC19A20E030E060E041E05A
:1021600050E0F8E071E0ECE0CA01022E02C0880FF6
:10217000991F0A94E2F7812329F0E093900000234D
:1021800029F403C0F093900001116727C19BFECF93
:10219000C19A2F5F3F4F2830310531F7002319F4E2
:1021A000662319F404C0662311F48CE001C088E0B2
:1021B00080939000C19BFECFC19AC19BFECFC19A74
:1021C0008CE0809390003C98449A0F90CF91DF91DF
:1021D0001F910F910895FF920F931F93DF93CF9359
:1021E0000F92CDB7DEB7182F062F0E94621081E044
:1021F0000E94461034992AC088E990E064E771E0B3
:102200000E94EE1884E990E061E070E00E94EE1810
:10221000C19A8CE080939000FF24F39482E00E94A6
:102220004610812F602F0E94621081E00E944610AC
:1022300081E0349980E089838F2D843019F0898181
:10224000882359F7998181E0992309F480E00F9060
:10225000CF91DF911F910F91FF900895DF93CF935E
:102260000F92CDB7DEB720E030E046B14071498330
:102270002F5F3F4F009719F02817390719F0498150
:10228000442399F7998181E0992309F480E00F9024
:10229000CF91DF910895EF92FF920F931F93DF93F9
:1022A000CF930F92CDB7DEB7E82E8B018CE08093F1
:1022B00090003C98449A3499FECF84E990E061E024
:1022C00070E00E94EE1888E990E06AEB70E00E94EE
:1022D000EE18C19AC19BFECFC19A86B180718983E5
:1022E00088E990E064E771E00E94EE18F80110823E
:1022F0008981882309F054C027E030E0FF24A0E062
:1023000067E070E041E050E0B1E0C19BFECFC19AD0
:1023100086B180718983EE2061F089818823B9F4C8
:10232000CA01022E02C0880F991F0A94E2F7A82B57
:102330000DC08981882359F0FB01E21BF30BCA0110
:1023400002C0880F991FEA95E2F7A82BFB262150BF
:1023500030409FEF2F3F3907C1F6F801A083C19BA2
:10236000FECFC19A86B18071898388E990E06AEBDB
:1023700070E00E94EE18C19BFECFC19AEE2019F0CA
:10238000FF2019F007C0FF2029F0998181E09923EF
:1023900041F004C0998181E0992319F480E001C0E3
:1023A00081E00F90CF91DF911F910F91FF90EF90FF
:1023B00008951F930E944B11182F882391F10E94BA
:1023C000CB0F009771F18CE0809390003C9A88E9E4
:1023D00090E06BEA70E00E94EE1884E990E061E022
:1023E00070E00E94EE18C19A88E080939000C19B33
:1023F000FECFC19A88E990E06FE871E00E94EE1884
:10240000C19BFECFC19A8CE0809390003C98449A87
:1024100088E990E06BEA70E00E94EE18C19BFECF65
:10242000C19A812F1F9108950F931F93182F062F84
:10243000882319F08FE3612F02C08BE360E00E94D4
:1024400062108AEF0E94461080E6612F0E9462109F
:1024500082E00E94461080E0612F0E94621082E0BC
:102460000E944610802F612F0E94621082E00E941D
:1024700046101F910F91089581E0499980E00895D9
:1024800089B18095881F8827881F08950E943C1273
:10249000882321F05F98579A80E0089581E008959D
:1024A000579A5F9A08951F93182F88E890E060ED7F
:1024B00075E00E94EE1880E38093800084E890E04D
:1024C00061E070E00E94EE18B19A80E004C0B19B18
:1024D000FECFB19A8F5F8117D0F31F910895DF93DC
:1024E000CF930F92CDB7DEB79B01AC0180E090E0B7
:1024F000A0E0B0E063B1607469830196A11DB11DD5
:10250000211531054105510529F082179307A407CC
:10251000B50719F06981662369F7998181E09923EC
:1025200009F480E00F90CF91DF910895EF92FF9230
:102530000F931F93DF93CF930F92CDB7DEB7E82EA3
:102540008B0180E38093800026982E9A1E99FECFFF
:10255000B19A84E890E061E070E00E94EE1888E8AB
:1025600090E068EE72E00E94EE18B19BFECFB19A47
:1025700083B18074898388E890E060ED75E00E9403
:10258000EE18F80110828981882309F054C027E0F1
:1025900030E0FF24A0E067E070E041E050E0B1E00F
:1025A000B19BFECFB19A83B180748983EE2061F034
:1025B00089818823B9F4CA01022E02C0880F991FAD
:1025C0000A94E2F7A82B0DC08981882359F0FB01FA
:1025D000E21BF30BCA0102C0880F991FEA95E2F7CC
:1025E000A82BFB26215030409FEF2F3F3907C1F623
:1025F000F801A083B19BFECFB19A83B18074898327
:1026000088E890E068EE72E00E94EE18B19BFECF81
:10261000B19AEE2019F0FF2019F007C0FF2029F031
:10262000998181E0992341F004C0998181E0992347
:1026300019F480E001C081E00F90CF91DF911F91EC
:102640000F91FF90EF9008951F930E949612182FFC
:10265000882391F10E943C12882371F180E38093DA
:102660008000269A88E890E06CEA72E00E94EE18FA
:1026700084E890E061E070E00E94EE18B19A80E298
:1026800080938000B19BFECFB19A88E890E06FE321
:1026900076E00E94EE18B19BFECFB19A80E3809362
:1026A000800026982E9A88E890E06CEA72E00E94FA
:1026B000EE18B19BFECFB19A812F1F9108950F9311
:1026C0001F93DF93CF930F92CDB7DEB7182F062F4E
:1026D0000E943C12882309F475C080E38093800037
:1026E0002E9A269A88E890E060ED75E00E94EE1838
:1026F00084E890E061E070E00E94EE18B19A80E218
:1027000080938000002311F11095198320E030E0C0
:1027100010E0E7E0F0E041E050E09981BF01621B8A
:10272000730BDA0102C0AA0FBB1F6A95E2F79A2366
:1027300041F0BA01022E02C0660F771F0A94E2F739
:10274000162B2F5F3F4F2830310539F7B19BFECF55
:10275000B19A20E030E060E041E050E0F0E271E06A
:10276000E0E3CA01022E02C0880F991F0A94E2F723
:10277000812329F0E0938000002329F403C0F09323
:10278000800001116727B19BFECFB19A2F5F3F4FA9
:102790002830310531F7002319F4662319F404C0F9
:1027A000662311F480E301C080E280938000B19B36
:1027B000FECFB19AB19BFECFB19A80E380938000A7
:1027C00026982E9A0F90CF91DF911F910F91089527
:1027D000FF920F931F93DF93CF930F92CDB7DEB786
:1027E000182F062F0E945F1381E00E9453121E993A
:1027F0002AC088E890E060ED75E00E94EE1884E859
:1028000090E061E070E00E94EE18B19A80E380935E
:102810008000FF24F39482E00E945312812F602FE6
:102820000E945F1381E00E94531281E01E9980E0B4
:1028300089838F2D843019F08981882359F79981F4
:1028400081E0992309F480E00F90CF91DF911F91EF
:102850000F91FF9008952F923F924F925F926F9247
:102860007F928F929F92AF92BF92CF92DF92EF9220
:10287000FF920F931F93DF93CF93CDB7DEB7A3974C
:102880000FB6F894DEBF0FBECDBF7C016B012A01ED
:1028900019011BA30AA30E94691680E0BE016F5FA5
:1028A0007F4F0E94961289818A838B3319F4F70136
:1028B000108206C0833009F03CC181E0F7018083BB
:1028C000F70180818E010F5F1F4FB8010E949612A1
:1028D00089808B823FE0632E682085FE2CC184FEB8
:1028E0000BC0F7018081B8010E94961279807C822A
:1028F000782403E010E003C0782C02E010E0F70138
:102900008081BE016F5F7F4F0E949612898122E015
:10291000A22EB12CAC0EBD1EF501E00FF11F80837D
:102920000F5F1F4F782686FE10C0F7018081B2012D
:102930000E9496128981F501E00FF11F80830F5FDD
:102940001F4F0F711070782602C0F201108287FEAF
:10295000B3C0F7018081BE016F5F7F4F0E94961266
:10296000A980FE01E00FF11FA2828A2D8F708130B5
:1029700019F4F601808305C0882309F0DEC0F60152
:102980001082A4FCDCC0A5FCDCC00F5F1F4F0F71E0
:1029900010707A24A6FE14C0F7018081BE016F5F1B
:1029A0007F4F0E9496128981FE01E00FF11F828302
:1029B0008A3009F0C8C00F5F1F4F0F711070782662
:1029C000A7FE7CC0F70180815E010894A11CB11CA8
:1029D000B5010E949612498092E0892E912C8C0EAE
:1029E0009D1EF401E00FF11F40820F5F1F4F0F711A
:1029F0001070742444FE15C0F7018081B5010E9457
:102A000096128981F401E00FF11F8083982F9F5067
:102A1000903F08F09AC00F5F1F4F0F71107078261B
:102A200001C080E2F1018083842D8072F6019081E3
:102A3000913019F4882319F48AC08823F1F0F70142
:102A40008081BE016F5F7F4F0E9496128981FE01D7
:102A5000E00FF11F8283982F9F70963008F077C0A7
:102A6000982F907F913408F072C00F5F1F4F0F7145
:102A700010707826EAA1FBA18083842D8074F60172
:102A80009081992319F48823C9F063C08823B1F099
:102A9000F7018081BE016F5F7F4F0E94961289818E
:102AA000FE01E00FF11F8283882309F052C00F5FFF
:102AB0001F4F0F71107002C0F601108244245E0196
:102AC0000894A11CB11C82E0882E912C8C0E9D1EB6
:102AD0000FC080E0B5010E9496128981F401E00FD9
:102AE000F11F80830F5F1F4F0F7110707826439482
:102AF000461478F3F6018081813091F4F7018081EA
:102B0000BE016F5F7F4F0E9496128981FE01E00F28
:102B1000F11F82837816F9F40F5F1F4F0F71107049
:102B2000CE01029660E170E0A8010E94995580E014
:102B300013C082E111C083E10FC085E10DC086E1C1
:102B40000BC087E109C088E107C089E105C080E1C9
:102B500003C08AE101C08BE1A3960FB6F894DEBFF3
:102B60000FBECDBFCF91DF911F910F91FF90EF90DE
:102B7000DF90CF90BF90AF909F908F907F906F909D
:102B80005F904F903F902F9008955C98549A14BC9A
:102B900015BC10928000109281002F98279A2E98D1
:102BA000269A5F9A579A08951F93CF93DF93182F11
:102BB000882319F05C98549A15C02E98269A2F985D
:102BC000279A5C98549AC8ECD0E0FE013197F1F74F
:102BD0000E944612882321F00E94C51581E01CC086
:102BE0002197F1F726982E9A1123A9F482E484BD47
:102BF00081E087BD16BC85BD80E38093800088E8B6
:102C000090E060ED75E00E94EE1889E0809381000D
:102C100080E48093820080E0DF91CF911F9108953E
:102C20004F925F926F927F928F929F92AF92BF92DC
:102C3000DF92EF92FF920F931F93DF93CF930F9248
:102C4000CDB7DEB7D82E5B014A013901280102C099
:102C5000DD24D3948D2D0E94D415882311F580E7AF
:102C60000E9453125C9A60E573EC80E090E00E9451
:102C70006F12882331F0DD2059F30E94C51581E1E0
:102C800011C0C501B401A301920187010E942B1458
:102C9000882341F0DD20E1F289830E94C5158981F6
:102CA00001C080E10F90CF91DF911F910F91FF90B4
:102CB000EF90DF90BF90AF909F908F907F906F903C
:102CC0005F904F9008956F9A779A08956E9A769ACA
:102CD00008956D9A759A08956C9A749A08956F98EC
:102CE000779808956E98769808956D9875980895D8
:102CF0006C9874980895249A2C9A0895259A2D9A80
:102D0000089524982C98089525982D980895849ACC
:102D10008C9A089584988C980895869A8E9A08952E
:102D200086988E98089583988FB1887008958298B8
:102D30008FB18470089581988FB1827008958098C2
:102D40008FB18170089581E07B9980E07A9B8260E9
:102D5000799B8460789B8860089588B1887F88B962
:102D600087B1876087B911B8419A429A85E38A95FD
:102D7000F1F780B1429897B1987F97B90895809103
:102D80008A05089580938A050895AF92BF92CF92E5
:102D9000DF92EF92FF920F931F93DF93CF9300D0B8
:102DA000CDB7DEB7F82E89014A8369830E94AD163C
:102DB0004A81698187FDF8CF87B1876087B9FF2095
:102DC00011F0409A01C04098662319F0419A11B859
:102DD00004C041988FEF81B942B9429AB80180E0AE
:102DE00090E00E945D4D5B016C012BEA3AEA4AEAF1
:102DF00050E40E94CE4A7B018C017F2D912F20E070
:102E000030E040E85FE30E94DA4C87FD63C06E2D3E
:102E10007F2D802F912F20E030E04FE753E40E9478
:102E20007A4C18160CF04FC0C601B50120E030E016
:102E30004AE754E40E94CB4BA62ED72EC82EB92EBB
:102E400020E030E04AE755E40E94CE4A7B018C0145
:102E50007F2D912F20E030E040E85FE30E94DA4CC4
:102E600087FD2BC06E2D7F2D802F912F20E03FEF0F
:102E70004FE757E40E947A4C1816C4F46A2D7D2D52
:102E80008C2D9B2D20E030E040E251E40E94CE4AA0
:102E90000E94F14820E931E005C0C9010197F1F72E
:102EA0006150704061157105C1F717C06E2D7F2DFF
:102EB000802F912F0E94F14802C061E070E0CB01A9
:102EC0000197F1F70AC06E2D7F2D802F912F0E9460
:102ED000F14801C061E06A95F1F780B1429897B17D
:102EE000987F97B90F900F90CF91DF911F910F911D
:102EF000FF90EF90DF90CF90BF90AF9008951F9319
:102F000080E060E041E028E230E00E94C51618E26F
:102F100081E060E041E328E230E00E94C5161150F4
:102F2000B9F780E060E040EC25E230E00E94C51691
:102F300018E281E060E042E328E230E00E94C5163A
:102F40001150B9F71F910895EF92FF920F931F93BD
:102F5000CF93DF93EC01E62E80E060E041E028E2D1
:102F600030E00E94C5168E01FF240AC0F80141918D
:102F70008F0181E060E028E230E00E94C516F39402
:102F8000FE1418F4FF2DF83089F78E2D8930C0F02B
:102F900080E060E040EC28E230E00E94C5160BC003
:102FA000FE01EF0DF11D81E060E0408128E230E09C
:102FB0000E94C516F394FE1418F4EF2DE03180F34F
:102FC00010928B05DF91CF911F910F91FF90EF90A1
:102FD00008951F93182F80918C05882371F01A3063
:102FE00071F080E060E041E028E230E00E94C51628
:102FF00010928C0510928B0506C01A3021F481E0E6
:1030000080938C0507C081E060E0412F28E230E02A
:103010000E94C51680918B058F5F80938B05883049
:1030200021F480E060E040EC05C0803139F480E0BC
:1030300060E042E028E230E00E94C51680E090E0C7
:103040001F9108953D9A459A80E060E048E328E2A8
:1030500030E00E94C51680E060E04EE028E230E0FB
:103060000E94C51680E060E046E028E230E00E9461
:10307000C51680E060E041E028E230E00E94C5161D
:1030800081E080938A0508958FEF81B98AEA82B939
:103090000E94AD1691E08A3A09F090E0892F0895D8
:1030A0003D98459880E060E048E028E230E00E94EA
:1030B000C51610928A0508953D9A459A80E060E011
:1030C0004EE028E230E00E94C51681E080938A0538
:1030D0000895F999FECF92BD81BD60BDFA9AF99A23
:1030E0000895F999FECF92BD81BDF89A80B50895F3
:1030F000CF92DF92EF92FF920F931F93CF93DF93C4
:10310000D82EEB018A012097D9F08FE0413A580779
:10311000B8F4CFB6F8948D2D0AC07C010894E11C58
:10312000F11CEC0FFD1F60810E946918C701E82F98
:10313000ED19F0E0E017F10780F3F999FECFCFBE6B
:10314000DF91CF911F910F91FF90EF90DF90CF9083
:1031500008958F929F92AF92BF92CF92DF92EF929B
:10316000FF920F931F93CF93DF93982EE92E8B013D
:103170002FE0613A720710F5CB010E947E50C82EF5
:10318000E6016E01D92EE6012097D1F08FB6F894B2
:10319000892D9E2D0BC05C010894A11CB11C0E94BE
:1031A0007118FE01EE0DFF1D8083C501E82EE918A0
:1031B000FF24E016F10678F38FBE02C0CC24DD2494
:1031C000C601DF91CF911F910F91FF90EF90DF909B
:1031D000CF90BF90AF909F908F9008952FB7F894A5
:1031E000FC01718360832FBF08954FB7F894FC01F1
:1031F000208131814FBFC90108951F932FB7F894E3
:1032000084E690E090939900809398002FBF2FB7A9
:10321000F89481E090E090939500809394002FBF04
:103220001092900082E0809371008FE08093910073
:103230001FB70E94BF1690919205992321F0882311
:1032400011F00E9450180E946F160E9472160E9480
:1032500075160E94781683B7817F83BFF89483B771
:10326000816083BF7894889583B78E7F83BF1FBFAB
:1032700010927100109291000E946C161F91089597
:103280000E94BF1690919205992321F0882311F096
:103290000E9450180E946F160E9472160E947516A6
:1032A0000E9478169FB783B7817F846083BFF894AC
:1032B00083B7816083BF7894889583B78E7F83BFFF
:1032C0009FBF0E946C160895AF92BF92CF92DF927B
:1032D000EF92FF920F931F93CF93DF93B62EA42EFE
:1032E0000E94BE0D7C01009709F4A3C000E010E02D
:1032F00001C08E0180E10E9453128B2D6A2DA7011F
:103300000E946408882381F4D70111966D917C9105
:1033100012978B2D0E94BE096C01009729F0FC01C9
:1033200081819281009711F4C8012FC0C6010E94CB
:10333000AF0EEC01009739F4C8010E94290EC601B6
:103340000E94290E72C00115110509F43FC0D80171
:1033500013968D919C9114970097C1F18C918823BD
:10336000A9F1F6016081680F68838B819C8170E010
:103370000E94B1519C838B83009769F4C8010E941D
:10338000290EC6010E94290ECE010E94290EC701F6
:103390000E94250C4EC0D8014C9113966C91139746
:1033A00014967C9150E00E94B052F80180812B81EC
:1033B0003C81280F311DD6014C9113966C911397C7
:1033C00014967C91C90150E00E94B052C6010E943F
:1033D000290EC8010E94290EE981FA818081982F67
:1033E00091569330B8F4C7010E94250C81E060E04B
:1033F00070E040E00E94C60C7C01009721F4CE01F1
:103400000E94290E16C0E981FA818081813609F077
:1034100070CF02C08C3649F4D70111962D913C91A2
:1034200012978181F901848364CFC7010E94250C22
:1034300002C0C0E0D0E0CE01DF91CF911F910F918B
:10344000FF90EF90DF90CF90BF90AF900895DF9204
:10345000EF92FF920F931F93CF93DF93E82E062FE7
:10346000FA01F22E309709F45FC04081442309F439
:103470005BC06181728184E00E94C60CEC01009700
:1034800009F454C06E2D402F0E9464198C010097DE
:1034900021F4CE010E94250C49C0FF2061F1D0909B
:1034A0008F058D2D823338F584E090E00E947E50A8
:1034B0007C01ED2DF0E0EE0FFF1FEC56FA4FF1828C
:1034C000E082CE010E94BE0DD7018D939C93E091C6
:1034D0008F05F0E0EE0FFF1FEC56FA4FE080F18011
:1034E000C8010E94AF0EF7019383828380918F05FC
:1034F0008F5F80938F05CE010E94250CD801119615
:10350000ED91FC911297309731F08081803919F458
:103510008181882321F0C8010E94290E07C0C801BB
:103520000E94290E80E003C08FEF01C081E0DF918F
:10353000CF911F910F91FF90EF90DF900895DF9250
:10354000EF92FF920F931F93CF93DF93E82E062FF6
:10355000FA01F22E6181728187E040810E94C60CDF
:10356000EC010097C9F16E2D402F0E9464198C0167
:10357000FF2071F1009761F1D0908F058D2D82337E
:1035800038F584E090E00E947E507C01ED2DF0E063
:10359000EE0FFF1FEC56FA4F91838083CE010E94FD
:1035A000BE0DF70191838083E0918F05F0E0EE0F6F
:1035B000FF1FEC56FA4FE080F180C8010E94AF0E69
:1035C000F7019383828380918F058F5F80938F05AE
:1035D000CE010E94250C02C000E010E0C801DF917E
:1035E000CF911F910F91FF90EF90DF900895FC0114
:1035F0000097D1F02381348121153105A9F0808114
:10360000F90140E001C04F5F481718F491919838D4
:10361000D1F750E090E00297481759073CF4240F87
:10362000351FF9018281089580E0089580E00895B2
:103630000097E9F0DC011396ED91FC911497309717
:10364000B1F09081992399F0A181B281109779F01E
:1036500080E00BC0ED91FD91309731F020812F3942
:1036600019F42181283329F08F5F891798F3E0E05E
:10367000F0E0CF010895009729F00E94181BFC018B
:10368000009779F485E090E00E947E50E82FF92FB2
:10369000309739F01482138212828FE9808388E395
:1036A0008183CF010895AF92BF92DF92EF92FF9294
:1036B0000F931F93DF93CF9300D0CDB7DEB75C019C
:1036C00085E090E04A8369830E947E508C017C01F2
:1036D0004A816981009709F45AC0DC0114961C9252
:1036E0001E921397F50180818C938F718F3131F485
:1036F000818111968C93119782E005C0D8011196B3
:103700001C92119781E0F501E80FF11D9081F801FD
:103710009283D82ED394913849F4F501ED0DF11D23
:103720008081D80112968C931297D394442379F117
:10373000F801828170E061507040282F30E0261738
:10374000370764F490E00E947E50D80114969C9351
:103750008E931397009711F080E013C0C8010E9468
:103760001851EE24FF2413C0D8011396ED91FC915B
:103770001497E80FF11DD501A20FB11D9C91908304
:103780008F5F282F2D0DF8019281891768F3C701EB
:103790000F900F90CF91DF911F910F91FF90EF90BD
:1037A000DF90BF90AF900895AF92BF92CF92DF921B
:1037B000EF92FF920F931F93DF93CF930F92CDB7AA
:1037C000DEB7E82E062F142FF22E86E060E070E0C0
:1037D00040E00E94C60C5C01009709F48BC0DC013C
:1037E0001196ED91FC9112978FE982831196ED91DC
:1037F000FC9112971383C5016E2D402F0E9464190E
:103800008C01009721F4C5010E94250C73C0FF2094
:1038100071F1D0908F05BD2DB23348F584E090E072
:103820000E947E507C01ED2DF0E0EE0FFF1FEC5664
:10383000FA4F91838083C5010E94BE0DF7019183E9
:103840008083E0918F05F0E0EE0FFF1FEC56FA4FFA
:10385000E080F180C8010E94AF0ED70113969C93BF
:103860008E93129780918F058F5F80938F05C5018E
:103870000E94250CF80183819481009721F4C801EE
:103880000E94290E37C0D8016C9141E00E94531B61
:103890007C01C8010E94290EE114F10459F183E072
:1038A00090E00E947E50482F592F6A01F701428113
:1038B000D6014C9312961C921E92119782818823F6
:1038C000D9F00381148101151105B1F0842F90E026
:1038D00049830E947E50F60192838183498100973B
:1038E00021F4C6010E94185105C0B80150E00E94A1
:1038F000B05202C0CC24DD24C6010F90CF91DF91DD
:103900001F910F91FF90EF90DF90CF90BF90AF90FD
:103910000895CF92DF92EF92FF920F931F93DF9360
:10392000CF930F92CDB7DEB78C010097B9F185E048
:1039300090E00E947E50C82ED92EC114D10481F18E
:10394000F6011282F8018081F6018083F8018181FD
:10395000F601818314821382F80183819481009798
:10396000F9F042814423E1F0842F90E049830E94E2
:103970007E50F601948383834981009721F4C60128
:103980000E9418510BC0F8016381748150E00E94BD
:10399000B052F8018281F601828302C0CC24DD247A
:1039A000C6010F90CF91DF911F910F91FF90EF9083
:1039B000DF90CF900895DF92EF92FF920F931F93C5
:1039C000CF93DF93EC018B01009709F44CC0611594
:1039D000710509F448C0DB0111968D919C911297F5
:1039E000009709F440C06C918881680F70E0660F01
:1039F000771F89819A810E94B1519A8389830097A8
:103A000091F1DD242AC0888190E0880F991FE98018
:103A1000FA80E80EF91E8D2D90E0880F991FD801CD
:103A20001196ED91FC911297E80FF91F8081918119
:103A30000E94891CF701918380832881822F90E066
:103A4000880F991FE981FA81E80FF91F8081918120
:103A5000009749F02F5F2883D394D8018C91D81612
:103A600090F280E001C081E0DF91CF911F910F9132
:103A7000FF90EF90DF900895FC010097D1F0308126
:103A800080E090E020E013C0A181B281A80FB91FAF
:103A90000D90BC91A02D109741F05C91561729F420
:103AA00011965C911197541731F02F5F02962317EE
:103AB00058F3A0E0B0E0CD0108951F93CF93DF93BA
:103AC000FC010097C9F1908120E030E080E011C056
:103AD000A181B281A20FB31FCD91DC9111972097E4
:103AE00029F048814C3811F410E023C08F5F2E5F1D
:103AF0003F4F891768F320C08B819C81611B810F28
:103B0000911D40E00E94531B0097B1F0FC01208101
:103B10002F3941F42181223029F40E941851812F3C
:103B20008F5F0BC01E5FFC01218121111F5F0E946E
:103B300018516A81161700F380E0DF91CF911F9131
:103B40000895CF92DF92FF920F931F93CF93DF934D
:103B50008C01009709F460C0DC0111968C911197DB
:103B6000882311F481E001C082E0F82EF394F8017B
:103B7000228127FDF394D80113968D919C9114977F
:103B8000009709F0F20E8F2D90E00E947E50E82FF2
:103B9000EF016E01D92EE6012097F1F1D8018C9149
:103BA000888311968C911197882319F0898382E07C
:103BB00001C081E0F801928197FF06C0FE01E80F85
:103BC000F11D91E890838F5FFE01E80FF11DD80190
:103BD00012969C911297908313962D913C91149775
:103BE0002115310571F012964C911297442349F03A
:103BF0008F5FBE01680F711DCB01B90150E00E94BB
:103C0000B052CE016F2D0E947A0B8C01009731F4D7
:103C1000CE010E94185102C000E010E0C801DF91FF
:103C2000CF911F910F91FF90DF90CF900895CF9388
:103C3000DF93EC01009759F08B819C81009721F074
:103C40000E9418511C821B82CE010E941851DF91E4
:103C5000CF9108952F923F924F925F926F927F92F1
:103C60008F929F92AF92BF92CF92DF92EF92FF928C
:103C70000F931F93DF93CF93CDB7DEB72D970FB67A
:103C8000F894DEBF0FBECDBF89836A834B834901A1
:103C9000AE2C2115310509F499C20115110509F45D
:103CA00095C2BB24CC24DD24EE24FF2428E2622E1E
:103CB000712C600E711E90E2492E512C400E511E47
:103CC00089E1282E312C200E311EC80145969D8396
:103CD0008C83D8019D96BF83AE83F8013E96F98709
:103CE000E887C80106969B878A8725C2D401139668
:103CF0008D919C9114976C198C0D911D40E00E9440
:103D0000531BAC01B2E0CB0E009709F414C2FC01C6
:103D100081818111C394DA0112968C91B80EC7018A
:103D20006B2D70E04C875D870E94B1519C017C0136
:103D30004C855D85009721F4CA010E94171E46C27A
:103D4000FA0180818F3909F073C081818230F1F4EA
:103D5000F80180E007C09191D901AD0DB11D9C9390
:103D6000D3948F5FDA0112969C911297891748F4C9
:103D7000863089F706C0F901ED0DF11D1082D3944C
:103D80008F5FFA0192818917B0F3D2C18330F9F4C1
:103D9000EA85FB8580E007C09191D901AD0DB11D89
:103DA0009C93D3948F5FDA0112969C911297891796
:103DB00048F4863089F706C0F901ED0DF11D108237
:103DC000D3948F5FFA0192818917B0F3B1C18A3120
:103DD00009F002C1DA0112968C9112978823B9F08A
:103DE000F901ED0DF11DD8011C968C911C97808373
:103DF000D394FA018281823060F0F901ED0DF11D5A
:103E00001D968C911D978083D39482E00AC080E038
:103E100008C081E006C0F901ED0DF11D1082D394B8
:103E20008F5FDA0112969C9112978917A0F380C1D7
:103E30008539F9F4E885F98580E007C09191D901C9
:103E4000AD0DB11D9C93D3948F5FDA0112969C91B6
:103E50001297891748F4853089F706C0F901ED0DEE
:103E6000F11D1082D3948F5FFA0192818917B0F30C
:103E70005FC18F35A1F5DA0111968C9111978A32C5
:103E800009F02AC112968C9112978823B9F0F90192
:103E9000ED0DF11DD80153968C9153978083D394E7
:103EA000FA018281823060F0F901ED0DF11D549626
:103EB0008C9154978083D39482E00AC080E008C03C
:103EC00081E006C0F901ED0DF11D1082D3948F5FE2
:103ED000DA0112969C9112978917A0F329C18A38AA
:103EE00061F5FA0182818823B9F0F901ED0DF11D28
:103EF000D8019B968C919B978083D394FA01828101
:103F0000823060F0F901ED0DF11D9C968C919C972B
:103F10008083D39482E00AC080E008C081E006C0BC
:103F2000F901ED0DF11D1082D3948F5FDA01129625
:103F30009C9112978917A0F3FBC08139F9F4EE81A7
:103F4000FF8180E007C09191D901AD0DB11D9C9317
:103F5000D3948F5FDA0112969C911297891748F4D7
:103F6000883089F706C0F901ED0DF11D1082D39458
:103F70008F5FFA0192818917B0F3DAC08A39F9F4B8
:103F8000EC81FD8180E007C09191D901AD0DB11D9B
:103F90009C93D3948F5FDA0112969C9112978917A4
:103FA00048F4833089F706C0F901ED0DF11D108248
:103FB000D3948F5FFA0192818917B0F3B9C08C391D
:103FC00041F4F901ED0DF11DD80158968C915897E7
:103FD0002EC08F3909F080C0FA0181818733F1F456
:103FE000F10180E007C09191D901AD0DB11D9C9305
:103FF000D3948F5FDA0112969C911297891748F437
:10400000843089F706C0F901ED0DF11D1082D394BB
:104010008F5FFA0192818917B0F38AC0853351F41A
:104020002D0D311DD8015D968C915D97F90180832E
:10403000D3947EC0853471F5DA0112968C91129773
:104040008823B9F0F901ED0DF11DD8015E968C9130
:104050005E978083D394FA018281823060F0F90107
:10406000ED0DF11D5F968C915F978083D39482E074
:104070000AC080E008C081E006C0F901ED0DF11D25
:104080001082D3948F5FDA0112969C911297891750
:10409000A0F34EC08C34F1F4F20180E007C091919E
:1040A000D901AD0DB11D9C93D3948F5FDA011296A7
:1040B0009C911297891748F4883089F706C0F90156
:1040C000ED0DF11D1082D3948F5FFA019281891753
:1040D000B0F32EC0843311F080E024C0F30180E0FF
:1040E00007C09191D901AD0DB11D9C93D3948F5F01
:1040F000DA0112969C911297891748F4833089F758
:1041000006C0F901ED0DF11D1082D3948F5FFA0105
:1041100092818917B0F30CC0F901ED0DF11D1082E9
:10412000D3948F5FDA0112969C9112978917A0F3AE
:10413000CA010E94171EF4016281C61608F4D6CD8A
:1041400085E0B7014B2D0E94C60C4C010097F1F1A0
:10415000DC011196ED91FC911297BB81B2836981CC
:104160004A810E9464198C01AA2061F1D0908F05C8
:10417000ED2DE23338F584E090E00E947E507C0122
:10418000ED2DF0E0EE0FFF1FEC56FA4F9183808388
:10419000C4010E94BE0DD7018D939C93E0918F05C1
:1041A000F0E0EE0FFF1FEC56FA4FE080F180C801FF
:1041B0000E94AF0EF7019383828380918F058F5FFA
:1041C00080938F05C4010E94250C02C000E010E01E
:1041D000C8012D960FB6F894DEBF0FBECDBFCF91AC
:1041E000DF911F910F91FF90EF90DF90CF90BF90E4
:1041F000AF909F908F907F906F905F904F903F9087
:104200002F900895FF920F931F93CF93DF93EC01AC
:10421000009731F189819A810097F9F0FF2414C049
:104220000F2D10E0000F111F800F911FFC018081E6
:104230009181009741F00E94171EE981FA81E00FF9
:10424000F11F11821082F394288189819A81F216DC
:1042500038F30E9418511A821982CE010E94185117
:10426000DF91CF911F910F91FF900895AF92BF9270
:10427000CF92DF92EF92FF920F931F93CF93DF9332
:104280006C01A62E009709F444C0662309F441C0CE
:1042900083E090E00E947E50E82EE7017E01F92E37
:1042A000E7012097C1F118821A821982BB242EC01F
:1042B0006A2D6B19C6018B0D911D41E00E94531BA5
:1042C0008C01009721F4CE010E94022122C0FC0142
:1042D0008281982F9E5FB90E91819111B39487FDD1
:1042E000B39468816F5F688370E0660F771F898180
:1042F0009A810E94B1519A838983E881F0E03197D5
:10430000EE0FFF1FE80FF91F11830083BA1480F22C
:1043100002C0EE24FF24C701DF91CF911F910F91BE
:10432000FF90EF90DF90CF90BF90AF900895FC0189
:104330000097F1F06623E1F06430D0F0808180379F
:10434000B9F44181413819F4428153E001C052E08F
:10435000862F90E00197242F30E02817390744F486
:10436000CF01850F911D642F0E9436219C0102C050
:1043700020E030E0C9010895BF92CF92DF92EF9222
:10438000FF920F931F93CF93DF93EC01CB01209704
:1043900009F44BC0642F0E9497218C01009709F407
:1043A00044C0BB2439C08B2D90E0880F991FD801E1
:1043B0001196ED91FC911297E80FF91FE080F180C2
:1043C000F7018381948162810E9436216C010097FC
:1043D00049F0D7018C91813629F411968C9111976F
:1043E000882321F0C8010E9402211FC068816F5FED
:1043F000688370E0660F771F89819A810E94B151AE
:104400009A838983E881F0E03197EE0FFF1FE80F70
:10441000F91FD182C082B394F8018081B81618F2D6
:10442000C8010E94022180E001C081E0DF91CF91AC
:104430001F910F91FF90EF90DF90CF90BF90089564
:104440002F923F924F925F926F927F928F929F92A4
:10445000AF92BF92CF92DF92EF92FF920F931F9392
:10446000DF93CF9300D000D000D0CDB7DEB78B83E1
:104470006C835A8349837901202E4115510509F433
:1044800046C1DA0113968D919C911497009709F417
:104490003EC183E090E00E947E504C013C01FC0153
:1044A000108212821182E114F10431F0D7011C92C2
:1044B00012961C921E92119782E060E070E040E03C
:1044C0000E94C60C6C01009711F0332416C1C40180
:1044D0000E9418511CC1832D90E0880F991FE9811B
:1044E000FA81A381B481A80FB91FAD90BC90119738
:1044F000A114B10409F400C1D50111965C90119783
:10450000F6C0D6011196ED91FC9112975282119648
:10451000ED91FC911297D5018C9184608383C60143
:104520006B814C810E9464199E838D83222079F1D6
:1045300040908F05B42DB23350F584E090E00E9496
:104540007E508C01E42DF0E0EE0FFF1FEC56FA4F89
:1045500091838083C6010E94BE0DF8019183808300
:10456000E0918F05F0E0EE0FFF1FEC56FA4F00814F
:1045700011818D819E810E94AF0ED80113969C936C
:104580008E93129780918F058F5F80938F05ED81B9
:10459000FE81309709F4A0C00180F281E02D808176
:1045A000803909F0D0C08181882309F0CCC0AD8169
:1045B000BE811396ED91FC911497309719F04C91B0
:1045C000423028F48D819E810E94290E8FC0E11413
:1045D000F10409F46DC0D50113962C91139730E0C6
:1045E000852D90E011965C911197851B910982179A
:1045F00093070CF05DC08C91813508F1F7010081C3
:10460000040F81819281602F70E00E94B1519C0162
:10461000D70112969C938E931197009709F446C088
:104620008C91280F311DED81FE8140816381748161
:10463000C90150E00E94B052D7010C9339C081816A
:10464000813811F002E001C003E0D7016C91640FE2
:10465000601B11968D919C91129770E00E94B15150
:104660009C01F70192838183009701F18081A90168
:10467000480F511DAD81BE81EC91F0E0802F90E09C
:10468000E81BF90B13962D913C911497280F391FB5
:10469000CA01B901AF010E94B052ED81FE81808153
:1046A000D7019C91890F801B8C9302C0F701108267
:1046B000AD81BE8113968D919C9114976C910E944F
:1046C00097218C018D819E810E94290EC401B80121
:1046D0000E94DB1C882339F0C4010E940221C6011C
:1046E0000E94250C14C0C8010E9402215394F501B8
:1046F0008281851508F005CF3394A981BA818C9108
:10470000381608F4E8CEC6010E94250C02C06624C3
:104710007724C30126960FB6F894DEBF0FBECDBF37
:10472000CF91DF911F910F91FF90EF90DF90CF908D
:10473000BF90AF909F908F907F906F905F904F90C1
:104740003F902F9008958D819E810E94290EC4CFA5
:10475000FF920F931F93CF93DF93EC0189819A818E
:104760000097F9F0FF2414C00F2D10E0000F111F67
:10477000800F911FFC0180819181009741F00E9480
:104780000221E981FA81E00FF11F11821082F39476
:10479000288189819A81F21638F30E9418511A8271
:1047A0001982CE010E941851DF91CF911F910F9174
:1047B000FF900895CF93DF93EC018B819C8100974C
:1047C00021F00E9402211C821B8289819A8100971C
:1047D00021F00E9418511A821982CE010E941851AC
:1047E000DF91CF9108958F929F92AF92BF92CF9217
:1047F000DF92EF92FF920F931F93CF93DF938C0181
:10480000009709F482C0662309F47FC0643008F47D
:104810007CC0FC0180818F3609F077C081818138AE
:1048200019F4828143E001C042E0A62EBB24950129
:104830002150304090E0821793070CF066C0F801D9
:10484000E40FF11D8081843809F05FC0C42EC39449
:10485000F801EC0DF11DD080C394FD2DF13829F441
:10486000F801EC0DF11DD080C3948D2C9924C50165
:104870000397881699060CF048C085E090E00E94E6
:104880007E507C01EC01009709F441C08D2D90E031
:104890000E947E509A838983009721F4C7010E9469
:1048A000185133C098012C0D311DB9014D2D50E028
:1048B0000E94B052D882DC0CF801ED0DF11D808110
:1048C000853A11F0C7011FC0D394F801ED0DF11D19
:1048D0006081D394613829F4F801ED0DF11D6081F8
:1048E000D394862F90E0A818B908A816B90654F0FA
:1048F000C8018D0D911D0E943621F7019483838399
:10490000009729F4C7010E94DA23C0E0D0E0CE016D
:10491000DF91CF911F910F91FF90EF90DF90CF909B
:10492000BF90AF909F908F9008952F923F924F929B
:104930005F926F927F928F929F92AF92BF92CF922F
:10494000DF92EF92FF920F931F93DF93CF930F921B
:10495000CDB7DEB7582E462EE42E822E902E83E061
:1049600090E00E947E508C01009709F456C1DC0152
:104970001C9212961C921E92119782E060E070E0E9
:1049800040E00E94C60C6C01009709F446C1DC01AE
:104990001196ED91FC91129712821196ED91FC9176
:1049A00012978E2D880F880F880F84608383D6011D
:1049B0001196ED91FC91129782818F5F8283C601DF
:1049C000652D442D0E9464195C01009709F442C1D1
:1049D000992071F160908F05B62DB23348F584E0CF
:1049E00090E00E947E507C01E62DF0E0EE0FFF1F6C
:1049F000EC56FA4F91838083C6010E94BE0DF701E9
:104A000091838083E0918F05F0E0EE0FFF1FEC565D
:104A1000FA4FE080F180C5010E94AF0ED7011396D6
:104A20009C938E93129780918F058F5F80938F0553
:104A3000F501638174816115710551F0C8014081F0
:104A40000E94BC21882309F005C1EE24E39401C033
:104A5000EE24C5010E94290EEE2009F0A8CFC60160
:104A60000E94250CD8018C91882309F4D6C0882097
:104A700009F093C0992471E2A72E72E0B72E65E287
:104A8000662E62E0762E50E9252E51E0352E01C0CB
:104A90009924892D90E09C01220F331FD801119693
:104AA000ED91FC911297E20FF31F0190F081E02D40
:104AB0000180F281E02DC080D18000D000D000D0F4
:104AC000EDB7FEB7319620910E0630910F06ADB7C7
:104AD000BEB712963C932E931197B382A282019691
:104AE000958384830E94EC52EDB7FEB736960FB6DD
:104AF000F894FEBF0FBEEDBFEE24FF242DC000D002
:104B000000D000D02DB73EB72F5F3F4F80910E06EB
:104B100090910F06ADB7BEB712969C938E931197E6
:104B2000F90173826282F601A381B481AE0DBF1DCB
:104B30008C91D90114968C93149715961C920E940F
:104B4000EC520894E11CF11CEDB7FEB736960FB697
:104B5000F894FEBF0FBEEDBFD60112968C9112974E
:104B6000E81620F4B7E0EB16F10449F680ED97E083
:104B7000F1013197F1F70197D9F70E94A3168983C4
:104B800089818823D1F3898182FF08C09394F80139
:104B90008081981609F07DCF7BCF9924892D90E0F4
:104BA000880F991FD8011196ED91FC911297E80F8B
:104BB000F91F0190F081E02D0180F281E02D01903C
:104BC000F081E02D6381748180E042810E94C60CF7
:104BD0007C01009711F1652D442D0E9464196C0130
:104BE000C7010E94250CC114D104B9F0F6018381DC
:104BF0009481009761F00180F281E02D20812039BD
:104C000031F4D6016C910E94F3237C0102C0EE24A2
:104C1000FF24C6010E94290E02C0EE24FF240115C4
:104C2000110519F0C8010E94A823C7010F90CF9168
:104C3000DF911F910F91FF90EF90DF90CF90BF9089
:104C4000AF909F908F907F906F905F904F903F902C
:104C50002F900895C6010E94250CEE24FF24E2CF78
:104C60007F928F929F92AF92BF92CF92DF92EF92FC
:104C7000FF920F931F93DF93CF930F92CDB7DEB7C1
:104C8000982EA62EFA01B22E1982309709F4CAC0C6
:104C90008081873009F0C6C06181728180E047E081
:104CA0000E94C60C6C01009709F4C2C0692D4A2D00
:104CB0000E9464198C01009709F450C0BB2061F177
:104CC000B0908F058B2D823338F584E090E00E9400
:104CD0007E507C01EB2DF0E0EE0FFF1FEC56FA4FFB
:104CE00091838083C6010E94BE0DD7018D939C9352
:104CF000E0918F05F0E0EE0FFF1FEC56FA4FE080D9
:104D0000F180C8010E94AF0EF701938382838091E6
:104D10008F058F5F80938F05C6010E94250CD801F7
:104D20001196ED91FC9112978081803909F455C05C
:104D30006EC06981689DB0011124665D7D4F80E081
:104D400047E00E94C60C6C01009709F471C0692D00
:104D50004A2D0E9464198C01009721F4C6010E941B
:104D6000250C66C0BB2071F170908F05B72DB23352
:104D700048F584E090E00E947E507C01E72DF0E051
:104D8000EE0FFF1FEC56FA4FF182E082C6010E943F
:104D9000BE0DF70191838083E0918F05F0E0EE0F67
:104DA000FF1FEC56FA4FE080F180C8010E94AF0E61
:104DB000D70113969C938E93129780918F058F5FE6
:104DC00080938F05C6010E94250CD8011196ED91A4
:104DD000FC9112978081803979F481818823B9F41C
:104DE00013968D919C9114976C910E94F3237C01F2
:104DF000C8010E94290E1EC08A3621F481818238A2
:104E000031F409C0823619F48181833821F0C80158
:104E10000E94290E0DC0C8010E94290E89818F5F52
:104E2000898302C017E0812E8981863008F481CF02
:104E3000EE24FF24C7010F90CF91DF911F910F91B6
:104E4000FF90EF90DF90CF90BF90AF909F908F90AA
:104E50007F9008954F925F927F928F929F92AF9230
:104E6000BF92CF92DF92EF92FF920F931F93DF9347
:104E7000CF930F92CDB7DEB7C82EB62E4A01A22E21
:104E8000D02E80E064E572E04EE00E94C60C2C015A
:104E9000009709F470C06C2D4B2D0E9464198C0191
:104EA000009721F4C2010E94250C65C0DD2061F14C
:104EB00070908F05872D823338F584E090E00E9452
:104EC0007E507C01E72DF0E0EE0FFF1FEC56FA4F0D
:104ED00091838083C2010E94BE0DD7018D939C9364
:104EE000E0918F05F0E0EE0FFF1FEC56FA4FE080E7
:104EF000F180C8010E94AF0EF701938382838091F5
:104F00008F058F5F80938F05C2010E94250CD80109
:104F10001196ED91FC9112978081803999F48181ED
:104F2000882331F5C8010E94F71A482FC801498328
:104F30000E94290E8C2D6B2D49812A2D0D2D0E944A
:104F4000952414C08A3621F48181823889F405C001
:104F5000823671F48181833859F4C8010E94290E88
:104F60008C2D6B2DA4012D2D0E9430269C0105C097
:104F7000C8010E94290E20E030E0C9010F90CF91B6
:104F8000DF911F910F91FF90EF90DF90CF90BF9036
:104F9000AF909F908F907F905F904F900895FF9279
:104FA0000F931F93CF93DF93EC0189819A81009730
:104FB000F9F0FF2414C00F2D10E0000F111F800F17
:104FC000911FFC0180819181009741F00E94DA23BA
:104FD000E981FA81E00FF11F11821082F394288198
:104FE00089819A81F21638F30E9418511A82198227
:104FF000CE010E941851DF91CF911F910F91FF9028
:105000000895FF920F931F93CF93DF93EC010097C6
:1050100031F18B819C810097F9F0FF2414C00F2D92
:1050200010E0000F111F800F911FFC018081918102
:10503000009741F00E941851EB81FC81E00FF11FB5
:1050400011821082F39428818B819C81F21638F3AF
:105050000E9418511C821B82CE010E941851DF91C0
:10506000CF911F910F91FF9008952F923F924F92F1
:105070005F926F927F928F929F92AF92BF92CF92E8
:10508000DF92EF92FF920F931F93DF93CF930F92D4
:10509000CDB7DEB71C01009709F473C1683008F47E
:1050A00070C1DC018C91803809F09AC011968C9106
:1050B0001197813829F412968C91129723E001C040
:1050C00022E0C82EDD24C601019670E086179707FE
:1050D0000CF057C185E090E029830E947E507C014E
:1050E0008C012981009709F44EC1C601029764E042
:1050F00070E00E94F74F862EF7016083F101E20F06
:10510000F11D8081D70111968C9311972F5FF101CA
:10511000E20FF11D808112968C93862F90E0880F0C
:10512000991F29830E947E50F701948383832981EC
:10513000009729F02F5FCC24DD2499244DC0C701AE
:10514000C4C0D7011396AD90BC901497AC0CBD1C95
:1051500084E090E029830E947E50FC01D5011196E5
:105160009C938E93C60102962981309709F4C4C09E
:10517000D101A20FB11D3C913083D501ED91FC917D
:10518000322F3F5FD101A30FB11D3C913183D70175
:105190001396ED91FC911497EC0DFD1D0190F0819B
:1051A000E02D322F3E5FD101A30FB11D3C91328320
:1051B000D7011396ED91FC911497EC0DFD1D019014
:1051C000F081E02D322F3D5FD101A30FB11D3C9145
:1051D00033832C5F93946C01981408F4B2CFD3C03E
:1051E000873709F0CEC0F1018181813819F48281BD
:1051F00023E001C022E0482E5524622E772470E07F
:10520000C301840D951D681779070CF4BAC085E0B9
:1052100090E029830E947E507C018C0129810097B7
:1052200009F4B1C0DC011C9214961C921E921397D3
:105230009EC0820D931DFC019081822F8F5F92385A
:10524000D9F4F101E80FF11D9081923009F054C0BA
:10525000282F2F5FF101E20FF11D8081D7011196F8
:105260008C9311972F5FF101E20FF11D808112964F
:105270008C9312972F5F7BC0282F2F5F943909F0F2
:1052800076C0F101E80FF11D8081813829F4F10128
:10529000E20FF11D80812F5F982E96949694F7016E
:1052A0009082892D90E0880F991F29830E947E505B
:1052B000D70114969C938E9313972981009721F020
:1052C000CC24DD24882450C0C7010E94185159C045
:1052D000F701A380B480AC0CBD1C84E090E029836E
:1052E0000E947E50FC01D50111969C938E93C601BD
:1052F00002962981309721F4C7010E94012841C0FC
:10530000D101A20FB11D3C913083D501ED91FC91EB
:10531000322F3F5FD101A30FB11D3C913183D701E3
:105320001396ED91FC911497EC0DFD1D0190F08109
:10533000E02D322F3E5FD101A30FB11D3C9132838E
:10534000D7011396ED91FC911497EC0DFD1D019082
:10535000F081E02D322F3D5FD101A30FB11D3C91B3
:1053600033832C5F83946C01891408F4B1CF822FAE
:1053700090E0AC0146195709441555050CF459CF76
:1053800002C000E010E0C8010F90CF91DF911F91A3
:105390000F91FF90EF90DF90CF90BF90AF909F90D4
:1053A0008F907F906F905F904F903F902F900895D7
:1053B000DF92EF92FF920F931F93CF93DF93F82E1C
:1053C000E62ECA01D22E0E943B1B009709F460C052
:1053D00023E8FC01208311820E94A11D8C0100970B
:1053E00009F456C0FC016181728183E040810E9412
:1053F000C60CEC01C8010E94120C209709F448C0A9
:10540000CE016F2D4E2D0E9464198C01009721F45E
:10541000CE010E94250C3CC0DD2061F1D0908F05AB
:10542000FD2DF23338F584E090E00E947E507C013F
:10543000ED2DF0E0EE0FFF1FEC56FA4F91838083C5
:10544000CE010E94BE0DF70191838083E0918F050C
:10545000F0E0EE0FFF1FEC56FA4FE080F180C8013C
:105460000E94AF0EF7019383828380918F058F5F37
:1054700080938F05CE010E94250CF80183819481D1
:1054800060810E943528EC01C8010E94290E02C0EB
:10549000C0E0D0E0CE01DF91CF911F910F91FF903E
:1054A000EF90DF900895CF92DF92EF92FF920F93EB
:1054B0001F93CF93DF93EC018B017A01FA011182E4
:1054C0001082FB011082009709F48BC0888181341F
:1054D00009F087C08981843509F083C06E01AC2F43
:1054E000BD2DFD0101900020E9F73197EA1BFB0B70
:1054F000E33008F476C08A818B3209F074C0CE01A3
:1055000063EB72E00E94D252C817D90711F481E010
:1055100065C0CE016BEB72E00E94D252C817D9076A
:1055200011F482E05BC0CE0164EC72E00E94D252C2
:10553000C817D90711F483E051C0CE016CEC72E0BA
:105540000E94D252C817D90711F484E047C0CE0197
:1055500064ED72E00E94D252C817D90711F485E0B9
:105560003DC0CE016CED72E00E94D252C817D9073F
:1055700011F486E033C0CE0164EE72E00E94D25294
:10558000C817D90711F487E029C0CE016EEE72E08A
:105590000E94D252C817D907C1F488E0F80180836D
:1055A0006E01AC2FBD2DFD0101900020E9F7319770
:1055B000EA1BFB0BEB30F105B0F089858D3399F4D4
:1055C0002A96F701D183C0830EC0CE0168EF72E046
:1055D0000E94D252C817D90731F489E0F8018083BC
:1055E00002C083E001C080E0DF91CF911F910F9155
:1055F000FF90EF90DF90CF9008956F927F928F92FF
:105600009F92AF92BF92CF92DF92EF92FF920F9351
:105610001F93DF93CF93CDB7DEB7CE56D0400FB6F2
:10562000F894DEBF0FBECDBFFE01B1968EE4DF0160
:105630001D928A95E9F78AE389A382E38AA380E32E
:105640008BA388A789A78DE0DE01A459BF4F8C9357
:105650008AE0DE01A359BF4F8C9300E010E06E0199
:105660000894C11CD11C7F016AE2A62EB12CAC0E9D
:10567000BD1E5AE6852E912C8C0E9D1E4BE6642E87
:10568000712C6C0E7D1EC601B80140E250E00E94F4
:105690005F55912F402F202F205E210F312F329503
:1056A0003F703A3010F4305D01C0395C3CA39F700C
:1056B0009A3010F4905D01C0995C9DA3C80134E05C
:1056C000969587953A95E1F78F708A3010F4805D52
:1056D00001C0895C8EA3842F8F708A3010F4805DA6
:1056E00001C0895C8FA3D601F5018D91280F982FF9
:1056F00092959F709A3010F4905D01C0995C9083F0
:105700008F708A3010F4805D01C0895C818332968D
:10571000AE15BF0551F72195822F82958F708A3083
:1057200010F4805D01C0895CF40180832F702A3001
:1057300010F4205D01C0295CD3012C93C7010E94A5
:10574000423E882339F5005E1F4FB0E100301B0751
:1057500009F099CF8EE4F70111928A95E9F78AE36F
:1057600089A380E38AA38BA38CA38DA38EA38FA38D
:1057700088A781E389A786E48AA78BA78DE08CA7F9
:105780008AE08DA7C7010E94423E91E0882319F468
:1057900090E001C091E0892FC259DF4F0FB6F89415
:1057A000DEBF0FBECDBFCF91DF911F910F91FF9054
:1057B000EF90DF90CF90BF90AF909F908F907F90B1
:1057C0006F900895982F90539A3058F091519630D9
:1057D00010F4875307C0982F91569630A8F4875538
:1057E00001C0892F982F9295907F862F80538A3001
:1057F00048F0862F8154863020F0862F81568630DF
:1058000028F4865F892B089580E0089580E008954C
:10581000611182958F708A3010F4805D0895895CE3
:1058200008952F923F924F925F926F927F928F9244
:105830009F92AF92BF92CF92DF92EF92FF920F931F
:105840001F93DF93CF93CDB7DEB7C850D3400FB6C9
:10585000F894DEBF0FBECDBF18861F820E943C1297
:10586000882309F560910E0670910F0682E692E09A
:105870000E94295388E893E120E931E0F90131974A
:10588000F1F70197D9F782EA92E00E94423E2AE0BE
:1058900088E190E00FB6F894A895809360000FBE61
:1058A00020936000FFCF80E0BE016F5F7F4FAE01AD
:1058B0004E5F5F4F9E012D5F3F4F8E010C5F1F4F6C
:1058C000E5E0EE2EF12CEC0EFD1E0E941016082FC6
:1058D000882309F44BC060910E0670910F0684E78F
:1058E00092E00E94295328E833E180E991E0FC012D
:1058F0003197F1F721503040D1F700D000D000D0DF
:10590000EDB7FEB7319680910E0690910F06ADB7B8
:10591000BEB712969C938E93119726E832E033839C
:105920002283048315820E94EC52EDB7FEB73696AF
:105930000FB6F894FEBF0FBEEDBF88E893E120E9F3
:1059400031E0F9013197F1F70197D9F782EA92E056
:105950000E94423E2AE088E190E00FB6F894A895B4
:10596000809360000FBE20936000FFCF8A81882360
:1059700009F160910E0670910F0683E992E00E9492
:10598000295388E893E120E931E0F9013197F1F7F3
:105990000197D9F782EA92E00E94423E2AE088E12C
:1059A00090E00FB6F894A895809360000FBE209306
:1059B0006000FFCF8BEA92E00E94423E90E9292EE0
:1059C00091E0392E89E0482E512C4C0E5D1E09E0E5
:1059D000A02E01E0B02EAC0EBD1E8FEF0E94C83D80
:1059E0004C01009741F488EE93E0F1013197F1F713
:1059F0000197D9F7F2CFBE016A5F7F4FAE01495FD1
:105A00005F4F0E94532A0F811885F80101900020F2
:105A1000E9F73197E01BF10B8E81893081F48BEA35
:105A200092E00E94423E2AE088E190E00FB6F894AE
:105A3000A895809360000FBE20936000FFCF883050
:105A400049F40115110531F0EA3020F06E2E77246B
:105A5000E0FF08C082EA92E00E94423EC4010E9438
:105A60001851BBCFD20180E091E01D920197E9F778
:105A70006201E6957201EE0EF11C0BC0D8018C910B
:105A800011966C910E94E22BF60181936F010E5FDB
:105A90001F4FCE14DF0491F7C4010E941851F30187
:105AA0003A97F595E79589856A854B852C850D850F
:105AB000BEE0EB2EF12CEC0EFD1ECE2E0E94630DEF
:105AC0007C01009771F069814B810E9464198C01FF
:105AD000C7010E94250C0115110531F4C7010E9470
