:100000000C9492000C944E020C94B4030C94D70000
:100010000C94D7000C94D7000C94D7000C94D70004
:100020000C94D7000C94D7000C94523C0C94243DB3
:100030000C94D7000C94D7000C94D7000C94D700E4
:100040000C94D7000C94D7000C94D7000C94D700D4
:100050000C94D7000C94D7000C94D7000C94D700C4
:100060000C94D7000C94D7000C94D7000C94D700B4
:100070000C94D7000C94D7000C94D7000C94D700A4
:100080000C94E3030C94D7000C94D7000C94D70085
:100090000C94D7000C94D700120110010200000844
:1000A000EB03442001000102DC0109023E000201D1
:1000B00000C0320904000001020201000524001002
:1000C0000104240206052406000107058203080036
:1000D000FF09040100020A000000070504021000E5
:1000E00001070583021000010403090418034400FA
:1000F000650061006E002000430061006D00650036
:100100007200610000001C034C00550046004100D5
:1001100020004300440043002000440065006D00BF
:100120006F00000011241FBECFEFD0E2DEBFCDBFB5
:1001300004B603FE23C08091A6058737F9F4109218
:10014000A605E3E0F0E089E080935700E491F0E059
:10015000E770F070F595E795EE2339F0E13041F066
:10016000E23049F4E0E0FCEF08C0E0E0F0EF05C069
:10017000E0E0F8EF02C0E0E0FEEF099515E0A0E056
:10018000B1E0E6E8F5EA00E00BBF02C007900D928F
:10019000A833B107D9F715E0A8E3B5E001C01D9277
:1001A000AE3BB107E1F70E94BF060C94C1520C941C
:1001B00000004F925F926F927F929F92AF92BF9298
:1001C000CF92DF92EF92FF920F931F93DF93CF9323
:1001D0000F92CDB7DEB780914005882309F4DCC0CB
:1001E0000E94B1186091BC057091BD058AE090E055
:1001F0000E94994F40E0E42E41E0F42E34E0A32E1B
:1002000031E0B32E00E911E023E1622E21E0722EED
:1002100092E2492E91E0592E00D000D000D0EDB7E7
:10022000FEB731968091BC059091BD05ADB7BEB7C4
:1002300012969C938E931197F382E282B582A482E8
:100240000E94884FEDB7FEB736960FB6F894FEBF02
:100250000FBEEDBF0E9432178983898182FFFACFDA
:1002600088E893E1F8013197F1F70197D9F700D0C9
:1002700000D000D0EDB7FEB731968091BC059091CB
:10028000BD05ADB7BEB712969C938E931197F382BE
:10029000E282758264820E94884FEDB7FEB736967F
:1002A0000FB6F894FEBF0FBEEDBF0E9432178983D0
:1002B000898182FFFACF88E893E1F8013197F1F75D
:1002C0000197D9F700D000D000D0EDB7FEB7319636
:1002D0008091BC059091BD05ADB7BEB712969C93B9
:1002E0008E931197F382E282558244820E94884F56
:1002F000EDB7FEB736960FB6F894FEBF0FBEEDBF52
:100300000E9432178983898182FFFACF88E893E1BE
:10031000F8013197F1F70197D9F786E1C82E82E00D
:10032000D82E9924D6012D913D916D0100D000D099
:1003300000D0EDB7FEB731964091BC055091BD0598
:10034000ADB7BEB712965C934E931197F382E282DB
:10035000358324830E94884FEDB7FEB736960FB6DB
:10036000F894FEBF0FBEEDBF0E94321789838981CA
:1003700083FF03C0892D8F5F10C0898182FFF4CF76
:1003800088E893E1F8013197F1F70197D9F7939451
:10039000F92DF83039F640CF80E00F90CF91DF9102
:1003A0001F910F91FF90EF90DF90CF90BF90AF9093
:1003B0009F907F906F905F904F900895F894109267
:1003C000690010926A008FEF8CBB1DBA14BE88E1E1
:1003D0000FB6F89480936000109260000FBE14B8BE
:1003E00017B888B990E89AB983E88BB980B3807F51
:1003F00080BB81B38F6081BB80E00FB6F89490938F
:100400006100809361000FBE0E94FB16809169001D
:1004100084608093690080916900877F8093690080
:10042000E99A80E090E00E940B5280933E0580E4C0
:1004300090E00E940B528093410510923D050E946E
:10044000D318882339F01092BD051092BC05109284
:10045000400509C086E891E09093BD058093BC05F6
:1004600081E0809340053D98459880E00E945117B7
:100470008091640081608093640080916400846056
:100480008093640080916400806880936400809110
:100490006500816080936500789408951F920F92A3
:1004A0000FB60F920BB60F9211244F925F926F927C
:1004B0007F928F929F92AF92BF92DF92EF92FF92C4
:1004C0000F931F932F933F934F935F936F937F935C
:1004D0008F939F93AF93BF93EF93FF93DF93CF934C
:1004E000CDB7DEB76697DEBFCDBF1982DE011296AB
:1004F000E3EAF1E085E001900D928150E1F7DE0141
:100500001796EEE9F1E085E001900D928150E1F758
:10051000DE011C96E9E9F1E085E001900D92815041
:10052000E1F7DE015196E4E9F1E085E001900D92FA
:100530008150E1F714BE88E10FB6F8948093600013
:10054000109260000FBE80E490E0609141050E942F
:100550003F5288E490E00E940B52082F89E490E01B
:100560000E940B52302F20E0082F10E0022B132B9B
:100570008FEF0F3F180711F400E810E080913D0560
:10058000882309F49DC08FE0003E180708F098C04A
:10059000CE010C96B80145E050E00E943552C801EA
:1005A000059660913F050E943F520A5F1F4FDD2470
:1005B0004E010894811C911CF2E06F2E712C6C0E80
:1005C0007D1EE7E04E2E512C4C0E5D1E5CC0AD2C06
:1005D000BB24F501EE0FFF1FEE5BFA4F0190F08197
:1005E000E02D80819181B4010E947F0A7C010097F7
:1005F000C1F0C301B80145E050E00E9435520B5FE5
:100600001F4F4981C701B80150E00E943552C70110
:100610000E94B44D8981080F111D8FE0013E18071B
:10062000B8F5F501EE0FFF1FEE5BFA4F0190F08178
:10063000E02D82819381B4010E944D0C7C010097D2
:10064000C1F0C201B80145E050E00E9435520B5F95
:100650001F4F4981C701B80150E00E943552C701C0
:100660000E94B44D8981080F111D8FE0013E1807CB
:1006700078F4F501EE0FFF1FEE5BFA4F8081918158
:100680000E944010D39480913D05D81608F49FCF66
:10069000CE014196B80145E050E00E9435520B5F13
:1006A0001F4F202F285F88E490E0612F2E8B0E943F
:1006B0003F522E89622F687F89E490E00E943F526A
:1006C0000E94E9100097C1F080E090E00E940B5278
:1006D00080933E058A3A41F480E090E060E00E9419
:1006E0003F52F999FECF0FC080E090E06AEA0E9485
:1006F0003F52F999FECF07C080E090E060E00E9491
:100700003F52F999FECFE89828E088E190E00FB6D3
:10071000F894A895809360000FBE209360006696C1
:10072000DEBFCDBFCF91DF91FF91EF91BF91AF9130
:100730009F918F917F916F915F914F913F912F91F9
:100740001F910F91FF90EF90DF90BF90AF909F901F
:100750008F907F906F905F904F900F900BBE0F9097
:100760000FBE0F901F9018951F920F920FB60F9209
:100770000BB60F9211242F933F934F935F936F9378
:100780007F938F939F93AF93BF93EF93FF93499B77
:1007900003C00E94F81604C00E9404170E9462164B
:1007A000FF91EF91BF91AF919F918F917F916F9149
:1007B0005F914F913F912F910F900BBE0F900FBE05
:1007C0000F901F90189518950E94F21684EF91E0F3
:1007D00020E931E0F9013197F1F70197D9F70E944B
:1007E000FE160E94F51684EF91E020E931E0F90150
:1007F0003197F1F70197D9F70E9401170E94F81677
:1008000084EF91E020E931E0F9013197F1F70197A8
:10081000D9F70E9404170E94FB1684EF91E020E9AB
:1008200031E0F9013197F1F70197D9F70E940717E5
:1008300080914005882359F10E94B1186091BC0550
:100840007091BD058AE090E00E94994F80E391E0AD
:1008500068E00E9433187B99FECF89E391E068E05D
:100860000E9433187A99FECF82E491E068E00E94FA
:1008700033187999FECF8BE491E068E00E94331839
:100880007899FECF84E591E069E00E9433180895DD
:100890002F923F924F925F926F927F928F929F9290
:1008A000AF92BF92CF92DF92EF92FF920F931F937E
:1008B000DF93CF93CDB7DEB761970FB6F894DEBF65
:1008C0000FBECDBF0E9448110E943F118436910592
:1008D000D8F30E94F2160E9461118823E1F30E946E
:1008E000F5168AE00E94641180E06FE00E943213E6
:1008F0000E94FE1680914005882379F00E94B1186D
:100900006091BC057091BD058AE090E00E94994F0E
:100910008EE591E068E00E9433188E010F5F1F4F53
:1009200052E0E52EF12CEC0EFD1E43E0C42ED12C3E
:10093000CC0EDD1E34E0A32EB12CAC0EBD1E25E086
:10094000822E912C8C0E9D1E96E0692E712C6C0EC1
:100950007D1E87E0482E512C4C0E5D1EB8E02B2EDC
:10096000312C2C0E3D1E80E0B8010E94F71280E071
:10097000B7010E94F71280E0B6010E94F71280E0F2
:10098000B5010E94F71280E0B4010E94F7121E82A6
:100990000E94F2160E94011784E10E94641184EA09
:1009A00060E00E9409120E94FE160E94F51680E087
:1009B000B8010E94F71280E0B7010E94F71280E0B0
:1009C000B6010E94F71280E0B5010E94F71280E0A4
:1009D000B4010E94F71280E0B3010E94F71280E098
:1009E000B2010E94F71280E0B1010E94F71280E08C
:1009F000BE01675F7F4F0E94F71280E0BE01665F15
:100A00007F4F0E94F71280E0BE01655F7F4F0E941A
:100A1000F71280E0BE01645F7F4F0E94F71280E012
:100A2000BE01635F7F4F0E94F71280E0BE01625FEC
:100A30007F4F0E94F7121F86898B0E94F2160E9438
:100A40000117909140058989992351F0882321F05D
:100A500087E691E06FE002C0C8016EE00E943318A3
:100A600081E660E00E94091282E00E94641184E045
:100A700060E00E9409120E94FE160E94F51680E0B6
:100A8000B8010E94F71280E0B7010E94F71280E0DF
:100A9000B6010E94F71280E0B5010E94F71280E0D3
:100AA000B4010E94F7121E820E94F2160E940117E2
:100AB00084E10E94641180EC60E00E94091282E0EF
:100AC0000E9464118EED60E00E94091282E00E9493
:100AD00064118DEA60E00E94091282E00E946411B4
:100AE0008EEB60E00E94091282E00E9464118FEE9A
:100AF00060E00E94091282E00E94641180E960E0D7
:100B00000E94091282E00E94641180E060E00E946D
:100B100009120E94FE160E94F51680914005882356
:100B200009F421CF87E791E06CE00E9433181BCFD6
:100B3000EF92FF920F931F93DF93CF9300D000D0DB
:100B400000D0CDB7DEB780E0BE016F5F7F4FAE0152
:100B50004E5F5F4F9E012D5F3F4F8E010C5F1F4F19
:100B6000E5E0EE2EF12CEC0EFD1E0E94AE16882361
:100B700009F0DDC085E00E946E1380E069810E946B
:100B8000001582E00E946E1384EA69810E940015BC
:100B900082E00E946E1384E069810E94001582E069
:100BA0000E946E1380E069810E94001582E00E941D
:100BB0006E138EE069810E94001581E00E946E1321
:100BC0008E010A5F1F4F8981B8010E943F148E81F8
:100BD000843A09F0ACC085E00E946E1381E369811C
:100BE0000E94001582E00E946E1380E569810E94D8
:100BF000001582E00E946E1381E469810E94001555
:100C000082E00E946E1389E569810E94001582E0EE
:100C10000E946E138EE269810E94001582E00E949C
:100C20006E1383E569810E94001582E00E946E13B5
:100C300089E569810E94001582E00E946E1383E5B8
:100C400069810E94001582E00E946E138EE2698124
:100C50000E94001582E00E946E1384E469810E9464
:100C6000001582E00E946E1384E469810E940015E1
:100C700082E00E946E1386E469810E94001582E082
:100C80000E946E1380E369810E94001582E00E9439
:100C90006E1381E369810E94001581E00E946E134A
:100CA0008981B8010E943F148E81813609F03FC0CE
:100CB00081E00E946E138981B8010E943F1485E093
:100CC0000E946E1380E069810E94001582E00E94FC
:100CD0006E1380EC69810E94001582E00E946E1301
:100CE00080E069810E94001582E00E946E1380E01E
:100CF00069810E94001582E00E946E138E816981D5
:100D00000E9400150E94F21680914005882379F018
:100D10000E94B1186091BC057091BD058AE090E019
:100D20000E94994F87E791E06CE00E943318269665
:100D30000FB6F894DEBF0FBECDBFCF91DF911F91EC
:100D40000F91FF90EF900895CF93DF93C0E9D1E02A
:100D500088E893E1FE013197F1F70197D9F70E94F6
:100D6000F2160E94011788E893E1FE013197F1F72E
:100D70000197D9F70E94FE160E94F516E9CF1F933E
:100D80000E94DE010E942617882369F50E94D9007F
:100D900080933F05863091F40E94F5160E948E2CB8
:100DA0000E94011728E088E190E00FB6F894A8951A
:100DB000809360000FBE2093600009C01FB7F894B5
:100DC00082E390E060913F050E943F521FBF28E000
:100DD00088E190E00FB6F894A895809360000FBE6C
:100DE0002093600009C01FB7F89482E390E00E944E
:100DF0000B5280933F051FBF80913F058430C9F09F
:100E0000853038F4823079F0833080F48130E1F439
:100E100007C08730A1F08830A9F08530A9F40CC054
:100E20000E947A331BC00E945F3818C00E94783439
:100E300015C00E941A3112C00E94B1350FC00E9425
:100E4000FB2D0CC00E94362C88E080933F0582E386
:100E500090E068E00E943F520E94362C0E94A40657
:100E600080E090E01F9108950F931F93DF93CF933D
:100E700000D00F92CDB7DEB7182F85E090E02B831E
:100E80004A8369830E941A4DFC012B814A81698142
:100E9000009729F010836183428323830483CF0169
:100EA0000F900F900F90CF91DF911F910F910895A8
:100EB0001F93182F85E090E00E941A4DFC010097C7
:100EC00009F441C0108211821282138214821430FC
:100ED00019F1153048F41130A1F0113070F01230D2
:100EE00091F0133081F514C01630F1F01630C0F0D7
:100EF000173019F1183039F522C084EA818384E073
:100F000005C080EC1FC082EB818381E082831BC01F
:100F100080E8808388EA16C080E2818380E80BC085
:100F200080E880838EEA0EC080E880838AEC81832B
:100F30008FE9828387E1838306C088E803C08CE859
:100F4000808384E28183CF011F9108954F925F9245
:100F50006F927F928F929F92AF92BF92CF92DF92C9
:100F6000EF92FF920F931F93CF93DF93B82EA62E8D
:100F70003A012901480186010E9448110E943F114F
:100F80008A309105D8F30E94E9109C01EC01CC0F46
:100F9000DD1F83E0220F331F8A95E1F7C20FD31FB5
:100FA0009E0140E050E060E67AEE80E090E0621B57
:100FB000730B840B950B24E731E040E050E00E9476
:100FC000C84C822F0E94641180E00E947116882311
:100FD00009F043C0CE018051974264E771E00E945E
:100FE0007F4C862F67FD80E00E946411BB2019F0C2
:100FF0008FE36B2D02C08BE360E00E9480118CE0D8
:101000000E9464115C9A60E573EC80E090E00E94BD
:101010008A13882341F4C301B201A40197010E94FD
:101020004315882319F00E94621617C080E66B2DC5
:101030000E94801182E00E94641180E06B2D0E946A
:10104000801182E00E9464118A2D6B2D0E94801114
:1010500082E00E94641180E001C081E0DF91CF91C5
:101060001F910F91FF90EF90DF90CF90BF90AF90C6
:101070009F908F907F906F905F904F9008958038F1
:1010800049F1813818F4882331F02CC08438C9F034
:101090008C3841F516C0683819F1693838F462386F
:1010A00071F0643851F06032E9F409C0623B29F014
:1010B000603C19F0643AB1F413C082E0089583E013
:1010C000089566516F3070F4E62FF0E0EA5DFD4F51
:1010D000808108956E3A21F06A3C31F0683A11F44B
:1010E00084E0089580E0089582E00895EF92FF92F1
:1010F0000F931F93CF93DF93182F062F85E090E077
:101100000E941A4DE82EE7017E01F92EE701209793
:10111000C1F1812FB7010E94F712882369F50F5F93
:10112000802F0E946411B7016F5F7F4F812F0E9453
:10113000F712882309F5802F0E946411B7016E5FB2
:101140007F4F812F0E94F7128823B1F4802F0E94D5
:101150006411B7016D5F7F4F812F0E94F7128823C2
:1011600059F4802F0E946411B7016C5F7F4F812F6B
:101170000E94F712882329F0CE010E94B44DC0E0EE
:10118000D0E0CE01DF91CF911F910F91FF90EF90B2
:101190000895BF92CF92DF92EF92FF920F931F9329
:1011A000CF93DF93D82EB62E042F842F90E00E9489
:1011B0001A4DE82EE7017E01F92EE701209709F18B
:1011C000B394CC2410E00150104009C08D2D0E9432
:1011D000F712882389F48B2D0E946411C3942C2D5F
:1011E00030E0BE01620F731F201731077CF38D2D95
:1011F0000E94F712882329F0CE010E94B44DEE24FC
:10120000FF24C701DF91CF911F910F91FF90EF90C5
:10121000DF90CF90BF9008950F931F93CF93DF93EC
:10122000182F062FEA01209771F18881612F0E9403
:101230000015882341F50F5F802F0E946E1389816E
:10124000612F0E9400158823F1F4802F0E946E13F5
:101250008A81612F0E9400158823A9F4802F0E94A3
:101260006E138B81612F0E940015882361F4802FFB
:101270000E946E138C81612F0E94001591E08823DB
:1012800019F490E001C091E0892FDF91CF911F9177
:101290000F910895DF92EF92FF920F931F93CF93D8
:1012A000DF93F82EEA01209719F1D62ED394EE247D
:1012B000022F10E0015010400AC080816F2D0E9463
:1012C00000158823A9F48D2D0E946E13E3942E2D12
:1012D00030E0FE01E20FF31F2017310774F3808125
:1012E0006F2D0E94001591E0882319F490E001C051
:1012F00091E0892FDF91CF911F910F91FF90EF9097
:10130000DF900895BF92CF92DF92EF92FF920F93FA
:101310001F93DF93CF9300D0CDB7DEB7D82EB62E74
:101320007A014115510509F4DAC0C62EC394DA01D9
:1013300011960D911C911297F801808161810E9494
:101340003F088983882309F4CAC08D2D6B2DA8011D
:101350000E940C09882309F0C2C089818150823023
:1013600008F4BFC086E00E946E138D2D8E010F5FC2
:101370001F4FB8010E943F14882361F0B0C081E084
:101380000E946E138D2D6B2D702F0E943F148823A9
:1013900019F0A5C0B02E012F2981203681F3D70185
:1013A0001196ED91FC9112978181281779F030E028
:1013B00090E0809590952817390741F08D2DBE015A
:1013C0006E5F7F4F0E943F1492E08CC086E00E94C7
:1013D0006E13D7011196ED91FC911297998181813D
:1013E000981799F01396ED91FC91149780816D2DCB
:1013F0000E940015882309F072C0F70180818230B5
:1014000030F086E00E946E1302C0BB242CC0BB24C7
:10141000B39429C08D2DB8010E943F14882309F090
:101420005EC086E00E946E13D7011196ED91FC918B
:101430001297998181819817C9F01396ED91FC91CB
:101440001497EB0DF11D80816D2D0E9400158823EE
:1014500009F045C0B394F7018081B81638F486E0EE
:101460000E946E1303C08E010F5F1F4FD7011196AC
:10147000ED91FC911297998181819817B1F0F70154
:101480008081B81638F211C0D7011396ED91FC9106
:101490001497E80FF91F80816D2D0E940015882395
:1014A000F1F48C2D0E946E13B3948B2D90E0F70114
:1014B000208130E021503040821793072CF38217AF
:1014C000930779F40380F481E02DE80FF91F808100
:1014D0006D2D0E94001591E0882321F402C091E057
:1014E00001C090E0892F0F900F90CF91DF911F9155
:1014F0000F91FF90EF90DF90CF90BF9008950F93E2
:101500001F93CF93DF93EC018B01009709F44CC03C
:101510006115710509F448C089819A81009709F421
:1015200043C08881882329F02B813C812115310516
:10153000D9F18B5FD8018C9390E00E941A4DFC0189
:101540009C01009719F4F801108230C0A981BA817A
:101550008C918083A981BA8111968C918183A98114
:10156000BA8112968C918283A981BA8113968C914B
:101570008383A981BA8114968C911497848360E047
:101580000FC0862F90E0AF01480F591FAB81BC817F
:10159000A80FB91F8C91DA0115968C9315976F5F80
:1015A0008881681770F302C020E030E0C901DF9144
:1015B000CF911F910F910895AF92BF92CF92DF927A
:1015C000EF92FF920F931F93DF93CF930F92CDB7BC
:1015D000DEB7B82E6B016115710509F402C185E013
:1015E00090E00E941A4D8C017C01009709F4FBC029
:1015F000DC0112961C921E92119714961C921E9258
:1016000013971C92F601808161810E943F088983B3
:10161000882309F446C0813011F08330D1F582E08F
:1016200090E00E941A4DBC01D80112969C938E93B3
:101630001197009709F4D2C08B2D0E943F14D80156
:101640001196ED91FC911297882311F0CF01C1C042
:101650008081803651F4CF010E94B44DD80112969A
:101660001C921E921197C80123C0BF016F5F7F4F6C
:101670008B2D0E943F14882309F4B5C0F8018181A5
:1016800092810E94B44DD80112961C921E9211971D
:10169000A5C08B2DBE016F5F7F4F0E943F14882332
:1016A00011F0C7019CC0A980BA2DB03649F4C80119
:1016B0000E94B44D8B2DB6010E94DC0A7C0193C0C0
:1016C000F6018181A81651F02A2D30E090E0809536
:1016D00090952817390709F064C007C0D601149601
:1016E0008C911497F801808303C081E0D8018C931A
:1016F000F801808190E00E941A4DD80114969C93C5
:101700008E931397009709F469C0CC2416C0F80192
:10171000638174816C0D711D8B2D0E943F14882391
:1017200059F0D80113968D919C9114970E94B44D55
:10173000F8011482138252C0C394D8018C91C81648
:1017400030F382E090E00E941A4DBC01F8019283D0
:101750008183009751F4838194810E94B44DD80114
:1017600014961C921E92139739C08B2D0E943F1421
:10177000882361F4D80111966D917C9112976F5F67
:101780007F4F8B2D0E943F14882369F1F8018381DC
:1017900094810E94B44DD80114961C921E92139706
:1017A00014C082E090E00E941A4DD80112969C93DA
:1017B0008E931197009791F0FC01A192BF018B2DA0
:1017C0000E943F14882379F0D80111968D919C9145
:1017D00012970E94B44DF80112821182C8010E9432
:1017E000B44DEE24FF24C7010F90CF91DF911F91DC
:1017F0000F91FF90EF90DF90CF90BF90AF90089542
:101800000F931F93CF93DF93182FFB01EA013097BB
:10181000E9F12097D9F18881882301F18B819C819E
:101820000097E1F08181612F0E940912882371F5F0
:1018300082E00E94641100E00EC0EB81FC81E00FA9
:10184000F11D8081612F0E9409128823F9F482E042
:101850000E9464110F5F8881081778F3E981FA818B
:101860003097A1F08081612F0E940912882371F4C2
:1018700082E00E946411E981FA818181612F0E94D6
:10188000091291E0882319F490E001C091E0892FBA
:10189000DF91CF911F910F9108950F931F93CF93D5
:1018A000DF93EC018B010097D9F161157105C1F14E
:1018B00089819A810097A1F18881882329F02B8161
:1018C0003C812115310561F18E5FD8018C9390E048
:1018D0000E941A4DFC019C01009719F4F801108236
:1018E00021C0A981BA818C918083A981BA81119686
:1018F0008C911197818360E00FC0862F90E0AF013B
:10190000480F591FAB81BC81A80FB91F8C91DA0118
:1019100012968C9312976F5F8881681770F302C0DC
:1019200020E030E0C901DF91CF911F910F91089520
:101930000F931F93DF93CF930F92CDB7DEB78C0138
:1019400083E090E069830E941A4DFC016981009751
:1019500019F0128301836083CF010F90CF91DF9143
:101960001F910F910895DF92EF92FF920F931F93B3
:10197000DF93CF93CDB7DEB7DA8483E090E00E94A7
:101980001A4D7C018C01009739F1FC01D0828D2D1C
:1019900090E00E941A4DF70192838183009731F401
:1019A000C7010E94B44D00E010E016C0CE010B96B6
:1019B000E82FF92FAF0120E030E00CC0F701A18142
:1019C000B281A20FB31FFA0180818C932F5F3F4F2A
:1019D0004E5F5F4F2D1590F3C801CF91DF911F919E
:1019E0000F91FF90EF90DF900895CF92DF92EF92EA
:1019F000FF920F931F93CF93DF938C01F62E83E01A
:101A000090E00E941A4DC82EE6016E01D92EE60123
:101A10002097E1F01A821982188201151105B1F0A0
:101A2000FF20A1F08F2D90E00E941A4D9A838983A8
:101A3000009731F4C6010E94B44DC0E0D0E006C06A
:101A4000B8014F2D50E00E944C4FF882CE01DF913B
:101A5000CF911F910F91FF90EF90DF90CF9008955D
:101A6000CF93DF93EC01009759F089819A81009719
:101A700021F00E94B44D1A821982CE010E94B44D09
:101A8000DF91CF910895CF93DF93EC01009799F008
:101A900089819A81009721F00E94B44D1A8219829F
:101AA0008B819C81009721F00E94B44D1C821B8287
:101AB000CE010E94B44DDF91CF910895EF92FF9235
:101AC0000F931F93CF93DF93082F162F85E090E09D
:101AD0000E941A4DE82EE7017E01F92EE7012097BA
:101AE00009F441C01A8219821C821B821882802F3D
:101AF000612F0E947608FC019A838983009771F117
:101B0000808161810E943F08882321F4C7010E94DF
:101B1000430D27C08150823030F186E00E9464116D
:101B2000E981FA818181602F0E940912882381F462
:101B3000812F8F5F0E946411E981FA81448148837B
:101B4000802F612F0E94C9089C838B83009759F4D2
:101B500089819A810E94B44D1A821982CE010E9415
:101B6000B44DC0E0D0E0CE01DF91CF911F910F9135
:101B7000FF90EF900895CF92DF92EF92FF921F9324
:101B8000DF93CF930F92CDB7DEB7162F642F298343
:101B90000E945E0D6C012981009761F0812F622FF8
:101BA000A6010E948209882329F0C6010E94430DE4
:101BB000CC24DD24C6010F90CF91DF911F91FF90BF
:101BC000EF90DF90CF900895AF92BF92DF92EF92A7
:101BD000FF920F931F93CF93DF93082F5B01D42EB7
:101BE00085E090E00E941A4D7C01EC01009761F1C4
:101BF000802F0E9458078C019A838983009721F4D3
:101C0000C7010E94B44D10C0A114B104C9F0DD2079
:101C1000B9F08D2D90E00E941A4D9C838B83009724
:101C200031F4C7010E94430DC0E0D0E00DC0B50102
:101C30004D2D50E00E944C4FD882F801D48204C050
:101C4000F701148213821082CE01DF91CF911F9190
:101C50000F91FF90EF90DF90BF90AF900895AF92FB
:101C6000BF92CF92DF92EF92FF920F931F93CF9389
:101C7000DF938C015B01F42E0097A9F185E090E0E1
:101C80000E941A4D6C01EC01009779F1F8018081F6
:101C900061814281238104810E9434079A83898370
:101CA000009721F4C6010E94B44D1DC0A114B104D7
:101CB000A9F0FF2099F08F2D90E00E941A4D9C838F
:101CC0008B83009721F4C6010E94430D0CC0B5011F
:101CD0004F2D50E00E944C4FF88207C0F60114824D
:101CE0001382108202C0C0E0D0E0CE01DF91CF911C
:101CF0001F910F91FF90EF90DF90CF90BF90AF902A
:101D000008958F929F92AF92BF92CF92EF92FF92DF
:101D10000F931F93DF93CF9300D00F92CDB7DEB711
:101D2000182F570185E090E02B834A8369830E9436
:101D30001A4D7C014C012B814A816981009761F128
:101D4000812F0E943407F70192838183009721F449
:101D5000C7010E94B44D11C0A114B104C9F0CC2038
:101D6000B9F08C2D90E00E941A4DF7019483838383
:101D7000009731F4C7010E94430D882499240CC0B8
:101D8000B5014C2D50E00E944C4FF701C08204C0B9
:101D9000F701148213821082C4010F900F900F90EC
:101DA000CF91DF911F910F91FF90EF90CF90BF9057
:101DB000AF909F908F900895CF92DF92EF92FF9215
:101DC0000F931F93DF93CF930F92CDB7DEB76C01C4
:101DD000009709F44FC0FC0181819281009709F4BA
:101DE00049C085E090E00E941A4D7C018C0100976B
:101DF00009F442C085E090E00E941A4DF7019283F9
:101E00008183009721F4C7010E94B44D33C0DC01E7
:101E1000F60131812281832F922FFC0185E0019010
:101E20000D928150E1F7F601838194810097E9F0EA
:101E300040814423D1F0842F90E049830E941A4DC1
:101E4000F701948383834981009721F4C7010E949D
:101E5000430D10C0F6016381748150E00E944C4F25
:101E6000F6018081F701808307C0F7011482138295
:101E7000108202C000E010E0C8010F90CF91DF9106
:101E80001F910F91FF90EF90DF90CF900895CF9327
:101E9000DF93EC01009799F089819A81009721F0F6
:101EA0000E94B44D1A8219828B819C81009721F087
:101EB0000E94B44D1C821B82CE010E94B44DDF9162
:101EC000CF910895EF92FF920F931F93CF93DF93DB
:101ED000F82E862F8A014115510581F0BA010E9422
:101EE000DC0AEC01009761F08F2DB801AE010E9471
:101EF000000C882329F0CE010E94470FC0E0D0E0FB
:101F0000CE01DF91CF911F910F91FF90EF90089537
:101F1000CF92DF92EF92FF920F931F93DF93CF93B5
:101F200000D0CDB7DEB7082F162F84E090E02A83CB
:101F300049830E941A4DC82ED92E2A814981C11485
:101F4000D104F9F0802F612F0E94BB0DFC01D60156
:101F500011969C938E93009779F041815281802F46
:101F6000612F0E94620FF60193838283009749F4E8
:101F7000808191810E94430DC6010E94B44DCC2402
:101F8000DD24C6010F900F90CF91DF911F910F912B
:101F9000FF90EF90DF90CF900895CF92DF92EF9275
:101FA000FF920F931F93DF93CF930F92CDB7DEB7BE
:101FB0008C01009709F457C0DC0111968D919C911A
:101FC0001297009709F44FC085E090E00E941A4DE7
:101FD0007C016C01009709F448C082E090E00E9407
:101FE0001A4DFC01D70112969C938E93119700977E
:101FF00021F4C7010E94B44D36C0D80111968D91CD
:102000009C911297DC018D919C9111979183808313
:10201000F801838194810097F9F040814423E1F035
:10202000842F90E049830E941A4DD70114969C9307
:102030008E9313974981009721F4C7010E94470F9F
:1020400012C0F8016381748150E00E944C4FD801A6
:102050008C91F701808309C0D70114961C921E92BF
:1020600013971C9202C0CC24DD24C6010F90CF919F
:10207000DF911F910F91FF90EF90DF90CF90089527
:10208000CF93DF93EC01009799F0888199810097B5
:1020900021F00E94430D198218828A819B8100974A
:1020A00021F00E94470F1B821A82CE010E94B44D7C
:1020B000DF91CF910895AF92BF92CF92DF92EF92CE
:1020C000FF920F931F93CF93DF93D82EC62EB42E7B
:1020D000A22E84E090E00E941A4D8C01EC01009742
:1020E00009F46BC0198218821B821A828D2D6C2D07
:1020F0004B2D2A2D0E94880F7C01009711F4C801F6
:102100002EC0DC018D919C911197F8019183808301
:1021100011961C921E921296ED91FC9113970180DC
:10212000F281E02D2081213639F081E090E02C36DB
:1021300029F080E090E002C081E090E0882371F116
:10214000C7010E94401081E029C08D2D6C2D4B2DC0
:102150002A2D0E94880F7C01009731F4C8010E944B
:102160004010C0E0D0E029C0DC011296ED91FC9156
:1021700013970180F281E02D2081213639F081E032
:1021800090E02C3629F080E090E002C081E090E001
:10219000882321F0C7010E944010D7CF8823A9F6D9
:1021A000F70182819381D80113969C938E931297A5
:1021B00013821282C7010E944010CE01DF91CF919D
:1021C0001F910F91FF90EF90DF90CF90BF90AF9055
:1021D00008951F931FB7F89481E090E090939500C5
:1021E0008093940000000000000000000000000048
:1021F00000000000000000000000000000000000DF
:1022000000000000000000000000000000000000CE
:1022100000000000000000000000000000000000BE
:1022200000000000000000000000000000000000AE
:10223000000000000000000000000000000000009E
:1022400000000000000060919400709195006130E2
:10225000710579F080E090E020E83EE340E050E056
:102260000E94604C22E330E040E050E00E94A64C27
:1022700002C020E030E01FBFC9011F9108958FB751
:10228000F89420919400309195008FBFC901089572
:102290008CE08093900088E990E064E771E00E9410
:1022A0007D198FE08093910008951092910084E948
:1022B00090E060E070E00E947D1908951092910016
:1022C000089589B1817008951F93182F88E990E0CF
:1022D00064E771E00E947D198CE08093900084E9AE
:1022E00090E061E070E00E947D19C19A80E004C036
:1022F000C19BFECFC19A8F5F8117D0F31F910895C4
:102300000F931F93DF93CF930F92CDB7DEB7182FA4
:10231000062F0E94E910009709F475C08CE08093A5
:102320009000449A3C9A88E990E064E771E00E944A
:102330007D1984E990E061E070E00E947D19C19A06
:1023400088E080939000002311F11095198320E01C
:1023500030E010E0E7E0F0E041E050E09981BF01BB
:10236000621B730BDA0102C0AA0FBB1F6A95E2F76A
:102370009A2341F0BA01022E02C0660F771F0A9419
:10238000E2F7162B2F5F3F4F2830310539F7C19BFD
:10239000FECFC19A20E030E060E041E050E0F8E09C
:1023A00071E0ECE0CA01022E02C0880F991F0A9466
:1023B000E2F7812329F0E0939000002329F403C081
:1023C000F093900001116727C19BFECFC19A2F5F48
:1023D0003F4F2830310531F7002319F4662319F4F3
:1023E00004C0662311F48CE001C088E08093900063
:1023F000C19BFECFC19AC19BFECFC19A8CE0809356
:1024000090003C98449A0F90CF91DF911F910F91CB
:102410000895FF920F931F93DF93CF930F92CDB741
:10242000DEB7182F062F0E94801181E00E946411F0
:1024300034992AC088E990E064E771E00E947D1930
:1024400084E990E061E070E00E947D19C19A8CE01F
:1024500080939000FF24F39482E00E946411812F06
:10246000602F0E94801181E00E94641181E0349904
:1024700080E089838F2D843019F08981882359F772
:10248000998181E0992309F480E00F90CF91DF9149
:102490001F910F91FF900895DF93CF930F92CDB7C7
:1024A000DEB720E030E046B1407149832F5F3F4FF7
:1024B000009719F02817390719F04981442399F733
:1024C000998181E0992309F480E00F90CF91DF9109
:1024D0000895EF92FF920F931F93DF93CF930F9284
:1024E000CDB7DEB7E82E8B018CE0809390003C984E
:1024F000449A3499FECF84E990E061E070E00E9454
:102500007D1988E990E06AEB70E00E947D19C19A1C
:10251000C19BFECFC19A86B18071898388E990E022
:1025200064E771E00E947D19F80110828981882397
:1025300009F054C027E030E0FF24A0E067E070E03D
:1025400041E050E0B1E0C19BFECFC19A86B18071FD
:102550008983EE2061F089818823B9F4CA01022EB3
:1025600002C0880F991F0A94E2F7A82B0DC0898139
:10257000882359F0FB01E21BF30BCA0102C0880F4C
:10258000991FEA95E2F7A82BFB26215030409FEFD8
:102590002F3F3907C1F6F801A083C19BFECFC19A36
:1025A00086B18071898388E990E06AEB70E00E94CF
:1025B0007D19C19BFECFC19AEE2019F0FF2019F0C2
:1025C00007C0FF2029F0998181E0992341F004C0E0
:1025D000998181E0992319F480E001C081E00F9096
:1025E000CF91DF911F910F91FF90EF9008951F936E
:1025F0000E946912182F882391F10E94E910009718
:1026000071F18CE0809390003C9A88E990E06BEA4D
:1026100070E00E947D1984E990E061E070E00E9422
:102620007D19C19A88E080939000C19BFECFC19A2A
:1026300088E990E06FE871E00E947D19C19BFECFB0
:10264000C19A8CE0809390003C98449A88E990E08D
:102650006BEA70E00E947D19C19BFECFC19A812F69
:102660001F9108950F931F93182F062F882319F099
:102670008FE3612F02C08BE360E00E9480118AEF3C
:102680000E94641180E6612F0E94801182E00E9406
:10269000641180E0612F0E94801182E00E94641129
:1026A000802F612F0E94801182E00E9464111F918F
:1026B0000F91089589B18270089589B18095881F1E
:1026C0008827881F0895499B04C05F98579A80E027
:1026D000089581E00895579A5F9A08951F93182FDF
:1026E00088E890E064E771E00E947D1980E38093C0
:1026F000800084E890E061E070E00E947D19B19A6A
:1027000080E004C0B19BFECFB19A8F5F8117D0F3F8
:102710001F910895DF93CF930F92CDB7DEB79B0142
:10272000AC0180E090E0A0E0B0E063B16074698348
:102730000196A11DB11D211531054105510529F055
:1027400082179307A407B50719F06981662369F713
:10275000998181E0992309F480E00F90CF91DF9176
:102760000895EF92FF920F931F93DF93CF930F92F1
:10277000CDB7DEB7E82E8B0180E3809380002698EA
:102780002E9A1E99FECF84E890E061E070E00E94EE
:102790007D1988E890E06AEB70E00E947D19B19A9B
:1027A000B19BFECFB19A83B18074898388E890E0B1
:1027B00064E771E00E947D19F80110828981882305
:1027C00009F054C027E030E0FF24A0E067E070E0AB
:1027D00041E050E0B1E0B19BFECFB19A83B180748B
:1027E0008983EE2061F089818823B9F4CA01022E21
:1027F00002C0880F991F0A94E2F7A82B0DC08981A7
:10280000882359F0FB01E21BF30BCA0102C0880FB9
:10281000991FEA95E2F7A82BFB26215030409FEF45
:102820002F3F3907C1F6F801A083B19BFECFB19AC3
:1028300083B18074898388E890E06AEB70E00E943D
:102840007D19B19BFECFB19AEE2019F0FF2019F04F
:1028500007C0FF2029F0998181E0992341F004C04D
:10286000998181E0992319F480E001C081E00F9003
:10287000CF91DF911F910F91FF90EF9008951F93DB
:102880000E94B113182F882389F189B181FF2EC0CE
:1028900080E380938000269A88E890E06BEA70E0FD
:1028A0000E947D1984E890E061E070E00E947D194B
:1028B000B19A80E280938000B19BFECFB19A88E804
:1028C00090E06FE871E00E947D19B19BFECFB19A54
:1028D00080E38093800026982E9A88E890E06BEA47
:1028E00070E00E947D19B19BFECFB19A812F1F919C
:1028F00008950F931F93DF93CF930F92CDB7DEB759
:10290000182F062F89B181FF75C080E38093800066
:102910002E9A269A88E890E064E771E00E947D197B
:1029200084E890E061E070E00E947D19B19A80E255
:1029300080938000002311F11095198320E030E08E
:1029400010E0E7E0F0E041E050E09981BF01621B58
:10295000730BDA0102C0AA0FBB1F6A95E2F79A2334
:1029600041F0BA01022E02C0660F771F0A94E2F707
:10297000162B2F5F3F4F2830310539F7B19BFECF23
:10298000B19A20E030E060E041E050E0F0E271E038
:10299000E0E3CA01022E02C0880F991F0A94E2F7F1
:1029A000812329F0E0938000002329F403C0F093F1
:1029B000800001116727B19BFECFB19A2F5F3F4F77
:1029C0002830310531F7002319F4662319F404C0C7
:1029D000662311F480E301C080E280938000B19B04
:1029E000FECFB19AB19BFECFB19A80E38093800075
:1029F00026982E9A0F90CF91DF911F910F910895F5
:102A0000FF920F931F93DF93CF930F92CDB7DEB753
:102A1000182F062F0E94791481E00E946E131E99D0
:102A20002AC088E890E064E771E00E947D1984E89C
:102A300090E061E070E00E947D19B19A80E380939C
:102A40008000FF24F39482E00E946E13812F602F98
:102A50000E94791481E00E946E1381E01E9980E04B
:102A600089838F2D843019F08981882359F79981C2
:102A700081E0992309F480E00F90CF91DF911F91BD
:102A80000F91FF9008953F924F925F926F927F92C5
:102A90008F929F92AF92BF92CF92DF92EF92FF926E
:102AA0000F931F93DF93CF930F92CDB7DEB77C01C7
:102AB0006B014A015901380180E0BE016F5F7F4F11
:102AC0000E94B11389818B3319F4F701108206C07B
:102AD000833009F0E1C081E0F7018083F701808154
:102AE0008E010F5F1F4FB8010E94B11349808FE024
:102AF000382E342044FE0CC0F7018081B8010E94BA
:102B0000B1138981813109F0C7C0542C582601C006
:102B1000542C45FEC1C0F7018081BE016F5F7F4F1D
:102B20000E94B1138981882309F0B6C046FE08C00F
:102B3000F7018081B4010E94B1138981582602C037
:102B4000F401108247FE88C0F7018081BE016F5FEB
:102B50007F4F0E94B1130981802F8F70813019F44B
:102B6000F601808305C0882309F096C0F601108223
:102B7000802F807309F090C0502606FF0CC0F7012B
:102B80008081BE016F5F7F4F0E94B11389818A30BF
:102B900009F082C0582607FF61C0F7018081BE019D
:102BA0006F5F7F4F0E94B1130981802F8F70F601F4
:102BB0009081992321F48E3009F06EC005C09130C8
:102BC00019F4813009F068C0502604FF0FC0F701E6
:102BD0008081BE016F5F7F4F0E94B1138981982F62
:102BE0009F50903F08F058C0582601C080E2F50180
:102BF0008083802F8072F6019081913019F48823B0
:102C000019F44AC0882399F0F7018081BE016F5FF3
:102C10007F4F0E94B1138981982F9F709630E0F505
:102C2000982F907F9134C0F55826F301808300746B
:102C3000F6018081882319F4002381F02DC0002340
:102C400069F0F7018081BE016F5F7F4F0E94B11371
:102C50008981882319F020C0F6011082AA248E01F0
:102C60000F5F1F4F07C080E0B8010E94B113898138
:102C70005826A394A314B8F3F6018081813071F42F
:102C8000F7018081BE016F5F7F4F0E94B11381E029
:102C90009981591621F402C081E001C080E00F90B3
:102CA000CF91DF911F910F91FF90EF90DF90CF9028
:102CB000BF90AF909F908F907F906F905F904F905C
:102CC0003F9008955C98549A14BC15BC10928000F3
:102CD000109281002F98279A2E98269A5F9A579AD9
:102CE00008951F93CF93DF93182F882319F05C98D2
:102CF000549A15C02E98269A2F98279A5C98549A21
:102D0000C8ECD0E0FE013197F1F70E9463138823ED
:102D100021F00E94621681E01DC02197F1F72698EC
:102D20002E9A1123B1F482E484BD83E087BD16BCE2
:102D300081E085BD80E38093800088E890E064E7CF
:102D400071E00E947D198AE08093810080E4809385
:102D5000820080E0DF91CF911F9108956F927F9262
:102D60008F929F92AF92BF92DF92EF92FF920F935A
:102D70001F93CF93DF93D82E5B014A013901E801FD
:102D800002C0DD24D3948D2D0E9471168823C9F4CE
:102D900080E70E946E135C9A60EA76E881E090E03A
:102DA0000E948A13882349F4C501B401A3019E013E
:102DB00087010E944315882331F0DD2011F30E9422
:102DC000621681E001C080E0DF91CF911F910F91E9
:102DD000FF90EF90DF90BF90AF909F908F907F908B
:102DE0006F9008956F9A779A08956E9A769A0895DB
:102DF0006D9A759A08956C9A749A08956F98779859
:102E000008956E98769808956D98759808956C98C1
:102E100074980895249A2C9A0895259A2D9A0895C5
:102E200024982C98089525982D980895849A8C9A22
:102E3000089584988C980895869A8E9A0895869815
:102E40008E98089583988FB18870089582988FB175
:102E50008470089581988FB18270089580988FB1A1
:102E60008170089581E07B9980E07A9B8260799BF4
:102E70008460789B8860089588B1887F88B987B11D
:102E8000876087B911B8419A429A85E38A95F1F72C
:102E900080B1429897B1987F97B90895809138058D
:102EA0000895809338050895AF92BF92CF92DF9234
:102EB000EF92FF920F931F93DF93CF9300D0CDB784
:102EC000DEB7F82E89014A8369830E943C174A8144
:102ED000698187FDF8CF87B1876087B9FF2011F03E
:102EE000409A01C04098662319F0419A11B804C075
:102EF00041988FEF81B942B9429AB80180E090E0E1
:102F00000E94F9495B016C012BEA3AEA4AEA50E473
:102F10000E946A477B018C017F2D912F20E030E0D9
:102F200040E85FE30E94764987FD63C06E2D7F2DE8
:102F3000802F912F20E030E04FE753E40E941649A4
:102F400018160CF04FC0C601B50120E030E04AE78A
:102F500054E40E946748A62ED72EC82EB92E20E032
:102F600030E04AE755E40E946A477B018C017F2DDF
:102F7000912F20E030E040E85FE30E94764987FD32
:102F80002BC06E2D7F2D802F912F20E03FEF4FE73C
:102F900057E40E9416491816C4F46A2D7D2D8C2D15
:102FA0009B2D20E030E040E251E40E946A470E94FD
:102FB0008D4520E931E005C0C9010197F1F7615065
:102FC000704061157105C1F717C06E2D7F2D802FE0
:102FD000912F0E948D4502C061E070E0CB01019706
:102FE000F1F70AC06E2D7F2D802F912F0E948D4505
:102FF00001C061E06A95F1F780B1429897B1987F7E
:1030000097B90F900F90CF91DF911F910F91FF9083
:10301000EF90DF90CF90BF90AF9008951F9380E026
:1030200060E041E028E230E00E94541718E281E0BD
:1030300060E041E328E230E00E9454171150B9F7F4
:1030400080E060E040EC25E230E00E94541718E296
:1030500081E060E042E328E230E00E945417115022
:10306000B9F71F910895EF92FF920F931F93CF939B
:10307000DF93EC01E62E80E060E041E028E230E002
:103080000E9454178E01FF240AC0F80141918F015C
:1030900081E060E028E230E00E945417F394FE14CF
:1030A00018F4FF2DF83089F78E2D8930C0F080E0BC
:1030B00060E040EC28E230E00E9454170BC0FE01B3
:1030C000EF0DF11D81E060E0408128E230E00E94D8
:1030D0005417F394FE1418F4EF2DE03180F310929E
:1030E0003905DF91CF911F910F91FF90EF900895D7
:1030F0001F93182F80913A05882371F01A3071F0D0
:1031000080E060E041E028E230E00E945417109235
:103110003A051092390506C01A3021F481E08093F7
:103120003A0507C081E060E0412F28E230E00E94CC
:103130005417809139058F5F80933905883021F4C9
:1031400080E060E040EC05C0803139F480E060E070
:1031500042E028E230E00E94541780E090E01F91A6
:1031600008953D9A459A80E060E048E328E230E027
:103170000E94541780E060E04EE028E230E00E94B8
:10318000541780E060E046E028E230E00E945417E7
:1031900080E060E041E028E230E00E94541781E0E6
:1031A0008093380508958FEF81B98AEA82B90E9429
:1031B0003C1791E08A3A09F090E0892F08953D98F4
:1031C000459880E060E048E028E230E00E94541733
:1031D0001092380508953D9A459A80E060E04EE0EF
:1031E00028E230E00E94541781E08093380508956A
:1031F000F999FECF92BD81BD60BDFA9AF99A089502
:10320000F999FECF92BD81BDF89A80B50895CF920D
:10321000DF92EF92FF920F931F93CF93DF93D82EFD
:10322000EB018A012097D9F08FE0413A5807B8F4B2
:10323000CFB6F8948D2D0AC07C010894E11CF11CD6
:10324000EC0FFD1F60810E94F818C701E82FED19EF
:10325000F0E0E017F10780F3F999FECFCFBEDF91E0
:10326000CF911F910F91FF90EF90DF90CF90089535
:103270008F929F92AF92BF92CF92DF92EF92FF9286
:103280000F931F93CF93DF93982EE92E8B012FE09E
:10329000613A720710F5CB010E941A4DC82EE60163
:1032A0006E01D92EE6012097D1F08FB6F894892DC2
:1032B0009E2D0BC05C010894A11CB11C0E9400193A
:1032C000FE01EE0DFF1D8083C501E82EE918FF24E5
:1032D000E016F10678F38FBE02C0CC24DD24C601CF
:1032E000DF91CF911F910F91FF90EF90DF90CF90E2
:1032F000BF90AF909F908F9008952FB7F894FC01E6
:10330000718360832FBF08954FB7F894FC0120812B
:1033100031814FBFC90108951F932FB7F89484E6F8
:1033200090E090939900809398002FBF2FB7F89466
:1033300081E090E090939500809394002FBF1092CD
:10334000900082E0809371008FE0809391001FB71E
:103350000E944E1790914005992321F0882311F087
:103360000E94DF180E94FE160E9401170E94041797
:103370000E94071783B7817F83BFF89483B781606A
:1033800083BF7894889583B78E7F83BF1FBF1092C9
:103390007100109291000E94FB161F9108950E94E7
:1033A0004E1790914005992321F0882311F00E9437
:1033B000DF180E94FE160E9401170E9404170E9447
:1033C00007179FB783B7817F846083BFF89483B763
:1033D000816083BF7894889583B78E7F83BF9FBFBA
:1033E0000E94FB160895AF92BF92CF92DF92EF92A8
:1033F000FF920F931F93CF93DF93B62EA42E0E94BC
:10340000DC0E7C01009709F4A3C000E010E001C0CD
:103410008E0180E10E946E138B2D6A2DA7010E9400
:103420008209882381F4D70111966D917C911297BE
:103430008B2D0E94DC0A6C01009729F0FC01818130
:103440009281009711F4C8012FC0C6010E94CD0FD0
:10345000EC01009739F4C8010E94470FC6010E9491
:10346000470F72C00115110509F43FC0D80113962A
:103470008D919C9114970097C1F18C918823A9F1AB
:10348000F6016081680F68838B819C8170E00E94E7
:103490004D4E9C838B83009769F4C8010E94470FAF
:1034A000C6010E94470FCE010E94470FC7010E942C
:1034B000430D4EC0D8014C9113966C9113971496FE
:1034C0007C9150E00E944C4FF80180812B813C811F
:1034D000280F311DD6014C9113966C9113971496B9
:1034E0007C91C90150E00E944C4FC6010E94470FD9
:1034F000C8010E94470FE981FA818081982F915677
:103500009330B8F4C7010E94430D81E060E070E0A1
:1035100040E00E94E40D7C01009721F4CE010E945E
:10352000470F16C0E981FA818081813609F070CF9A
:1035300002C08C3649F4D70111962D913C91129717
:103540008181F901848364CFC7010E94430D02C0C9
:10355000C0E0D0E0CE01DF91CF911F910F91FF909D
:10356000EF90DF90CF90BF90AF9008950F931F938F
:10357000CF93DF93182F062FFA01309769F140811E
:10358000442351F12181328184E0B9010E94E40D8C
:10359000EC01009719F1612F402F0E94F3198C0163
:1035A000CE010E94430D01151105C1F0D8011196FD
:1035B000ED91FC911297309731F08081803919F4A8
:1035C0008181882321F0C8010E94470F07C0C801EC
:1035D0000E94470F80E003C08FEF01C081E0DF91C0
:1035E000CF911F910F9108950F931F93CF93DF9366
:1035F000182F062FFA012181328187E0B90140811D
:103600000E94E40DEC01009749F0612F402F0E94C9
:10361000F3198C01CE010E94430D02C000E010E0BE
:10362000C801DF91CF911F910F910895FC01009780
:10363000D1F02381348121153105A9F08081F90170
:1036400040E001C04F5F481718F491919838D1F7C6
:1036500050E090E00297481759073CF4240F351FBB
:10366000F9018281089580E0089580E0089500972F
:10367000E9F0DC011396ED91FC9114973097B1F0CD
:103680009081992399F0A181B281109779F080E01F
:103690000BC0ED91FD91309731F020812F3919F455
:1036A0002181283329F08F5F891798F3E0E0F0E05B
:1036B000CF010895009729F00E94371BFC01009765
:1036C00079F485E090E00E941A4DE82FF92F3097A9
:1036D00039F01482138212828FE9808388E3818318
:1036E000CF010895AF92BF92DF92EF92FF920F93B6
:1036F0001F93DF93CF9300D0CDB7DEB75C0185E099
:1037000090E04A8369830E941A4D8C017C014A81B2
:103710006981009709F45AC0DC0114961C921E922C
:103720001397F50180818C938F718F3131F48181F2
:1037300011968C93119782E005C0D80111961C92C6
:10374000119781E0F501E80FF11D9081F801928356
:10375000D82ED394913849F4F501ED0DF11D8081F7
:10376000D80112968C931297D394442379F1F801DF
:10377000828170E061507040282F30E026173707B3
:1037800064F490E00E941A4DD80114969C938E9395
:103790001397009711F080E013C0C8010E94B44D48
:1037A000EE24FF2413C0D8011396ED91FC911497D9
:1037B000E80FF11DD501A20FB11D9C9190838F5F81
:1037C000282F2D0DF8019281891768F3C7010F90FA
:1037D0000F90CF91DF911F910F91FF90EF90DF90AD
:1037E000BF90AF900895CF92DF92EF92FF920F9328
:1037F0001F93DF93CF930F92CDB7DEB7E82E062F3E
:10380000142F86E060E070E040E00E94E40D6C015F
:10381000009709F459C0DC011196ED91FC911297C3
:103820008FE982831196ED91FC9112971383C60163
:103830006E2D402F0E94F3198C01C6010E94430D8A
:103840000115110509F440C0F801838194810097A6
:1038500021F4C8010E94470F37C0D8016C9141E0A4
:103860000E94721B7C01C8010E94470FE114F10401
:1038700059F183E090E00E941A4D482F592F6A01B8
:10388000F7014281D6014C9312961C921E92119719
:1038900082818823D9F00381148101151105B1F0CB
:1038A000842F90E049830E941A4DF6019283818310
:1038B0004981009721F4C6010E94B44D05C0B801AA
:1038C00050E00E944C4F02C0CC24DD24C6010F9072
:1038D000CF91DF911F910F91FF90EF90DF90CF90EC
:1038E0000895CF92DF92EF92FF920F931F93DF9391
:1038F000CF930F92CDB7DEB78C010097B9F185E079
:1039000090E00E941A4DC82ED92EC114D10481F125
:10391000F6011282F8018081F6018083F80181812D
:10392000F601818314821382F801838194810097C8
:10393000F9F042814423E1F0842F90E049830E9412
:103940001A4DF601948383834981009721F4C601BF
:103950000E94B44D0BC0F8016381748150E00E9455
:103960004C4FF8018281F601828302C0CC24DD2411
:10397000C6010F90CF91DF911F910F91FF90EF90B3
:10398000DF90CF900895DF92EF92FF920F931F93F5
:10399000CF93DF93EC018B01009709F44CC06115C4
:1039A000710509F448C0DB0111968D919C91129725
:1039B000009709F440C06C918881680F70E0660F31
:1039C000771F89819A810E944D4E9A83898300973F
:1039D00091F1DD242AC0888190E0880F991FE98049
:1039E000FA80E80EF91E8D2D90E0880F991FD801FE
:1039F0001196ED91FC911297E80FF91F808191814A
:103A00000E94711CF701918380832881822F90E0AE
:103A1000880F991FE981FA81E80FF91F8081918150
:103A2000009749F02F5F2883D394D8018C91D81642
:103A300090F280E001C081E0DF91CF911F910F9162
:103A4000FF90EF90DF900895FC010097D1F0308156
:103A500080E090E020E013C0A181B281A80FB91FDF
:103A60000D90BC91A02D109741F05C91561729F450
:103A700011965C911197541731F02F5F029623171E
:103A800058F3A0E0B0E0CD0108951F93CF93DF93EA
:103A9000FC010097C9F1908120E030E080E011C086
:103AA000A181B281A20FB31FCD91DC911197209714
:103AB00029F048814C3811F410E023C08F5F2E5F4D
:103AC0003F4F891768F320C08B819C81611B810F58
:103AD000911D40E00E94721B0097B1F0FC01208113
:103AE0002F3941F42181223029F40E94B44D812FD5
:103AF0008F5F0BC01E5FFC01218121111F5F0E949F
:103B0000B44D6A81161700F380E0DF91CF911F91C9
:103B10000895CF92DF92FF920F931F93CF93DF937D
:103B20008C01009709F460C0DC0111968C9111970B
:103B3000882311F481E001C082E0F82EF394F801AB
:103B4000228127FDF394D80113968D919C911497AF
:103B5000009709F0F20E8F2D90E00E941A4DE82F89
:103B6000EF016E01D92EE6012097F1F1D8018C9179
:103B7000888311968C911197882319F0898382E0AC
:103B800001C081E0F801928197FF06C0FE01E80FB5
:103B9000F11D91E890838F5FFE01E80FF11DD801C0
:103BA00012969C911297908313962D913C911497A5
:103BB0002115310571F012964C911297442349F06A
:103BC0008F5FBE01680F711DCB01B90150E00E94EB
:103BD0004C4FCE016F2D0E94980C8C01009731F450
:103BE000CE010E94B44D02C000E010E0C801DF9198
:103BF000CF911F910F91FF90DF90CF900895CF93B9
:103C0000DF93EC01009759F08B819C81009721F0A4
:103C10000E94B44D1C821B82CE010E94B44DDF91E4
:103C2000CF9108952F923F924F925F926F927F9221
:103C30008F929F92AF92BF92CF92DF92EF92FF92BC
:103C40000F931F93DF93CF93CDB7DEB72C970FB6AB
:103C5000F894DEBF0FBECDBF89836A83A42E4901CD
:103C60002115310509F46AC20115110509F466C26E
:103C7000BB24CC24DD24EE24FF24B8E26B2E712C6F
:103C8000600E711EA0E24A2E512C400E511EF9E129
:103C90002F2E312C200E311EC80145969C838B831C
:103CA000D8019D96BE83AD83F8013E96F887EF83D9
:103CB000C80106969A87898725C2D40113968D91EB
:103CC0009C9114976C198C0D911D40E00E94721B01
:103CD000AC01B2E0CB0E009709F414C2FC01818163
:103CE0008111C394DA0112968C91B80EC7016B2D25
:103CF00070E04B875C870E944D4E9C017C014B8598
:103D00005C85009721F4CA010E94FF1D17C2FA01C9
:103D100080818F3909F073C081818230F1F4F8011C
:103D200080E007C09191D901AD0DB11D9C93D39452
:103D30008F5FDA0112969C911297891748F48630AA
:103D400089F706C0F901ED0DF11D1082D3948F5F44
:103D5000FA0192818917B0F3D2C18330F9F4E98571
:103D6000FA8580E007C09191D901AD0DB11D9C93FA
:103D7000D3948F5FDA0112969C911297891748F4B9
:103D8000863089F706C0F901ED0DF11D1082D3943C
:103D90008F5FFA0192818917B0F3B1C18A3109F0BE
:103DA00002C1DA0112968C9112978823B9F0F901B9
:103DB000ED0DF11DD8011C968C911C978083D39436
:103DC000FA018281823060F0F901ED0DF11D1D963E
:103DD0008C911D978083D39482E00AC080E008C054
:103DE00081E006C0F901ED0DF11D1082D3948F5FC3
:103DF000DA0112969C9112978917A0F380C1853938
:103E0000F9F4EF81F88580E007C09191D901AD0DFB
:103E1000B11D9C93D3948F5FDA0112969C911297F7
:103E2000891748F4853089F706C0F901ED0DF11DB9
:103E30001082D3948F5FFA0192818917B0F35FC12A
:103E40008F35A1F5DA0111968C9111978A3209F01C
:103E50002AC112968C9112978823B9F0F901ED0DC1
:103E6000F11DD80153968C9153978083D394FA0116
:103E70008281823060F0F901ED0DF11D54968C9134
:103E800054978083D39482E00AC080E008C081E028
:103E900006C0F901ED0DF11D1082D3948F5FDA0198
:103EA00012969C9112978917A0F329C18A3861F55F
:103EB000FA0182818823B9F0F901ED0DF11DD801D5
:103EC0009B968C919B978083D394FA018281823058
:103ED00060F0F901ED0DF11D9C968C919C9780830B
:103EE000D39482E00AC080E008C081E006C0F901F6
:103EF000ED0DF11D1082D3948F5FDA0112969C9123
:103F000012978917A0F3FBC08139F9F4ED81FE8186
:103F100080E007C09191D901AD0DB11D9C93D39460
:103F20008F5FDA0112969C911297891748F48830B6
:103F300089F706C0F901ED0DF11D1082D3948F5F52
:103F4000FA0192818917B0F3DAC08A39F9F4EB816A
:103F5000FC8180E007C09191D901AD0DB11D9C930A
:103F6000D3948F5FDA0112969C911297891748F4C7
:103F7000833089F706C0F901ED0DF11D1082D3944D
:103F80008F5FFA0192818917B0F3B9C08C3941F47F
:103F9000F901ED0DF11DD80158968C9158972EC05E
:103FA0008F3909F080C0FA0181818733F1F4F10182
:103FB00080E007C09191D901AD0DB11D9C93D394C0
:103FC0008F5FDA0112969C911297891748F484301A
:103FD00089F706C0F901ED0DF11D1082D3948F5FB2
:103FE000FA0192818917B0F38AC0853351F42D0DFF
:103FF000311DD8015D968C915D97F9018083D39432
:104000007EC0853471F5DA0112968C91129788235F
:10401000B9F0F901ED0DF11DD8015E968C915E9716
:104020008083D394FA018281823060F0F901ED0D32
:10403000F11D5F968C915F978083D39482E00AC0D4
:1040400080E008C081E006C0F901ED0DF11D10828D
:10405000D3948F5FDA0112969C9112978917A0F37F
:104060004EC08C34F1F4F20180E007C09191D90187
:10407000AD0DB11D9C93D3948F5FDA0112969C9184
:104080001297891748F4883089F706C0F901ED0DB9
:10409000F11D1082D3948F5FFA0192818917B0F3DA
:1040A0002EC0843311F080E024C0F30180E007C00B
:1040B0009191D901AD0DB11D9C93D3948F5FDA011D
:1040C00012969C911297891748F4833089F706C09D
:1040D000F901ED0DF11D1082D3948F5FFA019281E9
:1040E0008917B0F30CC0F901ED0DF11D1082D394C6
:1040F0008F5FDA0112969C9112978917A0F3CA017B
:104100000E94FF1DF4016281C61608F4D6CD85E039
:10411000B7014B2D0E94E40D7C01009779F0DC0182
:104120001196ED91FC911297A28269814A810E94B9
:10413000F3198C01C7010E94430D02C000E010E09A
:10414000C8012C960FB6F894DEBF0FBECDBFCF913D
:10415000DF911F910F91FF90EF90DF90CF90BF9074
:10416000AF909F908F907F906F905F904F903F9017
:104170002F900895FF920F931F93CF93DF93EC013D
:10418000009731F189819A810097F9F0FF2414C0DA
:104190000F2D10E0000F111F800F911FFC01808177
:1041A0009181009741F00E94FF1DE981FA81E00FA3
:1041B000F11F11821082F394288189819A81F2166D
:1041C00038F30E94B44D1A821982CE010E94B44D78
:1041D000DF91CF911F910F91FF900895AF92BF9201
:1041E000CF92DF92EF92FF920F931F93CF93DF93C3
:1041F0006C01A62E009709F444C0662309F441C05F
:1042000083E090E00E941A4DE82EE7017E01F92E2E
:10421000E7012097C1F118821A821982BB242EC0AF
:104220006A2D6B19C6018B0D911D41E00E94721B16
:104230008C01009721F4CE010E94BA2022C0FC011B
:104240008281982F9E5FB90E91819111B39487FD61
:10425000B39468816F5F688370E0660F771F898110
:104260009A810E944D4E9A838983E881F0E03197CC
:10427000EE0FFF1FE80FF91F11830083BA1480F2BD
:1042800002C0EE24FF24C701DF91CF911F910F914F
:10429000FF90EF90DF90CF90BF90AF900895FC011A
:1042A0000097F1F06623E1F06430D0F08081803730
:1042B000B9F44181413819F4428153E001C052E020
:1042C000862F90E00197242F30E02817390744F417
:1042D000CF01850F911D642F0E94EE209C0102C02A
:1042E00020E030E0C9010895BF92CF92DF92EF92B3
:1042F000FF920F931F93CF93DF93EC01CB01209795
:1043000009F44BC0642F0E944F218C01009709F4DF
:1043100044C0BB2439C08B2D90E0880F991FD80171
:104320001196ED91FC911297E80FF91FE080F18052
:10433000F7018381948162810E94EE206C010097D5
:1043400049F0D7018C91813629F411968C911197FF
:10435000882321F0C8010E94BA201FC068816F5FC6
:10436000688370E0660F771F89819A810E944D4EA5
:104370009A838983E881F0E03197EE0FFF1FE80F01
:10438000F91FD182C082B394F8018081B81618F267
:10439000C8010E94BA2080E001C081E0DF91CF9186
:1043A0001F910F91FF90EF90DF90CF90BF900895F5
:1043B0002F923F924F925F926F927F928F929F9235
:1043C000AF92BF92CF92DF92EF92FF920F931F9323
:1043D000DF93CF9300D000D0CDB7DEB789836A8357
:1043E0001A013C832B834115510509F413C1DA01ED
:1043F00013968D919C911497009709F40BC183E05B
:1044000090E00E941A4D6C014C01FC011082128256
:1044100011828B819C81009731F0DC011C921296F5
:104420001C921E92119782E060E070E040E00E94D2
:10443000E40D5C01009711F04424E3C0C6010E9422
:10444000B44DE8C0842D90E0880F991FD1011396D8
:10445000ED91FC911497E80FF91FE080F180E114D1
:10446000F10409F4CDC0F7015180C5C0D501119602
:10447000ED91FC91129752821196ED91FC91129759
:10448000D7018C9184608383C50169814A810E9430
:10449000F3198C01009709F4A3C0DC011196ED918A
:1044A000FC9112978081803909F0CEC081818823E8
:1044B00009F0CAC0D8011396ED91FC91149730977A
:1044C00009F498C04C91423008F494C08B819C81CF
:1044D000009709F473C0D70113962C91139730E01D
:1044E000852D90E011965C911197851B910982179B
:1044F00093070CF063C08C91813518F1EB81FC813E
:104500007080740E81819281672D70E00E944D4E03
:104510009C01AB81BC8112969C938E93119700975E
:1045200009F449C08C91280F311DF8014081638145
:104530007481C90150E00E944C4FAB81BC817C92D8
:104540003DC08181813819F0B2E07B2E02C0A3E02A
:104550007A2EAB81BC816C91640F671911968D9195
:104560009C91129770E00E944D4E9C01EB81FC8162
:10457000928381830097F9F08081A901480F511D32
:10458000D801EC91F0E0872D90E0E81BF90B139631
:104590002D913C911497280F391FCA01B901AF0121
:1045A0000E944C4FF8018081AB81BC819C91890FA6
:1045B00087198C9303C0EB81FC811082D80113967C
:1045C0008D919C9114976C910E944F213C01C801E0
:1045D0000E94470FC601B3010E94C31C882339F013
:1045E000C6010E94BA20C5010E94430D13C0C30139
:1045F0000E94BA205394F7018281851508F036CFC6
:104600004394D1018C91481608F41CCFC5010E9437
:10461000430D02C088249924C4010F900F900F907D
:104620000F90CF91DF911F910F91FF90EF90DF904E
:10463000CF90BF90AF909F908F907F906F905F9042
:104640004F903F902F900895C8010E94470FC8CF08
:10465000FF920F931F93CF93DF93EC0189819A818F
:104660000097F9F0FF2414C00F2D10E0000F111F68
:10467000800F911FFC0180819181009741F00E9481
:10468000BA20E981FA81E00FF11F11821082F394C0
:10469000288189819A81F21638F30E94B44D1A82DA
:1046A0001982CE010E94B44DDF91CF911F910F91DD
:1046B000FF900895CF93DF93EC018B819C8100974D
:1046C00021F00E94BA201C821B8289819A81009766
:1046D00021F00E94B44D1A821982CE010E94B44D7D
:1046E000DF91CF9108958F929F92AF92BF92CF9218
:1046F000DF92EF92FF920F931F93CF93DF938C0182
:10470000009709F482C0662309F47FC0643008F47E
:104710007CC0FC0180818F3609F077C081818138AF
:1047200019F4828143E001C042E0A62EBB2495012A
:104730002150304090E0821793070CF066C0F801DA
:10474000E40FF11D8081843809F05FC0C42EC3944A
:10475000F801EC0DF11DD080C394FD2DF13829F442
:10476000F801EC0DF11DD080C3948D2C9924C50166
:104770000397881699060CF048C085E090E00E94E7
:104780001A4D7C01EC01009709F441C08D2D90E099
:104790000E941A4D9A838983009721F4C7010E94D1
:1047A000B44D33C098012C0D311DB9014D2D50E091
:1047B0000E944C4FD882DC0CF801ED0DF11D808178
:1047C000853A11F0C7011FC0D394F801ED0DF11D1A
:1047D0006081D394613829F4F801ED0DF11D6081F9
:1047E000D394862F90E0A818B908A816B90654F0FB
:1047F000C8018D0D911D0E94EE20F70194838383E3
:10480000009729F4C7010E945A23C0E0D0E0CE01EE
:10481000DF91CF911F910F91FF90EF90DF90CF909C
:10482000BF90AF909F908F9008952F923F924F929C
:104830005F926F927F929F92AF92BF92CF92DF92E0
:10484000EF92FF920F931F93DF93CF930F92CDB709
:10485000DEB7B82EA62EC42E922E83E090E00E94E2
:104860001A4D8C01009709F424C1DC011C921296A8
:104870001C921E92119782E060E070E040E00E947E
:10488000E40D7C01009709F414C1DC011196ED914F
:10489000FC91129712821196ED91FC9112978C2D3A
:1048A000880F880F880F84608383D7011196ED915C
:1048B000FC91129782818F5F8283C7016B2D4A2DF5
:1048C0000E94F3196C01009709F40FC1FC01638188
:1048D00074816115710551F0C80140810E947421F5
:1048E000882309F002C16624639401C06624C601CE
:1048F0000E94470F6620C9F6C7010E94430DD801E8
:104900008C91882309F4D5C0992009F092C075E3F1
:10491000672E72E0772E69E3462E62E0562E50E94C
:10492000252E51E0352E01C09924892D90E09C015F
:10493000220F331FD8011196ED91FC911297E20FCF
:10494000F31F0190F081E02D0180F281E02DC08005
:10495000D18000D000D000D0EDB7FEB731962091C5
:10496000BC053091BD05ADB7BEB712963C932E93F2
:104970001197738262820196958384830E94884F87
:10498000EDB7FEB736960FB6F894FEBF0FBEEDBF7B
:10499000EE24FF242DC000D000D000D02DB73EB7AC
:1049A0002F5F3F4F8091BC059091BD05ADB7BEB75D
:1049B00012969C938E931197F90153824282F601CD
:1049C000A381B481AE0DBF1D8C91D90114968C9337
:1049D000149715961C920E94884F0894E11CF11CB4
:1049E000EDB7FEB736960FB6F894FEBF0FBEEDBF1B
:1049F000D60112968C911297E81620F4B7E0EB16C8
:104A0000F10449F680ED97E0F1013197F1F7019754
:104A1000D9F70E943217898389818823D1F389814C
:104A200082FF08C09394F8018081981609F07DCF29
:104A30007BCF9924892D90E0880F991FD80111967A
:104A4000ED91FC911297E80FF91F0190F081E02D94
:104A50000180F281E02D0190F081E02D638174816D
:104A600080E042810E94E40D7C01009711F16B2DE2
:104A70004A2D0E94F3196C01C7010E94430DC11415
:104A8000D104B9F0F60183819481009761F001802F
:104A9000F281E02D2081203931F4D6016C910E9401
:104AA00073237C0102C0EE24FF24C6010E94470F3D
:104AB00002C0EE24FF240115110519F0C8010E945F
:104AC0002823C7010F90CF91DF911F910F91FF9085
:104AD000EF90DF90CF90BF90AF909F907F906F90BE
:104AE0005F904F903F902F900895C7010E94430D13
:104AF000EE24FF24E3CFBF92CF92DF92EF92FF929A
:104B00000F931F93DF93CF930F92CDB7DEB7D82EBD
:104B1000C62EFA011982309709F468C08081873067
:104B200009F064C06181728180E047E00E94E40D79
:104B30007C01009709F460C06D2D4C2D0E94F31983
:104B40008C01C7010E94430D0115110509F454C0E1
:104B5000D8011196ED91FC9112978081803909F16D
:104B60003AC069816B9DB0011124625C7D4F80E089
:104B700047E00E94E40D7C010097F1F16D2D4C2D72
:104B80000E94F3198C01C7010E94430D0115110504
:104B900099F1D8011196ED91FC911297808180399D
:104BA00079F481818823B9F413968D919C9114979F
:104BB0006C910E9473237C01C8010E94470F1EC0A4
:104BC0008A3621F48181823831F409C0823619F4A1
:104BD0008181833821F0C8010E94470F0DC0C801B0
:104BE0000E94470F89818F5F898302C0E7E0BE2E54
:104BF0008981863008F4B5CFEE24FF24C7010F90D9
:104C0000CF91DF911F910F91FF90EF90DF90CF90A8
:104C1000BF9008958F929F92BF92CF92DF92EF92B2
:104C2000FF920F931F93DF93CF930F92CDB7DEB711
:104C3000E82EF62E6A01B22E80E068E672E04EE0C1
:104C40000E94E40D4C010097E9F16E2D4F2D0E945A
:104C5000F3198C01C4010E94430D0115110591F156
:104C6000D8011196ED91FC9112978081803991F4D1
:104C70008181882321F5C8010E94161B482FC80195
:104C800049830E94470F8E2D6F2D49812B2D0E9445
:104C9000152413C08A3621F48181823881F405C03D
:104CA000823669F48181833851F4C8010E94470F2C
:104CB0008E2D6F2DA6010E947B259C0105C0C80189
:104CC0000E94470F20E030E0C9010F90CF91DF91A3
:104CD0001F910F91FF90EF90DF90CF90BF909F902A
:104CE0008F900895FF920F931F93CF93DF93EC0162
:104CF00089819A810097F9F0FF2414C00F2D10E0EC
:104D0000000F111F800F911FFC018081918100977E
:104D100041F00E945A23E981FA81E00FF11F1182CC
:104D20001082F394288189819A81F21638F30E94C7
:104D3000B44D1A821982CE010E94B44DDF91CF91F9
:104D40001F910F91FF900895FF920F931F93CF93A0
:104D5000DF93EC01009731F18B819C810097F9F092
:104D6000FF2414C00F2D10E0000F111F800F911FA2
:104D7000FC0180819181009741F00E94B44DEB814C
:104D8000FC81E00FF11F11821082F39428818B8146
:104D90009C81F21638F30E94B44D1C821B82CE0116
:104DA0000E94B44DDF91CF911F910F91FF90089514
:104DB0002F923F924F925F926F927F928F929F922B
:104DC000AF92BF92CF92DF92EF92FF920F931F9319
:104DD000DF93CF930F92CDB7DEB71C01009709F494
:104DE00073C1683008F470C1DC018C91803809F01F
:104DF0009AC011968C911197813829F412968C9152
:104E0000129723E001C022E0C82EDD24C6010196DE
:104E100070E0861797070CF057C185E090E0298372
:104E20000E941A4D7C018C012981009709F44EC122
:104E3000C601029764E070E00E94934C862EF70151
:104E40006083F101E20FF11D8081D70111968C93EF
:104E500011972F5FF101E20FF11D808112968C9363
:104E6000862F90E0880F991F29830E941A4DF70121
:104E7000948383832981009729F02F5FCC24DD243C
:104E800099244DC0C701C4C0D7011396AD90BC9002
:104E90001497AC0CBD1C84E090E029830E941A4D4D
:104EA000FC01D50111969C938E93C601029629812F
:104EB000309709F4C4C0D101A20FB11D3C913083D9
:104EC000D501ED91FC91322F3F5FD101A30FB11DB0
:104ED0003C913183D7011396ED91FC911497EC0D21
:104EE000FD1D0190F081E02D322F3E5FD101A30F17
:104EF000B11D3C913283D7011396ED91FC9114972B
:104F0000EC0DFD1D0190F081E02D322F3D5FD101B0
:104F1000A30FB11D3C9133832C5F93946C019814C3
:104F200008F4B2CFD3C0873709F0CEC0F101818138
:104F3000813819F4828123E001C022E0482E5524F3
:104F4000622E772470E0C301840D951D68177907E0
:104F50000CF4BAC085E090E029830E941A4D7C01D0
:104F60008C012981009709F4B1C0DC011C921496D0
:104F70001C921E9213979EC0820D931DFC0190817E
:104F8000822F8F5F9238D9F4F101E80FF11D9081E3
:104F9000923009F054C0282F2F5FF101E20FF11D6C
:104FA0008081D70111968C9311972F5FF101E20F49
:104FB000F11D808112968C9312972F5F7BC0282F52
:104FC0002F5F943909F076C0F101E80FF11D80815F
:104FD000813829F4F101E20FF11D80812F5F982EB5
:104FE00096949694F7019082892D90E0880F991FEE
:104FF00029830E941A4DD70114969C938E93139780
:105000002981009721F0CC24DD24882450C0C701D9
:105010000E94B44D59C0F701A380B480AC0CBD1CF4
:1050200084E090E029830E941A4DFC01D50111967D
:105030009C938E93C60102962981309721F4C70173
:105040000E94A42641C0D101A20FB11D3C91308322
:10505000D501ED91FC91322F3F5FD101A30FB11D1E
:105060003C913183D7011396ED91FC911497EC0D8F
:10507000FD1D0190F081E02D322F3E5FD101A30F85
:10508000B11D3C913283D7011396ED91FC91149799
:10509000EC0DFD1D0190F081E02D322F3D5FD1011F
:1050A000A30FB11D3C9133832C5F83946C01891451
:1050B00008F4B1CF822F90E0AC014619570944158E
:1050C00055050CF459CF02C000E010E0C8010F9064
:1050D000CF91DF911F910F91FF90EF90DF90CF90D4
:1050E000BF90AF909F908F907F906F905F904F9008
:1050F0003F902F900895EF92FF920F931F93CF93BD
:10510000DF93E82EF62ECA010E945A1B009761F128
:1051100023E8FC01208311820E94891DEC01009785
:1051200019F129813A8183E0B90148810E94E40D97
:105130008C01CE010E94300D01151105A9F0C801A6
:105140006E2D4F2D0E94F319EC01C8010E94430DF2
:10515000209751F08B819C8168810E94D8268C0118
:10516000CE010E94470F02C000E010E0C801DF91AD
:10517000CF911F910F91FF90EF900895CF92DF9202
:10518000EF92FF920F931F93CF93DF93EC018B016C
:105190007A01FA0111821082FB011082009709F452
:1051A0008BC08881813409F087C08981843509F0FA
:1051B00083C06E01AC2FBD2DFD0101900020E9F7E9
:1051C0003197EA1BFB0BE33008F476C08A818B32FF
:1051D00009F074C0CE0167E872E00E946E4FC817F4
:1051E000D90711F481E065C0CE016FE872E00E943A
:1051F0006E4FC817D90711F482E05BC0CE0168E991
:1052000072E00E946E4FC817D90711F483E051C0B5
:10521000CE0160EA72E00E946E4FC817D90711F400
:1052200084E047C0CE0168EA72E00E946E4FC81762
:10523000D90711F485E03DC0CE0160EB72E00E9419
:105240006E4FC817D90711F486E033C0CE0168EB62
:1052500072E00E946E4FC817D90711F487E029C089
:10526000CE0162EC72E00E946E4FC817D907C1F4FC
:1052700088E0F80180836E01AC2FBD2DFD01019007
:105280000020E9F73197EA1BFB0BEB30F105B0F09A
:1052900089858D3399F42A96F701D183C0830EC096
:1052A000CE016CEC72E00E946E4FC817D90731F442
:1052B00089E0F801808302C083E001C080E0DF91D3
:1052C000CF911F910F91FF90EF90DF90CF900895B5
:1052D0006F927F928F929F92AF92BF92CF92DF9206
:1052E000EF92FF920F931F93DF93CF93CDB7DEB76B
:1052F000CE56D0400FB6F894DEBF0FBECDBFFE0134
:10530000B1968EE4DF011D928A95E9F78AE389A3BD
:1053100082E38AA380E38BA388A789A78DE0DE01BF
:10532000A459BF4F8C938AE0DE01A359BF4F8C93E1
:1053300000E010E06E010894C11CD11C7F016AE2FC
:10534000A62EB12CAC0EBD1E5AE6852E912C8C0ECD
:105350009D1E4BE6642E712C6C0E7D1EC601B8019D
:1053600040E250E00E94FB51912F402F202F205E01
:10537000210F312F32953F703A3010F4305D01C06B
:10538000395C3CA39F709A3010F4905D01C0995C29
:105390009DA3C80134E0969587953A95E1F78F7003
:1053A0008A3010F4805D01C0895C8EA3842F8F70D9
:1053B0008A3010F4805D01C0895C8FA3D601F501AD
:1053C0008D91280F982F92959F709A3010F4905DD0
:1053D00001C0995C90838F708A3010F4805D01C0A9
:1053E000895C81833296AE15BF0551F72195822FD6
:1053F00082958F708A3010F4805D01C0895CF40161
:1054000080832F702A3010F4205D01C0295CD30105
:105410002C93C7010E94E33A882339F5005E1F4FA1
:10542000B0E100301B0709F099CF8EE4F70111922B
:105430008A95E9F78AE389A380E38AA38BA38CA3E7
:105440008DA38EA38FA388A781E389A786E48AA76B
:105450008BA78DE08CA78AE08DA7C7010E94E33A55
:1054600091E0882319F490E001C091E0892FC2599E
:10547000DF4F0FB6F894DEBF0FBECDBFCF91DF91E7
:105480001F910F91FF90EF90DF90CF90BF90AF9062
:105490009F908F907F906F900895982F90539A309F
:1054A00058F09151963010F4875307C0982F9156B9
:1054B0009630A8F4875501C0892F982F9295907F38
:1054C000862F80538A3048F0862F8154863020F012
:1054D000862F8156863028F4865F892B089580E0D8
:1054E000089580E00895611182958F708A3010F4DC
:1054F000805D0895895C08952F923F924F925F924C
:105500006F927F928F929F92AF92BF92CF92DF92D3
:10551000EF92FF920F931F93DF93CF93CDB7DEB738
:10552000C850D3400FB6F894DEBF0FBECDBF18866B
:105530001F820E945A13882381F486E792E00E941A
:10554000E33A2AE088E190E00FB6F894A8958093BA
:1055500060000FBE20936000FFCF80E0BE016F5F50
:105560007F4FAE014E5F5F4F9E012D5F3F4F8E011B
:105570000C5F1F4FE5E0EE2EF12CEC0EFD1E0E949D
:10558000AE16882381F086E792E00E94E33A2AE093
:1055900088E190E00FB6F894A895809360000FBE64
:1055A00020936000FFCF8A81882381F086E792E014
:1055B0000E94E33A2AE088E190E00FB6F894A895BB
:1055C000809360000FBE20936000FFCF8FE792E0D2
:1055D0000E94E33A90E9292E91E0392E89E0482E85
:1055E000512C4C0E5D1E09E0A02E01E0B02EAC0E39
:1055F000BD1E8FEF0E94693A4C01009741F488EE7E
:1056000093E0F1013197F1F70197D9F7F2CFBE019D
:105610006A5F7F4FAE01495F5F4F0E94BE280F81D6
:105620001885F80101900020E9F73197E01BF10B94
:105630008E81893081F48FE792E00E94E33A2AE07C
:1056400088E190E00FB6F894A895809360000FBEB3
:1056500020936000FFCF883049F40115110531F027
:10566000EA3020F06E2E7724E0FF08C086E792E053
:105670000E94E33AC4010E94B44DBBCFD20180E046
:1056800091E01D920197E9F76201E6957201EE0E35
:10569000F11C0BC0D8018C9111966C910E944D2A7F
:1056A000F60181936F010E5F1F4FCE14DF0491F757
:1056B000C4010E94B44DF3013A97F595E7958985A9
:1056C0006A854B852C850D85BEE0EB2EF12CEC0E0A
:1056D000FD1ECE2E0E94810E7C01009771F0698123
:1056E0004B810E94F3198C01C7010E94430D0115E3
:1056F000110531F4C7010E94430D86E792E067C0AF
:10570000D501E0E0F2E01D923197E9F7D80111965A
:10571000ED90FC901297F701808161E00E94732A5E
:10572000D5018C93F701808160E00E94732AD50136
:1057300011968C93D8011196ED91FC91129781816D
:1057400061E00E94732AF5018283D8011196ED91E0
:10575000FC911297818160E00E94732AF501838396
:10576000CC2424C0D8011396ED91FC911497EE0D32
:10577000FF1D808161E00E94732AF7013296EE0FCF
:10578000FF1FEA0DFB1D8083D8011396ED91FC915C
:105790001497EE0DFF1D808160E00E94732AF701CF
:1057A000EE0FFF1FEA0DFB1D8583C394F801808176
:1057B000EC2CFF24C816B0F2F501EE0DFF1D8DE0B4
:1057C00084839AE09583C8010E94470FC5010E9417
:1057D000E33A0FCFDF93CF9300D00F92CDB7DEB770
:1057E0001B821A82BE016F5F7F4FAE014E5F5F4F1B
:1057F0000E94BE28882369F58981813061F42EE0FA
:1058000088E190E00FB6F894A895809360000FBEF1
:1058100020936000FFCF823019F40E94FB2D1CC042
:10582000833019F40E945F3817C0843019F40E9445
:10583000682912C0853019F40E948E2C0DC0863064
:1058400019F40E94C92C08C0873019F40E947C2AE0
:1058500003C086E792E002C08FE792E00E94264FE5
:105860000F900F900F90CF91DF910895EF92FF92DC
:105870000F931F93CF93DF930E94B1186091BC05E3
:105880007091BD058AE090E00E94994F6091BC053F
:105890007091BD0585ED92E00E94C54F88E893E1C7
:1058A00020E931E0F9013197F1F70197D9F70E942A
:1058B000FC386F9A779A78946091BC057091BD0519
:1058C00085EE92E00E94C54F88E893E120E931E03F
:1058D000F9013197F1F70197D9F780E9E82E81E0D6
:1058E000F82E8FEF0E94693A8C01009741F488EE00
:1058F00093E0F7013197F1F70197D9F7F2CF0E94C2
:10590000EA2BEC01C8010E94B44D209751F3CE015F
:105910000E94E33ACE010E94B44DE3CFDF92EF92B2
:10592000FF920F931F93DF93CF93CDB7DEB7A0976E
:105930000FB6F894DEBF0FBECDBFDE011196E0EBCF
:10594000F3E080E201900D928150E1F7DFB6F89428
:1059500000E010E07E010894E11CF11CC701B801D1
:1059600040E250E00E941352005E1F4F80E1003081
:105970001807A1F7DFBEA0960FB6F894DEBF0FBEE2
:10598000CDBFCF91DF911F910F91FF90EF90DF90EE
:10599000089587E78093A6052FE088E190E00FB691
:1059A000F894A895809360000FBE20936000FFCF0D
:1059B0008F929F92AF92BF92CF92DF92EF92FF921F
:1059C0000F931F93CF93DF93E82EF62EA89540E018
:1059D00050E00E947B256C01009729F500D000D093
:1059E00000D0EDB7FEB731968091BC059091BD0512
:1059F000ADB7BEB712969C938E9311978FEE92E03F
:105A00009383828383EF92E0958384830E94884FFF
:105A10008DB79EB706960FB6F8949EBF0FBE8DBF8A
:105A2000FF24F394CDC0A8958E2D6F2DA6010E9462
:105A30007B28EC01009729F500D000D000D0EDB70D
:105A4000FEB731968091BC059091BD05ADB7BEB74C
:105A500012969C938E9311978FEE92E0938382839C
:105A600083EF92E0958384830E94884F8DB79EB721
:105A700006960FB6F8949EBF0FBE8DBFFF24F39419
:105A80009CC0A89583E090E00E941A4D8C018E2D59
:105A90006F2DAE0198010E94D8214C01009729F585
:105AA00000D000D000D0EDB7FEB731968091BC0594
:105AB0009091BD05ADB7BEB712969C938E9311978A
:105AC0008FEE92E09383828383EF92E095838483C9
:105AD0000E94884F8DB79EB706960FB6F8949EBF6A
