:100000000C9492000C94CE020C943C030C94DF00F0
:100010000C94DF000C94DF000C94DF000C94DF00E4
:100020000C94DF000C94DF000C94A9490C947B4ADB
:100030000C946B030C940C530C94DF000C94DF00B5
:100040000C94DF000C94DF000C94DF000C94DF00B4
:100050000C94DF000C94DF000C94DF000C94DF00A4
:100060000C94DF000C94DF000C94DF000C94DF0094
:100070000C94DF000C94DF000C94DF000C94DF0084
:100080000C94A2030C94DF000C94DF000C94DF00AE
:100090000C94DF000C94DF00120110010200000834
:1000A000EB03442001000102DC0109023E000201D1
:1000B00000C0320904000001020201000524001002
:1000C0000104240206052406000107058203080036
:1000D000FF09040100020A000000070504021000E5
:1000E00001070583021000010403090418034400FA
:1000F000650061006E002000430061006D00650036
:100100007200610000001C034C00550046004100D5
:1001100020004300440043002000440065006D00BF
:100120006F00000011241FBECFEFD0E2DEBFCDBFB5
:1001300088E10FB6F89480936000109260000FBEC3
:1001400004B603FE23C0809121068737F9F410928C
:100150002106E3E0F0E089E080935700E491F0E0CD
:10016000E770F070F595E795EE2339F0E13041F056
:10017000E23049F4E0E0FCEF08C0E0E0F0EF05C059
:10018000E0E0F8EF02C0E0E0FEEF099516E0A0E045
:10019000B1E0E8E0F1EC00E00BBF02C007900D9287
:1001A000A831B107D9F711E1A8E1B6E001C01D926D
:1001B000AD3FB107E1F70E9457020C9482600C94A6
:1001C00000004F925F926F927F929F92AF92BF9288
:1001D000CF92DF92EF92FF920F931F93DF93CF9313
:1001E0000F92CDB7DEB780911F06882309F4DCC0DB
:1001F0000E940C1F6091FB117091FC118AE090E04D
:100200000E943B5D40E0E42E41E0F42E34E0A32E5A
:1002100031E0B32E00E911E023E1622E21E0722EDD
:1002200092E2492E91E0592E00D000D000D0EDB7D7
:10023000FEB731968091FB119091FC11ADB7BEB71E
:1002400012969C938E931197F382E282B582A482D8
:100250000E942A5DEDB7FEB736960FB6F894FEBF42
:100260000FBEEDBF0E948D1D8983898182FFFACF69
:1002700088E893E1F8013197F1F70197D9F700D0B9
:1002800000D000D0EDB7FEB731968091FB11909170
:10029000FC11ADB7BEB712969C938E931197F38263
:1002A000E282758264820E942A5DEDB7FEB73696BF
:1002B0000FB6F894FEBF0FBEEDBF0E948D1D89835F
:1002C000898182FFFACF88E893E1F8013197F1F74D
:1002D0000197D9F700D000D000D0EDB7FEB7319626
:1002E0008091FB119091FC11ADB7BEB712969C9313
:1002F0008E931197F382E282558244820E942A5D96
:10030000EDB7FEB736960FB6F894FEBF0FBEEDBF41
:100310000E948D1D8983898182FFFACF88E893E14D
:10032000F8013197F1F70197D9F787EFC82E81E0EF
:10033000D82E9924D6012D913D916D0100D000D089
:1003400000D0EDB7FEB731964091FB115091FC11F2
:10035000ADB7BEB712965C934E931197F382E282CB
:10036000358324830E942A5DEDB7FEB736960FB61B
:10037000F894FEBF0FBEEDBF0E948D1D8983898159
:1003800083FF03C0892D8F5F10C0898182FFF4CF66
:1003900088E893E1F8013197F1F70197D9F7939441
:1003A000F92DF73039F640CF80E00F90CF91DF91F3
:1003B0001F910F91FF90EF90DF90CF90BF90AF9083
:1003C0009F907F906F905F904F900895F894109257
:1003D000690010926A008FEF8CBB1DBA0E9444180E
:1003E00082E296E00E94144584E090E00E94B55FAE
:1003F0006C5F7F4F8F4F9F4F0E94005314B817B808
:1004000088E188B990E89AB983E88BB980B3807F96
:1004100080BB81B38F6081BB80E00FB6F89490936E
:100420006100809361000FBE0E94D8180E94561D83
:1004300080E090E00E94AD5F80931D0680E490E034
:100440000E94AD5F809320060E942E1F882339F002
:100450001092FC111092FB1110921F060BC086E83F
:1004600091E09093FC118093FB1181E080931F0633
:100470000E943A1F809164008160809364008091A3
:10048000640084608093640080916400806880933D
:1004900064008091650081608093650080916500B3
:1004A0008068809365007894E898E99808951F9390
:1004B0000E94E6010E94811D882379F50E94E100D7
:1004C00080931E06863091F40E94501D0E946D3567
:1004D0000E945C1D28E088E190E00FB6F894A89592
:1004E000809360000FBE2093600009C01FB7F8948E
:1004F00082E390E060911E060E94F35F1FBF0E949E
:10050000F45228E088E190E00FB6F894A895809323
:1005100060000FBE2093600009C01FB7F89482E30B
:1005200090E00E94AD5F80931E061FBF11E0809196
:100530001E06833099F0843028F4813051F18230E6
:1005400009F507C08530A1F0853068F08730D1F417
:1005500014C082E296E00E948738E9CF82E296E0FA
:100560000E94CC3DE4CF82E296E00E94FE40DFCFC5
:1005700082E296E00E94CD36DACF87E690E00E94D4
:100580008F34D5CF10931E0682E390E061E00E9485
:10059000F35F82E296E00E943134C9CF1F920F923E
:1005A0000FB60F920BB60F9211242F933F934F93D8
:1005B0005F936F937F938F939F93AF93BF93EF93CB
:1005C000FF930E9444180E94A01782E296E064E420
:1005D00040E00E94274582E296E00E94743682E263
:1005E00096E00E9414450E947F180097C1F080E0B9
:1005F00090E00E94AD5F80931D068A3A41F480E04E
:1006000090E060E00E94F35FF999FECF0FC080E0B8
:1006100090E06AEA0E94F35FF999FECF07C080E09C
:1006200090E060E00E94F35FF999FECF28E088E156
:1006300090E00FB6F894A895809360000FBE2093C9
:1006400060000E94E852AB01BC0184E090E00E948F
:10065000DD5FFF91EF91BF91AF919F918F917F915E
:100660006F915F914F913F912F910F900BBE0F9023
:100670000FBE0F901F9018951F920F920FB60F92FA
:100680000BB60F9211242F933F934F935F936F9369
:100690007F938F939F93AF93BF93EF93FF93499B68
:1006A00003C00E94531D04C00E945F1D0E94F61CDF
:1006B000FF91EF91BF91AF919F918F917F916F913A
:1006C0005F914F913F912F910F900BBE0F900FBEF6
:1006D0000F901F9018951F920F920FB60F920BB6A6
:1006E0000F9211242F933F934F935F936F937F93B8
:1006F0008F939F93AF93BF93CF93DF93EF93FF932A
:10070000C2E2D6E0CE016CEC40E00E942745CE016B
:100710000E947436CE010E941445FF91EF91DF9143
:10072000CF91BF91AF919F918F917F916F915F9189
:100730004F913F912F910F900BBE0F900FBE0F90D6
:100740001F90189518950E944D1D84EF91E020E9A7
:1007500031E0F9013197F1F70197D9F70E94591D5E
:100760000E94501D84EF91E020E931E0F9013197BA
:10077000F1F70197D9F70E945C1D0E94531D84EF89
:1007800091E020E931E0F9013197F1F70197D9F7CC
:100790000E945F1D0E94561D84EF91E020E931E028
:1007A000F9013197F1F70197D9F70E94621D809105
:1007B0001F06882359F10E940C1F6091FB11709154
:1007C000FC118AE090E00E943B5D80E391E068E0EC
:1007D0000E948E1E7B99FECF89E391E068E00E9423
:1007E0008E1E7A99FECF82E491E068E00E948E1E10
:1007F0007999FECF8BE491E068E00E948E1E789993
:10080000FECF84E591E069E00E948E1E08952F924C
:100810003F924F925F926F927F928F929F92AF9290
:10082000BF92CF92DF92EF92FF920F931F93DF93CD
:10083000CF93CDB7DEB761970FB6F894DEBF0FBE8A
:10084000CDBF0E94FB180E94F21884369105D8F3A0
:100850000E944D1D0E94A5178823E1F30E94501DA0
:100860008AE00E94141980E06FE040E050E00E94AE
:10087000E5060E94591D80911F06882379F00E9489
:100880000C1F6091FB117091FC118AE090E00E94B6
:100890003B5D8EE591E068E00E948E1E8E010F5F49
:1008A0001F4F82E0E82EF12CEC0EFD1EB3E0CB2EA4
:1008B000D12CCC0EDD1EA4E0AA2EB12CAC0EBD1E98
:1008C000F5E08F2E912C8C0E9D1EE6E06E2E712C85
:1008D0006C0E7D1E77E0472E512C4C0E5D1E68E09D
:1008E000262E312C2C0E3D1E80E0B80120E038E38E
:1008F0004CE95CE10E94CC1A80E0B70120E038E3CB
:100900004CE95CE10E94CC1A80E0B60120E038E3BB
:100910004CE95CE10E94CC1A80E0B50120E038E3AC
:100920004CE95CE10E94CC1A80E0B40120E038E39D
:100930004CE95CE10E94CC1A1E820E944D1D0E946F
:100940005C1D84E10E94141984EA60E00E94B919D8
:100950000E94591D0E94501D80E0B80120E038E33C
:100960004CE95CE10E94CC1A80E0B70120E038E35A
:100970004CE95CE10E94CC1A80E0B60120E038E34B
:100980004CE95CE10E94CC1A80E0B50120E038E33C
:100990004CE95CE10E94CC1A80E0B40120E038E32D
:1009A0004CE95CE10E94CC1A80E0B30120E038E31E
:1009B0004CE95CE10E94CC1A80E0B20120E038E30F
:1009C0004CE95CE10E94CC1A80E0B10120E038E300
:1009D0004CE95CE10E94CC1A80E0BE01675F7F4F6A
:1009E00020E038E34CE95CE10E94CC1A80E0BE01D3
:1009F000665F7F4F20E038E34CE95CE10E94CC1A4F
:100A000080E0BE01655F7F4F20E038E34CE95CE1A8
:100A10000E94CC1A80E0BE01645F7F4F20E038E383
:100A20004CE95CE10E94CC1A80E0BE01635F7F4F1D
:100A300020E038E34CE95CE10E94CC1A80E0BE0182
:100A4000625F7F4F20E038E34CE95CE10E94CC1A02
:100A50001F86898B0E944D1D0E945C1D90911F0670
:100A60008989992351F0882321F087E691E06FE08E
:100A700002C0C8016EE00E948E1E81E660E00E9406
:100A8000B91982E00E94141984E060E00E94B9194B
:100A90000E94591D0E94501D80E0B80120E038E3FB
:100AA0004CE95CE10E94CC1A80E0B70120E038E319
:100AB0004CE95CE10E94CC1A80E0B60120E038E30A
:100AC0004CE95CE10E94CC1A80E0B50120E038E3FB
:100AD0004CE95CE10E94CC1A80E0B40120E038E3EC
:100AE0004CE95CE10E94CC1A1E820E944D1D0E94BE
:100AF0005C1D84E10E94141980EC60E00E94B91929
:100B000082E00E9414198EED60E00E94B91982E023
:100B10000E9414198DEA60E00E94B91982E00E94D7
:100B200014198EEB60E00E94B91982E00E9414193A
:100B30008FEE60E00E94B91982E00E94141980E9EA
:100B400060E00E94B91982E00E94141980E060E020
:100B50000E94B9190E94591D0E94501D80911F06C4
:100B6000882309F4C1CE87E791E06CE00E948E1ED5
:100B7000BBCECF92DF92EF92FF920F931F93DF9342
:100B8000CF9300D000D000D0CDB7DEB76C0180E0AD
:100B9000BE016F5F7F4FAE014E5F5F4F9E012D5FC5
:100BA0003F4F8E010C5F1F4F95E0E92EF12CEC0EAC
:100BB000FD1E0E94AC09882309F0DDC085E00E947B
:100BC0001B1B80E069810E94AD1C82E00E941B1B00
:100BD00084EA69810E94AD1C82E00E941B1B84E0B4
:100BE00069810E94AD1C82E00E941B1B80E069812C
:100BF0000E94AD1C82E00E941B1B8EE069810E9456
:100C0000AD1C81E00E941B1B8E010A5F1F4F898172
:100C1000B8010E94EC1B8E81843A09F0ACC085E0DB
:100C20000E941B1B81E369810E94AD1C82E00E942F
:100C30001B1B80E569810E94AD1C82E00E941B1B8A
:100C400081E469810E94AD1C82E00E941B1B89E542
:100C500069810E94AD1C82E00E941B1B8EE26981AB
:100C60000E94AD1C82E00E941B1B83E569810E94EB
:100C7000AD1C82E00E941B1B89E569810E94AD1CAE
:100C800082E00E941B1B83E569810E94AD1C82E00B
:100C90000E941B1B8EE269810E94AD1C82E00E94B3
:100CA0001B1B84E469810E94AD1C82E00E941B1B17
:100CB00084E469810E94AD1C82E00E941B1B86E4D3
:100CC00069810E94AD1C82E00E941B1B80E3698148
:100CD0000E94AD1C82E00E941B1B81E369810E947F
:100CE000AD1C81E00E941B1B8981B8010E94EC1B96
:100CF0008E81813609F03FC081E00E941B1B8981F3
:100D0000B8010E94EC1B85E00E941B1B80E06981FA
:100D10000E94AD1C82E00E941B1B80EC69810E9436
:100D2000AD1C82E00E941B1B80E069810E94AD1C0B
:100D300082E00E941B1B80E069810E94AD1C82E062
:100D40000E941B1B8E8169810E94AD1C0E944D1D5B
:100D500080911F06882379F00E940C1F6091FB117F
:100D60007091FC118AE090E00E943B5D87E791E082
:100D70006CE00E948E1E26960FB6F894DEBF0FBE62
:100D8000CDBFCF91DF911F910F91FF90EF90DF903A
:100D9000CF900895CF93DF93C0E9D1E088E893E145
:100DA000FE013197F1F70197D9F70E944D1D0E947E
:100DB0005C1D88E893E1FE013197F1F70197D9F7BF
:100DC0000E94591D0E94501DE9CF0F931F93CF938E
:100DD000DF93182F062FEA01882351F08FE3612F4C
:100DE0000E943019209779F0CE0164E04FE309C0EA
:100DF0008BE360E00E943019209729F0CE0164E077
:100E00004BE30E9427458AEF0E94141980E6612F68
:100E10000E943019209729F0CE0164E040E60E943C
:100E2000274582E00E94141980E0612F0E9430194A
:100E3000209729F0CE0164E040E00E94274582E03F
:100E40000E941419802F612F0E943019209729F0D9
:100E5000CE0164E0402F0E94274582E00E941419D1
:100E6000DF91CF911F910F9108952F923F924F9252
:100E70005F926F927F928F929F92AF92BF92CF922A
:100E8000DF92EF92FF920F931F93DF93CF9300D0E7
:100E900000D0CDB7DEB74C011B012A013901FC821D
:100EA000EB82DA82C982009709F419C261157105D3
:100EB00009F415C24115510509F411C22115310576
:100EC00009F40DC20115110509F409C2E114F10478
:100ED00009F405C2C114D10409F401C2D8011D925C
:100EE0001C92EB81FC8180E2DF011D928A95E9F77B
:100EF00080E0BA010E945E1BA114B10431F0C5016B
:100F000060E0F20140810E942745D2018C918B3331
:100F100019F4F401108206C0833009F0E3C181E0C6
:100F2000D4018C93F4018081B3010E945E1BF82EE2
:100F3000882309F0F9C1A114B10431F0C50160E0C2
:100F4000D3014C910E942745F301D0808FE0682E99
:100F50006D20D5FECAC1D4FE1FC0D4018C916B8117
:100F60007C810E945E1BF82E882309F0DDC1A1144C
:100F7000B10439F0C50160E0EB81FC8140810E9441
:100F80002745AB81BC81EC90ED24F80180819181F3
:100F900090689183808301C0ED2C6B817C816F5FB1
:100FA0007F4FD4018C910E945E1BF82E882309F09C
:100FB000BBC1A114B10439F0C50160E0EB81FC8133
:100FC00041810E942745AB81BC8111962C911197DC
:100FD000F8018081918190649183808311968C9136
:100FE0001197882309F084C1E226D6FE20C0BD01F6
:100FF0006E5F7F4FD4018C910E945E1B882309F0A5
:101000008CC1A114B10439F0C50160E0EB81FC8111
:1010100042810E942745AB81BC8112968C91129728
:10102000E826F80180819181906291838083D7FEC8
:101030001AC16B817C816D5F7F4FD4018C910E94BE
:101040005E1B882309F069C1A114B10439F0C50100
:1010500060E0EB81FC8143810E942745AB81BC812C
:1010600013962C911397F80180819181906191835F
:1010700080831396DC9013978D2D8F70813019F437
:10108000D1018C9305C0882309F035C1F10110828C
:10109000D4FC34C1D5FC35C1E226D6FE27C06B8115
:1010A0007C816A5F7F4FD4018C910E945E1B8823F4
:1010B00009F033C1A114B10439F0C50160E0EB813E
:1010C000FC8146810E942745AB81BC8116962C91FC
:1010D0001697F801808191819260918380831696A2
:1010E0008C9116978A3009F00FC1E226D7FEBDC059
:1010F0006B817C81695F7F4FD4018C910E945E1B64
:10110000882309F00AC1A114B10439F0C50160E0D7
:10111000EB81FC8147810E942745AB81BC811796FA
:101120008C911797E826F8018081918191609183D5
:1011300080831796DC901797D4FE28C0BD01685FA6
:101140007F4FD4018C910E945E1B882309F0E5C07B
:10115000A114B10439F0C50160E0EB81FC81408548
:101160000E942745AB81BC8118962C911897F801F5
:101170008081918180689183808318968C911897E3
:101180008F50803F08F0C3C0E22606C080E2AB81EA
:10119000BC8118968C9318978D2D8072F1019081E7
:1011A000913019F4882319F4B5C0882351F16B816B
:1011B0007C81675F7F4FD4018C910E945E1BA114DC
:1011C000B10439F0C50160E0EB81FC8141850E94EA
:1011D0002745AB81BC8119962C911997F801808124
:1011E000918180649183808319968C911997982FAF
:1011F0009F70963008F08EC0807F813408F08AC0DE
:10120000E2268D2D8074D1019C91992319F48823B5
:1012100061F185C0882349F16B817C81665F7F4FD6
:10122000F40180810E945E1B882309F076C0A1141E
:10123000B10441F0C50160E0AB81BC811A964C91CC
:101240000E942745EB81FC812285D8018D919C91DC
:101250001197806211969C938E938285882309F062
:101260005EC0E22602C0F10110824B805C8080E10A
:1012700090E0480E591E00E013C0D4018C91B201D9
:101280000E945E1BA114B10431F0C50160E0F201BF
:1012900040810E942745D2018D912D01E8260F5FE4
:1012A000061558F3F10180818130F1F5D4018C915C
:1012B00069817A810E945E1BF82E8823A9F5A1140A
:1012C000B10439F0C50160E0E981FA8140810E94F2
:1012D0002745A981BA818C91E81621F525C0B3E094
:1012E000FB2E22C0A2E1FA2E1FC0F3E1FF2E1CC08C
:1012F000E4E1FE2E19C075E1F72E16C066E1F62E68
:1013000013C057E1F52E10C048E1F42E0DC039E1AD
:10131000F32E0AC020E1F22E07C0F82E05C09AE194
:10132000F92E02C08BE1F82E8F2D0F900F900F90A9
:101330000F90CF91DF911F910F91FF90EF90DF9071
:10134000CF90BF90AF909F908F907F906F905F9065
:101350004F903F902F9008952F923F924F925F921F
:101360006F927F928F929F92AF92BF92CF92DF92B5
:10137000EF92FF920F931F93DF93CF93CDB7DEB71A
:10138000E2970FB6F894DEBF0FBECDBF8EA378A74D
:101390006FA35AA749A73CA72BA71801FEA6EDA645
:1013A00046010E94E8522B013C018EA10E94051DBE
:1013B000882309F073C0C114D104E1F03327272D2D
:1013C000162D052DC301AA27BB278FA798ABA9AB64
:1013D000BAABC72CDD24EE24FF24C40167EC442DF6
:1013E000202F0FA5EC2C0E94E345C40160E840E0EB
:1013F0000E94274580E70E941B1B81E00E94F01C91
:101400008114910429F0C40168E840E00E94274556
:1014100060E573EC80E090E00E94371B882321F0A8
:101420009EA19923E9F51FC08FA198A569A57AA56A
:10143000AE014D5F5F4F9E012E5F3F4F8E010C5FEF
:101440001F4FE6E0EE2EF12CEC0EFD1E6E0108940F
:10145000C11CD11C54010E943507182F882391F01C
:10146000AEA1AA23F1F481E06FA178A549A55AA500
:101470002BA53CA58101EDA4FEA464010E94AC094A
:10148000182F19C08885EBA5FCA580838E85D10116
:101490008C938F85EDA5FEA580830DC010E101C062
:1014A00011E10E94F61C8114910429F0C40164E842
:1014B00040E00E942745812FE2960FB6F894DEBFE8
:1014C0000FBECDBFCF91DF911F910F91FF90EF9095
:1014D000DF90CF90BF90AF909F908F907F906F9054
:1014E0005F904F903F902F9008950F931F93DF933D
:1014F000CF9300D00F92CDB7DEB7182F85E090E0E4
:101500002B834A8369830E94BC5AFC012B814A8148
:101510006981009729F010836183428323830483C8
:10152000CF010F900F900F90CF91DF911F910F91EE
:1015300008951F93182F85E090E00E94BC5AFC018B
:10154000009709F441C01082118212821382148222
:10155000143019F1153048F41130A1F0113070F049
:10156000123091F0133081F514C01630F1F01630BE
:10157000C0F0173019F1183039F522C084EA8183A0
:1015800084E005C080EC1FC082EB818381E0828310
:101590001BC080E8808388EA16C080E2818380E8EF
:1015A0000BC080E880838EEA0EC080E880838AECDE
:1015B00081838FE9828387E1838306C088E803C043
:1015C0008CE8808384E28183CF011F9108952F925C
:1015D0003F924F925F927F928F929F92AF92BF9273
:1015E000CF92DF92EF92FF920F931F93DF93CF93EF
:1015F000CDB7DEB7E3970FB6F894DEBF0FBECDBF11
:10160000782E5FA34EA339A728A71BA70AA7FDA67C
:10161000ECA6DFA6CEA645010E94FB180E94F21898
:101620008A309105D8F30E94E8529B01AC018114E5
:101630009104D9F0272E382E492E5524AA27BB27EE
:1016400088AB99ABAAABBBABC52EDD24EE24FF243F
:10165000C40167EC422F222D08A9EC2C0E94E3451F
:10166000C40160E440E00E9427450E947F189C016D
:101670008C01000F111FF3E0220F331FFA95E1F7E1
:10168000020F131F980140E050E060E67AEE80E020
:1016900090E0621B730B840B950B24E731E040E074
:1016A00050E00E946A5A822F0E94141980E00E9422
:1016B000051D882309F0D5C08114910429F0C401C7
:1016C00060E840E00E942745C8018051974264E7E6
:1016D00071E00E94215A862F67FD80E00E94141954
:1016E000772059F08FE3672D0E94301981149104FF
:1016F00081F0C40164E04FE30AC08BE360E00E9424
:1017000030198114910429F0C40164E04BE30E9474
:1017100027458CE00E9414195C9A8114910429F0E9
:10172000C40168E840E00E94274560E573EC80E072
:1017300090E00E94371B8823D9F48EA19FA168A551
:1017400079A5AE014D5F5F4F9E012E5F3F4F8E0129
:101750000C5F1F4FE6E0EE2EF12CEC0EFD1E6E012D
:101760000894C11CD11C54010E943507882361F0E4
:101770000E94F61C8114910409F473C0C40164E84A
:1017800040E00E9427456DC08885AAA5BBA58C9323
:101790008E85ECA5FDA580838F85AEA5BFA58C9316
:1017A0008A812FE0222E2822672D0E943019811471
:1017B000910429F0C40164E04A810E94274582E037
:1017C0000E9414198E010A5F1F4F9FE0C92ED12C71
:1017D00081E0E82EF12CC7010C2C02C0880F991F64
:1017E0000A94E2F72C813D8182239323009789F0AC
:1017F000F8018081672D0E9430198114910431F025
:10180000C40164E0D8014C910E94274582E00E9407
:1018100014190894C108D1080F5F1F4FBFEFCB16F2
:10182000BFEFDB06C1F68E010A5F1F4F680115C0CE
:10183000F6018089672D0E9430198114910439F0D6
:10184000C40164E0D60150964C910E94274582E085
:101850000E9414190894C11CD11C8C2D801B821568
:1018600038F380E0E3960FB6F894DEBF0FBECDBF2D
:10187000CF91DF911F910F91FF90EF90DF90CF906C
:10188000BF90AF909F908F907F905F904F903F90D0
:101890002F900895803849F1813818F4882331F069
:1018A0002CC08438C9F08C3841F516C0683819F15D
:1018B000693838F4623871F0643851F06032E9F414
:1018C00009C0623B29F0603C19F0643AB1F413C0DE
:1018D00082E0089583E0089566516F3070F4E62F3A
:1018E000F0E0EB5EFD4F808108956E3A21F06A3C96
:1018F00031F0683A11F484E0089580E0089582E0C0
:101900000895AF92BF92CF92DF92EF92FF920F9322
:101910001F93DF93CF930F92CDB7DEB7D82EC62E8D
:101920005A0185E090E00E94BC5A8C017C0100972E
:1019300041F4A114B10409F49BC0C50168EC40E076
:1019400079C08D2DB80120E038E34CE95CE10E94BC
:10195000CC1A282F882309F070C0A114B10431F0EB
:10196000C5016CE0F80140810E942745C3948C2D8D
:101970000E941419B8016F5F7F4F8D2D20E038E36E
:101980004CE95CE10E94CC1A282F882309F055C04D
:10199000A114B10431F0C5016CE0F80141810E944D
:1019A00027458C2D0E941419B8016E5F7F4F8D2D35
:1019B00020E038E34CE95CE10E94CC1A282F882310
:1019C000E1F5A114B10431F0C5016CE0F8014281E8
:1019D0000E9427458C2D0E941419B8016D5F7F4F1E
:1019E0008D2D20E038E34CE95CE10E94CC1A282FD1
:1019F000882319F5A114B10431F0C5016CE0F80198
:101A000043810E9427458C2D0E941419B8016C5FF8
:101A10007F4F8D2D20E038E34CE95CE10E94CC1A29
:101A2000282F882351F4A114B10411F1C5016CE0F1
:101A3000F80144810E9427451BC0C80129830E94E8
:101A4000565B2981A114B10489F0203219F4C50133
:101A500064E409C0213219F4C50168E404C02130EE
:101A600029F4C5016CE440E00E942745EE24FF24E0
:101A7000C7010F90CF91DF911F910F91FF90EF90D1
:101A8000DF90CF90BF90AF9008954F925F927F927A
:101A90008F929F92AF92BF92CF92DF92EF92FF927E
:101AA0000F931F93DF93CF930F92CDB7DEB7882E9E
:101AB000762EA42E2901842F90E00E94BC5A6C013E
:101AC0008C01009741F44114510409F45BC0C20138
:101AD00068EC40E039C073949924BB240894A108B1
:101AE000B10818C0882DB70120E038E34CE95CE16B
:101AF0000E94CC1A282F882351F54114510431F04B
:101B0000C2016CE0F70140810E942745872D0E94A9
:101B100014199394892D90E07601E80EF91E8A1528
:101B20009B0504F3882DB70120E038E34CE95CE124
:101B30000E94CC1A282F882351F44114510411F12A
:101B4000C2016CE0F70140810E9427451BC0C6011D
:101B500029830E94565B29814114510489F0203267
:101B600019F4C20164E409C0213219F4C20168E425
:101B700004C0213029F4C2016CE440E00E942745F2
:101B800000E010E0C8010F90CF91DF911F910F91FD
:101B9000FF90EF90DF90CF90BF90AF909F908F908D
:101BA0007F905F904F900895EF92FF920F931F9355
:101BB000CF93DF93F82EE62E8A01E90141155105F6
:101BC00009F462C0FA0180816F2D0E94AD1C882348
:101BD00009F049C0209731F0CE0160E1F801408161
:101BE0000E942745E3948E2D0E941B1BF8018181E2
:101BF0006F2D0E94AD1C8823B1F5209731F0CE01E6
:101C000060E1F80141810E9427458E2D0E941B1B37
:101C1000F80182816F2D0E94AD1C882321F5209749
:101C200031F0CE0160E1F80142810E9427458E2DFE
:101C30000E941B1BF80183816F2D0E94AD1C88231D
:101C400091F4209731F0CE0160E1F80143810E94C8
:101C500027458E2D0E941B1BF80184816F2D0E9449
:101C6000AD1C882341F0209779F0CE0160E940E077
:101C70000E94274509C0209749F0CE0160E1F80194
:101C800044810E94274502C081E001C080E0DF91CD
:101C9000CF911F910F91FF90EF9008959F92AF9277
:101CA000BF92CF92DF92EF92FF920F931F93CF9349
:101CB000DF93B82E6A0141155105D9F1962E939400
:101CC000AA24E22EFF240894E108F10812C08881BA
:101CD0006B2D0E94AD1C8823D1F40115110529F04C
:101CE000C80160E148810E942745892D0E941B1B85
:101CF000A3948A2D90E0E601C80FD91F8E159F0589
:101D000034F388816B2D0E94AD1C882349F00115A6
:101D1000110579F0C80160E940E00E94274509C03B
:101D20000115110541F0C80160E148810E94274575
:101D300002C081E001C080E0DF91CF911F910F913F
:101D4000FF90EF90DF90CF90BF90AF909F9008955D
:101D50002F923F924F925F926F927F928F929F92BB
:101D6000AF92BF92CF92DF92EF92FF920F931F93A9
:101D7000DF93CF9300D000D000D0CDB7DEB7182FBF
:101D8000762E4A0159014115510509F469C1662EA3
:101D9000639421153105D9F00E94E8529B01AC01F2
:101DA000232E342E452E5524CA01AA27BB278B8308
:101DB0009C83AD83BE83C52EDD24EE24FF24C501A4
:101DC00063EC422F222D0B81EC2C0E94E345D401C1
:101DD0001196CD90DC901297F601808161810E946E
:101DE0004A0C8983882309F43BC1812F672DA60102
:101DF00095010E94D40D882309F032C18981815058
:101E0000823008F42FC186E00E941B1B812FBE0187
:101E10006F5F7F4F0E94EC1B882309F07BC0A114E9
:101E2000B104C9F0C50164E149810E94274513C08E
:101E300081E00E941B1B812FB6010E94EC1B8823AE
:101E400009F068C0A114B10451F0C50164E14981F1
:101E50000E94274504C06E010894C11CD11C298131
:101E6000203631F3D4011196ED91FC9112978181C6
:101E70002817D1F030E090E0809590952817390729
:101E800099F0812FBE016E5F7F4F0E94EC1B88236B
:101E900009F040C0A114B10409F4E0C0C50164E137
:101EA0004A810E942745DAC086E00E941B1BD401AC
:101EB0001196ED91FC91129799818181981701F10A
:101EC0001396ED91FC9114978081612F0E94AD1CB7
:101ED000882309F0AAC0A114B10451F0D4011396CB
:101EE000ED91FC911497C50160E140810E94274566
:101EF000F4018081823030F086E00E941B1B02C01A
:101F000000E049C001E047C0812FB6010E94EC1BF0
:101F1000882339F0A114B10409F4A2C0C5016CE80A
:101F200089C0A114B10429F0C50164E149810E946E
:101F3000274586E00E941B1BD4011196ED91FC9170
:101F4000129799818181981751F11396ED91FC9127
:101F50001497E00FF11D8081612F0E94AD1C882332
:101F600009F063C00F5FA114B10469F0D4011396A6
:101F7000ED91FC911497E00FF11D3197C50160E1DF
:101F800040810E942745F4018081081740F486E0D3
:101F90000E941B1B04C06E010894C11CD11CD401FB
:101FA0001196ED91FC91129799818181981731F1E9
:101FB000F4018081081708F4A7CF20C0D40113963C
:101FC000ED91FC911497EC0DFD1D8081612F0E9415
:101FD000AD1C882351F5A114B10461F0D40113960E
:101FE000ED91FC911497EC0DFD1DC50160E1408160
:101FF0000E942745862D0E941B1B0F5FC02EDD24EB
:10200000F401808190E00197C816D906BCF2C81689
:10201000D90641F50380F481E02DEC0DFD1D808192
:10202000612F0E94AD1C882349F0A114B104C1F0B6
:10203000C50160E940E00E94274512C0A114B10427
:1020400089F0D4011396ED91FC911497EC0DFD1DD0
:10205000C50160E140810E94274504C082E003C0C1
:1020600081E001C080E026960FB6F894DEBF0FBE77
:10207000CDBFCF91DF911F910F91FF90EF90DF9037
:10208000CF90BF90AF909F908F907F906F905F9018
:102090004F903F902F9008950F931F93CF93DF930E
:1020A000EC018B01009709F44AC06115710509F430
:1020B00046C089819A81009709F441C088818823AC
:1020C00029F02B813C8121153105C9F18B5FD801A5
:1020D0008C9390E00E94BC5AFC019C01009719F47B
:1020E000F80110822EC0A981BA818C918083A981C8
:1020F000BA8111968C918183A981BA8112968C91B3
:102100008283A981BA8113968C918383A981BA8134
:1021100014968C911497848365E00DC0862F90E00F
:10212000AF01480F591FAB81BC81A80FB91F8C911B
:10213000DA018C936F5F8881681780F302C020E01A
:1021400030E0C901DF91CF911F910F9108956F92F7
:102150007F928F929F92BF92CF92DF92EF92FF92E7
:102160000F931F93DF93CF930F92CDB7DEB7B82EA7
:102170004B016A016115710509F446C185E090E0E3
:102180000E94BC5A8C017C01009709F43FC1DC011C
:1021900012961C921E92119714961C921E921397DF
:1021A0001C92F401808161810E944A0C89838823FA
:1021B00009F44EC0813019F0833009F041C082E04B
:1021C00090E00E94BC5ABC01D80112969C938E9359
:1021D0001197009709F406C18B2D0E94EC1B8823F0
:1021E00009F0F6C0C114D10451F0D8011196ED9157
:1021F000FC911297C60164E140810E942745F801D5
:1022000081819281DC012C91203631F40E94565B51
:10221000F801128211822AC0BC016F5F7F4F8B2DA3
:102220000E94EC1B882309F4E1C0D80111968D911E
:102230009C9112970E94565BF80112821182D2C0C3
:102240008B2DBE016F5F7F4F0E94EC1B882311F026
:10225000C701C9C0C114D10429F0C60164E1498194
:102260000E9427456980B62DB03651F4C8010E94FE
:10227000565B8B2DB401A6010E94A7107C01C6C03D
:10228000F4018181681651F0262D30E090E08095B0
:1022900090952817390709F08AC007C0D401149611
:1022A0008C911497F801808303C081E0D8018C934E
:1022B000F801808190E00E94BC5AD80114969C934A
:1022C0008E931397009711F0882430C06091FB1112
:1022D0007091FC1185E092E00E94675D80E197E2D9
:1022E00020E931E0F9013197F1F70197D9F77AC088
:1022F000682C7724F80163817481660D771D8B2D1E
:102300000E94EC1B882311F0D80120C0C114D10415
:1023100061F0D8011396ED91FC911497E60DF71D2D
:10232000C60164E140810E9427458394F8018081C1
:102330008816F0F282E090E00E94BC5ABC01D801FD
:1023400012969C938E931197009751F413968D914A
:102350009C9114970E94565BF8011482138242C02C
:102360008B2D0E94EC1B8823B9F4C114D10451F0C9
:10237000D8011196ED91FC911297C60164E140815C
:102380000E942745F801618172816F5F7F4F8B2D1D
:102390000E94EC1B882351F1D80113968D919C91DA
:1023A00014970E94565BF8011482138212C082E0D7
:1023B00090E00E94BC5AF80192838183009791F0CB
:1023C000DC016D92BD018B2D0E94EC1B882371F006
:1023D000F801818192810E94565BD80112961C926D
:1023E0001E921197C8010E94565B0EC0C114D10401
:1023F00069F0D8011196ED91FC911297C60164E144
:1024000041810E94274502C0EE24FF24C7010F909E
:10241000CF91DF911F910F91FF90EF90DF90CF90C0
:10242000BF909F908F907F906F900895CF92DF9292
:10243000EF92FF920F931F93CF93DF93D82E7B01E0
:10244000EA0189016115710509F469C0209709F451
:1024500066C088818823C9F18B819C810097A9F18E
:10246000FB0181816D2D0E94B919882309F057C0A5
:102470000115110531F0C80168E0F70141810E94A2
:10248000274582E00E941419CC241CC0EC2CFF24A8
:10249000EB81FC81EE0DFF1D80816D2D0E94B9192D
:1024A0008823E9F50115110549F0EB81FC81EE0D5A
:1024B000FF1DC80168E040810E94274582E00E941C
:1024C0001419C3948881C81608F3E981FA813097FA
:1024D00031F180816D2D0E94B919882301F5011514
:1024E000110539F0E981FA81C80168E040810E9454
:1024F000274582E00E941419E981FA8181816D2DBE
:102500000E94B919882359F40115110551F0E98188
:10251000FA81C80168E041810E94274502C081E03C
:1025200001C080E0DF91CF911F910F91FF90EF905C
:10253000DF90CF9008950F931F93CF93DF93EC011B
:102540008B010097C9F161157105B1F189819A81FB
:10255000009791F18881882329F02B813C812115F6
:10256000310551F18E5FD8018C9390E00E94BC5AE6
:10257000FC019C01009719F4F80110821FC0A98189
:10258000BA818C918083A981BA8111968C9111971F
:10259000818362E00DC0862F90E0AF01480F591F84
:1025A000AB81BC81A80FB91F8C91DA018C936F5F4E
:1025B0008881681780F302C020E030E0C901DF9114
:1025C000CF911F910F9108950F931F93DF93CF9396
:1025D0000F92CDB7DEB78C0183E090E069830E9453
:1025E000BC5AFC016981009719F012830183608352
:1025F000CF010F90CF91DF911F910F910895DF923E
:10260000EF92FF920F931F93DF93CF93CDB7DEB777
:10261000DA8483E090E00E94BC5A7C018C01009730
:1026200039F1FC01D0828D2D90E00E94BC5AF70157
:1026300092838183009731F4C7010E94565B00E0CA
:1026400010E016C0CE010B96E82FF92FAF0120E065
:1026500030E00CC0F701A181B281A20FB31FFA01D3
:1026600080818C932F5F3F4F4E5F5F4F2D1590F30E
:10267000C801CF91DF911F910F91FF90EF90DF90F4
:102680000895CF92DF92EF92FF920F931F93CF9313
:10269000DF938C01F62E83E090E00E94BC5AC82E96
:1026A000E6016E01D92EE6012097E1F01A82198227
:1026B000188201151105B1F0FF20A1F08F2D90E0D7
:1026C0000E94BC5A9A838983009731F4C6010E9404
:1026D000565BC0E0D0E006C0B8014F2D50E00E942C
:1026E000EE5CF882CE01DF91CF911F910F91FF90A8
:1026F000EF90DF90CF900895CF93DF93EC01009798
:1027000059F089819A81009721F00E94565B1A82C4
:102710001982CE010E94565BDF91CF910895CF932D
:10272000DF93EC01009799F089819A81009721F05D
:102730000E94565B1A8219828B819C81009721F03E
:102740000E94565B1C821B82CE010E94565BDF9169
:10275000CF910895CF92DF92EF92FF920F931F9344
:10276000CF93DF93C82ED62E8A0185E090E00E9499
:10277000BC5A7C01EC01009751F40115110509F4D4
:1027800072C0C80168EC40E00E9427456CC01A8204
:1027900019821C821B8218828C2D6D2DA8010E942B
:1027A000810CFC019A838983009711F4C70157C0FB
:1027B000808161810E944A0C882321F4C7010E9414
:1027C0008F134FC08150823008F44DC086E00E94C4
:1027D0001419E981FA8181816C2D0E94B91988232D
:1027E00091F089819A810E94565B1A821982C701F1
:1027F0000E94565B01151105A1F1C80160E540E09A
:102800000E9427452EC00115110551F0D7011196E0
:10281000ED91FC911297C80168E041810E94274523
:102820008D2D8F5F0E941419D7011196ED91FC91A7
:10283000129744814C938C2D6D2D98010E94450D6B
:10284000F70194838383009771F4818192810E94C0
:10285000565BD70112961C921E921197C7010E94D7
:10286000565BC0E0D0E0CE01DF91CF911F910F9178
:10287000FF90EF90DF90CF900895CF92DF92EF928C
:10288000FF920F931F93DF93CF930F92CDB7DEB7D5
:10289000F62E642FA80129830E94AA136C012981B6
:1028A000009769F08F2D622FA60198010E94A80E53
:1028B000882329F0C6010E948F13CC24DD24C60191
:1028C0000F90CF91DF911F910F91FF90EF90DF90CC
:1028D000CF900895AF92BF92DF92EF92FF920F9345
:1028E0001F93CF93DF93082F5B01D42E85E090E0F8
:1028F0000E94BC5A7C01EC01009761F1802F0E947C
:10290000990A8C019A838983009721F4C7010E9458
:10291000565B10C0A114B104C9F0DD20B9F08D2DB3
:1029200090E00E94BC5A9C838B83009731F4C701CE
:102930000E948F13C0E0D0E00DC0B5014D2D50E0D6
:102940000E94EE5CD882F801D48204C0F7011482A0
:1029500013821082CE01DF91CF911F910F91FF90D2
:10296000EF90DF90BF90AF900895AF92BF92CF925B
:10297000DF92EF92FF920F931F93CF93DF938C011F
:102980005B01F42E0097A9F185E090E00E94BC5A0B
:102990006C01EC01009779F1F8018081618142813D
:1029A000238104810E94750A9A838983009721F408
:1029B000C6010E94565B1DC0A114B104A9F0FF20FE
:1029C00099F08F2D90E00E94BC5A9C838B830097D6
:1029D00021F4C6010E948F130CC0B5014F2D50E0A9
:1029E0000E94EE5CF88207C0F60114821382108206
:1029F00002C0C0E0D0E0CE01DF91CF911F910F91D6
:102A0000FF90EF90DF90CF90BF90AF9008958F929E
:102A10009F92AF92BF92CF92EF92FF920F931F932C
:102A2000DF93CF9300D00F92CDB7DEB7182F5701A9
:102A300085E090E02B834A8369830E94BC5A7C0125
:102A40004C012B814A816981009761F1812F0E949D
:102A5000750AF70192838183009721F4C7010E94D0
:102A6000565B11C0A114B104C9F0CC20B9F08C2D73
:102A700090E00E94BC5AF70194838383009731F45D
:102A8000C7010E948F13882499240CC0B5014C2DD6
:102A900050E00E94EE5CF701C08204C0F70114828E
:102AA00013821082C4010F900F900F90CF91DF918D
:102AB0001F910F91FF90EF90CF90BF90AF909F909C
:102AC0008F900895CF92DF92EF92FF920F931F9312
:102AD000DF93CF930F92CDB7DEB76C01009709F467
:102AE0004FC0FC0181819281009709F449C085E0C3
:102AF00090E00E94BC5A7C018C01009709F442C00E
:102B000085E090E00E94BC5AF70192838183009790
:102B100021F4C7010E94565B33C0DC01F60131810C
:102B20002281832F922FFC0185E001900D9281502C
:102B3000E1F7F601838194810097E9F04081442315
:102B4000D1F0842F90E049830E94BC5AF70194830E
:102B500083834981009721F4C7010E948F1310C01D
:102B6000F6016381748150E00E94EE5CF601808181
:102B7000F701808307C0F70114821382108202C01C
:102B800000E010E0C8010F90CF91DF911F910F91ED
:102B9000FF90EF90DF90CF900895CF93DF93EC01FB
:102BA000009799F089819A81009721F00E94565BE5
:102BB0001A8219828B819C81009721F00E94565BBA
:102BC0001C821B82CE010E94565BDF91CF9108953B
:102BD000CF92DF92EF92FF920F931F93CF93DF93E9
:102BE000F82E862F8A0169014115510591F0BA012D
:102BF000A9010E94A710EC01009769F08F2DB80180
:102C0000AE0196010E941612882329F0CE010E947F
:102C1000CD15C0E0D0E0CE01DF91CF911F910F9193
:102C2000FF90EF90DF90CF900895AF92BF92CF9238
:102C3000DF92EF92FF920F931F93DF93CF9300D019
:102C4000CDB7DEB7C82ED62E780184E090E02A8377
:102C500049830E94BC5A682F792F5B012A814981E0
:102C6000A114B10449F40115110529F1C80168EC5A
:102C700040E00E9427451FC08C2D6D2D0E943D1401
:102C8000F50191838083009789F0FC014181528195
:102C90008C2D6D2D97010E94E815F5019383828399
:102CA000009749F4808191810E948F13C5010E9491
:102CB000565BAA24BB24C5010F900F90CF91DF91E2
:102CC0001F910F91FF90EF90DF90CF90BF90AF904A
:102CD0000895CF92DF92EF92FF920F931F93DF93AD
:102CE000CF930F92CDB7DEB78C01009709F457C090
:102CF000DC0111968D919C911297009709F44FC0B9
:102D000085E090E00E94BC5A7C016C01009709F4B8
:102D100048C082E090E00E94BC5AFC01D7011296A4
:102D20009C938E931197009721F4C7010E94565BE4
:102D300036C0D80111968D919C911297DC018D912E
:102D40009C91119791838083F801838194810097EE
:102D5000F9F040814423E1F0842F90E049830E9400
:102D6000BC5AD70114969C938E9313974981009770
:102D700021F4C7010E94CD1512C0F801638174814E
:102D800050E00E94EE5CD8018C91F701808309C06D
:102D9000D70114961C921E9213971C9202C0CC2449
:102DA000DD24C6010F90CF91DF911F910F91FF900D
:102DB000EF90DF90CF900895CF93DF93EC010097D1
:102DC00099F088819981009721F00E948F131982D0
:102DD00018828A819B81009721F00E94CD151B8269
:102DE0001A82CE010E94565BDF91CF9108958F9297
:102DF0009F92AF92BF92CF92DF92EF92FF920F938A
:102E00001F93CF93DF93882E962EA42EB22E780197
:102E100084E090E00E94BC5A6C01EC01009751F4F0
:102E20000115110509F472C0C80168EC40E00E9468
:102E300027456CC0198218821B821A82882D692D41
:102E40004A2D2B2D0E9415168C01009711F4C601F6
:102E50002FC0DC018D919C911197F60191838083A5
:102E600011961C921E921296ED91FC91139701807F
:102E7000F281E02D2081213639F081E090E02C367E
:102E800029F080E090E002C081E090E0882379F1B1
:102E9000C8010E94DC1681E02AC0882D692D4A2DC8
:102EA0002B2D87010E9415168C01009731F4C60165
:102EB0000E94DC16C0E0D0E029C0DC011296ED9142
:102EC000FC9113970180F281E02D2081213639F0A9
:102ED00081E090E02C3629F080E090E002C081E0B3
:102EE00090E0882321F0C8010E94DC16D6CF882309
:102EF000A1F6F80182819381D60113969C938E935B
:102F0000129713821282C8010E94DC16CE01DF9153
:102F1000CF911F910F91FF90EF90DF90CF90BF90D6
:102F2000AF909F908F900895E898E9E6F0E0808157
:102F30008260808380818E7F8083E09AE89A089502
:102F4000E898089586B18071089589B181700895D7
:102F50008031910560F428E088E190E00FB6F894A4
:102F6000A895809360000FBE2093600087C08F31CA
:102F7000910560F429E088E190E00FB6F894A895F7
:102F8000809360000FBE2093600078C08D33910560
:102F900060F42AE088E190E00FB6F894A895809359
:102FA00060000FBE2093600069C08937910560F40E
:102FB0002BE088E190E00FB6F894A895809360002C
:102FC0000FBE209360005AC08B3F910560F42CE047
:102FD00088E190E00FB6F894A895809360000FBE4A
:102FE000209360004BC021E0853F920760F42DE004
:102FF00088E190E00FB6F894A895809360000FBE2A
:10300000209360003BC023E0893E920760F42EE0ED
:1030100088E190E00FB6F894A895809360000FBE09
:10302000209360002BC027E0813D920760F42FE0E1
:1030300088E190E00FB6F894A895809360000FBEE9
:10304000209360001BC02FE0813A920760F428E2D1
:1030500088E190E00FB6F894A895809360000FBEC9
:10306000209360000BC029E288E190E00FB6F8944D
:10307000A895809360000FBE20936000809160004F
:10308000806480936000089588E10FB6F89480937F
:103090006000109260000FBEE0E6F0E080818F7B60
:1030A00080830895A8950895DF93CF9300D0CDB77E
:1030B000DEB720E030E040E050E02F5F3F4F4F4F61
:1030C0005F4FE1E03499E0E0E983E1E04899E0E036
:1030D000EA83E981FA81EE0FEF2B61157105810515
:1030E000910529F0261737074807590711F0EE23F5
:1030F00021F38E2F0F900F90CF91DF9108951F93A2
:103100001FB7F89481E090E090939500809394002D
:1031100000000000000000000000000000000000AF
:10312000000000000000000000000000000000009F
:10313000000000000000000000000000000000008F
:10314000000000000000000000000000000000007F
:10315000000000000000000000000000000000006F
:10316000000000000000000000000000000000005F
:10317000000060919400709195006130710579F0C4
:1031800080E090E020E83EE340E050E00E94025AF8
:1031900022E330E040E050E00E94485A02C020E0C4
:1031A00030E01FBFC9011F9108958091B2000895BA
:1031B00080E18093B300E0E7F0E08081826080836B
:1031C0001092B20082E08093B00087E08093B1005B
:1031D00008951092B1001092B000109270001092F9
:1031E000B30008958FB7F894209194003091950022
:1031F0008FBFC90108958CE08093900088E990E02A
:1032000064E771E00E94AB208FE080939100089505
:103210001092910084E990E060E070E00E94AB20A1
:1032200008951092910008951F93182F88E990E057
:1032300064E771E00E94AB208CE08093900084E909
:1032400090E061E070E00E94AB20C19A80E004C091
:10325000C19BFECFC19A8F5F8117D0F31F91089554
:103260000F931F93DF93CF930F92CDB7DEB7182F35
:10327000062F0E947F18009709F475C08CE0809398
:103280009000449A3C9A88E990E064E771E00E94DB
:10329000AB2084E990E061E070E00E94AB20C19A2D
:1032A00088E080939000002311F11095198320E0AD
:1032B00030E010E0E7E0F0E041E050E09981BF014C
:1032C000621B730BDA0102C0AA0FBB1F6A95E2F7FB
:1032D0009A2341F0BA01022E02C0660F771F0A94AA
:1032E000E2F7162B2F5F3F4F2830310539F7C19B8E
:1032F000FECFC19A20E030E060E041E050E0F8E02D
:1033000071E0ECE0CA01022E02C0880F991F0A94F6
:10331000E2F7812329F0E0939000002329F403C011
:10332000F093900001116727C19BFECFC19A2F5FD8
:103330003F4F2830310531F7002319F4662319F483
:1033400004C0662311F48CE001C088E080939000F3
:10335000C19BFECFC19AC19BFECFC19A8CE08093E6
:1033600090003C98449A0F90CF91DF911F910F915C
:103370000895FF920F931F93DF93CF930F92CDB7D2
:10338000DEB7182F062F0E94301981E00E94141911
:1033900034992AC088E990E064E771E00E94AB208C
:1033A00084E990E061E070E00E94AB20C19A8CE07B
:1033B00080939000FF24F39482E00E941419812FDF
:1033C000602F0E94301981E00E94141981E0349925
:1033D00080E089838F2D843019F08981882359F703
:1033E000998181E0992309F480E00F90CF91DF91DA
:1033F0001F910F91FF900895DF93CF930F92CDB758
:10340000DEB720E030E046B1407149832F5F3F4F87
:10341000009719F02817390719F04981442399F7C3
:10342000998181E0992309F480E00F90CF91DF9199
:103430000895EF92FF920F931F93DF93CF9300D0E5
:103440000F92CDB7DEB7F82E8B018CE08093900001
:103450003C98449A80E090E0A0E0B0E061E03499CC
:1034600060E06A836A816623B1F461E0489960E0B4
:103470006B836B81662309F080C00196A11DB11D8D
:10348000211531054105510549F382179307A4071A
:10349000B50721F774C084E990E061E070E00E9414
:1034A000AB2088E990E06AEB70E00E94AB20C19A03
:1034B000C19BFECFC19A86B18071898388E990E073
:1034C00064E771E00E94AB20D8011C9289818823B7
:1034D00009F057C087E090E0EE24E0E047E050E0DC
:1034E00021E030E0F1E0C19BFECFC19A66B160718E
:1034F0006983FF2059F069816623B9F4B901082E68
:1035000002C0660F771F0A94E2F70DC06981662337
:1035100061F0BA01681B790BD90102C0AA0FBB1F69
:103520006A95E2F7BD01E62BEF260197BFEF8F3FCB
:103530009B07C9F6D801EC93C19BFECFC19A86B117
:103540008071898388E990E06AEB70E00E94AB208B
:10355000C19BFECFC19AFF2019F0EE2019F007C0E1
:10356000EE2029F0998181E0992361F004C09981CE
:1035700081E0992339F480E005C080E203C081E254
:1035800001C081E00F900F900F90CF91DF911F91BC
:103590000F91FF90EF9008951F930E94191A182F12
:1035A000813091F50E947F18009771F18CE0809333
:1035B00090003C9A88E990E06BEA70E00E94AB20B2
:1035C00084E990E061E070E00E94AB20C19A88E05D
:1035D00080939000C19BFECFC19A88E990E06FE88C
:1035E00071E00E94AB20C19BFECFC19A8CE080931A
:1035F00090003C98449A88E990E06BEA70E00E9461
:10360000AB20C19BFECFC19A812F1F91089589B134
:103610008270089589B18095881F8827881F089532
:10362000499B04C05F98579A80E0089581E008950F
:10363000579A5F9A08951F93182F88E890E060EDDD
:1036400075E00E94AB2080E38093800084E890E0E6
:1036500061E070E00E94AB20B19A80E004C0B19BB1
:10366000FECFB19A8F5F8117D0F31F910895DF933A
:10367000CF930F92CDB7DEB79B01AC0180E090E015
:10368000A0E0B0E063B1607469830196A11DB11D33
:10369000211531054105510529F082179307A4072B
:1036A000B50719F06981662369F7998181E099234B
:1036B00009F480E00F90CF91DF910895EF92FF928F
:1036C0000F931F93DF93CF930F92CDB7DEB7E82E02
:1036D0008B0180E38093800026982E9A1E99FECF5E
:1036E00084E890E061E070E00E94AB2088E890E020
:1036F00068EE72E00E94AB20B19AB19BFECFB19A06
:1037000083B18074898388E890E060ED75E00E9461
:10371000AB20F80110828981882309F054C027E08A
:1037200030E0FF24A0E067E070E041E050E0B1E06D
:10373000B19BFECFB19A83B180748983EE2061F092
:1037400089818823B9F4CA01022E02C0880F991F0B
:103750000A94E2F7A82B0DC08981882359F0FB0158
:10376000E21BF30BCA0102C0880F991FEA95E2F72A
:10377000A82BFB26215030409FEF2F3F3907C1F681
:10378000F801A083B19BFECFB19A83B18074898385
:1037900088E890E068EE72E00E94AB20B19BFECF1B
:1037A000B19AEE2019F0FF2019F007C0FF2029F090
:1037B000998181E0992341F004C0998181E09923A6
:1037C00019F480E001C081E00F90CF91DF911F914B
:1037D0000F91FF90EF9008951F930E945E1B182F8A
:1037E000882389F189B181FF2EC080E38093800016
:1037F000269A88E890E06CEA72E00E94AB2084E8A8
:1038000090E061E070E00E94AB20B19A80E280938A
:103810008000B19BFECFB19A88E890E06FE376E03C
:103820000E94AB20B19BFECFB19A80E380938000D1
:1038300026982E9A88E890E06CEA72E00E94AB200D
:10384000B19BFECFB19A812F1F9108950F931F93C3
:10385000DF93CF930F92CDB7DEB7182F062F89B124
:1038600081FF75C080E3809380002E9A269A88E8B5
:1038700090E060ED75E00E94AB2084E890E061E0AC
:1038800070E00E94AB20B19A80E280938000002318
:1038900011F11095198320E030E010E0E7E0F0E04E
:1038A00041E050E09981BF01621B730BDA0102C055
:1038B000AA0FBB1F6A95E2F79A2341F0BA01022EC4
:1038C00002C0660F771F0A94E2F7162B2F5F3F4F57
:1038D0002830310539F7B19BFECFB19A20E030E0B6
:1038E00060E041E050E0F0E271E0E0E3CA01022E66
:1038F00002C0880F991F0A94E2F7812329F0E09310
:103900008000002329F403C0F09380000111672791
:10391000B19BFECFB19A2F5F3F4F2830310531F771
:10392000002319F4662319F404C0662311F480E31C
:1039300001C080E280938000B19BFECFB19AB19B21
:10394000FECFB19A80E38093800026982E9A0F9044
:10395000CF91DF911F910F910895FF920F931F93C5
:10396000DF93CF930F92CDB7DEB7182F062F0E94AB
:10397000261C81E00E941B1B1E992AC088E890E04B
:1039800060ED75E00E94AB2084E890E061E070E0BB
:103990000E94AB20B19A80E380938000FF24F394CF
:1039A00082E00E941B1B812F602F0E94261C81E059
:1039B0000E941B1B81E01E9980E089838F2D84303B
:1039C00019F08981882359F7998181E0992309F4B5
:1039D00080E00F90CF91DF911F910F91FF9008959C
:1039E000882311F05C9A08955C9808955C98549A25
:1039F00014BC15BC10928000109281002F98279A59
:103A00002E98269A5F9A579A08951F93CF93DF9323
:103A1000182F882319F05C98549A15C02E98269A6E
:103A20002F98279A5C98549AC8ECD0E0FE01319701
:103A3000F1F70E94101B882321F00E94F61C81E000
:103A40001CC02197F1F726982E9A1123A9F481E042
:103A500087BD16BC92E494BD85BD80E38093800051
:103A600088E890E060ED75E00E94AB2089E08093EB
:103A7000810080E48093820080E0DF91CF911F91EC
:103A80000895E9E6F0E08081846080838081877F0B
:103A90008083E99A0895E99808956F9A779A08952E
:103AA0006E9A769A08956D9A759A08956C9A749A9A
:103AB00008956F98779808956E98769808956D9800
:103AC000759808956C9874980895249A2C9A08957E
:103AD000259A2D9A089524982C98089525982D9824
:103AE0000895849A8C9A0895849A8C980895869A59
:103AF0008E9A0895869A8E98089583988FB18870CB
:103B0000089582988FB18470089581988FB18270E2
:103B1000089580988FB18170089581E07B9980E04D
:103B20007A9B8260799B8460789B8860089588B1D5
:103B3000887F88B987B1876087B911B8419A429A5E
:103B400085E38A95F1F780B1429897B1987F97B94C
:103B50000895809118060895809318060895AF92ED
:103B6000BF92CF92DF92EF92FF920F931F93DF935A
:103B7000CF9300D0CDB7DEB7F82E89014A83698391
:103B80000E94971D4A81698187FDF8CF87B18760C0
:103B900087B9FF2011F0409A01C04098662319F0C0
:103BA000419A11B804C041988FEF81B942B9429A45
:103BB000B80180E090E00E949B575B016C012BEA0A
:103BC0003AEA4AEA50E40E940C557B018C017F2DB1
:103BD000912F20E030E040E85FE30E94185787FD16
:103BE00063C06E2D7F2D802F912F20E030E04FE7B6
:103BF00053E40E94B85618160CF04FC0C601B50128
:103C000020E030E04AE754E40E940956A62ED72E61
:103C1000C82EB92E20E030E04AE755E40E940C554A
:103C20007B018C017F2D912F20E030E040E85FE3A5
:103C30000E94185787FD2BC06E2D7F2D802F912F4E
:103C400020E03FEF4FE757E40E94B8561816C4F43F
:103C50006A2D7D2D8C2D9B2D20E030E040E251E43B
:103C60000E940C550E942F5320E931E005C0C90184
:103C70000197F1F76150704061157105C1F717C0E8
:103C80006E2D7F2D802F912F0E942F5302C061E057
:103C900070E0CB010197F1F70AC06E2D7F2D802FC8
:103CA000912F0E942F5301C061E06A95F1F780B116
:103CB000429897B1987F97B90F900F90CF91DF916D
:103CC0001F910F91FF90EF90DF90CF90BF90AF903A
:103CD00008951F9380E060E041E028E230E00E9418
:103CE000AF1D18E281E060E041E328E230E00E948D
:103CF000AF1D1150B9F780E060E040EC25E230E004
:103D00000E94AF1D18E281E060E042E328E230E06B
:103D10000E94AF1D1150B9F71F910895EF92FF92C5
:103D20000F931F93CF93DF93EC01E62E80E060E0CA
:103D300041E028E230E00E94AF1D8E01FF240AC05E
:103D4000F80141918F0181E060E028E230E00E94BB
:103D5000AF1DF394FE1418F4FF2DF83089F78E2D63
:103D60008930C0F080E060E040EC28E230E00E9462
:103D7000AF1D0BC0FE01EF0DF11D81E060E0408141
:103D800028E230E00E94AF1DF394FE1418F4EF2DEA
:103D9000E03180F310921906DF91CF911F910F91BE
:103DA000FF90EF9008951F93182F80911A06882393
:103DB00071F01A3071F080E060E041E028E230E01C
:103DC0000E94AF1D10921A061092190606C01A30F2
:103DD00021F481E080931A0607C081E060E0412F62
:103DE00028E230E00E94AF1D809119068F5F80931A
:103DF0001906883021F480E060E040EC05C0803195
:103E000039F480E060E042E028E230E00E94AF1D3B
:103E100080E090E01F9108953D9A459A80E060E02F
:103E200048E328E230E00E94AF1D80E060E04EE011
:103E300028E230E00E94AF1D80E060E046E028E22A
:103E400030E00E94AF1D80E060E041E028E230E019
:103E50000E94AF1D81E08093180608958FEF81B90D
:103E60008AEA82B90E94971D91E08A3A09F090E0AF
:103E7000892F089580E060E048E028E230E00E9469
:103E8000AF1D3D9845981092180608953D9A459AA1
:103E900080E060E04EE028E230E00E94AF1D81E06B
:103EA000809318060895F999FECF92BD81BD60BD3B
:103EB000FA9AF99A0895F999FECF92BD81BDF89AC0
:103EC00080B50895CF92DF92EF92FF920F931F93E8
:103ED000CF93DF93D82EEB018A012097D9F08FE0A2
:103EE000413A5807B8F4CFB6F8948D2D0AC07C013A
:103EF0000894E11CF11CEC0FFD1F60810E94531F10
:103F0000C701E82FED19F0E0E017F10780F3F99908
:103F1000FECFCFBEDF91CF911F910F91FF90EF9019
:103F2000DF90CF9008958F929F92AF92BF92CF92E1
:103F3000DF92EF92FF920F931F93CF93DF93982E10
:103F4000E92E8B012FE0613A720710F5CB010E9438
:103F5000BC5AC82EE6016E01D92EE6012097D1F099
:103F60008FB6F894892D9E2D0BC05C010894A11C7E
:103F7000B11C0E945B1FFE01EE0DFF1D8083C50179
:103F8000E82EE918FF24E016F10678F38FBE02C090
:103F9000CC24DD24C601DF91CF911F910F91FF90BA
:103FA000EF90DF90CF90BF90AF909F908F9008954B
:103FB0002FB7F8949093CD008093CC0081E080934C
:103FC000C90086E08093CA002FBF08958FB7F89488
:103FD0001092C9008FBF08959091C80095FFFCCF43
:103FE0008093CE0008958091C80087FFFCCF809118
:103FF000CE00089502C08091CE008091C80087FD58
:10400000FACF08959F92AF92BF92CF92DF92EF9234
:10401000FF920F931F93DF93CF93CDB7DEB7C050BE
:10402000D1400FB6F894DEBF0FBECDBFFE01319672
:1040300080E091E0DF019C011D9221503040E1F7CA
:10404000992490E9C92E91E0D92E8F0182E3A82E00
:1040500082E0B82E6091FB117091FC1184E292E035
:104060000E94675D80ED97E0F6013197F1F70197C7
:10407000D9F7E92CFF240E94F31FF801EE0DFF1D74
:10408000808300D000D000D0EDB7FEB731962091EC
:10409000FB113091FC11ADB7BEB712963C932E9335
:1040A0001197B382A282848315820E942A5D2DB764
:1040B0003EB72A5F3F4F0FB6F8943EBF0FBE2DBFED
:1040C00080ED97E0F6013197F1F70197D9F7992044
:1040D00051F4F801EE0DFF1D80818A3009F4BACF4A
:1040E0008D3009F4B7CFF801EE0DFF1D80818A30C5
:1040F00001F51082F7013197E00FF11F80818D30BB
:1041000009F41082CE0101960E94C85CC050DF4FB6
:104110000FB6F894DEBF0FBECDBFCF91DF911F91D8
:104120000F91FF90EF90DF90CF90BF90AF909F9056
:10413000089593948FCFCF93DF93009749F0EC01CC
:1041400004C00E94EC1F209719F089918823C9F7B9
:10415000DF91CF9108952FB7F894FC0171836083AC
:104160002FBF08954FB7F894FC01208131814FBFD4
:10417000C90108951F932FB7F89484E690E09093B7
:104180009900809398002FBF2FB7F89481E090E0BA
:1041900090939500809394002FBF1092900082E03E
:1041A000809371008FE0809391001FB70E94A91D3A
:1041B00090911F06992321F0882311F00E943A1F45
:1041C0000E94591D0E945C1D0E945F1D0E94621D7D
:1041D00083B7817F83BFF89483B7816083BF78946E
:1041E000889583B78E7F83BF1FBF10927100109296
:1041F00091000E94561D1F9108950E94A91D909143
:104200001F06992321F0882311F00E943A1F0E9473
:10421000591D0E945C1D0E945F1D0E94621D9FB778
:1042200083B7817F846083BFF89483B7816083BF45
:104230007894889583B78E7F83BF9FBF0E94561D59
:1042400008956F927F928F929F92AF92BF92CF927A
:10425000DF92EF92FF920F931F93CF93DF93A62EDF
:10426000B42E49010E9462157C01009709F4C1C077
:1042700000E010E080EA682E8FE0782E01C08E0109
:104280000E94741D0E947A1D80E10E941B1B8A2DD2
:104290006B2DA70194010E94A80E882329F5BB204D
:1042A00091F000000E94711D2B2D223011F40E940C
:1042B000771DC3010197F1F70E94741D3B2D323029
:1042C00011F40E947A1DD70111966D917C9112977D
:1042D0008A2DA4010E94A7106C01009729F0FC010F
:1042E00081819281009711F4C8012FC0C6010E94FC
:1042F0006916EC01009739F4C8010E94CD15C6017A
:104300000E94CD1572C00115110509F43FC0D801F6
:1043100013968D919C9114970097C1F18C918823ED
:10432000A9F1F6016081680F68838B819C8170E040
:104330000E94EF5B9C838B83009769F4C8010E9405
:10434000CD15C6010E94CD15CE010E94CD15C70125
:104350000E948F134EC0D8014C9113966C91139705
:1043600014967C9150E00E94EE5CF80180812B81D4
:104370003C81280F311DD6014C9113966C911397F7
:1043800014967C91C90150E00E94EE5CC6010E9427
:10439000CD15C8010E94CD15E981FA818081982F41
:1043A00091569330B8F4C7010E948F1381E060E00A
:1043B00070E040E00E946A147C01009721F4CE0175
:1043C0000E94CD1516C0E981FA818081813609F0FD
:1043D00056CF02C08C3649F4D70111962D913C91ED
:1043E00012978181F90184834ACFC7010E948F13FC
:1043F00002C0C0E0D0E0CE01DF91CF911F910F91BC
:10440000FF90EF90DF90CF90BF90AF909F908F90F4
:104410007F906F900895EF92FF920F931F93CF9329
:10442000DF93F82EE62EFA018901309781F1408161
:10443000442369F16181728184E00E946A14EC0175
:10444000009739F16F2D4E2D98010E9421218C018A
:10445000009721F4CE010E948F131BC0CE010E9451
:104460008F13D8011196ED91FC911297309731F08E
:104470008081803919F48181882321F0C8010E944C
:10448000CD1507C0C8010E94CD1580E003C08FEF95
:1044900001C081E0DF91CF911F910F91FF90EF90CC
:1044A0000895EF92FF920F931F93CF93DF93F82E0F
:1044B000E62EFA0189016181728187E040810E94C4
:1044C0006A14EC01009751F06F2D4E2D98010E9457
:1044D00021218C01CE010E948F1302C000E010E068
:1044E000C801DF91CF911F910F91FF90EF90089538
:1044F000FC010097D1F02381348121153105A9F009
:104500008081F90140E001C04F5F481718F4919194
:104510009838D1F750E090E00297481759073CF4DB
:10452000240F351FF9018281089580E0089580E00D
:1045300008950097E9F0DC011396ED91FC91149732
:104540003097B1F09081992399F0A181B2811097B1
:1045500079F080E00BC0ED91FD91309731F0208132
:104560002F3919F42181283329F08F5F891798F3A7
:10457000E0E0F0E0CF010895009729F00E94992231
:10458000FC01009779F485E090E00E94BC5AE82F86
:10459000F92F309739F01482138212828FE98083C9
:1045A00088E38183CF010895AF92BF92DF92EF92AB
:1045B000FF920F931F93DF93CF9300D0CDB7DEB759
:1045C0005C0185E090E04A8369830E94BC5A8C01BB
:1045D0007C014A816981009709F45AC0DC01149674
:1045E0001C921E921397F50180818C938F718F31ED
:1045F00031F4818111968C93119782E005C0D80126
:1046000011961C92119781E0F501E80FF11D908140
:10461000F8019283D82ED394913849F4F501ED0D29
:10462000F11D8081D80112968C931297D394442364
:1046300079F1F801828170E061507040282F30E0FC
:104640002617370764F490E00E94BC5AD8011496EC
:104650009C938E931397009711F080E013C0C801CC
:104660000E94565BEE24FF2413C0D8011396ED91EF
:10467000FC911497E80FF11DD501A20FB11D9C917B
:1046800090838F5F282F2D0DF8019281891768F391
:10469000C7010F900F90CF91DF911F910F91FF9065
:1046A000EF90DF90BF90AF900895AF92BF92CF92FE
:1046B000DF92EF92FF920F931F93DF93CF930F92AE
:1046C000CDB7DEB7F82ED62EE42E590186E060E095
:1046D00070E040E00E946A148C01009709F45BC00E
:1046E000DC011196ED91FC9112978FE9828311966E
:1046F000ED91FC911297E382C8016F2D4D2D95012C
:104700000E9421217C01009721F4C8010E948F138F
:1047100042C0C8010E948F13F701838194810097E2
:1047200021F4C7010E94CD1536C0D7016C9141E03C
:104730000E94D4228C01C7010E94CD1501151105DC
:1047400051F183E090E00E94BC5AC82ED92EF801A6
:104750004281D6014C9312961C921E92119782812F
:104760008823D9F00381148101151105B1F0842F3C
:1047700090E049830E94BC5AF6019283818349816B
:10478000009721F4C6010E94565B05C0B80150E0B5
:104790000E94EE5C02C0CC24DD24C6010F90CF91B4
:1047A000DF911F910F91FF90EF90DF90CF90BF901E
:1047B000AF900895CF92DF92EF92FF920F931F93E5
:1047C000DF93CF930F92CDB7DEB78C010097B9F18D
:1047D00085E090E00E94BC5AC82ED92EC114D104A5
:1047E00081F1F6011282F8018081F6018083F801DF
:1047F0008181F601818314821382F801838194817F
:104800000097F9F042814423E1F0842F90E049833E
:104810000E94BC5AF601948383834981009721F456
:10482000C6010E94565B0BC0F8016381748150E0A1
:104830000E94EE5CF8018281F601828302C0CC24E2
:10484000DD24C6010F90CF91DF911F910F91FF9052
:10485000EF90DF90CF900895DF92EF92FF920F9349
:104860001F93CF93DF93EC018B01009709F44CC0A9
:104870006115710509F448C0DB0111968D919C9179
:104880001297009709F440C06C918881680F70E01E
:10489000660F771F89819A810E94EF5B9A838983D3
:1048A000009791F1DD242AC0888190E0880F991F3C
:1048B000E980FA80E80EF91E8D2D90E0880F991F8F
:1048C000D8011196ED91FC911297E80FF91F8081A4
:1048D00091810E94DA23F701918380832881822FBE
:1048E00090E0880F991FE981FA81E80FF91F808114
:1048F0009181009749F02F5F2883D394D8018C9140
:10490000D81690F280E001C081E0DF91CF911F9135
:104910000F91FF90EF90DF900895FC010097D1F088
:10492000308180E090E020E013C0A181B281A80F27
:10493000B91F0D90BC91A02D109741F05C915617B6
:1049400029F411965C911197541731F02F5F02965C
:10495000231758F3A0E0B0E0CD0108951F93CF9343
:10496000DF93FC010097C9F1908120E030E080E006
:1049700011C0A181B281A20FB31FCD91DC9111971B
:10498000209729F048814C3811F410E023C08F5F44
:104990002E5F3F4F891768F320C08B819C81611B7C
:1049A000810F911D40E00E94D4220097B1F0FC01DC
:1049B00020812F3941F42181223029F40E94565B55
:1049C000812F8F5F0BC01E5FFC01218121111F5FB2
:1049D0000E94565B6A81161700F380E0DF91CF9149
:1049E0001F910895CF92DF92FF920F931F93CF9361
:1049F000DF938C01009709F460C0DC0111968C9163
:104A00001197882311F481E001C082E0F82EF3941D
:104A1000F801228127FDF394D80113968D919C9182
:104A20001497009709F0F20E8F2D90E00E94BC5A67
:104A3000E82FEF016E01D92EE6012097F1F1D801A0
:104A40008C91888311968C911197882319F0898312
:104A500082E001C081E0F801928197FF06C0FE016B
:104A6000E80FF11D91E890838F5FFE01E80FF11DC3
:104A7000D80112969C911297908313962D913C9198
:104A800014972115310571F012964C911297442319
:104A900049F08F5FBE01680F711DCB01B90150E075
:104AA0000E94EE5CCE016F2D0E94E4128C010097F3
:104AB00031F4CE010E94565B02C000E010E0C80154
:104AC000DF91CF911F910F91FF90DF90CF900895CC
:104AD000CF93DF93EC01009759F08B819C81009775
:104AE00021F00E94565B1C821B82CE010E94565B05
:104AF000DF91CF9108952F923F924F925F926F92E4
:104B00007F928F929F92AF92BF92CF92DF92EF925D
:104B1000FF920F931F93DF93CF93CDB7DEB72E97FE
:104B20000FB6F894DEBF0FBECDBF89836A83A42E73
:104B3000490137012115310509F46CC20115110530
:104B400009F468C2BB24CC24DD24EE24FF24A8E2AF
:104B50004A2E512C400E511EF0E22F2E312C200EE9
:104B6000311EC80149969C838B83D8015596BE831C
:104B7000AD83F801BD96F887EF83C8010E969A873A
:104B80008987D8011696BC87AB8727C2F401838139
:104B900094816C198C0D911D40E00E94D422AC01CF
:104BA000F2E0CF0E009709F418C2DC0111968C9147
:104BB00011978111C394FA018281B80EC7016B2D40
:104BC00070E04D875E870E94EF5B9C017C014D8504
:104BD0005E85009721F4CA010E9468251BC2DA0194
:104BE0008C918F3909F075C011968C911197823094
:104BF000F1F4F80180E007C09191D901AD0DB11D2C
:104C00009C93D3948F5FDA0112969C911297891727
:104C100048F4863089F706C0F901ED0DF11D1082C8
:104C2000D3948F5FFA0192818917B0F3D3C1833097
:104C3000F9F4EB85FC8580E007C09191D901AD0DB9
:104C4000B11D9C93D3948F5FDA0112969C911297B9
:104C5000891748F4863089F706C0F901ED0DF11D7A
:104C60001082D3948F5FFA0192818917B0F3B2C199
:104C70008A3109F002C1DA0112968C9112978823C9
:104C8000B9F0F901ED0DF11DD8011C968C911C971E
:104C90008083D394FA018281823060F0F901ED0DB6
:104CA000F11D1D968C911D978083D39482E00AC0DC
:104CB00080E008C081E006C0F901ED0DF11D108211
:104CC000D3948F5FDA0112969C9112978917A0F303
:104CD00081C18539F9F4E985FA8580E007C09191B1
:104CE000D901AD0DB11D9C93D3948F5FDA0112965B
:104CF0009C911297891748F4853089F706C0F9010D
:104D0000ED0DF11D1082D3948F5FFA019281891706
:104D1000B0F360C18F35A1F5DA0111968C9111972E
:104D20008A3209F02BC112968C9112978823B9F020
:104D3000F901ED0DF11DD80153968C9153978083A5
:104D4000D394FA018281823060F0F901ED0DF11DFA
:104D500054968C9154978083D39482E00AC080E06B
:104D600008C081E006C0F901ED0DF11D1082D39459
:104D70008F5FDA0112969C9112978917A0F32AC1CE
:104D80008A3861F5FA0182818823B9F0F901ED0DC5
:104D9000F11DD8019B968C919B978083D394FA0147
:104DA0008281823060F0F901ED0DF11D9C968C91AD
:104DB0009C978083D39482E00AC080E008C081E0A1
:104DC00006C0F901ED0DF11D1082D3948F5FDA0159
:104DD00012969C9112978917A0F3FCC08139F9F4BF
:104DE000EF81F88580E007C09191D901AD0DB11D2B
:104DF0009C93D3948F5FDA0112969C911297891736
:104E000048F4883089F706C0F901ED0DF11D1082D4
:104E1000D3948F5FFA0192818917B0F3DBC08A398E
:104E2000F9F4ED81FE8180E007C09191D901AD0DCB
:104E3000B11D9C93D3948F5FDA0112969C911297C7
:104E4000891748F4833089F706C0F901ED0DF11D8B
:104E50001082D3948F5FFA0192818917B0F3BAC0A0
:104E60008C3941F4F901ED0DF11DD80158968C9162
:104E700058972FC08F3909F081C0FA01818187339B
:104E8000F9F4EB81FC8180E007C09191D901AD0D6F
:104E9000B11D9C93D3948F5FDA0112969C91129767
:104EA000891748F4843089F706C0F901ED0DF11D2A
:104EB0001082D3948F5FFA0192818917B0F38AC070
:104EC000853351F42D0D311DD8015D968C915D9780
:104ED000F9018083D3947EC0853471F5DA0112968E
:104EE0008C9112978823B9F0F901ED0DF11DD801CD
:104EF0005E968C915E978083D394FA018281823092
:104F000060F0F901ED0DF11D5F968C915F97808344
:104F1000D39482E00AC080E008C081E006C0F901B5
:104F2000ED0DF11D1082D3948F5FDA0112969C91E2
:104F300012978917A0F34EC08C34F1F4F10180E090
:104F400007C09191D901AD0DB11D9C93D3948F5F92
:104F5000DA0112969C911297891748F4883089F7E4
:104F600006C0F901ED0DF11D1082D3948F5FFA0197
:104F700092818917B0F32EC0843311F080E024C0F1
:104F8000F20180E007C09191D901AD0DB11D9C9354
:104F9000D3948F5FDA0112969C911297891748F487
:104FA000833089F706C0F901ED0DF11D1082D3940D
:104FB0008F5FFA0192818917B0F30CC0F901ED0DF2
:104FC000F11D1082D3948F5FDA0112969C91129793
:104FD0008917A0F3CA010E946825F4016281C616F0
:104FE00008F4D4CD85E0B7014B2D0E946A147C01F2
:104FF000009781F0DC011196ED91FC911297A2824D
:1050000069814A8193010E9421218C01C7010E947C
:105010008F1302C000E010E0C8012E960FB6F8947E
:10502000DEBF0FBECDBFCF91DF911F910F91FF90DB
:10503000EF90DF90CF90BF90AF909F908F907F9038
:105040006F905F904F903F902F900895FF920F9335
:105050001F93CF93DF93EC01009731F189819A81FF
:105060000097F9F0FF2414C00F2D10E0000F111F5E
:10507000800F911FFC0180819181009741F00E9477
:105080006825E981FA81E00FF11F11821082F39403
:10509000288189819A81F21638F30E94565B1A8220
:1050A0001982CE010E94565BDF91CF911F910F9123
:1050B000FF900895AF92BF92CF92DF92EF92FF924E
:1050C0000F931F93CF93DF936C01A62E009709F4E3
:1050D00045C0662309F442C083E090E00E94BC5AB8
:1050E000E82EE7017E01F92EE7012097C9F1188229
:1050F0001A821982BB242FC06A2D6B19C6018B0D31
:10510000911D41E00E94D4228C01009721F4CE0130
:105110000E94262823C0FC018281982F9E5FB90E31
:1051200091819111B39487FDB39468816F5F688317
:1051300070E0660F771F89819A810E94EF5B9C0166
:105140009A838983E881F0E03197EE0FFF1FE20F29
:10515000F31F11830083BA1478F202C0EE24FF24F7
:10516000C701DF91CF911F910F91FF90EF90DF90DA
:10517000CF90BF90AF900895FC010097F1F06623A7
:10518000E1F06430D0F080818037B9F4418141385A
:1051900019F4428153E001C052E0862F90E001975C
:1051A000242F30E02817390744F4CF01850F911DD3
:1051B000642F0E945A289C0102C020E030E0C901FF
:1051C0000895BF92CF92DF92EF92FF920F931F93B9
:1051D000CF93DF93EC01CB01209709F44BC0642FF0
:1051E0000E94BC288C01009709F444C0BB2439C03C
:1051F0008B2D90E0880F991FD8011196ED91FC91AD
:105200001297E80FF91FE080F180F7018381948104
:1052100062810E945A286C01009749F0D7018C9155
:10522000813629F411968C911197882321F0C801B9
:105230000E9426281FC068816F5F688370E0660F38
:10524000771F89819A810E94EF5B9A838983E88125
:10525000F0E03197EE0FFF1FE80FF91FD182C082F7
:10526000B394F8018081B81618F2C8010E9426286C
:1052700080E001C081E0DF91CF911F910F91FF90FD
:10528000EF90DF90CF90BF9008952F923F924F9272
:105290005F926F927F928F929F92AF92BF92CF92C6
:1052A000DF92EF92FF920F931F93DF93CF9300D083
:1052B00000D000D0CDB7DEB789836A831A017901A7
:1052C0001C830B834115510509F416C1DA011396AD
:1052D0008D919C911497009709F40EC183E090E0A2
:1052E0000E94BC5A6C013C01FC01108212821182A6
:1052F000E114F10431F0D7011C9212961C921E9217
:10530000119782E060E070E040E00E946A145C0166
:10531000009711F04424E7C0C6010E94565BECC020
:10532000842D90E0880F991FD1011396ED91FC9187
:105330001497E80FF91F008111810115110509F477
:10534000D1C0F8015180C9C0D5011196ED91FC91F1
:10535000129752821196ED91FC911297D8018C917F
:1053600084608383C50169814A812B813C810E94CD
:1053700021219E838D83009709F4A4C0DC0111963E
:10538000ED91FC9112978081803909F0D1C0818123
:10539000882309F0CDC0AD81BE811396ED91FC91BB
:1053A0001497309719F04C91423028F48D819E81EA
:1053B0000E94CD1591C0E114F10409F46FC0D80129
:1053C00013962C91139730E0852D90E011965C9107
:1053D0001197851B9109821793070CF05FC08C9180
:1053E000813508F1F7019080940E81819281692DB9
:1053F00070E00E94EF5B9C01D70112969C938E9304
:105400001197009709F448C08C91280F311DED8148
:10541000FE81408163817481C90150E00E94EE5C8D
:10542000D7019C923BC08181813819F0E2E09E2E29
:1054300002C073E0972ED7016C91640F6919119621
:105440008D919C91129770E00E94EF5B9C01F70197
:1054500092838183009701F18081A901480F511D3A
:10546000AD81BE81EC91F0E0892D90E0E81BF90B55
:1054700013962D913C911497280F391FCA01B90139
:10548000AF010E94EE5CED81FE818081D7019C918D
:10549000890F89198C9302C0F7011082AD81BE81FA
:1054A00013968D919C9114976C910E94BC284C018D
:1054B0008D819E810E94CD15C601B4010E942C24CD
:1054C000882339F0C6010E942628C5010E948F1347
:1054D00013C0C4010E9426285394F80182818515C7
:1054E00008F032CF4394D1018C91481608F418CFBC
:1054F000C5010E948F1302C066247724C30126963B
:105500000FB6F894DEBF0FBECDBFCF91DF911F91D4
:105510000F91FF90EF90DF90CF90BF90AF909F9052
:105520008F907F906F905F904F903F902F90089555
:105530008D819E810E94CD15C5CFFF920F931F9341
:10554000CF93DF93EC0189819A810097F9F0FF24D2
:1055500014C00F2D10E0000F111F800F911FFC01D0
:1055600080819181009741F00E942628E981FA818B
:10557000E00FF11F11821082F394288189819A81B2
:10558000F21638F30E94565B1A821982CE010E94ED
:10559000565BDF91CF911F910F91FF900895CF93AC
:1055A000DF93EC018B819C81009721F00E942628DB
:1055B0001C821B8289819A81009721F00E94565B90
:1055C0001A821982CE010E94565BDF91CF91089515
:1055D0008F929F92AF92BF92CF92DF92EF92FF9203
:1055E0000F931F93CF93DF938C01009709F482C030
:1055F000662309F47FC0643008F47CC0FC0180811C
:105600008F3609F077C08181813819F4828143E0B7
:1056100001C042E0A62EBB2495012150304090E00D
:10562000821793070CF066C0F801E40FF11D80812A
:10563000843809F05FC0C42EC394F801EC0DF11D4D
:10564000D080C394FD2DF13829F4F801EC0DF11D43
:10565000D080C3948D2C9924C50103978816990690
:105660000CF048C085E090E00E94BC5A7C01EC013F
:10567000009709F441C08D2D90E00E94BC5A9A8396
:105680008983009721F4C7010E94565B33C09801BB
:105690002C0D311DB9014D2D50E00E94EE5CD882D9
:1056A000DC0CF801ED0DF11D8081853A11F0C70188
:1056B0001FC0D394F801ED0DF11D6081D3946138C2
:1056C00029F4F801ED0DF11D6081D394862F90E04F
:1056D000A818B908A816B90654F0C8018D0D911D77
:1056E0000E945A28F70194838383009729F4C70105
:1056F0000E94CF2AC0E0D0E0CE01DF91CF911F9170
:105700000F91FF90EF90DF90CF90BF90AF909F9060
:105710008F9008952F923F925F926F927F928F9217
:105720009F92AF92BF92CF92DF92EF92FF920F9330
:105730001F93DF93CF930F92CDB7DEB7882E562EEF
:10574000C42E922E580183E090E00E94BC5A8C0136
:10575000009709F423C1DC011C9212961C921E9240
:10576000119782E060E070E040E00E946A147C01E2
:10577000009709F413C1DC011196ED91FC91129789
:1057800012821196ED91FC9112978C2D880F880F43
:10579000880F84608383D7011196ED91FC91129755
:1057A00082818F5F8283C701682D452D95010E94FC
:1057B00021216C01009709F40DC1FC016381748102
:1057C0006115710551F0C80140810E94E1288823CC
:1057D00009F000C16624639401C06624C6010E94DA
:1057E000CD156620C1F6C7010E948F13D8018C9198
:1057F000882309F4D3C0992009F08FC06CE3662E8A
:1058000062E0762E50E4252E52E0352E01C0992418
:10581000892D90E09C01220F331FD8011196ED9144
:10582000FC911297E20FF31F0190F081E02D0180AF
:10583000F281E02DC080D18000D000D000D0EDB743
:10584000FEB731962091FB113091FC11ADB7BEB778
:1058500012963C932E9311977382628201969583E0
:1058600084830E942A5DEDB7FEB736960FB6F89492
:10587000FEBF0FBEEDBFEE24FF242DC000D000D030
:1058800000D02DB73EB72F5F3F4F8091FB11909115
:10589000FC11ADB7BEB712969C938E931197F90188
:1058A00033822282F601A381B481AE0DBF1D8C919B
:1058B000D90114968C93149715961C920E942A5D18
:1058C0000894E11CF11CEDB7FEB736960FB6F894BC
:1058D000FEBF0FBEEDBFD60112968C911297E8164F
:1058E00020F4B7E0EB16F10449F680ED97E0E0E92B
:1058F000F1E03197F1F70197D1F70E948D1D89836F
:1059000089818823D1F3898182FF08C09394F801AB
:105910008081981609F07CCF7ACF9924892D90E068
:10592000880F991FD8011196ED91FC911297E80FFD
:10593000F91F0190F081E02D0180F281E02D0190AE
:10594000F081E02D6381748180E042810E946A14BD
:105950007C01009719F1682D452D95010E942121A8
:105960006C01C7010E948F13C114D104B9F0F60174
:1059700083819481009761F00180F281E02D208184
:10598000203931F4D6016C910E94E82A7C0102C0D2
:10599000EE24FF24C6010E94CD1502C0EE24FF2490
:1059A0000115110519F0C8010E949D2AC7010F9029
:1059B000CF91DF911F910F91FF90EF90DF90CF90EB
:1059C000BF90AF909F908F907F906F905F903F902F
:1059D0002F900895C7010E948F13EE24FF24E3CF78
:1059E0009F92AF92BF92CF92DF92EF92FF920F936E
:1059F0001F93DF93CF930F92CDB7DEB7A82EB62EAD
:105A0000FA0169011982309709F46CC080818730EE
:105A100009F068C06181728180E047E00E946A14E9
:105A20007C01009709F464C06A2D4B2D96010E94F9
:105A300021218C01009711F1C7010E948F13D80119
:105A40001196ED91FC9112978081803931F13FC020
:105A50006981699DB00111246B5B7D4F80E047E057
:105A60000E946A147C01009709F442C06A2D4B2DF4
:105A700096010E9421218C01009721F4C7010E9408
:105A80008F1336C0C7010E948F13D8011196ED9174
:105A9000FC9112978081803979F481818823B9F44F
:105AA00013968D919C9114976C910E94E82A7C0129
:105AB000C8010E94CD151EC08A3621F4818182382A
:105AC00031F409C0823619F48181833821F0C8018C
:105AD0000E94CD150DC0C8010E94CD1589818F5F30
